:020000040800F2
:1000000028280020E94E0008F14E0008F34E0008B1
:10001000F54E0008F74E0008F94E000800000000F9
:10002000000000000000000000000000FB4E00087F
:10003000FD4E00080000000001010008994500087D
:10004000034F0008034F0008034F0008034F000848
:10005000034F0008034F0008034F0008034F000838
:10006000034F0008034F0008034F0008034F000828
:10007000394B0008034F0008034F0008034F0008E6
:10008000034F0008034F0008034F0008034F000808
:10009000034F0008034F0008034F0008034F0008F8
:1000A000034F0008034F0008034F0008034F0008E8
:1000B000034F0008034F0008034F0008034F0008D8
:1000C000034F0008034F0008034F0008034F0008C8
:1000D000034F0008194800085D490008C54A000898
:1000E000034F0008034F0008034F0008DFF80CD04F
:1000F00008F034F800480047DF01000828280020F5
:1001000072B6EFF309800A4A0A4B20B1203880E822
:10011000F00F1168086018681060006890E8F00F30
:10012000203080F309884EF0040E62B6704700BF9D
:10013000CC000020D000002080F309887047000028
:10014000314832490860F8303149086031482E4959
:1001500008601420486041F2707088606320C860B5
:1001600065200861192048610120886141F27070A2
:10017000C8613220086228484862284888624006E0
:10018000C8620120086340F2DD711F48C187042165
:1001900080F83D101A2180F83B10112180F83A10A8
:1001A0002E2180F839102820174981F838000020C6
:1001B00008640E204864092088640B20C86418482D
:1001C000006808651648001D006848651448083036
:1001D0000068886500210C48C0F89811704710B578
:1001E000FFF7AEFF0F49086880470E48416F0E4881
:1001F00088470C48816F0D4888470A49C86F804777
:1002000062B6002010BD000014020020180000207B
:100210001C00002000350C0020F40E00A086010018
:10022000E8F7FF1F200000205F040008E910000825
:10023000AF48D0F8981100F5C270814204D16438FB
:10024000AB49C1F8980106E0A948D0F898011430EC
:10025000A749C1F89801704710B5A548D0F8980192
:10026000006900B910BDA24AD2F89821126910693C
:10027000A04A116E884700BFF4E710B59C48D0F83B
:100280009801C46804E09B4A2069116E8847A469FC
:10029000002CF8D110BD00219548D0F898010161DB
:1002A00095489349C1F8980170470146904AD2F8A1
:1002B0009821126910698E4A904200D000BF7047A1
:1002C00070B50446302C13D007DC082C1AD2DFE8B6
:1002D00004F00E1A505E104256A3A4F13100072814
:1002E000F4D2DFE800F01B49580741519D0000BFE0
:1002F00000BF00BF7F48D0F8A010204688472046A6
:10030000FFF7D3FF8FE07D4801780078401C7B4DDC
:1003100028707848C26E7AA0904784E00021744823
:10032000806F017001217248C06F01700021704818
:10033000D0F88000017001216D48D0F88400017070
:1003400000216B48D0F88800017001216848D0F87E
:100350008C00017067E06748816E4FF0FF3088477E
:10036000054607F039FF5EE06248C169032088470F
:1003700059E0FFF771FF56E0FFF77FFF53E05D495B
:10038000D1F89C0080474EE0FFF752FF4BE0012080
:100390005749886147E057485D4B4FF47A72012115
:1003A000456D0020A8475348594B4FF4FA6201218C
:1003B000456D0846A8474F48554B40F6B8320121D5
:1003C000456D0220A8474B48514B4FF47A620121FA
:1003D000456D0320A84747484D4B41F28832012123
:1003E000456D0420A8474348494B41F270720121F2
:1003F000456D0520A8473F48454B41F6583201213D
:10040000456D0620A8473B48414B41F65832012133
:10041000456D0720A84706E000203549886100BFE8
:10042000FFF739FF00BF00BF70BD704710B53148FE
:100430002F490C314268002090472E482C4910313A
:100440004268012090472B48294914314268042012
:10045000904728482F49026F0220904710BDFFF7B0
:10046000E5FF254828382249C1F898012148D0F8ED
:1004700088104FF4FA6088471F4814381C49C1F8A7
:100480009801002410E01B48D0F8881064208847A9
:10049000052094FBF0F100FB1140C1B21448D0F8E4
:1004A0001001401C0155641C102CECDB1248104953
:1004B000C1F898010F48816A0120884717E00D496B
:1004C000D1F884008047054625F07F46280E012894
:1004D00002D0022809D103E0F0B2FFF7F1FE05E0F7
:1004E0000D4909687018804700E000BF00BFE6E7CB
:1004F000140200202000002034030020000000200F
:100500004C6F672054657374203D2025640A0000F9
:10051000310200082B0400081000002010B5FE482E
:10052000D0F89810FD488847FD48FC49F839C1F8D3
:10053000F80010BD10B5F848D0F89810F7481430FE
:1005400088472A20F7490870002404E00021F54874
:10055000401C0155641C102CF8DBF249EF48F838B8
:10056000C0F8101110BD10B5EB48D0F89810EB484A
:1005700028308847EC49E948F838C0F82011E648A7
:10058000EA49D0F89420E54828309047E348F83805
:10059000E649086103208870E548C861E5480862BB
:1005A00042F2107088624FF47A7048620D20087031
:1005B00000204870D848E049D0F89420D748283027
:1005C0009047D648F438DC490861032088706420DD
:1005D000C861002008620A20886201204862062063
:1005E000087001204870CC48D449D0F89020CB48FE
:1005F00028309047C948F038D049086103208870F6
:100600000E20087001204870C348CD49D0F89020D2
:10061000C24828309047C148EC38C94908610320D6
:1006200088700720087002204870BB48C549D0F880
:100630009020BA4828309047B848E838C149086146
:10064000032088700F20087002204870B248BE490D
:10065000D0F89020B14828309047B048E438BA49E3
:100660000861032088700620087003204870AA489B
:10067000B649D0F89020A94828309047A748E038DC
:10068000B2490861092088700120C870B0484861EB
:100690000F2008700320487010BD10B59E48D0F898
:1006A00098109E483C308847AA499C48F838C0F8C2
:1006B00034119948A849D0F8942098483C30904784
:1006C0009648DC38A44908610320887041F64C50F4
:1006D000C8614FF47A600862C010886248620720DF
:1006E0000870002048708C489C49D0F894208B48B2
:1006F0003C3090478948D838984908610320887071
:100700003C20C861282008620120886248620E20CF
:1007100008700020487080489149D0F894207F48A4
:100720003C3090477D48D4388D490861032088705B
:100730007F48C8618B4808628B48886248628B4852
:10074000C860062008700120487073488849D0F8B6
:10075000942072483C3090477048D03884490861F2
:10076000032088708048C8614010086242F210700F
:10077000886248627D48C8600E2008700120487079
:1007800065487C49D0F8942064483C3090476348E1
:10079000CC38784908610520887001208880764827
:1007A000C8614FF07E5008624FF07C5088627348F9
:1007B0004862072008700220487057487049D0F8F6
:1007C000902056483C3090475448C8386C490861DE
:1007D000092088700020C8706A48486108200870A5
:1007E0000220487010BD10B54B48D0F898104B4807
:1007F0005030884764494948F838C0F8481146489D
:100800006249D0F894204548503090474348B83862
:100810005E4908610420887042F21070C8610120AE
:10082000086264208862012048620F20087000205E
:10083000487039485649D0F894203848503090478D
:100840003648B43852490861032088706320C86173
:100850000E2008620A208862012048620920087080
:10086000012048702C484B49D0F894202B48503038
:1008700090472A48B03847490861032088700C2007
:10088000C861012008620A208862012048620C20A9
:1008900008700120487020483F49D0F894201F4834
:1008A000503090471D48AC383B49086103208870A0
:1008B0001F20C861012008620A2088620120486266
:1008C0000F2008700120487013483449D0F8902058
:1008D0001248503090471148A83830490861072025
:1008E0008870087002204870082088800A482C49C7
:1008F000D0F890200948503090470848A43828493B
:100900000861072088700F200870022048700820B6
:1009100088800148234947E0200000200C03002084
:10092000748E0008B0030020308E0008C40300203D
:1009300020F40E00C0270900F00300201C04002052
:100940003804002054040020700400208C0400208F
:10095000008B0008A88D0008A8040020D404002003
:100960000005002020A10700A08601006F12833A35
:100970002C050020580500200000A040CDCCCC3D27
:1009800084050020088B0008648D0008A005002065
:10099000CC050020F8050020240600205006002089
:1009A0006C06002088060020D0F89020F848904778
:1009B000F748F038F749086107208870087003206D
:1009C00048700820888010BD10B5F348D0F8981002
:1009D000EF4814308847F149F148C0F85C11EE48FF
:1009E000F049D0F89420EA4814309047EC483E3063
:1009F000EC4908610220887040F63400C8614FF469
:100A0000FA6008620A2088620120486205200870A6
:100A100002204870E048E449D0F89420DC481430C3
:100A20009047DF483D30E0490861002088700C2085
:100A3000C861012008620220886201204862092002
:100A4000087002204870D448D849D0F89420D04883
:100A500014309047D2483B30D44908610020887058
:100A60001F20C861002008620120886248620D20B2
:100A7000087002204870C848CD49D0F89420C44876
:100A800014309047C6483C30C94908610920887035
:100A90000020C870C74848610620C861002008626D
:100AA0000120886248620420087003204870BA4818
:100AB000C149D0F89420B64814309047B8483A302D
:100AC000BD490861002088703B20C8610020086291
:100AD0000120886248620920087003204870AE48EF
:100AE000B649D0F89420AA4814309047AC48393021
:100AF000B2490861002088703B20C861002008626C
:100B00000120886248620C20087003204870A248C7
:100B1000AB49D0F894209E4814309047A048383014
:100B2000A7490861002088703B20C8610020086246
:100B30000120886248620F2008700320487010BDB1
:100B400010B59548D0F898109148283088479D49AD
:100B50009348C0F8701190489B49D0F890208C4879
:100B6000283090478E48006E9749086100208870B1
:100B7000022008700020487087489449D0F89020DF
:100B80008348283090478648406E9049086100208D
:100B9000887003200870002048707F488C49D0F886
:100BA00090207B48283090477D48806E88490861B6
:100BB000002088700420087000204870764885491D
:100BC000D0F890207248283090477548C06E81490F
:100BD00008610020887005200870002048706E4869
:100BE0007D49D0F894206A48283090476C4870308E
:100BF00079490861002088700A2008700020487038
:100C00000120C861002008620120886248626248B1
:100C10007249D0F894205E4828309047604871307F
:100C20006E490861002088700B2008700020487011
:100C30000120C8610020086201208862486256488D
:100C40006749D0F894205248283090475448723071
:100C500063490861002088700C20087000204870EB
:100C60000120C861002008620120886248624A4869
:100C70005C49D0F894204648283090474848733063
:100C800058490861002088700D20087000204870C5
:100C90000120C861002008620120886248623E4845
:100CA0005149D0F894203A48283090473C48743055
:100CB0004D490861002088700E200870002048709F
:100CC0000120C86100200862012088624862324821
:100CD0004649D0F894202E48283090473048753047
:100CE00042490861002088700F2008700020487079
:100CF0000120C861002008620120886248622648FD
:100D00003B49D0F890202248283090472448D0F81A
:100D10009800374908610220887006200870012079
:100D200048701D483349D0F8902019482830904722
:100D30001B48D0F89C002F490861022088700F20C2
:100D400008700120487014482B49D0F890201048B2
:100D5000283090471248D0F8A000274908610220A7
:100D6000887006200870022048700B482349D0F88C
:100D700090200748283090470948D0F8A4001F4920
:100D80000861022088700F2008700220487010BD92
:100D90005C0300208806002020000020B88E000898
:100DA00014020020A4060020D006002028070020FE
:100DB000FC0600201C8B0008540700208007002040
:100DC000AC070020EC8D0008D8070020F4070020B5
:100DD000100800202C08002048080020740800207B
:100DE000A0080020CC080020F808002024090020DA
:100DF000500900206C09002088090020A409002067
:100E000010B5C748D0F89810C6488847C649C748A3
:100E1000C0F88411C248C649D0F89020C148904714
:100E2000C248A830C24908610020887002200870BA
:100E300000204870BA48BF49D0F89020B948904780
:100E4000BA48A930BB4908610020887003200870A7
:100E500000204870B248B849D0F89020B148904777
:100E6000B248AA30B4490861002088700420087094
:100E700000204870AA48B149D0F89020A94890476E
:100E8000AA48AB30AD490861002088700520087081
:100E900000204870A248AA49D0F89420A148904761
:100EA000A248BC30A6490861002088700A2008705A
:100EB000002048700120C86100200862012088627B
:100EC000486297489F49D0F89420964890479748A1
:100ED000BD309C490861002088700B2008700020FC
:100EE00048700120C86100200862012088624862C1
:100EF0008B489549D0F894208A4890478B48BE305B
:100F000091490861002088700C200870002048700A
:100F10000120C86100200862012088624862804880
:100F20008A49D0F894207F4890478048BF3087494D
:100F30000861002088700D20087000204870012092
:100F4000C8610020086201208862486274488049B4
:100F5000D0F89420734890477448C0307C490861A9
:100F6000002088700E200870002048700120C861A1
:100F70000020086201208862486269487549D0F8FB
:100F80009420684890476948C13072490861002040
:100F900088700F200870002048700120C861002070
:100FA00008620120886248625D486B49D0F8902051
:100FB0005C4890475B48A838674908610220887000
:100FC000062008700120487055486449D0F89020E8
:100FD000544890475348A6386049086102208870F9
:100FE0000F200870012048704D485D49D0F89020CE
:100FF0004C4890474B48A4385949086102208870F2
:10100000062008700220487045485649D0F89020C4
:10101000444890474348A2385249086102208870EA
:101020000F200870022048703D484F49D0F89420A6
:101030003C4890473B488E384B49086106208870F1
:101040000320087048704FF6FF70C86100200862E6
:10105000102088620120486204208880304843497B
:10106000D0F894202F4890472E4890383F49086187
:101070000620887007200870032048704FF6FF7024
:10108000C8610020086210208862012048620420A4
:10109000888023483649D0F8942022489047214838
:1010A000903833490861032088700F2008700320AE
:1010B00048703048C861002008620A208862012018
:1010C000486210BD10B5FFF729FAFFF733FAFFF7B2
:1010D0004AFAFFF7E2FAFFF786FBFFF775FCFFF726
:1010E0002FFDFFF78DFE10BDFFF7ECFF0F48406BA3
:1010F00064302149086011E00C48406B1E490968C2
:1011000088420BD30948406B64301B490860074A8A
:10111000D2F89801024AD2F88C108847ECE7000018
:101120002000002098030020EC8D0008140200200D
:10113000C0090020DC090020F8090020140A002062
:10114000300A00205C0A0020880A0020B40A00202F
:10115000E00A00200C0B0020380B0020540B00206C
:10116000700B00208C0B0020A80B0020D40B00205B
:10117000000C00203F420F0004000020704700BF19
:101180000100A0F10100FBD1704700B5034602E069
:101190000820FFF7F4FF1800A3F10103F8D100BD08
:1011A00000B5034603E04FF4FA50FFF7E8FF1800DC
:1011B000A3F10103F7D100BD10B50446102C02DBEA
:1011C00014A007F009F8102C02DA1748005D10BDD2
:1011D0003020FCE770B505460C4644EA0564134828
:1011E000D0F880102046884770BD10B572B6104800
:1011F00000F07F400F4908600F4800F07F400E4923
:10120000086000F00EFE00F05CF901F07DFE00F0D9
:1012100060FE10BD0A4153534552543A2068657828
:10122000203C2031360A0000388B000820000020C6
:10123000EB110008100000201400002002464FF0BF
:1012400080700860081F014602606FF00103081FEC
:10125000014603604FF01233081F014603604FF050
:101260000333081F014603604FF00233081F014695
:1012700003605B10081F014603600023081F01463E
:1012800003604FF01133081F014603604FF0103325
:10129000081F014603604FF00933081F0146036031
:1012A0004FF00833081F014603604FF00733081F53
:1012B000014603604FF00633081F014603604FF0FC
:1012C0000533081F014603604FF00433081F014631
:1012D00003600846704701600022426082607047E8
:1012E00070B5044688492046FFF7A8FF0546294601
:1012F0008648FFF7F0FF70BD70B50446844920466C
:10130000FFF79CFF054629468248FFF7E4FF70BDC2
:1013100081490968884205D0804908604FF08051B2
:101320007F4A1160704710B57848806850B177489F
:101330008068401E754988600846806810B9084674
:10134000FFF7E6FF10BD77487749026F012090470D
:101350006E487149086008460068704908604FF09F
:1013600080506F49086062B600BFFEE710B50446C2
:1013700072B66E480088401C6C4908806648006858
:101380006449884214D16148406888B900205F49A7
:1013900088600846446065480088401E80B2634902
:1013A000088000B962B65948FFF7B2FF012010BDAE
:1013B0005F48008A282809DB5C480088401E80B20C
:1013C0005A49088000B962B60020F0E75848008A00
:1013D000401C5749088208468068046008468068B7
:1013E000001D8860084680684968884203D95048D3
:1013F00000684F4988604D480088401E80B24B49C4
:10140000088000B962B60120D1E710B572B647482E
:101410000088401C454908803C48406800B137E0DE
:101420004348008A00281EDD4148C06804684048DF
:10143000C068001D3E49C8600846008A401E0882F8
:101440000846C0684968884203D939480068384965
:10145000C86036480088401E80B23449088000B910
:1014600062B6204610BD0020284988602F480088B9
:10147000401E80B22D49088000B962B62548FFF7AA
:1014800047FF72B629480088401C2849088000BFE1
:101490001E48446800201D49486024480088401EBA
:1014A00080B22249088000B962B62046DAE710B55A
:1014B0000446002C04DD154884601648FFF728FF19
:1014C00010BD10B51B481A4908609C30486008469A
:1014D0000068886008460068C86000200882FEF73F
:1014E0002BFE15480F49486714490E488167144977
:1014F000C1671449C0F884101349C0F8801013491B
:10150000C0F8881010BD00002413002068190020C6
:101510006419002074190020CC000020D0000020A5
:1015200004ED00E020000020271300080C0000203C
:10153000300C0020440C0020E1120008F9120008D1
:10154000471300080B1400086D130008AF140008BF
:101550002DE9F04F95B0044625786778A0780A28E1
:101560002CD2DFE800F0052C547BB1E7FEFDFCFB3C
:10157000206900781390139806F0E8FB0790A168A3
:1015800006F08BF90890E16806F0DFF9099006F0A3
:1015900000FC83465A46F9A10AA806F02DFEC6B201
:1015A00007E00AA8805DF64901EB07114855681E5F
:1015B000C5B23000A6F10101CEB2F2D1C9E1206975
:1015C000B0F900001290129806F0B7FB0790A168DE
:1015D00006F063F90890E16806F0B7F9099006F0A3
:1015E000D8FB83465A46E5A10AA806F005FEC6B216
:1015F00007E00AA8805DE24901EB07114855681E23
:10160000C5B23000A6F10101CEB2F2D1A1E120694C
:10161000B0F800A0504606F099FB0790A16806F0CC
:101620003CF90890E16806F090F9099006F0B1FBEA
:1016300083465A46D1A10AA806F0DEFDC6B207E0ED
:101640000AA8805DCE4901EB07114855681EC5B256
:101650003000A6F10101CEB2F2D17AE12069D0F8D2
:1016600000B0E06806F0FAFBCDE90601A06806F0DC
:10167000F5FBCDE90201584606F06DFBCDE900010E
:10168000DDE9022306F0D1F9CDE90401DDE9062305
:1016900006F072FACDE9080106F0A8FB83465A4627
:1016A000B6A10AA806F0A8FDC6B207E00AA8805DA8
:1016B000B34901EB07114855681EC5B23000A6F1C9
:1016C0000101CEB2F2D144E12069D0F80080E06897
:1016D00006F0C4FBCDE90601A06806F0BFFBCDE92A
:1016E0000201404606F048FBCDE90001DDE9022396
:1016F00006F09BF9CDE90401DDE9062306F03CFA8A
:10170000CDE9080106F091FB804642469DA10AA85A
:1017100006F072FDC6B207E00AA8805D984901EBA9
:1017200007114855681EC5B23000A6F10101CEB2BE
:10173000F2D10EE1206900681190A168119806F0BD
:10174000ACF80990E16806F000F911902679D6B15D
:101750008DA103C9CDE90F01304603E0D8E0B9E01F
:101760006AE029E0FFF728FD8DF83E00119806F0A9
:1017700075FB02460B46CDE908010FA90AA806F041
:101780003BFDC6B209E0119806F003FB02467BA1BF
:1017900009900AA806F030FDC6B207E00AA8805DED
:1017A000774901EB07114855681EC5B23000A6F114
:1017B0000101CEB2F2D1CCE02069B0F800A05046D1
:1017C00006F0C4FA0790A16806F067F80890E1688F
:1017D00006F0BBF8099006F0F5FA1FFA80FA2679B0
:1017E0009EB10CE00AF00F00FFF7E6FC644901EB44
:1017F000071148554FEA2A1A0DB1681EC5B23000CC
:10180000A6F10101CEB2EDD115E030205C4901EB2B
:10181000071148550CE008F00F00FFF7CDFC5849C0
:1018200001EB071148554FEA2A1A0DB1681EC5B2DF
:10183000BAF1000FEFD18CE02069D0F80080E068A9
:1018400006F00CFBCDE90601A06806F007FBCDE928
:101850000201404606F090FACDE90001DDE90223DD
:1018600006F0E3F8CDE90401DDE9062306F084F98A
:10187000CDE9080106F0D9FA804626799EB10CE040
:1018800008F00F00FFF798FC3D4901EB07114855A0
:101890004FEA18180DB1681EC5B23000A6F101015B
:1018A000CEB2EDD115E03020354901EB0711485596
:1018B0000CE008F00F00FFF77FFC314901EB071146
:1018C00048554FEA18180DB1681EC5B2B8F1000F9F
:1018D000EFD13EE02069D0F80090484605F0D6FFF1
:1018E000C6B2E078012802D1681C801BC5B209E0AD
:1018F00019F8010B224901EB071148550F2D01DAA8
:10190000681CC5B23000A6F10101CEB2F0D120E0D2
:10191000206990F80080606950F82890484605F0EA
:10192000B5FFC6B2E078012802D1681C801BC5B2A1
:1019300009E019F8010B124901EB071148550F2D69
:1019400001DA681CC5B23000A6F10101CEB2F0D1B7
:1019500000BF00BF15B0BDE8F08F10B50C4800689F
:1019600004682CB920224021054805F07DFF04E0E1
:1019700040222146024805F065FF10BD25640000A5
:10198000C019002025750000252E6E66000000009D
:10199000D40000202DE9F041FE48006847680FB9E7
:1019A000BDE8F08197F8008000241DE0002517E0D5
:1019B000781C465D052E02DBF7A006F00DFCC4F195
:1019C0000400B04205DCFA4800EB041000F8058082
:1019D00004E02020F64901EB04114855681CC5B20B
:1019E000102DE5DB601CC4B2042CDFDB00BFD7E7A1
:1019F00010B5E8480068846803E02046FFF7A8FDBA
:101A0000A469002CF9D110BD10B5E2480068C46883
:101A100019E0E04800680069A0420FD1E54800786D
:101A2000401CC0B2E3490870082801D100200870AA
:101A3000E0480078042801DAA46904E02046FFF7B2
:101A400087FDA46900BF002CE3D110BD70B5DA4C4E
:101A500000250DE0207848B1A178D54B03EB0111AA
:101A60006378C818E278211D05F0ECFE14346D1C73
:101A7000082DEFDB70BD70B5002423E000260025A3
:101A800014E0CE4800EB0410405DC94901EB04119D
:101A9000495D884208D0C64800EB0410405DC74944
:101AA00001EB041148550126681CC5B2102DE8DB76
:101AB00036B1C24800EB0411C148026B2046904782
:101AC000601CC4B2042CD9DB70BD10B50446B1480B
:101AD0000460FFF742FFFFF75DFFFFF789FFFFF7A5
:101AE00093FFFFF7B3FFFFF7C6FF10BD00210160B2
:101AF00041608160C1600161704700220A618A8093
:101B00008A604FF07E52CA6000224A610122CA7088
:101B100082688A618160704700230B61CB610B6230
:101B20004B628B628B808B604FF07E53CB600023C7
:101B30004B610123CB7000238B61C3680BB9C1607B
:101B40007047C26800E092699369002BFBD19161F4
:101B500000BFF5E70FB4F8B504460D4616460AA8CF
:101B6000009004EB8401944A02EB8101081D009A65
:101B7000099906F055FB07460020009017B9F8BCFC
:101B80005DF814FB082C00DBF9E704EB84018A4ABA
:101B900002EB81014D7004EB840102EB81018E7038
:101BA00004EB840102EB8101CF70012004EB84017E
:101BB00002F8210000BFE2E7002100EB80027E4B2B
:101BC00003F82210704773480068006930B9714803
:101BD0000068C0686F490968086170476D4800680F
:101BE000006980696B490968086100BFF5E72DE964
:101BF000F14F8AB067480068046914B90BB0BDE8BA
:101C0000F08F276994F80280B8F10A0F7CD2DFE8E0
:101C100008F04805561566AC57677B472069B0F950
:101C20000060A08B00B20990208C00B20890A08CBC
:101C300000B20790208D00B206900AE02069066885
:101C4000E0690990206A0890606A0790A06A06908F
:101C500000BF0A9830B104280AD0302805D03428B3
:101C60000CD108E00798064408E00698064405E011
:101C70000798361A02E00698361A00BF00BF099886
:101C8000864201DD099E03E00898864200DA089E3C
:101C9000B8F1030F01D13E6001E030B23880BDE001
:101CA00000BF54F8100F057894F80CB0207C059014
:101CB00094F81490207E103C00F0FF0A1BE000BF57
:101CC00020690588A08B1FFA80FB208C80B20590CC
:101CD000A08C1FFA80F9208D1FFA80FA0BE000BF5C
:101CE00020690568D4F81CB0206A0590D4F82490C7
:101CF000D4F828A000BF0A9838B1042809D03028A9
:101D000005D0342813D10BE087E04D440FE0554453
:101D10000DE04D4501D2002501E0A5EB090506E0E7
:101D2000554501D2002501E0A5EB0A0500BF00BF23
:101D30005D4501D95D4603E00598854200D2059DC9
:101D4000B8F10A0F0FD2DFE808F0060E080E0B0EEE
:101D5000090C0E0500BF3D7005E000BF3D8002E0AC
:101D600000BF3D6000BF00BF58E0206900680490DC
:101D7000E0690390206A0290606A0190A06A009076
:101D80000A9830B1042829D0302821D0342831D104
:101D90002AE017E0D40000200A4153534552543A38
:101DA00020636F6C756D6E203C20350A00000000CA
:101DB000C0190020D8000020001A0020801900203F
:101DC000200000200199049805F067FD049011E0BF
:101DD0000099049805F061FD04900BE001990498C6
:101DE00005F0ADFD049005E00099049805F0A7FD0D
:101DF000049000BF00BFDDE9031006F069F802D2CD
:101E00000398049006E00299049806F057F801D26E
:101E1000029804900498386000E000BF00BF00BF43
:101E2000ECE6002006E02021114A1154114A115419
:101E3000411CC8B24028F6DB0F49104AC2F88C108A
:101E40000F4A0E49C1F890200E4AC1F894200E4A5C
:101E5000C1F898200D4AC1F89C200D4AC1F8A02075
:101E60000C4AC1F8A4200C4AC1F8A8207047000011
:101E7000C019002080190020CB1A00082000002083
:101E8000FB1A0008191B0008ED1A0008C71B000800
:101E9000EF1B0008551B0008B91B000878B5024667
:101EA0000B46FF24FF2509E012F8010B80EA04012C
:101EB0000B48405C80EA05040A48455C1800A3F121
:101EC0000103F1D18DF801408DF80050BDF80000FC
:101ED00078BD10B500F0DEFF00F08CFA10BD0000F8
:101EE000488B0008488C0008F8B506460C46214689
:101EF0003046FFF7D3FF009035199DF8010005F833
:101F0000010B9DF800002870A41CFE482146826C3D
:101F100030469047F8BD2DE9F8430746FA48007867
:101F2000FA490870F84840784870F74800798DF809
:101F30000100F54840798DF80000BDF8000000F080
:101F4000070030B1BDF80000012101EBE000C5B28F
:101F500003E0BDF80000C0F3C705EC488570C61C5F
:101F6000002402E000203055641CAC42FADB00245F
:101F700014E03819E64951F82000E6490968085C80
:101F800001280AD106EBE400007804F007020121E1
:101F90009140084306EBE4010870641CBDF80000A2
:101FA0008442E6DBD9488078C01C00F0FF08414637
:101FB000D648FFF799FFBDE8F8832DE9F8430746B7
:101FC000D1480078D1490870CF4840784870CE4851
:101FD00000798DF80100CC4840798DF80000BDF8FB
:101FE000000000F0070028B1BDF80000012101EB5E
:101FF000E00502E0BDF80000C510C4498D70CE1C9C
:10200000002402E000203055641CAC42FADB0024BE
:1020100014E03819C04951F82000BE490968085C2D
:1020200001280AD106EBE400007804F00702012140
:102030009140084306EBE4010870641CBDF8000001
:102040008442E6DBB148807800F103084146AF489E
:10205000FFF74AFFBDE8F8832DE9FC410546AA4891
:102060000078AA490870A84840784870A6480079C6
:102070008DF80500A44840798DF80400BDF80400EF
:102080004006000E8870CC1C002612E02846691C11
:102090008DB2A24951F820009E490968085A009063
:1020A0009DF8010004F8010B9DF8000004F8010BF5
:1020B000761CBDF804008642E8DB94488078C71C93
:1020C00039469248FFF710FFBDE8FC812DE9FC413D
:1020D00005468D4800788D4908708B4840784870D7
:1020E000894800798DF80500874840798DF804000B
:1020F000BDF804004006000E8870CC1C002612E0DB
:102100002846691C8DB2864951F82000814909682A
:10211000085A00909DF8010004F8010B9DF800009A
:1021200004F8010B761CBDF804008642E8DB774812
:102130008078C71C39467548FFF7D6FEBDE8FC819C
:1021400038B50446704800798DF801006E48407932
:102150008DF80000BDF80000B0F57F4F07D10120D9
:102160006B4951F824106B4A1268505406E0002065
:10217000674951F82410674A126850546148826CCC
:10218000684801886048904738BDF8B505465E4804
:1021900000798DF801005C4840798DF800005A4EB6
:1021A000F61D00240FE006EBE400007804F00701C0
:1021B000084100F001002919554A52F82110554AEA
:1021C00012685054641CBDF800008442EBDB4F4899
:1021D0004D490A6802608A88828089798171062166
:1021E000FFF782FEF8BD38B50446474800798DF800
:1021F0000100454840798DF80000BDF800004849CD
:1022000051F82410434A126850523E48826C4548A7
:1022100001883D48904738BD7CB506463A4800796C
:102220008DF80500384840798DF80400364CE41DDF
:10223000002513E014F8010B8DF8010014F8010BD0
:102240008DF80000BDF800203046711C8EB2344974
:1022500051F820002F4909680A526D1CBDF804008E
:102260008542E7DB294828490A680260898881801D
:102270000621FFF739FE7CBD00202A4908802A4943
:1022800008802A490870704726490988FF2902DD1D
:102290000021244A118023490A880988491C214BBE
:1022A00019801949885400211F4A118001211F4AB1
:1022B000117070471CB514480078012802D0FFF750
:1022C000DBFF1CBD17480088042802DCFFF7D4FFA1
:1022D000F7E714480088811E0B48FFF7DFFD04462E
:1022E00010480088801E0849085C8DF801000D48E0
:1022F0000088401E085C8DF80000BDF80000844294
:1023000019D015E020000020A01B0020A01A0020FA
:10231000DC00002018000020F40000200401002050
:1023200014010020260100202801002024010020A3
:10233000FFF7A2FFC5E7364880788DF805003448DE
:10234000C0788DF8040032484078052824D008DC95
:1023500001280DD0022810D0032818D004282FD12E
:1023600010E006281DD00F2820D0102828D122E008
:10237000BDF80400FFF7CFFD23E0BDF80400FFF730
:102380001CFE1EE0BDF80400FFF766FE19E0BDF874
:102390000400FFF79BFE14E0BDF80400FFF7D0FE39
:1023A0000FE0BDF80400FFF71EFF0AE0BDF80400CF
:1023B000FFF7EBFE05E0BDF80400FFF72DFF00E09E
:1023C00000BF00BFFFF758FF00BF7AE710B5114804
:1023D000007801280DD110480088401C0E49088063
:1023E00008460088022804DD00200A490870FFF72B
:1023F00061FF10BD10B5FFF73FFF08480849026FA5
:10240000002090470548416C0648884710BD0000F1
:10241000A01B002024010020280100202000002013
:10242000CD230008892200080420F84908800620EE
:102430004880042088800220C8800020F449088059
:10244000488008460088F3490880F1484088488061
:102450000120F1490870002048804870EF4800686A
:10246000A830486001F10C00886001200873012148
:10247000E948C18100214173E8480068A930E64974
:10248000086101F118004861012008760221E24844
:10249000418300214176E1480068AA30DE49C861E5
:1024A00001F124000862012081F824000321DA48A8
:1024B000C184002180F82510D8480068AB30D64987
:1024C00088620021D448C1620120D54908700020EB
:1024D00048804870D1480068BC30486001F10C0069
:1024E0008860012008730121CD48C1814173CB4828
:1024F0000068BD30CA49086101F118004861012037
:1025000008760221C648418301214176C34800680C
:10251000BE30C349C86101F124000862012081F87E
:1025200024000321BE48C184002180F82510BB4847
:102530000068BF30BA49886201F13000C8620120EA
:1025400081F830000421B6484186002180F831101E
:10255000B2480068C030B249486301F13C0088636A
:10256000012081F83C000521AD48C187002180F899
:102570003D10AA480068C130A94908640021A84854
:1025800041640120A7490870002088804880A34842
:102590000068DC30886001F11000C8600120087418
:1025A0000121A0488182002141829C480068DE30E0
:1025B0009C49886101F12000C861012081F8200058
:1025C0000221984881840021418494480068E030C9
:1025D0009449886201F13000C862012081F830001E
:1025E000032190488186002141868C480068E230B2
:1025F0008C49886300218B48C16301208A49087097
:10260000002088800120488084480068F430886079
:1026100001F11000C8600120087401218248818204
:1026200041827E480068F6307F49886100217E48FB
:10263000C16170471CB5012001907548408800EBCE
:102640004000754901EB8004207878490870022029
:102650004870E0788870A078C87005E0A468BDF87C
:102660000400401C80B20190A0680028F6D19DF8BB
:1026700005006E4908719DF80400487106216B48F9
:10268000FFF70CFC00909DF80100684988719DF8E7
:102690000000C87166480821026D644890475C4894
:1026A00000885C4908805A484088488058484088DB
:1026B000BDF80410084456494880084640885349EC
:1026C0000988884204DB01205149088000204880A5
:1026D0001CBD2DE9FC4100240026002001904C483F
:1026E000408800EB40004E4901EB800528784F49B7
:1026F0000870E8788870A878C87052E06868077831
:102700006878B84241D0012C00D14CE07CB9052456
:102710002FB1FF20454908710120887103E0002096
:1027200042490871887100204049487133E00F2404
:10273000AFB1BDF80400062101EBE0003B49085CA5
:10274000BDF8041001F00702012191400843BDF8D3
:102750000410062202EBE101344A50541BE0BDF89C
:102760000400062101EBE0003049085CBDF80410CC
:1027700001F00702012191408843BDF804100622B0
:1027800002EBE101294A505405E00CB1012C01D1C2
:10279000012400E007E0AD68BDF80400401C80B2F1
:1027A0000190002DAAD100BF20484470012C18D1FF
:1027B0009DF805001D4908719DF804004871062127
:1027C0001A48FFF76BFB00909DF8010017498871CC
:1027D0009DF80000C87116480821026D1348904703
:1027E00054E0052C26D106211048FFF757FB009036
:1027F0009DF801000D4988719DF80000C8710C48D2
:102800000821026D0948904740E000002A0100209D
:102810003201002036010020A01C002018000020FA
:10282000D01C0020181D0020581D0020781D0020FD
:10283000200000200F2C29D19DF80500FE490871C9
:102840009DF804004871BDF8040000F0070030B1A5
:10285000BDF80400012101EBE000C6B203E0BDF8C1
:102860000400C0F3C706B11DF348FFF717FB009043
:102870009DF80110B01DF04A11549DF80010F01D94
:102880001154411CED48026DEB489047EC4800881C
:10289000EC490880EA4840884880BDF80400EA49CD
:1028A0000880E7484088BDF804100844E44948809F
:1028B00008464088E5494988884204DB0220E0490F
:1028C000088000204880BDE8FC8138B50025DC4840
:1028D0004088DF4901EB00142078D74908700420B4
:1028E0004870607988702079C87002E0E468681CDC
:1028F000C5B2002CFAD10020CF49087108464571B5
:102900000621FFF7CBFA00909DF80100CA498871B3
:102910009DF80000C871C9480821026DC64890475B
:10292000C7480088C7490880C54840884880C448CF
:1029300040882844C249488008464088C34989885D
:10294000884204DB0320BE4908800020488038BD4F
:102950002DE9FC41002400270025B9484088BD49E5
:1029600001EB00163078B4490870707988703079BE
:10297000C87030E0B068008800907088BDF8001022
:1029800088421DD0032C00D127E074B906249DF89D
:102990000100A94908719DF8000048719DF80100E7
:1029A000C8719DF80000087210E010249DF8011015
:1029B000E81DA14A11549DF80010401C115405E077
:1029C0000CB1032C01D1032400E006E0F668781C6A
:1029D000C7B27806050E002ECCD100BF96484470D1
:1029E000032C15D10020944908710846477106212F
:1029F000FFF754FA01909DF805008F4988719DF802
:102A00000400C8718D480821026D8B4890472DE065
:102A1000062C11D106218848FFF740FA01909DF855
:102A20000500854988719DF80400C8718348082114
:102A3000026D8148904719E0102C17D100207E4983
:102A40000871084647718571E91DFFF727FA019063
:102A50009DF80510E81D784A11549DF80410401C9B
:102A60001154411C7548026D7348904774480088A2
:102A700074490880724840884880734807807048CD
:102A8000408838446E494880084640886F49C98864
:102A9000884203DB00206A4908804880BDE8FC8149
:102AA00010B5002411E066480088684931F810002C
:102AB00050B963480088401C614908800846008876
:102AC000042801D100200880641C042CEBDB5C4846
:102AD000008830B101280AD002280ED0032818D16E
:102AE00011E05A48008808B1FFF7A4FD11E05748EB
:102AF000408808B1FFF7EDFD0BE05448808808B12D
:102B0000FFF7E3FE05E05148C08808B1FFF720FF5A
:102B100000BF00BF10BD30B503220023494C2488FC
:102B200004B130BD474C648804EB44044A4D05EBC6
:102B300084000EE0494CA45C1C4104F001015C1CC3
:102B40002346082C01D10023521C41704468217097
:102B500080680028EED100BFE3E770B503220023B0
:102B6000384C2488012C00D070BD364C648804EBAE
:102B700044043B4D05EB840013E0447845682D7810
:102B8000AC4207D1354CA45C1C4104F001014170FA
:102B9000446821705C1C2346082C01D10023521C80
:102BA0008068294C25882488641E274E3480002D97
:102BB000E3D100BFD8E708B50321224A1288022AD0
:102BC00000D008BD1F4A5288214B03EB021012E0CF
:102BD0000A46491C214B9A5C8DF801200A46491C83
:102BE0009A5C8DF80020BDF800204280BDF80020DE
:102BF00083681A80C0680028EAD100BFE1E718B5F1
:102C00000321104A1288032A00D018BD0D4A5288A9
:102C1000104B03EB02102EE0428883681B789A4227
:102C200027D10E4A525C8DF801200C4B4A1C9A5C4D
:102C30008DF8002016E00000781D00202000002004
:102C400032010020360100203A0100202A01002034
:102C5000181D0020581D0020A01C0020781E0020F8
:102C6000D01C0020BDF800204280BDF80020836801
:102C70001A80891CC0688F4A13881288521E8D4C96
:102C80002280002BC8D100BFBFE78B4909880129EA
:102C900000D070478849498801EB4101874A02EB1F
:102CA000810041680978417000BFF2E782490988D4
:102CB000012900D070478049498801EB41017F4AD2
:102CC00002EB810003E0416809784170806879492E
:102CD0000A880988491E774B1980002AF3D100BF62
:102CE000E8E775490988032900D070477249498887
:102CF000734A02EB011081680988418000BFF4E744
:102D00006D490988032900D070476B4949886C4A8E
:102D100002EB011003E0816809884180C0686549C1
:102D20000A880988491E634B1980002AF3D100BF25
:102D3000EAE7002063490880634908806349087016
:102D4000704760490988FF2902DD00215D4A118032
:102D50005C490A880988491C5A4B19805C49885487
:102D60000021594A11800121584A1170704738B525
:102D700054480088042802DCFFF7DBFF38BD5548C3
:102D8000007853490978884205D152484078504923
:102D90004978884202D0FFF7CCFFEFE74948008826
:102DA000811E4B48FFF77AF8044646480088801E8B
:102DB0004749085C8DF8010042480088401E085CC5
:102DC0008DF80000BDF80000844202D0FFF7B1FF8B
:102DD000D4E73F484078062825D005DC2CD2DFE830
:102DE00000F02B131019161C162823D004DC0F2812
:102DF00016D0102820D119E017281AD02B281BD163
:102E000019E0FFF788FE18E0FFF7A7FE15E0FFF7CF
:102E1000D2FE12E0FFF7F3FE0FE0FFF736FF0CE003
:102E2000FFF744FF09E0FFF75CFF06E0FFF768FFEC
:102E300003E002E001E000E000BF00BFFFF779FF20
:102E400000BF9BE710B524480088401C80B222498F
:102E50000880642803D100200880FFF721FE1B486A
:102E60000078012815D118480088401C16490880B0
:102E70000846008802280CDD002014490870174815
:102E8000026C1048018812489047FFF770FFFFF767
:102E900050FF10BD10B5FFF74CFFFFF7C5FA0F4804
:102EA0000F49026F002090470C48C16C0D488847BD
:102EB00010BD00003A01002036010020D01C002087
:102EC000581D00203E010020400100203C01002050
:102ED000781E0020781D00204201002020000020E4
:102EE000452E0008432D000810B5002807DA0A0710
:102EF000140E1A4A00F00F031B1FD45403E00A07F4
:102F0000130E174A135410BD10B501F0B6FC01F0B2
:102F10004DFD01F025FE00F0B8F800F0A2F900F038
:102F2000B3FB01F018F800F009FD00F02BFE01F0F2
:102F3000ABF801F069FA01F0C6FE01F08CFB4FF42A
:102F4000A06002F0E7F90E214FF0FF30FFF7CCFF51
:102F50000F216FF00100FFF7C7FF10BD18ED00E073
:102F600000E400E0002004E09C499D4A42F8201063
:102F7000401C0528F8DB7047994A42F8201070473A
:102F8000984999480068C0F89810881C96490968C3
:102F9000C1F89C00801C94490968C1F8A000801CFD
:102FA00091490968C1F8A40070472DE9F04F89B034
:102FB00000244DE04FF00009CA4609E00AEB8A0000
:102FC0008A4901EB400030F8140081440AF1010AFB
:102FD000BAF1080FF2DB4FEAD909042C08DA81496B
:102FE00021F814907E4951F82410A1F800902EE0A9
:102FF000484604F0ABFE83464FF08B41584604F040
:10300000D6FC019004F02AFF4FF06632784BCDE9F0
:10301000020104F0B1FD0746764A774B04F0A9FDA2
:10302000764A774BCDE9040104F018FE0022754B77
:10303000CDE9060104F0F9FC054604F022FF8346C1
:10304000584604F0BFFE664951F824100880641CFD
:10305000052CAFDB6348008863490968A1F890003C
:103060006048418860480068A0F892105D488188F7
:103070005D480068A0F894105A48C1885A48006812
:10308000A0F8961009B0BDE8F08F00B591B001210D
:103090004FF4017002F0C8FC6020ADF84000002041
:1030A0008DF8430010A9584802F002FA01214FF4AC
:1030B000047002F0B9FC3020ADF8400000208DF81B
:1030C000430010A9514802F0F3F94FF4004002F018
:1030D0000FFC4F4802F0EAFF00200B9001208DF812
:1030E00030008DF831004FF460200D9000200E90DC
:1030F00005208DF83C000BA9454802F0FEFF012396
:103100001A460521424803F090F8012302220621C5
:103110003F4803F08AF8012303220E213C4803F0C4
:1031200084F8012304220F21394803F07EF8042398
:1031300005221021364803F078F8012003F09AF9AF
:103140000121334803F010F80121314803F001F860
:103150002F4803F020F800BF2D4803F021F8002885
:10316000FAD12B4803F026F800BF294803F027F8CE
:103170000028FAD10121084602F049FC254803F055
:10318000BDF923484C30009018480190002002906F
:103190002820039000200490802005904000069095
:1031A00080000790202008900002099000200A90DB
:1031B0006946184803F044FA0121154803F009F85C
:1031C0000121144803F067FAFFF7CCFEFFF7D8FEA1
:1031D00011481249486011B000BD00004C010020A8
:1031E000C81F00204401002018000020781F002084
:1031F00066660A40E17A14AE47E1F63F22FDF675B5
:10320000E09C713F0000394000080140001001407F
:103210000024014008000240792F0008200000200F
:1032200021480068006E00781F49096881F85C0039
:103230001D480068406E01781B48006880F85D10EA
:1032400019480068806E01781748006880F85E10A1
:1032500015480068C06E01781348006880F85F1058
:10326000704708B51149104800680166091D0E48ED
:1032700000684166091D0C4800688166091D0A48FE
:103280000068C1660121102002F0CEFB0F20ADF8CE
:10329000000004208DF8030003208DF80200694629
:1032A000034802F005F908BD180000200001224281
:1032B0000010014038B504460121042002F0B4FB9F
:1032C0000121082002F0B0FBDCB98020ADF800003D
:1032D00010208DF8030003208DF802006946FE4897
:1032E00002F0E6F84EF20300ADF8000010208DF871
:1032F000030003208DF802006946F84802F0D8F870
:1033000023E0012140F6010002F08EFB01210220A2
:1033100002F097FB8020ADF8000018208DF8030024
:1033200003208DF802006946EB4802F0C1F84EF226
:103330000300ADF8000018208DF8030003208DF87D
:1033400002006946E54802F0B3F838BDE448006879
:1033500090F87010E2480068806F0170E0480068E3
:1033600090F87110DE480068C06F0170DC4800689A
:1033700090F87210DA480068D0F880000170D848E0
:10338000006890F87310D6480068D0F88400017087
:10339000D348006890F87410D1480068D0F88800CD
:1033A0000170CF48006890F87510CD480068D0F8DB
:1033B0008C000170704710B50446062C28D2DFE857
:1033C00004F003090F151B2101220421C54803F055
:1033D000F4FF1EE001220821C24803F0EEFF18E0CE
:1033E00001220C21BF4803F0E8FF12E00422002173
:1033F000BD4803F0F1FF0CE004221146BA4803F087
:10340000EBFF06E004220821B74803F0E5FF00E0E7
:1034100000BF00BF10BD10B50446062C28D2DFE85F
:1034200004F003090F151B2100220421AD4803F00D
:10343000C4FF1EE000220821AA4803F0BEFF18E0E6
:1034400000220C21A74803F0B8FF12E00022114629
:10345000A54803F0C1FF0CE000220421A24803F0BC
:10346000BBFF06E0002208219F4803F0B5FF00E003
:1034700000BF00BF10BD70B505460C46062D22D218
:10348000DFE805F003080D12171CA1B2954804F0FF
:1034900029F819E0A1B2934804F026F814E0A1B28B
:1034A000904804F023F80FE0A1B28F4804F018F818
:1034B0000AE0A1B28C4804F015F805E0A1B28A48F0
:1034C00004F012F800E000BF00BF70BDF0B587B097
:1034D00004460F4615461E46781E80B2ADF8100011
:1034E000681E80B2ADF814000020ADF81600ADF8EB
:1034F00012008DF818006020ADF80000B0B2ADF8F1
:103500000600062C77D2DFE804F0031E39547799C1
:1035100004A9744803F0F0F90120ADF8020000207E
:10352000ADF8080069466F4803F065FA08216D4858
:1035300003F077FE01216B4803F03AFE0121694850
:1035400003F036FD9DE004A9664803F0D5F901209B
:10355000ADF802000020ADF808006946614803F0AC
:1035600097FA08215F4803F069FE01215D4803F0E6
:103570001FFE01215B4803F01BFD82E004A95948AE
:1035800003F0BAF90120ADF802000020ADF8080000
:103590006946544803F0C7FA0821524803F057FE21
:1035A0000121504803F004FE01214E4803F000FDC4
:1035B00067E004A94C4803F09FF90020ADF8020031
:1035C0000420ADF804000020ADF80A006946464822
:1035D00003F0CFF90821444803F01AFE01214248C4
:1035E00003F0E6FD0121404803F0E2FC01213E48E2
:1035F00003F0EAFC45E043E004A93B4803F07CF912
:103600000020ADF802000420ADF804000020ADF861
:103610000A006946344803F0EEF90821324803F005
:1036200000FE0121304803F0C3FD01212E4803F0C4
:10363000BFFC01212C4803F0C7FC22E004A92A4862
:1036400003F05AF90020ADF802000420ADF80400A0
:103650000020ADF80A006946234803F019FA082152
:10366000214803F0EBFD01211F4803F0A1FD0121DA
:103670001D4803F09DFC01211B4803F0A5FC00E060
:1036800000BF00BF07B0F0BD10B51849144800686E
:103690008167174912480068C167091D1048006812
:1036A000C0F88010124934310D480068C0F8841009
:1036B000091D0B480068C0F88810091D08480068FB
:1036C000C0F88C100B490C4841610C4981610C49D0
:1036D000C1610C49416217E000080140000C014043
:1036E0001800002000040040002C01409C012142F1
:1036F00080812142B532000820000020B733000845
:103700001734000877340008024901620020FFF7EF
:10371000D1FD10BDCD3400080146F7291ED008DCCC
:103720007F2913D0BF290FD0DF290BD0EF2917D164
:1037300006E0FB2910D0FD290CD0FE2910D107E0AE
:10374000002070470120FCE70220FAE70320F8E799
:103750000420F6E70520F4E70620F2E70720F0E76B
:10376000FF20EEE70146F7291ED008DC7F2913D0A1
:10377000BF290FD0DF290BD0EF2917D106E0FB2995
:1037800010D0FD290CD0FE2910D107E03020704761
:103790003120FCE73220FAE73320F8E73420F6E75F
:1037A0003520F4E73620F2E73720F0E7FF20EEE798
:1037B00093490870704710B592480078C04391490A
:1037C00008700846007800284CD0FF248E48006816
:1037D000006808B904F07F048C480068006808B9E4
:1037E00004F0BF048A480068006808B904F0DF04E8
:1037F00088480068006808B904F0EF040020864992
:10380000096808600120854909680860FDF7B7FC70
:103810007D480068006808B904F0F7047B48006838
:10382000006808B904F0FB0479480068006808B92A
:1038300004F0FD0477480068006808B904F0FE044D
:10384000002076490968086001207349096808600A
:103850006B48007810B1724804706DE0FF20704929
:10386000087069E06F480078012803D100206E4994
:10387000096808606B480078002804DD6948007812
:10388000401E6849087066480078FF2811D06448D7
:10389000007866490870002065490870654800781E
:1038A000401CC0B263490870142845DD142008701C
:1038B00042E05F480078401C5D4908700846007887
:1038C000022839DB022008705B48007840B15A4872
:1038D0000078401E5849087000205649087010BDF5
:1038E00054480078022800DAF9E752480078142892
:1038F00005D14E480078FFF735FF04460AE04D48F1
:103900000078022805DB49480078FFF705FF0446E8
:1039100000E0FF24FF2C0CD021460120FDF75AFCCB
:1039200001204149096808600A203E49087042495F
:10393000087000203F49087000BFD0E708B501219A
:103940003E4801F086FE3E48374908603D4831490F
:103950000860001D2E490860001D2C4908603A4887
:103960002949086039482C490860001F2B49086024
:1039700001213C2002F058F800202849096808601D
:1039800001202549096808603020ADF800001020AA
:103990008DF8030003208DF8020069462C4801F0E1
:1039A00087FD00202049096808601020ADF800005C
:1039B0008DF8030002208DF802006946254801F0C9
:1039C00077FD4FF4E050ADF8000048208DF803007B
:1039D00003208DF8020069461F4801F069FD0420AC
:1039E000ADF8000048208DF8030003208DF8020098
:1039F00069461A4801F05CFD19491A48816208BD00
:103A00007201002073010020600100205C01002091
:103A100058010020540100206401002068010020AA
:103A20006C01002071010020500100206D01002078
:103A30006F0100206E0100207001002000013000A5
:103A40009001214228012242088122429481214290
:103A5000000C01400008014000100140001401402A
:103A6000B13700082000002070B5044604F0F000D3
:103A70004FF4780141EA002004F00F0140EA0116FA
:103A800000207B490968086001207A4909680860BC
:103A9000172520E026FA05F000F0010020B10120F2
:103AA00075490968086003E00020734909680860E7
:103AB0000A20FDF76AFB01206D49096808600A20A9
:103AC000FDF763FB00206A49096808600A20FDF7DA
:103AD0005CFB681E05B2002DDCDA00206549096830
:103AE000086070BD70B5044604F0F0004FF47A0130
:103AF00041EA002004F00F0140EA011600205C4971
:103B00000968086001205B4909680860172520E002
:103B100026FA05F000F0010020B10120564909689D
:103B2000086003E000205449096808600A20FDF796
:103B30002CFB01204E49096808600A20FDF725FB8F
:103B400000204B49096808600A20FDF71EFB681E2B
:103B500005B2002DDCDA002046490968086070BD16
:103B600070B505460C464549485DFFF77DFF0026C8
:103B700005E014F8010BFFF7B5FF701CC6B2102E5C
:103B8000F7DB70BD08B50121102001F04DFF3C4866
:103B9000374908603A48083036490860001F3649FE
:103BA00008603748001F374908600020304909681D
:103BB00008604FF40070ADF8000010208DF803008D
:103BC00002208DF8020069462F4801F071FC0020A8
:103BD0002849096808604FF48070ADF80000102093
:103BE0008DF8030002208DF802006946264801F096
:103BF0005FFC00202049096808608020ADF80000C3
:103C000010208DF8030002208DF8020069461E483E
:103C100001F04EFC00201B49096808604020ADF807
:103C2000000010208DF8030002208DF80200694684
:103C3000154801F03DFC6420FDF7B2FA012011495E
:103C4000096808603020FFF70FFF0C20FFF70CFF1A
:103C50000120FFF709FF0220FFF706FF8020FFF792
:103C600003FF0120FFF700FF08490948016308BD71
:103C700074010020780100207C010020488D00089C
:103C80009C0122428001002000100140613B00089D
:103C9000200000202DE9F047C6480068C08FA0F240
:103CA000DD784FEA980040F2B551484308F003012F
:103CB00040F26D1201FB0207BE48006890F83D001B
:103CC000A0F10109BB490968C88FC11700EB9171C8
:103CD0008910A0EB810141B9002403E0B648005DE2
:103CE0000744641C4C45F9D307E0002403E0B348C3
:103CF000005D0744641C4C45F9D3AE48006890F859
:103D00003B003844471EAE487843AA49096891F8F9
:103D10003A10C1EB4112C2EB012100EB0111A548A1
:103D2000006890F83900C0EB001001EB8000A14959
:103D3000096891F83810451803F09AFC064606F118
:103D40000A00854203D805F10A00B04209D20120D9
:103D500003F01DFD03F0C8FC284603F092FC03F0BD
:103D6000C3FCBDE8F0872DE9F04140F2DD78002585
:103D700003F07EFC06469248B6FBF0F4A01C072137
:103D8000B0FBF1F201FB12018A48006880F83C1098
:103D900040F2B550B4FBF0F100FB114785490968CA
:103DA000C88FC11700EB91718910A0EB810179B91F
:103DB00040F2B550B4FBF0F008EB80004FF4B7715F
:103DC000B7FBF1F1084481B27A480068C1870EE080
:103DD00040F2B550B4FBF0F008EB800040F26D11FA
:103DE000B7FBF1F1084481B272480068C187B7F5AA
:103DF000896F0BD3A7F2474403E06F48405D241A54
:103E00006D1C6D48405DA042F7D90EE040F26D1088
:103E1000B7FBF0F100FB117403E06848405D241A21
:103E20006D1C6648405DA042F7D9681CC1B261486C
:103E3000006880F83D10601CC1B25E48006880F8E0
:103E40003B105F48B6FBF0F100FB11664FF4616078
:103E5000B6FBF0F0C1B25748006880F83A104FF452
:103E60006160B6FBF0F100FB11603C21B0FBF1F0AA
:103E7000C1B25048006880F839104FF46160B6FB59
:103E8000F0F100FB11603C21B0FBF1F201FB1200EC
:103E90004849096881F83800BDE8F08110B5002470
:103EA00001214FF0C05001F0CCFD012003F06FFC68
:103EB00003F05CFB012001F024FD05E0601C0446DA
:103EC0004049884200D104E0412001F082FC0028F2
:103ED000F4D000BF3B48844204DA4FF4807001F014
:103EE0002CFD0CE0012001F025FD00BF612001F058
:103EF00070FC0028FAD04FF4007001F01EFD012084
:103F000001F021FD03F0F9FB03F0EEFB2D488442A4
:103F100004DA47F6FF7003F0C1FB03E049F63F40C7
:103F200003F0BCFB03F0E0FB0121084603F080FB3B
:103F300003F0DAFB10BD10B523480078401CC0B276
:103F400021490870642805D100200870FFF7A2FEFF
:103F5000FFF709FF10BD10B5042003F03CFB41F250
:103F60003421884207D0FFF799FF41F23421042021
:103F700003F025FB1BE001214FF0C05001F061FD73
:103F8000012003F004FC412001F023FC28B961204A
:103F900001F01FFC08B9FFF781FF03F0AEFB03F04F
:103FA000A3FB0121084603F043FB03F09DFBFFF751
:103FB000DAFE10BD18000020588D00084C8D000856
:103FC0008051010080841E008401002070B500240F
:103FD0003048006800B970BD2E48056829E005F03A
:103FE000010020B32C4850F83400401E2A4941F803
:103FF0003400E0B90120A0402649096881432548E2
:10400000016026480068E04000F0010050B12248FD
:1040100000EBC4004068224A1268811A0220FDF7B2
:10402000D9F804E01C4901EBC401486880476D08D9
:10403000641C002DD3D100BFCDE730B5164C44F839
:10404000302004EBC004636039B101248440134D77
:104050002D682C43114D2C6006E0012484400F4D47
:104060002D68A5430D4C256001248440094D2D6821
:104070002C43084D2C6030BD01218140054A126857
:104080008A4304490A607047064907484165074961
:104090008165704788010020DC1F00208C01002012
:1040A000100000203B40000820000020794000085C
:1040B00010B501F03CFD352001F0D4FF10BD10B566
:1040C00001F041FD10BD70B5ADF5027D002416E094
:1040D000D548006850F83400401C70B1D2480068E0
:1040E00050F834004DF82400CF48006800EBC400BD
:1040F00040685DF82410086000E002E0641C802C39
:10410000E6DB00BFC9494C80802088800846408893
:10411000022803DA0846408808804EE00026002482
:1041200013E0651C0BE05DF824005DF82510884263
:1041300004D100204DF82400012604E06D1CBB488A
:104140004088A842EFDC00BF641CB8484088401E8D
:10415000A042E6DC26B9B5484088B44908802CE086
:10416000FFF7A6FFB24801F027FD002500241CE060
:104170005DF8240000B917E05DF8240080905DF838
:10418000240000688190A84A8099126802EBC5005B
:1041900001F0E2FDA44A8199126802EBC502101DEC
:1041A00001F0DAFD6D1C00BF641CA0484088A042ED
:1041B000DEDCFFF784FF9D490D809C4800889B4909
:1041C000C8809CA004F008F8984881889AA004F060
:1041D00003F8964841889EA003F0FEFF93480188AB
:1041E000A1A003F0F9FF9148C188A4A003F0F4FF57
:1041F0000DF5027D70BD70B5044625460CB9002052
:1042000070BD8A48C08889498988884201D10020C8
:10421000F6E7FFF74DFF8549C988834A126802EB2C
:10422000C100294601F098FD804AD2887E4B29685A
:104230001B6803EBC202101D01F08EFDFFF73FFF6C
:104240007A48C088401C7949C8800120D8E770B5F9
:104250004FF440608E4948818E48086008460068E7
:104260004860002008818B4D002409E02878FF2851
:1042700004D18748456001460C8104E06D1C641C34
:10428000B4F5406FF2DB00BF83A003F0A5FF8048C8
:10429000418982A003F0A0FF7D48018985A003F039
:1042A0009BFF7B48016889A003F096FF784841682E
:1042B0008BA003F091FF78A003F08EFF70BD10B5C6
:1042C000FFF7F6FE002405E0724901EB842001F0BF
:1042D00073FC641C032CF7DBFFF7F1FE6D486C499F
:1042E000086048600020088110BD10B50246694989
:1042F0000878FF2801D17FA010BD1AB96548644C29
:104300002060F9E7501CC0B961480368016800BF2C
:1043100011F8014B002CFBDC087800B9491C087827
:10432000FF2802D04248814203D95A48584C2060A5
:1043300001E0574801601846DEE7002A1DDD0EE067
:104340000878FF2801D16BA0D6E700BF08780028C5
:10435000FCDC491C00BF08780028FCD0491C100078
:10436000A2F10102ECD10878FF2802D03048814246
:1043700001D960A0C0E70846BEE760A0BCE70FB463
:10438000F0B59BB001AE002503E0002026F8020B3B
:104390006D1C322DF9DB21A81A9001A81A9A2099D8
:1043A00003F03EFF044600201A901CB91BB0F0BC7D
:1043B0005DF814FB641C04F0010000B1641C344877
:1043C00000892044B0F5406F01DB0020EEE7671064
:1043D00001AEFFF76DFE00250BE031882C4A5068D6
:1043E00001F0EDFC2A484068801C29494860B61C51
:1043F0006D1CBD42F1DBFFF762FE254800892044B9
:10440000234908810120D1E710B5FFF75CFE3F4941
:104410003F480166FFF71BFF3E493D4841663E4964
:1044200081663E49C16610BD9001002094010020C4
:1044300000FC00080A0A0A000AB2CECAFDD7DCB4A2
:10444000E6B4A2BFD5BCE4203D20256400000000F6
:104450000AB2CECAFDD2D1B4E6B4A2BFD5BCE42024
:10446000203D2025640000000AB2CECAFDB4E6B4A7
:10447000A2B8F6CAFD203D20256400000AB2CECACB
:10448000FDD0B4C8EBB5E3203D202564000000005A
:104490001C20002000F000080A0A00000AC8D5D637
:1044A000BED7DCB4E6B4A2BFD5BCE4203D20256471
:1044B000000000000AC8D5D6BED2D1B4E6B4A2BF6F
:1044C000D5BCE420203D2025640000000AC8D5D6D4
:1044D000BEB6C1C8A1B5E3203D202578000000008C
:1044E0000AC8D5D6BED0B4C8EBB5E3203D202578A8
:1044F000000000004E756C6C0A0000004172677588
:104500006D656E744572726F720A0000F7410008A3
:1045100020000020BF420008EB4200087F43000853
:1045200010B502462AB3012A12D0022A32D16048BD
:1045300000780A2801D1002010BD5D48037800787A
:10454000401C5B4C20705B4840F823100120F3E7CF
:1045500059480078042801D10020EDE75648037837
:104560000078401C544C2070544840F8231001201F
:10457000E2E753480078022801D10020DCE75048E8
:1045800003780078401C4E4C20704E4840F82310B1
:104590000120D1E70020CFE710B54B480078401C40
:1045A000C0B249490870642801D10020087045490B
:1045B00008688047434948688047FEF7F6FCFEF7E5
:1045C0002FFEFEF7C3FE404800780A2190FBF1F071
:1045D000C4B23D48007890FBF1F201FB12000A28BA
:1045E00037D2DFE800F005090D11151A2225282918
:1045F0003249086880472CE030494868804728E005
:104600002E498868804724E02C49C868804720E00C
:10461000284951F8240080471BE02C480068406B73
:10462000401C2A490968486313E000F0C2F810E012
:10463000FFF7CCFC0DE00CE014B1012C06D102E038
:10464000FFF779FC03E0FFF7B6F800E000BF00BF1A
:1046500000BF00BF10BD30B51D48006842F21072A7
:10466000B0FBF2F1B1F1807F00D31DE021F07F407B
:10467000401E4FF0E022506150170F22002807DA49
:1046800013071D0E134B00F00F04241F1D5503E0EC
:1046900013071C0E104B1C5400BF00204FF0E022EB
:1046A00090610720106100BF0C490D48016730BDC3
:1046B000DC010020B4010020DD010020A401002065
:1046C000DE0100209C010020DF01002018000020F6
:1046D000E801002018ED00E000E400E021450008BA
:1046E0002000002091489249086000F2E7304860BD
:1046F00008460068886008460068C8600020088294
:10470000704701468A48008AB0F57A7F01DB0020B5
:10471000704787488068017085488068401C844ADB
:104720009060104680685268904203D980480068C3
:104730007F4A906072B67F480088401C7D4A108096
:104740007B48008A401C7A4A10827A480088401EC2
:1047500080B2784A108000B962B60120D8E770B5FF
:1047600004460D464DB103E014F8010BFFF7C9FFF5
:104770002800A5F10105F7D10DE009E020780A280D
:1047800002D10D20FFF7BDFF14F8010BFFF7B9FFB1
:1047900020780028F2D170BD70B504460D460A2C71
:1047A00002D10D20FFF7ADFFE0B2FFF7AAFF2046D0
:1047B00070BD5F48008A00B970475F48008800F00C
:1047C000400000B9F8E75A48C06800785A49091D06
:1047D00008805748C068401C5549C8600846C068F2
:1047E0004968884203D9524800685149C86072B686
:1047F00050480088401C4F4908804D48008A401EA0
:104800004B4908824B480088401E80B249490880C5
:1048100000B962B600BFCFE710B540F22551464857
:1048200000F034FD38B1444800F0B0FCC4B2214679
:104830000120FCF7CFFC08213F4800F011FD0128C2
:1048400002D13D4800F0A2FC10BD10B5012240F29B
:104850002551394800F035FC0121374800F025FC8E
:1048600010BD10B5002240F22551334800F029FC5C
:104870000021314800F019FC10BD00B587B00121BE
:1048800044F2050001F0D0F84FF40070ADF81800C4
:1048900003208DF81A0018208DF81B0006A9274860
:1048A00000F006FE4FF48060ADF8180048208DF847
:1048B0001B0006A9214800F0FBFD25208DF804000F
:1048C00003208DF8050002208DF8060001208DF8E8
:1048D000070001A800F023FD4FF4E1300290002012
:1048E000ADF80C00ADF80E00ADF81000ADF81400F6
:1048F0000C20ADF8120002A90F4800F04AFB01227B
:1049000040F225510C4800F0DCFB01210A4800F080
:10491000CCFBFFF7E7FE0A490A4841630A49816375
:104920000A49C1630A49016407B000BD3C20002068
:10493000282000200C000020003801400008014021
:104940004B48000820000020634800080347000887
:104950005F470008704752490860704770B551487A
:10496000058805F0200038B14E4800F00FFCC4B2B5
:1049700020464B490968884705F0080010B14948AE
:1049800000F004FC70BD70B505460C460021464899
:1049900001F081FE44480C30056043488038C0F87F
:1049A00084400121404801F076FE70BD00B591B011
:1049B0000121052001F038F80121480401F041F8F7
:1049C0000420ADF8400003208DF8420018208DF837
:1049D000430010A9354800F06BFD0820ADF84000F9
:1049E00048208DF8430010A9304800F061FD2620D2
:1049F0008DF82C0003208DF82D008DF82E0001205D
:104A00008DF82F000BA800F08AFC0121084600F069
:104A1000FEFF254801F072FD2248001D0090002095
:104A20000190102002900820039000200490802024
:104A3000059000200690079008904FF400500990D0
:104A400000200A906946184801F0FAFD4FF4E13061
:104A50000C900020ADF83400ADF83600ADF8380009
:104A6000ADF83C000C20ADF83A000CA90D4800F060
:104A700090FA012240F225510A4800F022FB01225F
:104A80008021084800F042FB0121064800F00DFBA0
:104A90000749084841640849816411B000BD00001D
:104AA000E001002000440040800002400008014076
:104AB00057490008200000208749000870477849BE
:104AC0000860704770B57748048804F0400040B132
:104AD000002075490860002240F22661714800F00C
:104AE000F0FA04F0200038B16E4800F04FFBC5B278
:104AF00028466B490968884704F0080010B16948E6
:104B000000F044FB70BD70B505460C4601206649B7
:104B100008600021654801F0BEFD64481C388562CC
:104B20000462002240F226615E4800F0CAFA0121C8
:104B30005E4801F0B0FD70BD10B5202001F0E5FD2C
:104B400001280CD1202001F0F4FD4021554800F04F
:104B500094FB012240F22661524800F0B2FA10BDE7
:104B600000B591B00121092000F05EFF0121880409
:104B700000F067FF00204C4908604FF48070ADF8EA
:104B8000400002208DF8420010208DF8430010A94B
:104B9000474800F08DFC4FF48060ADF840000320E2
:104BA0008DF8420018208DF8430010A9404800F00D
:104BB0007FFC4FF40060ADF8400048208DF84300C2
:104BC00010A93B4800F074FC27208DF82C0003202E
:104BD0008DF82D008DF82E0001208DF82F000BA8E8
:104BE00000F09DFB4FF4E1300C900020ADF8340054
:104BF000ADF83600ADF83800ADF83C000C20ADF84B
:104C00003A000CA9274800F0C4F9012240F22551CE
:104C1000244800F056FA0121224800F046FA0C2000
:104C20008DF82C0002208DF82D008DF82E0001202B
:104C30008DF82F000BA800F072FB0121084600F050
:104C4000E6FE1A4801F05AFC1648001D00900020AC
:104C500001901020029008200390002004908020F2
:104C6000059000200690079008904FF4005009909E
:104C700000200A9069460D4801F0E2FC0122022161
:104C80000A4801F014FD01228021064800F03EFA96
:104C900008490948C1640949016511B000BD000017
:104CA000E401002000480040A08121421C00024095
:104CB000000C0140BF4A000820000020074B0008FC
:104CC0000D490860704708B50121042000F0ACFED2
:104CD0000020094908601020ADF800008DF803009D
:104CE00002208DF802006946044800F0E1FB044907
:104CF0000448C16208BD0000900121420008014043
:104D0000C14C0008200000200CB50020019000904C
:104D10006C48006840F480306A49086000BF694808
:104D2000006800F4003000900198401C0190009849
:104D300018B90198B0F5A06FF1D16248006800F48D
:104D4000003010B10120009001E000200090009898
:104D5000012843D15C48006840F010005A490860BF
:104D60000846006820F0030008600846006840F02C
:104D7000020008605348406852494860084640684D
:104D800048600846406840F48060486008464068D3
:104D900020F47C1048600846406840F4E810486001
:104DA0000846006840F08070086000BF4548006811
:104DB00000F000700028F9D04248406820F003005D
:104DC000404948600846406840F00200486000BF23
:104DD0003C48406800F00C000828F9D10CBD10B523
:104DE000FFF792FF10BD10B53648006840F0010093
:104DF00034490860084640683449084031494860F1
:104E000008460068324908402E4908600846006894
:104E100020F4802008600846406820F4FE004860C6
:104E20004FF41F008860FFF7DAFF4FF00060294958
:104E3000086010BD10B5002100200022214B5B68E6
:104E400003F00C0121B1042906D0082928D107E07C
:104E5000214B224C236027E01F4B204C236023E092
:104E6000184B5B6803F47010164B5B6803F48032D8
:104E7000022303EB904022B9194B4343174C2360A4
:104E80000DE0104B5B6803F4003323B1144B434334
:104E9000124C236003E0104B4343104C236003E0AB
:104EA0000D4B0E4C236000BF00BF064B5B68C3F385
:104EB00003130C4CE15C094B1B68CB40074C23608F
:104EC00010BD000000100240002002400000FFF86A
:104ED000FFFFF6FE08ED00E000127A00E801002076
:104EE00000093D00EC0100200648804706480047C5
:104EF000FEE7FEE7FEE7FEE7FEE7FEE7FEE7FEE78A
:104F0000FEE7FEE7E74D0008ED00000810B5044697
:104F1000FB48844209D10121880300F09FFD002154
:104F20004FF4804000F09AFD32E0F648844209D107
:104F30000121480400F09FFD00214FF4003000F0F3
:104F40009AFD25E0F048844209D10121880400F04F
:104F500092FD00214FF4802000F08DFD18E0EB4819
:104F6000844209D10121C80400F085FD00214FF4DD
:104F7000002000F080FD0BE0E548844208D10121CB
:104F8000080500F078FD00214FF4801000F073FD5B
:104F900010BD2DE9F04786B005460E460024A24616
:104FA00000BFA1460027B08900B100BF2F462C8A60
:104FB0004CF6FF700440F08804432C82AC894EF616
:104FC000F3100440B08831890843718908430443D1
:104FD000AC81AC8A4FF6FF400440B0890443AC82F8
:104FE00001A800F0B4FCC648874202D1DDF810A049
:104FF00001E0DDF80CA0A88900F4004040B10AEB04
:10500000CA0000EB0A1031684900B0FBF1F807E074
:105010000AEBCA0000EB0A1031688900B0FBF1F816
:105020006420B8FBF0F004012009642101FB108921
:10503000A88900F4004040B1322000EBC900B0FB69
:10504000F1F000F00700044308E0322000EB091003
:105050006421B0FBF1F000F00F0004432C8106B096
:10506000BDE8F0874FF41651016000218180C180B6
:1050700001810C21418100218181704710B50246D8
:105080000020108A4FF2FF0318400B884C882343FE
:105090008C882343CC8823431843108210BD002101
:1050A000018041808180C180704721B1828942F4B2
:1050B0000052828104E082894DF6FF731A4082819A
:1050C0007047F0B50346002400260025002040F676
:1050D0006A17B94200D100BF1846C1F3421401F06B
:1050E0001F06012707FA06F5012C01D10C3004E058
:1050F000022C01D1103000E014301AB107682F43A0
:10510000076002E00768AF430760F0BD1AB1838A09
:105110000B43838202E0838A8B4383827047028A37
:105120004FF6F0731A400282028A0A4302827047E5
:1051300082894FF2FF731A40828182890A438281F9
:10514000704721B1828942F00202828104E08289A3
:105150004FF6FD731A4082817047028A4FF6DF7363
:105160001A400282028A0A430282704721B1028AEF
:1051700042F48042028204E0028A4BF6FF731A4036
:1051800002827047C1F30802828070470146888816
:10519000C0F308007047818941F0010181817047A7
:1051A000028BD2B20283028B42EA01220283704751
:1051B000028B02F47F420283028B0A430283704710
:1051C00021B1828A42F02002828204E0828A4FF674
:1051D000DF731A408282704721B1828A42F0100246
:1051E000828204E0828A4FF6EF731A40828270470F
:1051F00021B1828A42F00802828204E0828A4FF65C
:10520000F7731A408282704721B1828942F40042CA
:10521000828103E08289C2F30E028281704721B14C
:10522000828A42F40062828204E0828A4FF2FF7333
:105230001A4082827047828A4FF6FB731A4082823C
:10524000828A0A438282704721B1828A42F0020236
:10525000828204E0828A4FF6FD731A408282704790
:1052600002460020B1F5007F00D100BF13880B403B
:105270000BB1012000E00020704701F40072B2F58C
:10528000007F00D100BFCA430280704770B502465C
:10529000002400230025002040F66A16B14200D108
:1052A00000BFC1F3421501F01F03012606FA03F304
:1052B000012D02D19689334006E0022D02D1168AD3
:1052C000334001E0968A33400C12012606FA04F4BA
:1052D0001688344013B10CB1012000E0002070BDED
:1052E00010B50022002340F66A14A14200D100BF8D
:1052F0000A1201249440A3B2DC43048010BD0000D4
:10530000003801400044004000480040004C00408C
:105310000050004031490143314A1160704770B577
:10532000002100230F22C47804B32D4C246804F418
:10533000E064C4F5E064210AC1F10403CA40447882
:1053400004FA03F18478144021430901254C0678BE
:10535000A155047804F01F050124AC4005786D11B7
:10536000AD0005F1E025C5F8004109E0047804F03E
:105370001F050124AC401C4D0678761145F82640E7
:1053800070BD1A4A0A400243154B1B1F1A60704732
:1053900039B1134A121D12680243114B1B1D1A60CA
:1053A00006E00F4A121D126882430D4B1B1D1A6046
:1053B0007047042808D14FF0E021096941F0040149
:1053C0004FF0E022116107E04FF0E021096921F080
:1053D00004014FF0E0221161704700000000FA055F
:1053E0000CED00E000E400E080E100E080FFFF1F42
:1053F00010B50446CC48844208D10121042000F0B5
:105400002DFB0021042000F029FB46E0C748844220
:1054100008D10121082000F021FB0021082000F024
:105420001DFB3AE0C248844208D10121102000F05F
:1054300015FB0021102000F011FB2EE0BD48844236
:1054400008D10121202000F009FB0021202000F0DC
:1054500005FB22E0B848844208D10121402000F039
:10546000FDFA0021402000F0F9FA16E0B34884422A
:1054700008D10121802000F0F1FA0021802000F005
:10548000EDFA0AE0AE48844207D10121801500F010
:10549000E5FA0021A01500F0E1FA10BD10B50121D8
:1054A000084600F0DBFA0021012000F0D7FA10BD19
:1054B0002DE9F041024600250026002000230024AB
:1054C000002791F803C00CF00F0591F803C00CF011
:1054D000100CBCF1000F03D091F802C04CEA050596
:1054E00091F800C0BCF1000F31D0146800202BE00F
:1054F0004FF0010C0CFA00F3B1F800C00CEA0306FF
:105500009E4220D183004FF00F0C0CFA03F7BC43EE
:1055100005FA03FC4CEA040491F803C0BCF1280F1F
:1055200006D14FF0010C0CFA00FCC2F814C00AE0DE
:1055300091F803C0BCF1480F05D14FF0010C0CFAF3
:1055400000FCC2F810C0401C0828D1D31460B1F888
:1055500000C0BCF1FF0F34DD546800202EE000F1E4
:10556000080C4FF0010808FA0CF3B1F800C00CEA7F
:1055700003069E4221D183004FF00F0C0CFA03F773
:10558000BC4305FA03FC4CEA040491F803C0BCF1E7
:10559000280F05D100F1080C08FA0CF8C2F81480A5
:1055A00091F803C0BCF1480F07D100F1080C4FF08F
:1055B000010808FA0CF8C2F81080401C0828CED365
:1055C0005460BDE8F0814FF6FF71018002218170C7
:1055D0000421C17070470246002093680B400BB154
:1055E000012000E0002070470146886880B27047C3
:1055F00002460020D3680B400BB1012000E00020E0
:1056000070470146C86880B27047016170474161C8
:1056100070470AB1016100E041617047C1607047A5
:105620004FF480320A4382618161826182698269BA
:10563000704702460020434B18684FF680731840AD
:1056400040EA021008433F4B186070473E49C8616A
:105650007047F0B50A46002300240021002500F021
:105660000046B6F1004F02D1364EF16901E0354EE9
:105670007168C0F3034583B200F44016B6F5401FCD
:1056800008D121F070612F4E766826F070662D4F9C
:105690007E6012E000F48016B6F5801F06D1032666
:1056A00006FA05F4A14341F0706106E0460D3601AB
:1056B00003FA06F6B14341F0706122B1460D36019E
:1056C00003FA06F6314300F00046B6F1004F02D16E
:1056D0001C4EF16101E01B4E7160F0BD30B500223F
:1056E0008B071C0F0F2303FA04F2164B08338C10A0
:1056F00053F824309343134C08348D1044F825306C
:1057000023468C1053F824308C07240F00FA04F43D
:1057100023430C4C08348D1044F8253030BD0A4921
:10572000DC3108607047000000080140000C0140B7
:10573000001001400014014000180140001C01400D
:10574000002001400000014000002042DF480068C6
:1057500040F00100DD49086008464068DC49084027
:10576000DA49486008460068DA490840D7490860C5
:105770000846006820F4802008600846406820F44D
:10578000FE0048604FF41F0088607047CF490968E9
:1057900021F48031CD4A11601146096821F480213D
:1057A0001160B0F5803F03D0B0F5802F0ED106E038
:1057B000C649096841F48031C44A116007E0C34911
:1057C000096841F4A021C14A116000E000BF00BF98
:1057D000704710B501460022002300204A11012A1B
:1057E00002D1BA4C236806E0022A02D1B74C236AE0
:1057F00001E0B64C636A01F01F02012494401C4092
:105800000CB1012000E0002010BD38B50020009050
:105810000024002500BF3120FFF7DBFF054600987C
:10582000401C00900098B0F5A06F01D0002DF2D080
:105830003120FFF7CEFF08B1012400E0002420460C
:1058400038BD01460020A14A106820F0F80040EA67
:10585000C10010607047A0490860704702460020F0
:105860009A4B586820F47C1042EA01031843974B86
:105870005860704798490866704701460020934A6F
:10588000506820F003000843506070478F4840681C
:1058900000F00C007047014600208C4A506820F050
:1058A000F00008435060704701460020874A506866
:1058B00020F4E06008435060704701460020834AAE
:1058C000506820F4605040EAC1005060704729B130
:1058D0007E4A527A02437D4B5A7204E07B4A527AE6
:1058E00082437A4B5A7270477B49D83108607047BF
:1058F00001460020754A506820F44040084350603B
:1059000070470021714A20321170704A82F82010CD
:10591000012802D004280AD104E001216B4A203278
:10592000117005E00521694A2032117000E000BFC6
:1059300000BF70476949086070476449096A0143BC
:10594000624A11627047654944390860704730B552
:1059500000210022002400235C4D6D6805F00C013D
:1059600021B1042905D0082923D105E05C4D05604B
:1059700022E05B4D05601FE0544D6D6805F4701228
:10598000524D6D6805F48034022505EB92421CB936
:10599000544D554305600BE04C4D6D6805F40035E2
:1059A0001DB1504D5543056002E04D4D5543056016
:1059B00002E04B4D056000BF00BF444D6D6805F02F
:1059C000F0010909484D6B5C0568DD4045603F4DBD
:1059D0006D6805F4E061090A434D6B5C4568DD4084
:1059E00085603A4D6D6805F46051C90A3E4D6B5CA7
:1059F0004568DD40C560354D6D6805F44041890B53
:105A00003A4D6B5CC568B5FBF3F5056130BD29B156
:105A10002E4A526902432D4B5A6104E02B4A5269C7
:105A200082432A4B5A61704729B1284A926902433E
:105A3000264B9A6104E0254A92698243234B9A617E
:105A4000704729B1214AD2690243204BDA6104E050
:105A50001E4AD26982431D4BDA61704729B11B4A45
:105A6000D2680243194BDA6004E0184AD2688243D4
:105A7000164BDA60704729B1144A12690243134B7E
:105A80001A6104E0114A12698243104B1A6170478F
:105A900012494039086070470F49C86470470B4984
:105AA000C87170470948406A40F0807007494862F1
:105AB000704701460020054A92680A400AB1012059
:105AC00000E00020704701498872704700100240D2
:105AD0000000FFF8FFFFF6FE000042428004424251
