:020000040800F2
:10000000781D0020153100081D3100081F3100083F
:1000100021310008233100082531000800000000CC
:100020000000000000000000000000002731000870
:10003000293100080000000001010008452B0008DC
:100040002F3100082F3100082F3100082F31000810
:100050002F3100082F3100082F3100082F31000800
:100060002F3100082F3100082F3100082F310008F0
:100070002F3100082F3100082F3100082F310008E0
:100080002F3100082F3100082F3100082F310008D0
:100090002F3100082F3100082F3100082F310008C0
:1000A0002F3100082F3100082F3100082F310008B0
:1000B0002F310008451B00082F3100082F310008A0
:1000C0002F3100082F3100082F3100082F31000890
:1000D0002F310008C12D00082F3100082F310008F2
:1000E0002F3100082F3100082F310008DFF80CD025
:1000F00005F09AFF00480047C7010008781D00205E
:1001000072B6EFF309800A4A0A4B20B1203880E822
:10011000F00F1168086018681060006890E8F00F30
:10012000203080F309884EF0040E62B6704700BF9D
:10013000AC000020B000002080F309887047000068
:100140002B482C4908602C48294908601420486035
:1001500041F2707088606320C860652008611920D2
:10016000486126A0886141F27070C861322008623F
:1001700023484862234888624006C8620120086319
:1001800000211B4880F83B1080F83A1080F83910A5
:100190000020174981F8380008640E2048640920BF
:1001A00088640B20C8641848006808651648001D5C
:1001B00000684865144808300068886500210C48CC
:1001C000C0F80C11704710B5FFF7BAFF0F49086867
:1001D00080470E48016E0E4888470C48416E0D4816
:1001E00088470A49886E804762B6002010BD00002B
:1001F00064010020A8000020A0BB0D00B9D80000B9
:1002000020F40E00A0860100E8F7FF1F0C0000207C
:100210002D0400084B0B0008A748D0F80C11F8304B
:10022000814204D13C38A449C1F80C0106E0A2483F
:10023000D0F80C011430A049C1F80C01704710B57A
:100240009D48D0F80C01006900B910BD9A4AD2F857
:100250000C2112691069994AD16C884700BFF4E7F4
:1002600010B59548D0F80C01C46804E0934A2069A1
:10027000D16C8847A469002CF8D110BD00218E48AC
:10028000D0F80C0101618C48BC308B49C1F80C01DD
:10029000704770B50446302C13D007DC082C17D2F9
:1002A000DFE804F00E174E5C104054A1A4F13100B9
:1002B0000728F4D2DFE800F0184756073F4F9B00AD
:1002C00000BF00BF00BF7D48D0F88C102046884793
:1002D00090E07B4801780078401C794D2870774881
:1002E000826D78A0904785E000207349C96F08604F
:1002F00001217148D0F88000016000216E48D0F8DB
:100300008400016001216C48D0F888000160002160
:100310006948D0F88C00016001216748D0F890004E
:10032000016067E06548416D4FF0FF308847054642
:1003300005F0BAFE5EE06148C1690320884759E0D4
:10034000FFF77DFF56E0FFF78BFF53E05B49D1F8E5
:10035000880080474EE0FFF75FFF4BE05DA0564905
:10036000886147E055485C4B4FF47A720121056C77
:100370000020A8475148584B4FF4FA620121056C00
:100380000846A8474D48544B40F6B8320121056C49
:100390000220A8474948504B4FF47A620121056C6E
:1003A0000320A84745484C4B41F288320121056C97
:1003B0000420A8474148484B41F270720121056C66
:1003C0000520A8473D48444B41F658320121056CB1
:1003D0000620A8473948404B41F658320121056CA8
:1003E0000720A84706E03DA03349886100BFFFF71A
:1003F00045FF00BF00BF70BD704710B52F482E49A4
:100400000C314268002090472C482B49103142683B
:100410000120904729482849143142680420904718
:1004200026482F49C26D0220904710BD08B5FFF73E
:10043000E4FF214894302049C1F80C011F48416F66
:100440004FF4FA6088471C48A8301B49C1F80C01DA
:1004500000240FE01948416F64208847052094FB71
:10046000F0F100FB1140C1B21348D0F8AC00401CC1
:100470000155641C102CEDDB0F48BC300E49C1F84F
:100480000C0118E00D49086F80470090009820F09B
:100490007F459DF80300012802D0022809D103E01E
:1004A000E8B2FFF7F6FE05E00E49096868188047D4
:1004B00000E000BF00BFE5E7640100200C00002061
:1004C000000000204C6F672054657374203D202588
:1004D000640A0000BFAA000019020008B9D8000091
:1004E000F9030008A000002010B5FE48D0F88410E1
:1004F000FD488847FD48FC499439C1F89400F94803
:10050000D0F88410F848143088472A20F849087039
:10051000002405E00021F648401C0155601CC4B2CF
:10052000102CF7DBF249F0489438C0F8AC10ED48D5
:10053000D0F88410EC4828308847EC494431EA4828
:100540009438C0F8BC10E748EA49D0F88020E64863
:1005500028309047E4489438E649086103208870C1
:10056000E548C861E54808624FF47A70486242F293
:10057000107088620D20087000204870D948E0494A
:10058000D0F88020D84828309047D7489038DC49A8
:100590000861032088706420C8610020086201207F
:1005A00048620A2088620620087001204870CD4801
:1005B000D449C26FCC4828309047CB488C38D149B9
:1005C0000861032088700E20087001204870C5481B
:1005D000CD49C26FC44828309047C3488838CA49BB
:1005E0000861032088700720087002204870BD4809
:1005F000C649C26FBC4828309047BB488438C349BD
:100600000861032088700F20087002204870B548E8
:10061000BF49C26FB44828309047B3488038BC49BE
:100620000861032088700620087003204870AD48D8
:10063000B849C26FAC4828309047AB487C38B549C0
:100640000861072088700120C8700F2008700320FF
:100650004870A448D0F88410A3483C308847A34988
:100660008831A1489438C0F8D0109E48AA49D0F8E3
:1006700080209D483C3090479B487838A6490861C7
:100680000320887041F64C50C8614FF47A600862CC
:10069000C0104862886207200870002048709148A6
:1006A0009E49D0F8802090483C3090478E4874385E
:1006B0009A490861032088703C20C861282008629C
:1006C0000120486288620E2008700020487085482A
:1006D0009349D0F8802084483C3090478248703855
:1006E0008F490861032088708348C8618D4808627B
:1006F0008D48486288628D48C860062008700120D5
:10070000487078488A49D0F8802077483C30904734
:1007100075486C3886490861032088708248C86132
:100720004010086242F21070486288627F48C860D8
:100730000E200870012048706A487E49D0F8802059
:1007400069483C309047684868387A490861052014
:100750008870012088807848C8614FF07E50086218
:10076000764848624FF07C5088620720087002206B
:1007700048705C487249C26F5B483C3090475A48A9
:1007800064386F490861082088700020C8706D487F
:100790004861082008700220487052486A49D0F821
:1007A000802051483C3090474F485938664908618D
:1007B000002088706320C861002008620120486220
:1007C0008862062008700320487046485F49D0F8C8
:1007D000802045483C30904743485A385B4908617F
:1007E000002088703B20C861002008620120486218
:1007F000886209200870032048703A485449D0F8AC
:10080000802039483C30904737485B385049086170
:10081000002088703B20C8610020086201204862E7
:1008200088620C200870032048702E484949D0F88F
:1008300080202D483C3090472B485C384549086162
:10084000002088703B20C8610020086201204862B7
:1008500088620F200870032048702248D0F8841066
:100860002148503088472149CC311F489438C0F87E
:10087000E4101C483849D0F880201B48503090477D
:1008800019485438344908610420887042F21070C5
:10089000C861012008624862642088620F200870E5
:1008A000002048700F482D49D0F880200E48503065
:1008B00090470D485038294908610320887063200B
:1008C000C8610E200862012048620A20886209205F
:1008D00008700120487003482149D0F88020024860
:1008E00050303FE00C000020F8010020006A0008B2
:1008F000740200208802002020F40E00C0270900A6
:10090000B4020020E0020020FC02002018030020B6
:1009100034030020500300206C03002098030020C3
:10092000C403002020A10700A08601006F12833AB3
:10093000F00300201C0400200000A040CDCCCC3DE2
:1009400048040020EC6900086404002090040020A2
:10095000BC040020E804002014050020400500200D
:100960006C050020904788488849086103208870FA
:100970000C20C8610120086248620A2088620C20AD
:1009800008700120487082488249D0F880207E4853
:100990009C3090477C48001D7E4908610320887088
:1009A0001F20C8610120086248620A2088620F2067
:1009B00008700120487076487749C26F72489C30B1
:1009C00090477148083074490861062088700720F4
:1009D000087002204870082088806D486F49C26FF7
:1009E00069489C30904768480C306C490861062083
:1009F00088700F20087002204870082088806448A2
:100A00006749C26F60489C3090475F481030644926
:100A100008610620887007200870032048700820AD
:100A200088805B48D0F884105748B03088475D49CB
:100A300055484838C0F8F81055485B49C26F5248CD
:100A4000B030904750484838C06E5749086103207D
:100A5000887005200870002048704D485349C26FC7
:100A60004948B030904748484838006F4F490861BE
:100A700003208870052008700120487044484C49C4
:100A8000C26F4148B03090473F484838406F4849AE
:100A900008610320887005200870022048703C48D7
:100AA0004449C26F3848B030904737484838806F63
:100AB00040490861032088700520087003204870B1
:100AC00033483D49C26F3048B03090472E484838CF
:100AD000C06D39490861022088700F20087000201D
:100AE00048702B483549C26F2748B0309047264898
:100AF0004838006E31490861022088700F20087064
:100B00000120487022482E49C26F1F48B0309047DC
:100B10001D484838406E2A490861022088700F201D
:100B20000870022048701A482649C26F1648B03033
:100B3000904715484838806E224908610220887025
:100B40000F2008700320487010BDFFF7CDFC0E4841
:100B50004838406B64301C49086013E00A48483844
:100B6000406B1949096888420CD307484838406BE4
:100B7000643015490860044A483AD2F80C01044A26
:100B8000916F8847EAE70000AC0100206C05002067
:100B90000C00002098050020C4050020E00500207E
:100BA000FC050020106B0008180600203406002009
:100BB000500600206C06002088060020A4060020B5
:100BC000C0060020DC06002004000020704700BFA3
:100BD0000100A0F10100FBD1704700B5034602E01F
:100BE0000820FFF7F4FF1800A3F10103F8D100BDBE
:100BF00000B5034603E04FF4FA50FFF7E8FF180092
:100C0000A3F10103F7D100BD10B50446102C02DB9F
:100C100012A005F049FA102C02DA1548005D10BD4B
:100C20003020FCE713B504468DF807401148C16E2B
:100C3000019888471CBD10B572B60F4800F07F4080
:100C40000E4908600E4800F07F400D49086000F032
:100C500076FD00F060F900F0B7FD10BD0A41535376
:100C60004552543A20686578203C2031360A00000D
:100C7000516B00080C000020370C0008A000002079
:100C8000A400002002464FF080700860081F014653
:100C900002606FF00103081F014603604FF012333A
:100CA000081F014603604FF00333081F014603602D
:100CB0004FF00233081F014603605B10081F014616
:100CC00003600023081F014603604FF01133081F23
:100CD000014603604FF01033081F014603604FF0D8
:100CE0000933081F014603604FF00833081F01460F
:100CF00003604FF00733081F014603604FF00633CF
:100D0000081F014603604FF00533081F01460360CA
:100D10004FF00433081F0146036008467047016026
:100D2000002242608260704770B5044689492046BF
:100D3000FFF7A8FF054629468748FFF7F0FF70BD7B
:100D400070B5044685492046FFF79CFF05462946B5
:100D50008348FFF7E4FF70BD82490968884205D0E7
:100D6000814908604FF08051804A1160704710B58A
:100D70007948806850B178488068401E764988601C
:100D80000846806810B90846FFF7E6FF10BD7848AE
:100D90007849C26D012090476F4872490860084643
:100DA0000068714908604FF080507049086062B671
:100DB00000BFFEE710B5044672B66F480088401CBD
:100DC0006D490880674800686549884215D16248C6
:100DD000406890B9002060498860084644606648D1
:100DE0000088401E0004000C6349088000D162B6F0
:100DF0005948FFF7B1FF012010BD6048008A28283C
:100E00000ADB5D480088401E0004000C5A49088037
:100E100000D162B60020EFE75848008A401C5749CD
:100E2000088208468068046008468068001D886063
:100E3000084680684968884203D9504800684F498D
:100E400088604D480088401E0004000C4A49088014
:100E500000D162B60120CFE710B572B646480088CF
:100E6000401C454908803C48406800B139E043488F
:100E7000008A00281FDD4148C06804683F48C068F8
:100E8000001D3E49C8600846008A401E0882084688
:100E9000C0684968884203D9384800683749C86043
:100EA00035480088401E0004000C3349088000D1FA
:100EB00062B6204610BD0020274988602E48008871
:100EC000401E0004000C2C49088000D162B6244862
:100ED000FFF742FF72B628480088401C2649088068
:100EE00000BF1D48446800201B4948602248008814
:100EF000401E0004000C2049088000D162B6204644
:100F0000D8E710B50446002C04DD1348846014486B
:100F1000FFF722FF10BD10B51948184908609C3032
:100F2000486008460068886008460068C86000207D
:100F30000882FFF701F913480D49086612490C4869
:100F4000416612498166124901671249C166124918
:100F5000416710BDEC0D0020301400202C1400203F
:100F60003C140020AC000020B000002004ED00E0A4
:100F70000C0000206F0D000808000020F80600207B
:100F80000C070020290D0008410D00088F0D0008F6
:100F9000590E0008B50D0008030F00082DE9F04FA9
:100FA00095B0044626786778A07809282CD2DFE827
:100FB00000F0052C547BB1E7FDFCFB00206990F8A4
:100FC00000B0584604F02AFE0790A16804F0CAFB5E
:100FD0000890E16804F01EFC099004F042FE82468D
:100FE0005246F7A10AA805F06FF8C5B207E00AA8B3
:100FF000405DF44901EB07118855701EC6B2280008
:10100000A5F10101CDB2F2D18AE12069B0F9000069
:101010001390139804F0F9FD0790A16804F0A2FB67
:101020000890E16804F0F6FB099004F01AFE82468D
:101030005246E3A10AA805F047F8C5B207E00AA89E
:10104000405DE04901EB07118855701EC6B22800CB
:10105000A5F10101CDB2F2D162E1206900881290C0
:10106000129804F0DBFD0790A16804F07BFB089068
:10107000E16804F0CFFB099004F0F3FD824652468C
:10108000CFA10AA805F020F8C5B207E00AA8405D84
:10109000CC4901EB07118855701EC6B22800A5F196
:1010A0000101CDB2F2D13BE12069D0F800A0E068A7
:1010B00004F03AFECDE90601A06804F035FECDE962
:1010C0000201504604F0AFFDCDE90001DDE9022345
:1010D00004F016FCCDE90401DDE9062304F0B6FCBA
:1010E000CDE9080104F0EAFD82465246B4A10AA8FF
:1010F00004F0EAFFC5B207E00AA8405DB14901EB80
:1011000007118855701EC6B22800A5F10101CDB2A5
:10111000F2D105E12069D0F80080E06804F004FE17
:10112000CDE90601A06804F0FFFDCDE902014046CB
:1011300004F08AFDCDE90001DDE9022304F0E0FBC3
:10114000CDE90401DDE9062304F080FCCDE90801C6
:1011500004F0D3FD804642469BA10AA804F0B4FFE8
:10116000C5B207E00AA8405D964901EB0711885512
:10117000701EC6B22800A5F10101CDB2F2D1CFE0B8
:10118000206900681190A168119804F0EBFA0990A9
:10119000E16804F03FFB1190A088C5B2CDB18BA1EE
:1011A00003C9CDE90F0102E099E07AE02AE0284680
:1011B000FFF72AFD8DF83E00119804F0B5FD0246B8
:1011C0000B46CDE908010FA90AA804F07DFFC5B2BE
:1011D00009E0119804F045FD024679A109900AA89A
:1011E00004F072FFC5B207E00AA8405D754901EB43
:1011F00007118855701EC6B22800A5F10101CDB2B5
:10120000F2D18DE02069D0F80080E06804F08CFD18
:10121000CDE90601A06804F087FDCDE90201404652
:1012200004F012FDCDE90001DDE9022304F068FBC2
:10123000CDE90401DDE9062304F008FCCDE908014D
:1012400004F05BFD8046A088C5B29DB10CE008F0BB
:101250000F00FFF7D9FC5B4901EB071188554FEAF6
:1012600018180EB1701EC6B22800A5F10101CDB24A
:10127000EDD115E03020534901EB071188550CE002
:1012800008F00F00FFF7C0FC4E4901EB071188552D
:101290004FEA18180EB1701EC6B2B8F1000FEFD1A8
:1012A0003EE02069D0F80090484604F053FAC5B2F9
:1012B000E078012802D1701C401BC6B209E019F881
:1012C000010B404901EB071188550F2E01DA701C04
:1012D000C6B22800A5F10101CDB2F0D120E020690D
:1012E000D0F80080606950F82890484604F032FA3F
:1012F000C5B2E078012802D1701C401BC6B209E0DB
:1013000019F8010B2F4901EB071188550F2E01DA4F
:10131000701CC6B22800A5F10101CDB2F0D100BF0A
:1013200000BF15B0BDE8F08F10B52A48006804680A
:101330002CB920224021234804F0F9F904E040228E
:101340002146204804F0E1F910BD2DE9F041214883
:10135000006847680FB9BDE8F08197F80080002465
:101360001DE0002517E0781C465D052E02DB1AA063
:1013700004F09AFEC4F10400B04205DC114800EB11
:10138000041000F8058004E020200E4901EB041150
:101390004855681CC5B2102DE5DB601CC4B2042C96
:1013A000DFDB00BFD7E710B50A480068846803E0B8
:1013B0002046FFF7F3FDA469002CF9D110BD000011
:1013C000256400008814002025750000252E6E6617
:1013D00000000000B80000200A4153534552543A1F
:1013E00020636F6C756D6E203C20350A0000000094
:1013F00010B5E2480068C46819E0E0480068006978
:10140000A0420FD1DE480078401CC0B2DC49087011
:10141000042801D100200870D9480078022801DA98
:10142000A46904E02046FFF7B9FDA46900BF002CC1
:10143000E3D110BD70B5002500240CE0D148005D5B
:10144000D149095D884204D0CF48005DCD49085597
:101450000125601CC4B2402CF0DB012D1CD1CB480F
:10146000816B02208847002410E0C6490819C7494B
:10147000CA6B10219047C548816B0D208847C3482F
:10148000816B0A20884704F11000C4B2402CECDBC9
:10149000BE48816B0320884770BD10B50446B7482D
:1014A0000460FFF741FFFFF750FFFFF77CFFFFF7F6
:1014B0009FFFFFF7BFFF10BD002101604160816009
:1014C000C1600161704700220A618A808A604FF022
:1014D0007E52CA6000224A6182688A6181607047D8
:1014E00000230B61CB610B624B628B628B808B6044
:1014F0004FF07E53CB6000234B618B61C3680BB907
:10150000C1607047C26800E092699369002BFBD10B
:10151000916100BFF5E799480068006930B99748C4
:101520000068C06895490968086170479348006879
:101530000069806991490968086100BFF5E72DE9F4
:10154000F14F8AB08D480068046914B90BB0BDE84A
:10155000F08F276994F80280B8F1090F7CD2DFE898
:1015600008F04805571566AB67EA47002069B0F9EF
:101570000060E06900B20990206A00B20890606AD9
:1015800000B20790A06A00B206900AE020690668DF
:10159000E0690990206A0890606A0790A06A069046
:1015A00000BF0A9830B104280AD0302805D034286A
:1015B0000CD108E00798064408E00698064405E0C8
:1015C0000798361A02E00698361A00BF00BF09983D
:1015D000864201DD099E03E00898864200DA089EF3
:1015E000B8F1030F01D13E6001E030B23880A3E0D2
:1015F00000BF20690578E06900F0FF0B206AC0B2E7
:101600000590606A00F0FF09A06A00F0FF0A1AE086
:1016100020690588E0691FFA80FB206A80B2059086
:10162000606A1FFA80F9A06A1FFA80FA0BE000BF17
:1016300020690568D4F81CB0206A0590D4F824907D
:10164000D4F828A000BF0A9838B1042809D030285F
:1016500005D0342813D10BE06DE04D440FE0554424
:101660000DE04D4501D2002501E0A5EB090506E09E
:10167000554501D2002501E0A5EB0A0500BF00BFDA
:101680005D4501D95D4603E00598854200D2059D80
:10169000B8F1090F0ED2DFE808F0060D080D0A0DAB
:1016A0000B0D050000BF3D7004E03D8002E000BF6F
:1016B0003D6000BF00BF3FE0206900680490E06922
:1016C0000390206A0290606A0190A06A00900A98D4
:1016D00030B1042810D0302808D0342818D111E0B7
:1016E0000199049804F03EF8049011E000990498E0
:1016F00004F038F804900BE00199049804F084F8A1
:10170000049005E00099049804F07EF8049000BF6E
:1017100000BFDDE9031004F043FB02D203980490FC
:1017200006E00299049804F031FB01D2029804907B
:101730000498386000E000BF00BF00BF06E700204B
:1017400006E02021104A11540E4A1154411CC8B21F
:101750004028F6DB0E490D4A91670E4A0B49CA67CD
:101760000D4AC1F880200D4AC1F884200C4AC1F806
:1017700088200C4AC1F88C2070470000B800002077
:10178000B400002048140020881400200C00002021
:101790009B140008C7140008E1140008B9140008DD
:1017A000171500083F15000810B5002807DA0A07CA
:1017B000140E174A00F00F031B1FD45403E00A074E
:1017C000130E144A135410BD10B501F02AFB00F09B
:1017D0009EF800F0EFF900F0A2FB00F0F1FC00F041
:1017E000F1FD00F026FF01F0E5F801F08AFB01F0C1
:1017F00004FA4FF4A06001F0A5FE0E214FF0FF3077
:10180000FFF7D2FF0F216FF00100FFF7CDFF10BDF2
:1018100018ED00E000E400E0002004E08849894A77
:1018200042F82010401C0528F8DB7047854A42F832
:1018300020107047844885490968C865801C834921
:1018400009680866801C814909684866801C7F49D0
:101850000968886670472DE9F04F89B04FF000089D
:101860004FE04FF00009CA4609E00AEB8A007849C8
:1018700001EB400030F8180081440AF1010ABAF186
:10188000080FF2DB4FEAD909B8F1040F08DA6E4904
:1018900021F818906B4951F82810A1F800902EE01B
:1018A000484604F0BBF983464FF08B41584603F09D
:1018B000E7FF019004F038FA4FF06632654BCDE94E
:1018C000020104F0C3F80446634A644B04F0BBF819
:1018D000634A644BCDE9040104F028F90022624B0D
:1018E000CDE9060104F00CF8064604F033FA83460D
:1018F000584604F0CFF9534951F82810088008F1F0
:101900000108B8F1050FACDB09B0BDE8F08F00B5F8
:1019100091B001214FF4047002F096F90F20ADF858
:10192000400000208DF8430010A9504801F0D8FE77
:101930004FF4004002F0EFF84D4802F0C9FC0020DF
:101940000B9001208DF830008DF831004FF46020AD
:101950000D9000200E9005208DF83C000BA9444806
:1019600002F0DDFC01231A460A21414802F06FFD16
:10197000012302220B213E4802F069FD01230322CC
:101980000C213B4802F063FD012304220D2138485D
:1019900002F05DFD032305221021354802F057FDBA
:1019A000012002F070FE0121314802F0EFFC01211C
:1019B0002F4802F0E0FC2E4802F0FFFC00BF2C484C
:1019C00002F000FD0028FAD1294802F005FD00BF11
:1019D000274802F006FD0028FAD10121084602F04E
:1019E00026F9244802F092FE21484C300090184815
:1019F0000190002002902820039000200490802075
:101A0000059040000690800007902020089000027A
:101A1000099000200A906946164802F019FF01213A
:101A2000134802F0E8FC0121124802F03CFFFFF7E6
:101A3000F3FEFFF7FFFE10481049486011B000BDEB
:101A4000C400002018150020BC000020A8000020C1
:101A5000C814002066660A40E17A14AE47E1F63FFA
:101A600022FDF675E09C713F0000394000100140F6
:101A700000240140080002402D1800080C0000203E
:101A800010B586B004460121042002F0DDF8F020F4
:101A9000ADF8140004208DF8170003208DF816000F
:101AA00005A94A4801F01CFE012C38D10121022071
:101AB00002F0D7F81D208DF8100000208DF81100DD
:101AC00001208DF812008DF8130004A801F03FFDED
:101AD0000420ADF804000020ADF806000120ADF8A8
:101AE00008000020ADF80A00ADF80C0001A9384844
:101AF00003F0C5FA6021364803F07EFB0421344828
:101B000003F0A8FD8021324803F0ADFD01213048EB
:101B100003F028FB012204212D4803F048FB06B006
:101B200010BD2C482C490968C866011D2A48006868
:101B30000167091D284800684167091D264800689B
:101B40008167704710B50421214803F0DBFD204870
:101B500003F0ABFD2149088008460088A0B11C486D
:101B600003F0A0FD642148431C49098890FBF1F073
:101B700000B21B4908801B48006818490988B0FB5F
:101B8000F1F01949086004E0002015490880164961
:101B90000860154800681549096808601048B0F9E0
:101BA000000013490968088010BD104A1060104AEF
:101BB0001160704710B5FFF7B4FF0E490E48816001
:101BC0000E49C1600020FFF75BFF10BD0008014017
:101BD0000004004010012142A8000020D000002095
:101BE000D200002038010020D4000020CC000020CA
:101BF000C8000020811A00080C000020AB1B000860
:101C000038B504460121082002F01EF874B94FF2DD
:101C10000300ADF8000010208DF8030003208DF8BC
:101C200002006946C74801F05BFD16E0012140F65D
:101C3000010002F009F80121022002F012F84EF230
:101C40000300ADF8000018208DF8030003208DF884
:101C500002006946BB4801F043FD38BDBA48BB49A4
:101C60000968C867011DB9480068C0F88010B64906
:101C70003031B6480068C0F88410091DB3480068C8
:101C8000C0F88810091DB1480068C0F88C10091D03
:101C9000AE480068C0F89010704710B50446062C96
:101CA00023D2DFE804F003090F10161C01220821DB
:101CB000A74803F04EFC19E001220C21A44803F0D0
:101CC00048FC13E012E004220021A24803F052FC79
:101CD0000CE0042211469F4803F04CFC06E004226D
:101CE00008219C4803F046FC00E000BF00BF10BD87
:101CF00010B50446062C23D2DFE804F003090F10C8
:101D0000161C00220821924803F023FC19E000224F
:101D10000C218F4803F01DFC13E012E00022114655
:101D20008C4803F027FC0CE000220421894803F0D2
:101D300021FC06E000220821864803F01BFC00E09D
:101D400000BF00BF10BD70B505460C46062D1ED263
:101D5000DFE805F003080D0E1318A1B27C4803F06C
:101D600093FC15E0A1B27A4803F090FC10E00FE07C
:101D7000A1B2784803F084FC0AE0A1B2754803F0F0
:101D800081FC05E0A1B2734803F07EFC00E000BFD7
:101D900000BF70BDF0B587B004460F4615461E461D
:101DA000781E80B2ADF81000681E80B2ADF8140045
:101DB0000020ADF81600ADF812008DF81800602074
:101DC000ADF80000B0B2ADF80600062C7DD2DFE819
:101DD00004F0031E393A5C8004A95D4802F092FECB
:101DE0000120ADF802000020ADF80800694658480F
:101DF00002F050FF0821564803F000FB012154482F
:101E000003F0B8FA0121524803F0ACF984E004A9C8
:101E10004F4802F077FE0120ADF802000020ADF837
:101E2000080069464A4802F07CFF0821484803F050
:101E3000EEFA0121464803F09DFA0121444803F0DF
:101E400091F969E068E004A9424802F05BFE0020D5
:101E5000ADF802000420ADF804000020ADF80A003F
:101E600069463C4802F08BFE08213A4803F0B2FA7A
:101E70000121384803F07EFA0121364803F072F957
:101E80000121344803F07AF946E004A9314802F010
:101E900039FE0020ADF802000420ADF80400002057
:101EA000ADF80A0069462B4802F0ABFE082129482C
:101EB00003F099FA0121274803F05CFA0121254833
:101EC00003F050F90121234800E024E003F056F923
:101ED00022E004A91F4802F015FE0020ADF8020020
:101EE0000420ADF804000020ADF80A006946194846
:101EF00002F0D0FE0821174803F080FA01211548AE
:101F000003F038FA0121134803F02CF9012111489C
:101F100003F034F900E000BF00BF07B0F0BD10B51A
:101F2000FFF79CFE0C490D4841610D4981610D4947
:101F3000C1610D4941620D4901620020FFF760FE59
:101F400010BD0000000C014080812142A80000204B
:101F500000040040002C0140011C00080C0000207F
:101F60009B1C0008F11C0008471D0008951D000877
:101F70000146F7291ED008DC7F2913D0BF290FD0D6
:101F8000DF290BD0EF2917D106E0FB2910D0FD295E
:101F90000CD0FE2910D107E0002070470120FCE79B
:101FA0000220FAE70320F8E70420F6E70520F4E72B
:101FB0000620F2E70720F0E7FF20EEE70146F729C9
:101FC0001ED008DC7F2913D0BF290FD0DF290BD00A
:101FD000EF2917D106E0FB2910D0FD290CD0FE29EE
:101FE00010D107E0302070473120FCE73220FAE7BB
:101FF0003320F8E73420F6E73520F4E73620F2E71F
:102000003720F0E7FF20EEE710B5FF249648006880
:1020100008B904F07F049548006808B904F0BF04CB
:102020009348006808B904F0DF049248006808B9D2
:1020300004F0EF040020904908604FF001008F4940
:10204000C1F89401FEF7C9FD8748006808B904F09B
:10205000F7048648006808B904F0FB048448006867
:1020600008B904F0FD048348006808B904F0FE04D0
:102070000020834908604FF001008049C1F89001B9
:10208000204610BD70B57F480078012802D100209D
:102090007D4908607B480078002804DD7948007895
:1020A000401E78490870FFF7AFFF0546FF2D24D08A
:1020B00076480078401C7549087000207449087003
:1020C00072480078012802D17248057076E06F48A6
:1020D0000078022802D16F4845706FE06B480078A5
:1020E000032802D16B48857068E06848007828288A
:1020F00064DD28206549087060E065480078401C70
:102100006349087008460078042857DB04200870EB
:102110006148007840B160480078401E5E49087010
:1021200000205A49087070BD58480078042800DA29
:10213000F9E75848007857494978884202D155480C
:10214000047815E05348007852498978884202D1D2
:10215000504804780CE04F4840784E4989788842CE
:1021600002D14C48447803E0002048490870DAE77F
:1021700046480078282804D12046FFF71FFF044670
:1021800009E042480078042804DB2046FFF7F0FE0F
:10219000044600E0FF24FF2C0CD021460120FEF76E
:1021A00041FD0120384908604FF01400354908709E
:1021B000394908704FF000003449087000BFB2E799
:1021C00008B50121192001F03FFD0121334801F03C
:1021D00056FB00202A4908604FF001002749C1F84A
:1021E00090014FF03000ADF800004FF014008DF872
:1021F00003004FF002008DF802006946284801F004
:102200006FFA0820ADF8000048208DF80300022086
:102210008DF802006946224801F062FA4FF4E0505E
:10222000ADF8000002208DF8020048208DF8030070
:1022300069461C4801F054FA0020134908604FF029
:1022400001014FF0040001F0FFFC0220ADF8000096
:1022500010208DF8030002208DF802006946124814
:1022600001F03EFA08BD00000C81214230012242FB
:102270002C012242280122429081214200802142E9
:1022800094812142DB00002084012142D8000020FB
:10229000D9000020DC000020DA000020000430001B
:1022A000000C0140001001400008014070B50446D8
:1022B00004F0F0004FF4780141EA002004F00F012F
:1022C00040EA01160020754908604FF0010074498A
:1022D000C1F8A0014FF017051FE026FA05F010F035
:1022E000010F03D001206F49086002E000206D4912
:1022F00008604FF00A00FEF770FC01206749086093
:102300004FF00A00FEF769FC00206549C1F8A401FE
:102310000A20FEF762FC681E05B2002DDDDA0020FF
:102320006149086070BD70B5044604F0F0004FF4D8
:102330007A0141EA002004F00F0140EA0116002072
:10234000564908604FF001005549C1F8A0014FF00F
:1023500017051FE026FA05F010F0010F03D0012049
:102360005049086002E000204E4908604FF00A0022
:10237000FEF733FC0120494908604FF00A00FEF7E0
:102380002CFC00204649C1F8A4010A20FEF725FCD8
:10239000681E05B2002DDDDA00204349086070BDDB
:1023A00070B505460C464149485DFFF77FFF0026A2
:1023B00005E014F8010BFFF7B6FF701CC6B2102E33
:1023C000F7DB70BD08B50121102001F03DFC0020B5
:1023D000324908604FF40070ADF800004FF0100073
:1023E0008DF803004FF002008DF802006946304876
:1023F00001F076F900202A49C1F8A0014FF480705D
:10240000ADF8000010208DF8030002208DF80200C6
:102410006946274801F064F90020224908604FF01E
:102420008000ADF800004FF010008DF803004FF071
:1024300002008DF8020069461D4801F051F90020A4
:102440001749C1F898014020ADF8000010208DF820
:10245000030002208DF802006946154801F040F99A
:102460006420FEF7C5FB0120124908604FF03000E0
:10247000FFF71CFF0C20FFF719FF0120FFF716FFE5
:102480000220FFF713FF8020FFF710FF0120FFF766
:102490000DFF09490948C16208BD0000A40122429C
:1024A000000022429C012242A0012242616B0008EE
:1024B0000010014098012242A12300080C000020D6
:1024C0002A480078401CC0B22849087064284CD1C2
:1024D000002008702648006890F838003B2809DA88
:1024E0002348006890F83800401C2149096881F8A9
:1024F00038003AE000201E49096881F838001C487D
:10250000006890F839003B280ADA1948006890F80A
:102510003900401CC1B21648006880F8391024E028
:1025200000211348006880F839101148006890F8BD
:102530003A0017280ADA0E48006890F83A00401C62
:10254000C1B20B48006880F83A100EE0002108483C
:10255000006880F83A100648006890F83B00401C7C
:10256000C1B20348006880F83B107047DF000020CC
:10257000A800002070B500243148006800B970BD83
:102580002F4805682AE005F00100012824D12D48D4
:1025900050F83400401E2B4941F834001CD1012072
:1025A000A040274909688143254801602648006802
:1025B000E04010F0010F0AD0224800EBC400406850
:1025C000224A1268811A0220FEF72CFB04E01D4902
:1025D00001EBC401486880476D08641C002DD2D10E
:1025E00000BFCCE730B5174C44F8302004EBC004F2
:1025F000636039B101248440134D2D682C43124D82
:102600002C6006E0012484400F4D2D68A5430E4C3C
:102610002560012484400A4D2D682C43084D2C6010
:1026200030BD01218140064A12688A4304490A608C
:102630007047074907480164074941647047000033
:10264000E00000202C150020E4000020A000002065
:10265000E52500080C0000202326000810B501F035
:102660007AFB352001F010FE10BD10B501F07FFBA4
:1026700010BD70B5ADF5027D002416E0D5480068A8
:1026800050F83400401C0ED0D248006850F8340096
:102690004DF82400CF48006800EBC40040685DF8A6
:1026A0002410086000E002E0641C802CE6DB00BF20
:1026B000C9494C808020888008464088022803DA77
:1026C0000846408808804EE00026002413E0651C80
:1026D0000BE05DF824005DF82510884204D100204D
:1026E0004DF82400012604E06D1CBB484088A84238
:1026F000EFDC00BF641CB8484088401EA042E6DC06
:1027000026B9B5484088B44908802CE0FFF7A6FFF9
:10271000B24801F066FB002500241CE05DF82400AF
:1027200000B917E05DF8240080905DF8240000688F
:102730008190A84A8099126802EBC50001F021FC43
:10274000A44A8199126802EBC502101D01F019FC20
:102750006D1C00BF641CA0484088A042DEDCFFF76F
:1027600084FF9D490D809C4800889B49C8809CA09F
:1027700003F09AFC984881889AA003F095FC96484B
:1027800041889EA003F090FC93480188A1A003F02B
:102790008BFC9148C188A4A003F086FC0DF5027D56
:1027A00070BD70B5044625460CB9002070BD8A483E
:1027B000C08889498988884201D10020F6E7FFF75F
:1027C0004DFF8549C988834A126802EBC10029463A
:1027D00001F0D7FB804AD2887E4B29681B6803EB47
:1027E000C202101D01F0CDFBFFF73FFF7A48C08801
:1027F000401C7949C8800120D8E770B54FF440608B
:102800008E4948818E48086008460068486000206C
:1028100008818B4D002409E02878FF2804D18748DF
:10282000456001460C8104E06D1C641CB4F5406FEA
:10283000F2DB00BF83A003F037FC8048418982A00F
:1028400003F032FC7D48018985A003F02DFC7B4814
:10285000016889A003F028FC784841688BA003F048
:1028600023FC78A003F020FC70BD10B5FFF7F6FE46
:10287000002405E0724901EB842001F0B2FA641CE7
:10288000032CF7DBFFF7F1FE6D486C4908604860E8
:102890000020088110BD10B5024669490878FF285C
:1028A00001D17FA010BD1AB96548644C2060F9E7DA
:1028B000501C18D161480368016800BF11F8014B32
:1028C000002CFBDC087800B9491C0878FF2802D0EE
:1028D0004248814203D95A48584C206001E0574889
:1028E00001601846DEE7002A1DDD0EE00878FF28AB
:1028F00001D16BA0D6E700BF08780028FCDC491C9A
:1029000000BF08780028FCD0491C1000A2F1010289
:10291000ECD10878FF2802D03048814201D960A06C
:10292000C0E70846BEE760A0BCE70FB4F0B59BB0B7
:1029300001AE002503E0002026F8020B6D1C322DAD
:10294000F9DB21A81A9001A81A9A209903F0D0FB6C
:10295000044600201A901CB91BB0F0BC5DF814FBB3
:10296000641C14F0010F00D0641C3448008920441A
:10297000B0F5406F01DB0020EEE7671001AEFFF716
:102980006DFE00250BE031882C4A506801F029FBD0
:102990002A484068801C29494860B61C6D1CBD420D
:1029A000F1DBFFF762FE25480089204423490881B6
:1029B0000120D1E710B5FFF75CFE3F493F48C164F5
:1029C000FFF71BFF3E493D4801653E4941653E49D1
:1029D000816510BDE8000020EC00002000FC00082C
:1029E0000A0A0A000AB2CECAFDD7DCB4E6B4A2BF16
:1029F000D5BCE4203D202564000000000AB2CECA08
:102A0000FDD2D1B4E6B4A2BFD5BCE420203D202540
:102A1000640000000AB2CECAFDB4E6B4A2B8F6CA99
:102A2000FD203D20256400000AB2CECAFDD0B4C806
:102A3000EBB5E3203D202564000000006C1500206C
:102A400000F000080A0A00000AC8D5D6BED7DCB4D8
:102A5000E6B4A2BFD5BCE4203D2025640000000000
:102A60000AC8D5D6BED2D1B4E6B4A2BFD5BCE42044
:102A7000203D2025640000000AC8D5D6BEB6C1C8D6
:102A8000A1B5E3203D202578000000000AC8D5D676
:102A9000BED0B4C8EBB5E3203D202578000000008F
:102AA0004E756C6C0A000000417267756D656E743E
:102AB0004572726F720A0000A32700080C00002004
:102AC0006B280008972800082B29000810B502463B
:102AD0002AB3012A12D0022A32D15E4800780A288D
:102AE00001D1002010BD5B4803780078401C594C90
:102AF0002070594840F823100120F3E75748007828
:102B0000042801D10020EDE7544803780078401CE8
:102B1000524C2070524840F823100120E2E75148FF
:102B20000078022801D10020DCE74E4803780078C5
:102B3000401C4C4C20704C4840F823100120D1E739
:102B40000020CFE710B549480078401CC0B2474983
:102B50000870642801D10020087043490868804744
:102B6000414948688047FEF776FE404800780A21D0
:102B700090FBF1F0C4B23D48007890FBF1F201FB0C
:102B800012000A2837D2DFE800F005090D11151AE6
:102B9000222528293249086880472CE030494868B6
:102BA000804728E02E498868804724E02C49C8687F
:102BB000804720E0284951F8240080471BE02C483A
:102BC0000068406B401C2A490968486313E000F024
:102BD000C3F810E0FFF7CEFC0DE00CE014B1012CBF
:102BE00006D102E0FFF76CFC03E0FFF74BFA00E0D0
:102BF00000BF00BF00BF00BF10BD30B51D4800685A
:102C000042F21072B0FBF2F1B1F1807F00D31DE00F
:102C100021F07F40401E4FF0E022506150170F22FC
:102C2000002807DA13071D0E134B00F00F04241FB2
:102C30001D5503E013071C0E104B1C5400BF002051
:102C40004FF0E02290610720106100BF0C490D4851
:102C5000C16530BD340100200C0100203501002089
:102C6000FC00002036010020F40000203701002085
:102C7000A80000203801002018ED00E000E400E08A
:102C8000CD2A00080C00002092489349086000F209
:102C9000E730486008460068886008460068C860F9
:102CA00000200882704701468B48008AB0F57A7F81
:102CB00001DB002070478848806801708648806882
:102CC000401C854A9060104680685268904203D943
:102CD00081480068804A906072B680480088401C35
:102CE0007E4A10807C48008A401C7B4A10827B48C8
:102CF0000088401E0004000C784A108000D162B6A3
:102D00000120D7E770B504460D464DB103E014F835
:102D1000010BFFF7C8FF2800A5F10105F7D10DE071
:102D200009E020780A2802D10D20FFF7BCFF14F833
:102D3000010BFFF7B8FF20780028F2D170BD70B505
:102D400004460D460A2C02D10D20FFF7ACFFE0B27D
:102D5000FFF7A9FF204670BD5F48008A00B97047A1
:102D60005F48008810F0400F00D1F8E75A48C0686B
:102D700000785B49091D08805748C068401C5649C7
:102D8000C8600846C0684968884203D9524800684C
:102D90005149C86072B651480088401C4F490880AC
:102DA0004D48008A401E4C4908824C480088401E0D
:102DB0000004000C4949088000D162B600BFCEE78C
:102DC00010B540F22551464800F079FB38B144482F
:102DD00000F0F5FAC4B221460120FDF723FF0821D7
:102DE0003F4800F056FB012802D13D4800F0E7FAC9
:102DF00010BD10B5012240F22551394800F077FA94
:102E00000121374800F067FA10BD10B5002240F2EA
:102E10002551334800F06BFA0021314800F05BFA8D
:102E200010BD00B587B0012144F2050000F00CFF91
:102E30004FF40070ADF8180003208DF81A00182028
:102E40008DF81B0006A9274800F04AFC4FF480606B
:102E5000ADF8180048208DF81B0006A9214800F0A5
:102E60003FFC25208DF8040003208DF805008DF827
:102E7000060001208DF8070001A800F068FB4FF460
:102E8000E13002900020ADF80C00ADF80E00ADF876
:102E90001000ADF814000C20ADF8120002A9104883
:102EA00000F08DF9012240F225510D4800F01FFA83
:102EB00001210B4800F00FFAFFF7E6FE0A490B4824
:102EC00001630B4941630B4981630B49C16307B03F
:102ED00000BD00008C15002078150020080000209F
:102EE0000038014000080140F32D00080C000020CC
:102EF0000B2E0008A72C0008052D00080F490860BC
:102F0000704708B50121042000F09EFE00200B4907
:102F100008604FF00200ADF800004FF010008DF88F
:102F200003004FF002008DF802006946044800F0EB
:102F3000D7FB04490448816208BD00008401214296
:102F400000080140FD2E00080C0000200021002098
:102F5000674A126842F48032654B1A6000BF644AC7
:102F6000126802F40030491C10B9B1F5A06FF6D117
:102F70005F4A126812F4003F01D0012000E00020F7
:102F8000012842D15B4A126842F01002594B1A6084
:102F90001A46126822F003021A601A46126842F0BA
:102FA00002021A60524A5268514B5A601A465268DD
:102FB0005A601A46526842F480625A601A46526851
:102FC00022F47C125A601A46526842F4E8125A609F
:102FD0001A46126842F080721A6000BF444A1268B2
:102FE00012F0007FFAD0424A526822F00302404BAE
:102FF0005A601A46526842F002025A6000BF3C4AC8
:10300000526802F00C02082AF9D1704710B5FFF798
:103010009DFF10BD10B53648006840F001003449EE
:10302000086008464068344908403149486008460D
:103030000068324908402E4908600846006820F4BC
:10304000802008600846406820F4FE0048604FF485
:103050001F008860FFF7DAFF4FF000602849086022
:1030600010BD10B5002100200022214B5B6803F049
:103070000C0121B1042906D0082928D107E0214BF1
:10308000214C236027E01F4B1F4C236023E0184B8B
:103090005B6803F47010164B5B6803F48032022304
:1030A00003EB904022B9194B4343174C23600DE0CA
:1030B0000F4B5B6813F4003F04D0144B4343124C96
:1030C000236003E00F4B43430F4C236003E00D4BA1
:1030D0000D4C236000BF00BF054B5B68C3F30313B7
:1030E0000B4CE15C084B1B68CB40074C236010BDC8
:1030F00000100240002002400000FFF8FFFFF6FE33
:1031000008ED00E000127A003801002000093D00BF
:103110003C0100200648804706480047FEE7FEE7DE
:10312000FEE7FEE7FEE7FEE7FEE7FEE7FEE7FEE777
:1031300015300008ED00000810B50446FC48844234
:1031400009D10121880300F099FD00214FF480404E
:1031500000F094FD32E0F748844209D1012148048F
:1031600000F099FD00214FF4003000F094FD25E0BF
:10317000F148844209D10121880400F08CFD00212E
:103180004FF4802000F087FD18E0EC48844209D11C
:103190000121C80400F07FFD00214FF4002000F061
:1031A0007AFD0BE0E648844208D10121080500F0D1
:1031B00072FD00214FF4801000F06DFD10BD2DE96F
:1031C000F04786B005460E460024A24600BFA14641
:1031D0000027B08900B100BF2F462C8A4CF6FF7043
:1031E0000440F08804432C82AC894EF6F31004406E
:1031F000B08831890843718908430443AC81AC8AA3
:103200004FF6FF400440B0890443AC8201A800F0AF
:10321000AEFCC748874202D1DDF810A001E0DDF81E
:103220000CA0A88910F4004F08D00AEBCA0000EBEC
:103230000A1031684900B0FBF1F807E00AEBCA0058
:1032400000EB0A1031688900B0FBF1F86420B8FB8C
:10325000F0F004012009642101FB1089A88910F411
:10326000004F08D0322000EBC900B0FBF1F000F0B5
:103270000700044308E0322000EB09106421B0FB92
:10328000F1F000F00F0004432C8106B0BDE8F08798
:103290004FF41651016000218180C18001810C2111
:1032A000418100218181704710B502460020108ABB
:1032B0004FF2FF0318400B884C8823438C8823432C
:1032C000CC8823431843108210BD00210180418027
:1032D0008180C180704721B1828942F4005282818D
:1032E00004E082894DF6FF731A4082817047F0B581
:1032F00003460024002600250020A1F510676A3F40
:1033000000D100BF1846C1F3421401F01F06012787
:1033100007FA06F5012C01D10C3004E0022C01D192
:10332000103000E014301AB107682F43076002E044
:103330000768AF430760F0BD10B51AB1838A0B432D
:10334000838204E0838ACC43A4B22340838210BDED
:10335000028A4FF6F0731A400282028A0A430282FE
:10336000704782894FF2FF731A40828182890A4333
:103370008281704721B1828942F00202828104E099
:1033800082894FF6FD731A4082817047028A4FF698
:10339000DF731A400282028A0A430282704721B117
:1033A000028A42F48042028204E0028A4BF6FF73F2
:1033B0001A4002827047C1F30802828070470146BA
:1033C0008888C0F308007047818941F0010181813C
:1033D0007047028BD2B20283028B42EA012202833F
:1033E0007047028B02F47F420283028B0A430283FE
:1033F000704721B1828A42F02002828204E0828AF0
:103400004FF6DF731A408282704721B1828A42F000
:103410001002828204E0828A4FF6EF731A408282A1
:10342000704721B1828A42F00802828204E0828AD7
:103430004FF6F7731A408282704721B1828942F4B5
:103440000042828103E08289C2F30E0282817047CA
:1034500021B1828A42F40062828204E0828A4FF2C1
:10346000FF731A4082827047828A4FF6FB731A40BC
:103470008282828A0A438282704721B1828A42F024
:103480000202828204E0828A4FF6FD731A40828231
:10349000704702460020B1F5007F00D100BF1388BD
:1034A0000B4201D0012000E00020704701F40072BF
:1034B000B2F5007F00D100BFCA430280704770B5EB
:1034C00002460024002300250020A1F510666A3E74
:1034D00000D100BFC1F3421501F01F03012606FA17
:1034E00003F3012D02D19689334006E0022D02D16B
:1034F000168A334001E0968A33400C12012606FA00
:1035000004F41688344013B10CB1012000E000200F
:1035100070BD10B500220023A1F510646A3C00D1F3
:1035200000BF0A1201249440A3B2DC43048010BD02
:10353000003801400044004000480040004C00407A
:103540000050004031490143314A1160704770B565
:10355000002100230F22C4780CB32D4C246804F4FE
:10356000E064C4F5E064210AC1F10403CA40447870
:1035700004FA03F18478144021430901254C0678AC
:10358000A155047804F01F050124AC4005786D11A5
:103590004FF0E02606EB8505C5F8004109E0047808
:1035A00004F01F050124AC401B4D0678761145F848
:1035B000264070BD194A0A400243154B1B1F1A6072
:1035C000704739B1124A121D12680243104B1B1D7D
:1035D0001A6006E00E4A121D126882430C4B1B1D36
:1035E0001A607047042808D14FF0E021096941F0C2
:1035F00004014FF0E022116107E04FF0E02109697A
:1036000021F004014FF0E022116170470000FA053B
:103610000CED00E000E400E080E100E080FFFF1F2F
:1036200010B50446CA48844208D10121042000F0A4
:1036300025FB0021042000F021FB46E0C548844220
:1036400008D10121082000F019FB0021082000F01A
:1036500015FB3AE0C048844208D10121102000F057
:103660000DFB0021102000F009FB2EE0BB48844236
:1036700008D10121202000F001FB0021202000F0D2
:10368000FDFA22E0B648844208D10121402000F032
:10369000F5FA0021402000F0F1FA16E0B14884422A
:1036A00008D10121802000F0E9FA0021802000F0FB
:1036B000E5FA0AE0AC48844207D10121801500F008
:1036C000DDFA0021A01500F0D9FA10BD10B50121D6
:1036D000084600F0D3FA0021012000F0CFFA10BD17
:1036E0002DE9F04102460025002600200023002499
:1036F000002791F803C00CF00F0591F803C01CF0EF
:10370000100F03D091F802C04CEA0505B1F800C0D3
:103710001CF0FF0F31D0146800202BE04FF0010C9B
:103720000CFA00F3B1F800C00CEA03069E4220D167
:1037300083004FF00F0C0CFA03F7BC4305FA03FCAF
:103740004CEA040491F803C0BCF1280F06D14FF0F5
:10375000010C0CFA00FCC2F814C00AE091F803C096
:10376000BCF1480F05D14FF0010C0CFA00FCC2F877
:1037700010C0401C0828D1D31460B1F800C0BCF1BF
:10378000FF0F34DD546800202EE000F1080C4FF0EC
:10379000010808FA0CF3B1F800C00CEA03069E42D7
:1037A00021D183004FF00F0C0CFA03F7BC4305FA4C
:1037B00003FC4CEA040491F803C0BCF1280F05D1C6
:1037C00000F1080C08FA0CF8C2F8148091F803C054
:1037D000BCF1480F07D100F1080C4FF0010808FABE
:1037E0000CF8C2F81080401C0828CED35460BDE805
:1037F000F0814FF6FF710180022181700421C170B8
:1038000070470246002093680B4201D0012000E07F
:10381000002070470146886880B270470246002049
:10382000D3680B4201D0012000E000207047014620
:10383000C86880B2704701617047416170470AB142
:10384000016100E041617047C16070474FF4803210
:103850000A4382618161826182698269704702469E
:103860000020424B18684FF68073184040EA02105F
:1038700008433E4B186070473D49C8617047F0B53A
:103880000A46002300240021002500F00046B6F17E
:10389000004F02D1354EF16901E0344E7168C0F33A
:1038A000034583B200F44016B6F5401F08D121F05D
:1038B00070612E4E766826F070662C4F7E6012E0A6
:1038C00000F48016B6F5801F06D1032606FA05F42B
:1038D000A14341F0706106E0460D360103FA06F699
:1038E000B14341F0706122B1460D360103FA06F68C
:1038F000314300F00046B6F1004F02D11B4EF1619A
:1039000001E01A4E7160F0BD30B500228B071C0F2C
:103910000F2303FA04F2154B08338C1053F82430AC
:103920009343124C08348D1044F8253023468C10F4
:1039300053F824308C07240F00FA04F423430B4C73
:1039400008348D1044F8253030BD0A4908607047AE
:1039500000080140000C014000100140001401402B
:1039600000180140001C01400020014000000140FF
:1039700000002042DC002042DC48006840F00100EA
:10398000DA49086008464068D9490840D749486084
:1039900008460068D7490840D449086008460068CE
:1039A00020F4802008600846406820F4FE0048604B
:1039B0004FF41F0088607047CC49096821F48031BA
:1039C000CA4A11601146096821F480211160B0F5DE
:1039D000803F03D0B0F5802F0ED106E0C3490968BF
:1039E00041F48031C14A116007E0C049096841F4DF
:1039F000A021BE4A116000E000BF00BF704710B5B3
:103A000001460022002300204A11012A02D1B74CAE
:103A1000236806E0022A02D1B44C236A01E0B34CC9
:103A2000636A01F01F02012494401C4201D001206E
:103A300000E0002010BD70B500240025002600BF66
:103A40003120FFF7DCFF0646641CB4F5A06F01D0FF
:103A5000002EF5D03120FFF7D2FF08B1012500E09C
:103A60000025284670BD01460020A04A106820F0BD
:103A7000F80040EAC100106070479F490860704735
:103A800002460020994B586820F47C1042EA01035A
:103A90001843964B5860704797490866704701462F
:103AA0000020924A506820F003000843506070479D
:103AB0008E48406800F00C007047014600208B4A99
:103AC000506820F0F0000843506070470146002025
:103AD000864A506820F4E060084350607047014611
:103AE0000020824A506820F4605040EAC1005060D3
:103AF000704729B17D4A527A02437C4B5A7206E0E4
:103B00007A4A527AC343DBB21A40784B5A727047F2
:103B10007A490860704701460020744A506820F4D2
:103B200040400843506070470021754A11706F4A49
:103B300082F82010012802D0042808D103E00121D6
:103B40006F4A117004E005216D4A117000E000BF5A
:103B500000BF70476B49086070476449096A0143B8
:103B6000624A11627047674944390860704730B54E
:103B700000210022002400235C4D6D6805F00C013B
:103B800021B1042905D0082923D105E05E4D056047
:103B900022E05D4D05601FE0544D6D6805F4701224
:103BA000524D6D6805F48034022505EB92421CB934
:103BB000564D554305600BE04C4D6D6815F4003FC4
:103BC00003D0524D5543056002E04F4D554305600B
:103BD00002E04D4D056000BF00BF444D6D6805F02B
:103BE000F00109094A4D6B5C0568DD4045603F4DB9
:103BF0006D6805F4E061090A454D6B5C4568DD4080
:103C000085603A4D6D6805F46051C90A404D6B5CA2
:103C10004568DD40C560354D6D6805F44041890B50
:103C20003C4D6B5CC568B5FBF3F5056130BD29B152
:103C30002E4A526902432D4B5A6104E02B4A5269C5
:103C400082432A4B5A61704729B1284A926902433C
:103C5000264B9A6104E0254A92698243234B9A617C
:103C6000704729B1214AD2690243204BDA6104E04E
:103C70001E4AD26982431D4BDA61704729B11B4A43
:103C8000D2680243194BDA6004E0184AD2688243D2
:103C9000164BDA60704729B1144A12690243134B7C
:103CA0001A6104E0114A12698243104B1A6170478D
:103CB00014494039086070470F49C86470470B4980
:103CC000C87170470948406A40F0807007494862EF
:103CD000704701460020054A92680A4201D001203F
:103CE00000E00020704701498872704700100240D0
:103CF0000000FFF8FFFFF6FE00004242D8004242FB
:103D0000201002408004424200127A0000093D0067
:103D10004C0100205C01002001460020FE4A106892
:103D200000F03800084310607047FB49096821F033
:103D30000801F94A11601146096801431160704792
:103D4000F549096821F01001F34A1160114609682C
:103D5000014311607047F148EF494860F0484860FE
:103D60007047EE48EC494860ED4848607047EA48C3
:103D7000006940F08000E84908617047E648006942
:103D800040F08000E449086170470420E249C968B6
:103D900001F00101012901D101200EE0DE49C968CD
:103DA00011F0040F01D0022007E0DB49C96811F0CF
:103DB000100F01D0032000E00420704700B5024638
:103DC0000423FFF7E2FF034603E0FFF7DEFF0346AD
:103DD000521E012B01D1002AF7D102B90523184642
:103DE00000BD30B5044604254FF43020FFF7E6FF50
:103DF0000546042D17D1C848006940F00200C649A5
:103E0000086108464461006940F0400008614FF4D1
:103E10003020FFF7D3FF0546BF48006941F6FD712A
:103E20000840BD490861284630BD10B504244FF450
:103E30003020FFF7C3FF0446042C16D1B6480069B2
:103E400040F00400B44908610846006940F04000B1
:103E500008614FF43020FFF7B1FF0446AE48006917
:103E600041F6FB710840AC490861204610BD00B521
:103E700002460423FFF789FF034603E0FFF785FFAF
:103E80000346521E012B01D1002AF7D102B90523A6
:103E9000184600BD10B504244FF43020FFF7E7FFAB
:103EA0000446042C16D19C48006940F004009A494D
:103EB00008610846006940F0400008614FF4302076
:103EC000FFF7D5FF04469448006941F6FB710840AE
:103ED00091490861204610BD00208F49C96911F041
:103EE000020F01D0012000E00020704730B5A52569
:103EF0000424FFF7F1FF00B100254FF43020FFF755
:103F00005DFF0446042C3AD1844883498860844884
:103F100088600846006940F0200008610846006992
:103F200040F0400008614FF43020FFF747FF04469F
:103F3000042C1BD17848006941F6DF7108407649AE
:103F400008610846006940F0100008617548058066
:103F5000E002FFF733FF0446052C10D06E480069DD
:103F600041F6EF7108406C49086108E0052C06D065
:103F70006948006941F6EF710840674908612046C9
:103F800030BDF0B504460D4604260027F002FFF7C9
:103F900015FF0646042E22D15F48006940F001005B
:103FA0005D4908612580F002FFF708FF0646042EF0
:103FB0000ED1A71C280C3880F002FFF7FFFE064642
:103FC0005548006941F6FE7108405349086106E012
:103FD0005148006941F6FE7108404F49086130467A
:103FE000F0BD70B504460D460426F002FFF7E6FE6C
:103FF0000646042E11D14848006940F001004649A8
:1040000008612580F002FFF7D9FE064642480069A4
:1040100041F6FE71084040490861304670BD70B5F8
:1040200005460E460424E002FFF7C8FE0446042CB1
:1040300017D13A483849886039488860084600698D
:1040400040F0100008612E80E002FFF7B7FE044642
:10405000052C06D03048006941F6EF7108402E4922
:104060000861204670BD2DE9F04304464FF6FF7607
:104070003746B046B1460425E443E6B2C4F3072709
:10408000C4F307484FEA1469E802FFF797FE0546B4
:10409000042D40D121482049886021488860084685
:1040A000006940F010000861FF2E06D01D4808305E
:1040B0000680E802FFF782FE0546042D08D1FF2F97
:1040C00006D018480A300780E802FFF777FE054659
:1040D000042D0AD1B8F1FF0F07D012480C30A0F818
:1040E0000080E802FFF76AFE0546042D0AD1B9F107
:1040F000FF0F07D00B480E30A0F80090E802FFF742
:104100005DFE0546052D06D00348006941F6EF71B6
:1041100008400149086107E000200240230167458B
:10412000AB89EFCD00F8FF1F2846BDE8F08330B51E
:10413000054604244FF43020FFF740FE0446042CCB
:1041400041D15F485F4988605F48886008460069E0
:1041500040F0200008610846006940F04000086116
:104160004FF43020FFF72AFE0446042C22D1554894
:10417000006941F6DF71084052490861084600694C
:1041800040F0100008611DB100205049088002E095
:10419000A5204E4908804FF43020FFF70FFE04465B
:1041A000052C10D04748006941F6EF710840454999
:1041B000086108E0052C06D04248006941F6DF712D
:1041C000084040490861204630BDF0B505460E461E
:1041D000174604243A483B4988603B488860E0021F
:1041E000FFF7ECFD0446042C19D13648006940F075
:1041F00010003449086147F0F80030432843334940
:10420000891C0880E002FFF7D9FD0446052C06D082
:104210002C48006941F6EF7108402A4908612046A0
:10422000F0BD2848C069800870472648006A70477A
:1042300000202449096811F0200F01D0012000E07E
:104240000020704729B11F4A126902431D4B1A61B1
:1042500004E01C4A126982431A4B1A6170470146F6
:104260000020012908D1174AD26912F0010F01D0AC
:10427000012008E0002006E0124AD2680A4201D07C
:10428000012000E0002070470E49C86070470420FC
:104290000C49C96801F00101012901D101200EE09A
:1042A0000849C96811F0040F01D0022007E0054950
:1042B000C96811F0100F01D0032000E004207047FE
:1042C0002301674500200240AB89EFCD00F8FF1FB6
:1042D00010B50446F948844208D101214015FFF782
:1042E000CDFC00216015FFF7C9FC17E0F4488442BB
:1042F00008D101210015FFF7C1FC00212015FFF7AF
:10430000BDFC0BE0EF48844208D10121C803FFF750
:10431000B5FC00214FF40040FFF7B0FC10BD30B5F4
:104320000246002000235068E74C20400D790C68BD
:1043300044EA0524204350609068E44C2040D1E9D1
:1043400002542C434D7944EA450420439060D06ADE
:1043500020F470000C7C641EE4B2234340EA035056
:10436000D06230BD00210160017141718160C16086
:1043700001210174704721B1826842F0010282601C
:1043800003E0826822F001028260704721B18268F6
:1043900042F48072826003E0826822F4807282605C
:1043A000704710B50023CBB21AB144681C43446077
:1043B00002E044689C43446010BD816841F00801FC
:1043C00081607047014600208A6812F0080F01D012
:1043D000012000E000207047816841F00401816005
:1043E0007047014600208A6812F0040F01D00120B6
:1043F00000E00020704721B1826842F4A002826090
:1044000003E0826822F4A002826070470146002027
:104410008A6812F4800F01D0012000E0002070476C
:1044200010B50A4600210023416821F46041531E63
:1044300041EA4331416010BD21B1426842F400625B
:10444000426003E0426822F4006242607047F0B5C7
:1044500004460D4600200021092D11DDE068A5F17C
:104460000A0606EB4607072606FA07F18843A5F178
:104470000A0606EB460603FA06F10843E0600CE084
:10448000206905EB4507072606FA07F1884305EB87
:10449000450603FA06F108432061072A0FDA606B2C
:1044A000561E06EB86071F2606FA07F18843561E9E
:1044B00006EB860605FA06F10843606322E00D2A42
:1044C0000FDA206BD61F06EB86071F2606FA07F1C8
:1044D0008843D61F06EB860605FA06F108432063DB
:1044E00010E0E06AA2F10D0606EB86071F2606FA29
:1044F00007F18843A2F10D0606EB860605FA06F1E0
:104500000843E062F0BD21B1826842F4801282600B
:1045100003E0826822F48012826070470146C86C12
:1045200080B2704765484C300068704721B14268DE
:1045300042F48062426003E0426822F4806242609A
:10454000704721B1426842F48052426003E0426801
:1045500022F48052426070470A460021816821F4AB
:10456000E04111438160704721B1826842F400420A
:10457000826003E0826822F400428260704721B1C9
:10458000826842F40212826003E0826822F402121E
:1045900082607047014600208A6812F4001F01D033
:1045A000012000E000207047F0B5044615460020C9
:1045B00000220026092911DDE068A1F10A0707EBB6
:1045C000470C072707FA0CF29043A1F10A0707EB03
:1045D000470703FA07F21043E0600CE0206901EBA3
:1045E000410C072707FA0CF2904301EB410703FA4D
:1045F00007F210432061A06BC0F30156EF1C06F1D7
:10460000010CA7EB0C0707EB870C1F2707FA0CF22E
:104610009043EF1C06F1010CA7EB0C0707EB870793
:1046200001FA07F21043A063F0BD10B50A4600215D
:104630000023816B21F44011531E41EA0351816331
:1046400010BD10B5002303460B441A6010BD02468E
:104650000023134601F128000344186880B2704714
:104660000A46002141681A4B1940114341607047C6
:104670004162826270470A460021416821F01F01B1
:1046800011434160704740B10C490831096841F459
:1046900000010A4A0832116007E008490831096838
:1046A00021F40001054A08321160704702460020DB
:1046B00013680B420ED001200DE0000000240140E1
:1046C00000280140003C0140FFFEF0FFFDF7F1FF34
:1046D000FFFD3FFF00207047CA430260704770B57E
:1046E00002460020002300240B125568CEB205EAD2
:1046F000060415681D4202D00CB1012000E0002024
:1047000070BD00220A12D3430360704701684FF660
:10471000FE72114001600021016041608160C16052
:104720008C49884208D18B490839496841F00F010A
:10473000884A083A51608AE086491431884208D193
:1047400084490839496841F0F001824A083A5160C9
:104750007DE080492831884208D17E49083949687E
:1047600041F470617B4A083A516070E079493C310C
:10477000884208D177490839496841F47041754A3F
:10478000083A516063E073495031884208D1714959
:104790000839496841F470216E4A083A516056E080
:1047A0006C496431884208D16A490839496841F442
:1047B0007001684A083A516049E066497831884298
:1047C00008D164490839496841F07061614A083A82
:1047D00051603CE06049884206D1011F096841F000
:1047E0000F01021F116032E05B491431884208D189
:1047F0005949091F096841F0F001574A121F116019
:1048000025E055492831884208D15349091F0968D4
:1048100041F47061504A121F116018E04E493C315A
:10482000884208D14C49091F096841F470414A4A3D
:10483000121F11600BE048495031884207D14649A8
:10484000091F096841F47021434A121F1160704723
:1048500010B50022026847F6F0739A430C6A8B6821
:1048600023430C6923434C6923438C692343CC695C
:1048700023434C6A23438C6A23431A430260CB6868
:1048800043600B6883604B68C36010BD002101600A
:1048900041608160C160016141618161C16101620A
:1048A00041628162704721B1026842F001020260F8
:1048B00004E002684FF6FE731A40026070471AB1B6
:1048C00003680B43036002E003688B430360704797
:1048D000416070470146486880B270470146002039
:1048E000002211F0805F03D01B4B083B1A6802E0E6
:1048F000184B083B1A680A4201D0012000E0002052
:10490000704710F0805F03D01349091F086002E070
:10491000104908394860704701460020002211F014
:10492000805F03D00C4B083B1A6802E0094B083B40
:104930001A680A4201D0012000E00020704710F000
:10494000805F03D00449091F086002E0014908396B
:1049500048607047080002400804024010B5044651
:10496000FE48844208D10121C014FFF787F90021D5
:10497000E014FFF783F9C4E0B4F1804F08D10121BE
:104980000846FFF788F900210120FFF784F9B8E015
:10499000F348844208D101210220FFF77CF900216D
:1049A0000220FFF778F9ACE0EE48844208D10121FB
:1049B0000420FFF770F900210420FFF76CF9A0E054
:1049C000E948844208D101210820FFF764F9002159
:1049D0000820FFF760F994E0E448844208D10121FF
:1049E0001020FFF758F900211020FFF754F988E054
:1049F000DF48844208D101212020FFF74CF9002133
:104A00002020FFF748F97CE0DA48844208D10121F0
:104A10004014FFF733F900216014FFF72FF970E01D
:104A2000D548844209D10121C804FFF727F90021A4
:104A30004FF40020FFF722F963E0D048844209D107
:104A400001210805FFF71AF900214FF48010FFF744
:104A500015F956E0CA48844209D101214805FFF7FB
:104A60000DF900214FF40010FFF708F949E0C5489F
:104A7000844208D101214020FFF70DF90021402098
:104A8000FFF709F93DE0C048844208D101218020A8
:104A9000FFF701F900218020FFF7FDF831E0BB4866
:104AA000844208D101218015FFF7F5F80021A015F7
:104AB000FFF7F1F825E0B648844209D10121080446
:104AC000FFF7DCF800214FF48030FFF7D7F818E04B
:104AD000B048844209D101214804FFF7CFF80021F2
:104AE0004FF40030FFF7CAF80BE0AB48844208D11E
:104AF00001218804FFF7C2F800214FF48020FFF75E
:104B0000BDF810BD00220288944B98420ED0994BFC
:104B100098420BD0B0F1804F08D0914B984205D00D
:104B2000904B984202D0904B984204D14FF68F732D
:104B30001A404B881A438D4B984207D08C4B9842B1
:104B400004D04FF6FF431A40CB881A4302808B886B
:104B500083850B880385814B98420BD0854B984207
:104B600008D08B4B984205D08A4B984202D08A4B92
:104B7000984201D10B7A038601238382704770B576
:104B8000002400220023058C4FF6FE763540058474
:104B9000028C8388048B4FF68F752C40B51E2C40F9
:104BA0000D882C43751E2A400D892A434D882A43BF
:104BB0006A4DA8420BD06F4DA84208D0744DA84250
:104BC00005D0744DA84202D0734DA84213D14FF6C0
:104BD000F7752A404D892A434FF6FB752A408D8888
:104BE0002A434FF6FF652B404FF6FF552B408D892A
:104BF0002B43CD892B4383800483CD888586028413
:104C000070BD70B5002400220023058C4FF6EF76AE
:104C100035400584028C8388048B48F6FF752C4050
:104C20004FF6FF452C400D882D0644EA15444FF6FB
:104C3000DF752A400D892D0542EA15424D882D0564
:104C400042EA1542454DA84202D04A4DA8421BD126
:104C50004FF67F752A404D892D0542EA15424FF6E1
:104C6000BF752A408D882D0542EA15424FF6FF3563
:104C70002B404FF2FF752B408D89AD0443EA15435D
:104C8000CD89AD0443EA154383800483CD8805872D
:104C9000028470BD70B5002400220023058C4FF6FD
:104CA000FF6635400584028C8388848B4FF68F75B0
:104CB0002C404FF6FC752C400D882C434FF6FF55C9
:104CC0002A400D892D0642EA15424D882D0642EAFA
:104CD0001542224DA84202D0264DA8421BD14FF2C8
:104CE000FF752A404D892D0642EA15424FF6FF35E1
:104CF0002A408D882D0642EA15424EF6FF752B405C
:104D00004DF6FF752B408D892D0543EA1543CD895E
:104D10002D0543EA154383808483CD8885870284EB
:104D200070BD70B5002200230024058C4EF6FF767E
:104D300035400584038C8488828B48F6FF752A40B1
:104D40004FF6FF452A400D882D0642EA15424DF6E2
:104D5000FF752B400D892D0720E00000002C01403D
:104D60000004004000080040000C0040001000401B
:104D70000014004000340140004C0140005001404C
:104D80000054014000180040001C0040002000407A
:104D900000400140004401400048014043EA1543FF
:104DA0004D882D0743EA1543F84DA84202D0F84D2F
:104DB000A84206D14BF6FF752C408D89AD0544EA1B
:104DC000154484808283CD88A0F84050038470BD50
:104DD000828B4FF2FF331A408283828B0B0642EAAA
:104DE000134282837047F0B50C461546002200211D
:104DF0000026078C4EF6FF7C07EA0C070784828B9F
:104E0000018C27073E0C40F6FF473A402F0642EA46
:104E100017421F0742EA1742DC4FB8420ED0DC4F60
:104E2000B8420BD0B0F1804F08D0DA4FB84205D06D
:104E3000D94FB84202D0D94FB84206D14DF6FF77CC
:104E4000394046F48057394305E047F6FF5739406B
:104E500044F48057394382830184F0BD828B4FF63E
:104E6000F3731A408283828B0A4382837047F0B5C2
:104E70000C461546002200210026078C4FF6FF6CD9
:104E800007EA0C070784828B018C27063E0C4FF63D
:104E90000C773A401F0545EA17473A43BB4FB842E3
:104EA0000ED0BB4FB8420BD0B0F1804F08D0B94FF5
:104EB000B84205D0B84FB84202D0B84FB84206D178
:104EC0004FF6FF57394046F48077394305E04FF2FB
:104ED000FF57394044F48077394382830184F0BD21
:104EE000028B4FF2FF331A400283028B0B0642EA19
:104EF000134202837047F0B50C461546002200218C
:104F00000026078C4FF6EF7C07EA0C070784028B1C
:104F1000018C27053E0C40F6FF473A401F0742EA46
:104F200017422F0642EA1742984FB8420ED0984FC8
:104F3000B8420BD0B0F1804F08D0964FB84205D0A0
:104F4000954FB84202D0954FB84206D14FF6DF7761
:104F5000394046F01007394305E04FF65F77394096
:104F600044F01007394302830184F0BD028B4FF6F1
:104F7000F3731A400283028B0A4302837047F0B531
:104F80000C46154600220021068C4FF6FE773E4067
:104F90000684028B018C4FF60C7632401E0545EAE2
:104FA00016463243794EB0420ED0794EB0420BD005
:104FB000B0F1804F08D0774EB04205D0764EB04267
:104FC00002D0764EB04206D14FF6FD76314044F025
:104FD0000106314305E04FF6F576314044F0010615
:104FE000314302830184F0BD70B505460C46674825
:104FF00085420ED0664885420BD0B5F1804F08D06F
:105000006448854205D06448854202D063488542A1
:1050100000D100E000BF208850B92389A2886188B0
:105020002846FFF7ACFFE1882846FFF79FFF25E001
:10503000208804280AD12389A28861882846FFF79E
:105040005AFFE1882846FFF74BFF17E02088082821
:105050000AD12389A28861882846FFF708FFE188E2
:105060002846FFF7FBFE09E02389A28861882846CD
:10507000FFF7B9FEE1882846FFF7AAFE70BD2DE9CB
:10508000F04105460C4600260127608808B9022633
:1050900000E00026A088012801D1022700E00127B6
:1050A0002088A0B92389A28861882846FFF767FF76
:1050B000E1882846FFF75AFF23893A4631462846B9
:1050C000FFF719FFE1882846FFF70AFF13E023895D
:1050D000A28861882846FFF70EFFE1882846FFF77F
:1050E000FFFE23893A4631462846FFF748FFE1880C
:1050F0002846FFF73BFFBDE8F0810A884B881A433A
:105100008B881A43CB881A430B891A434B891A435D
:105110008B891A43A0F8442070474FF6FF718180B5
:1051200000210180C180418001727047002101800F
:1051300041808180C180018141818181C18170472D
:10514000002101804180012181800021C1800181F5
:1051500070470021018041808180C18001814181AF
:105160008181704721B1028842F00102028004E08F
:1051700002884FF6FE731A400280704781B1B0F882
:10518000442042F40042A0F844200FE0002C0140EB
:10519000003401400004004000080040000C0040C2
:1051A000B0F84420C2F30E02A0F84420704710B5B6
:1051B0001AB183890B43838104E08389CC43A4B271
:1051C0002340838110BD8182704741EA0203A0F829
:1051D0004830704710B51AB183890B43838104E0CE
:1051E0008389CC43A4B22340838110BD01894FF64B
:1051F000F8721140018170470A46002101894FF67B
:105200008F73194011430181704730B504460D4634
:1052100029462046FFF7F0FF208940F00700208153
:1052200030BD2DE9F04104460D4616461F46602D5F
:1052300006D13B46012231462046FFF75CFE05E0E1
:105240003B46012231462046FFF799FE294620467B
:10525000FFF7D2FF208940F007002081BDE8F081F0
:1052600030B50C4600210189C9B21D0642EA154538
:1052700025432943018130BD2DE9F04105460E4605
:1052800017469846002443463A4631462846FFF7DB
:10529000E7FF2C894FF6F870044044F007044FF6FE
:1052A0008F70044044F070042C81BDE8F081F0B5AB
:1052B00004460D4616461F463B46324629462046C2
:1052C000FFF7CEFF208940F480402081F0BD0185AA
:1052D000828270470A46002101884FF68F73194079
:1052E000114301807047F0B50C4615461E4600215B
:1052F000002200230189028B038C4FF6F877394096
:1053000021434FF6FC473A4040F201173A434FF62B
:10531000DD773B40370545EA17473B430181028370
:105320000384F0BD0A460021018B4FF68F731940AC
:105330001143018370470A460021018B48F6FF7331
:105340001940130641EA1341018370470A460021C0
:10535000818B4FF68F7319401143818370470A4642
:105360000021818B48F6FF731940130641EA13416F
:105370008183704721B1028842F08002028004E0FC
:1053800002884FF67F731A400280704721B18288ED
:1053900042F00402828004E082884FF6FB731A40D8
:1053A0008280704721B1828842F00802828004E046
:1053B00082884FF6F7731A408280704721B1828845
:1053C00042F00102828004E082884FF6FE731A40A8
:1053D000828070470A460021018B4FF6F77319400F
:1053E0001143018370470A460021018B4FF2FF737E
:1053F0001940130641EA1341018370470A46002110
:10540000818B4FF6F77319401143818370470A4629
:105410000021818B4FF2FF731940130641EA1341BB
:10542000818370470A460021018B4FF6FB731940B8
:105430001143018370470A460021018B4FF6FF3369
:105440001940130641EA1341018370470A460021BF
:10545000818B4FF6FB7319401143818370470A46D5
:105460000021818B4FF6FF331940130641EA1341A7
:10547000818370470A460021018B4FF67F731940E4
:105480001143018370470A460021018BC1F30E01CD
:10549000130641EA1341018370470A460021818BBC
:1054A0004FF67F7319401143818370470A460021EC
:1054B000818BC1F30E01130641EA134181837047CA
:1054C0000A460021018C4FF6FD73194011430184F7
:1054D00070470A460021018C4FF6F77319401143BB
:1054E000018470470A460021018C4FF6DF73194092
:1054F000130541EA1341018470470A460021018CDB
:105500004FF67F731940130541EA13410184704738
:105510000A460021018C4FF6FF531940130641EA59
:105520001341018470470A460021018C4FF2FF733A
:105530001940130641EA1341018470470A460021CD
:10554000018C4DF6FF731940130741EA13410184A2
:10555000704730B5002301248C40A3B2048CDD4396
:10556000ADB22C400484048C02FA01F5ADB22C4398
:10557000048430BD30B5002304248C40A3B2048CD5
:10558000DD43ADB22C400484048C02FA01F5ADB2C7
:105590002C43048430BD70B5034600200024184617
:1055A000183001258D40ACB21D8CE643B6B23540B3
:1055B0001D8409B1082909D100EB6100056825F0B7
:1055C000700505600568154305600CE00D1FADB260
:1055D00000EB6500056825F4E045056005681606E2
:1055E00045EA1645056070BD21B1028842F002020D
:1055F000028004E002884FF6FD731A400280704773
:1056000021B1028842F00402028004E002884FF6D1
:10561000FB731A400280704721B1828842F08002F9
:10562000828004E082884FF67F731A408280704740
:1056300002884FF6F7731A40028002880A430280FC
:10564000704782884FF68F731A40828082880A439F
:105650008280704702894FF6F8731A4002810289EE
:105660000A430281704702894FF67F731A40028114
:1056700002890A430281704781847047818570479F
:10568000818670470187704781877047A0F8401076
:10569000704702884FF6FF431A40028002880A438F
:1056A000028070470146888E70470146088F704718
:1056B0000146888F70470146B1F8400070470146A7
:1056C000888C70470146088D704702460020138A77
:1056D0000B4201D0012000E000207047CA43028243
:1056E000704730B50246002000230024158A05EAE1
:1056F0000103958905EA010413B10CB1012000E012
:10570000002030BDCA430282704740EA01039B0774
:1057100003D009E008C9121F08C0042AFAD203E026
:1057200011F8013B00F8013B521EF9D27047D2B28A
:1057300001E000F8012B491EFBD270470022F6E77A
:1057400010B504460846114602462046FFF7EFFF13
:10575000204610BD0146002000E0401C0A5C002AE3
:10576000FBD17047F0B480EA0102D20F4300B3EBE3
:10577000410F02D20346084619464B0042D0C30DE2
:10578000DDB2C1F3C7542C1B202C35DAC1F316014E
:1057900041F4000502B16D42C4F1200605FA06F19C
:1057A00025412844B3EBD05F23D0C2B1012CA0EB3C
:1057B000C35009DCF0BC4FF0004202EAC35200F5CE
:1057C0000000DBB200F077BB400000F1807000EB1E
:1057D000C350A0F1807040EAD170490009E0490847
:1057E00041EAC071A0EBC35000F50000400800EB97
:1057F000C350F0BC00F056BB5142012303EB410102
:10580000801AF6E7F0BC704781F00041AAE780F00B
:105810000040A7E780EA010210B502F00042400014
:1058200026D04B0023D04FEA106101EB1361C0F387
:105830005600C3F3560340F4000043F40003A0FBFA
:105840000330A1F17F014FEA00401C0401D000F1B8
:10585000010050EA134001D44000491EC3B20C06B7
:1058600004EBD010401C4008802B02D003E0002045
:1058700010BD20F00100002900DA0020104310BD07
:1058800080EA010202F0004330B430F0004221F01F
:10589000004015D0A0B1C0F3C755C2F3C754C2F33E
:1058A0001601C0F31600651B41F4000140F400002E
:1058B0007D35814201D36D1C00E04900002D02DAE4
:1058C00030BC002070474FF400020024814201D315
:1058D000091A144352084FEA4101F7D151B18142EC
:1058E00002D14FF0004105E002D24FF0010101E08A
:1058F0006FF0010104EBC55030BC184400F0D2BA7F
:105900002DE9FE4F074681EA0300C00F0E460190C5
:1059100021F0004123F00044B81AA14105D23846D5
:10592000314617461E460B46024623F00040104300
:1059300004D13846314603B0BDE8F08F350DC5F3CC
:105940000A00C3F30A510290401A0090402868DA16
:10595000C3F3130040F4801B0198924620B100234A
:10596000D2EB030A63EB0B0B00985946C0F14002DF
:10597000504600F066FA80460C4650465946009A5A
:1059800000F07EFAC0197141EF1785EA11533B43CD
:1059900040D0019A52B3009A012A11DC0022801AE9
:1059A0004FF0004361EB055103EA05538018CDE940
:1059B000002341F580114246234600F0B6FABAE7CB
:1059C0002E050025401B61EB0601401941F58012B0
:1059D000001852412818A6F5001343EB020140EAD3
:1059E000D470294318EB0808644113E064084FEAB7
:1059F00038084FF0000244EAC0744FEA0553801A99
:105A000061EB0301801841F5801149084FEA30002D
:105A1000801859414246234603B0BDE8F04F00F0DC
:105A200077BA0198012240000023D0EB020263EB19
:105A3000E07301984FEAE074381A66EB0401EBE773
:105A400083F000435CE781F0004159E72DE9FE4F08
:105A500081EA030421F0004504F0004423F00041F2
:105A60004FF0000A009450EA050302D052EA010305
:105A700004D10020014603B0BDE8F08FC1F30A5302
:105A8000C5F30A541C44A0FB02B3C5F3130545F447
:105A9000801CC1F3130141F480180CFB023300FB9E
:105AA000083EA4F2F334810A930A41EA8C5143EA96
:105AB00088530194A1FB03474FEA9C2505FB037320
:105AC0004FEA982601FB06373D05260545EA1435C1
:105AD000BBEB06016EEB0503850E920E45EA8C15B5
