:020000040800F2
:10000000F8270020C13E0008C93E0008CB3E00088A
:10001000CD3E0008CF3E0008D13E000800000000A1
:10002000000000000000000000000000D33E0008B7
:10003000D53E00080000000001010008B7360008A6
:10004000DB3E0008DB3E0008DB3E0008DB3E00082C
:10005000DB3E0008DB3E0008DB3E0008DB3E00081C
:10006000DB3E0008DB3E0008DB3E0008DB3E00080C
:10007000A13B0008DB3E0008DB3E0008DB3E000839
:10008000DB3E0008DB3E0008DB3E0008DB3E0008EC
:10009000DB3E0008DB3E0008DB3E0008DB3E0008DC
:1000A000DB3E0008DB3E0008DB3E0008DB3E0008CC
:1000B000DB3E0008DB3E0008DB3E0008DB3E0008BC
:1000C000DB3E0008DB3E0008DB3E0008DB3E0008AC
:1000D000DB3E00086D380008C9390008293B0008DC
:1000E000DB3E0008DB3E0008DB3E0008DFF80CD0FA
:1000F00006F02CFB00480047D1010008F82700203B
:1001000072B6EFF309800A4A0A4B20B1203880E822
:10011000F00F1168086018681060006890E8F00F30
:10012000203080F309884EF0040E62B6704700BF9D
:10013000C8000020CC00002080F309887047000030
:100140002D492C482D4A086000F1F80111602C4916
:1001500001601421416041F270716322C0E9021212
:1001600065220261192242610122C0E90621322181
:10017000016224494162244981624906C0E90B12A7
:1001800040F2DD71C187042180F83D101A2180F80A
:100190003B10112180F83A102E2180F839102821C7
:1001A00080F8381000210E22C0E910120922826462
:1001B0000B22C264154A12680265144A121D1268A5
:1001C0004265124A083212688265C0F89811704779
:1001D00010B5FFF7B5FF0E4C20688047616F0D48E2
:1001E0008847A16F0C488847E06F804762B60020BF
:1001F00010BD0000E4010020C0000020C400002069
:1002000000350C0020F40E00A0860100E8F7FF1F67
:1002100014000020950300084F0E00088349D1F810
:10022000980101F5C272904202D101F5907000E090
:100230001430C1F8980170477C48D0F898010069E3
:10024000002803D07A490069096E0847704770B5E5
:100250007648774DD0F89801C46803E0296E20698C
:100260008847A469002CF9D170BD70B50123704C8A
:1002700000226E49302812D007DC082828D2DFE897
:1002800000F00E1135430E283B80A0F13105072DFB
:100290001ED2DFE805F0102E3B0426367700D4F896
:1002A000A01020E0634801784A1C0270E26EBDE8AD
:1002B000704061A0104751F8780F027048680370D1
:1002C00088680270C8680370086902704869037022
:1002D00070BDA16E4FF0FF308847BDE8704006F05A
:1002E00073BAE1690320BDE870400847BDE870407B
:1002F000A2E7BDE87040AAE7D4F89C00BDE87040D2
:100300000047BDE8704089E78B6170BD0121656DD4
:100310004D4B4FF47A720020A8470121656D4A4B7E
:100320004FF4FA620846A8470121656D464B40F636
:10033000B8320220A8470121656D434B4FF47A6221
:100340000320A8470121656D3F4B41F2883204200C
:10035000A8470121656D3C4B41F270720520A8470A
:1003600041F658360121656D374B32460620A847C5
:10037000646D3246A446BDE870400121324B07202F
:1003800060478A61D1F8980102613048C1F898014C
:1003900070BD7047264D25490C316A680020904792
:1003A00022496A6810310120904720496A68143157
:1003B000042090472A6F26490220904723481B4E6D
:1003C0002838C6F89801D5F888104FF4FA608847A5
:1003D00006F5867000240527C6F89801D5F8881020
:1003E0006420884794FBF7F007FB1040611CD6F8A7
:1003F0001021641C102C5054F0DB1448C6F89801EE
:10040000A96A01208847134CD5F88400804720F062
:100410007F41000E012805D00228F5D1206808444C
:100420008047F1E7C8B2FFF720FFEDE7E4010020C5
:1004300014000020000000204C6F67205465737486
:10044000203D2025640A00001D020008040300204E
:10045000930300080C0000202DE9F047FD4CFE48F6
:10046000D4F89810824690348847FD4DFB48FD49EA
:10047000C5F82001626850469047FA48FA4905617C
:1004800003258570C161F949016242F210718162F0
:100490004FF47A7141620D2101700026467000F11F
:1004A0002C01626850469047ED49EE48091D2C30FA
:1004B000016185706421C0E907160A210126C0E99F
:1004C000096106270770467000F12C01226850462A
:1004D0009047E349E34808315830016185700E21A7
:1004E0000170467000F11C01226850469047DC49BB
:1004F000DC480C3174304FF002080161857007212F
:10050000017080F8018000F11C012268504690477C
:10051000D349D448103190304FF00F0901618570F4
:1005200080F8009080F8018000F11C01226850469C
:100530009047CB49CB481431AC30016185700770CE
:10054000457000F11C01226850469047C449C548D7
:100550001831C830016109218170C670C4494161F8
:1005600080F800904570BDE8F0872DE9F05FB9484C
:10057000D0F89810B848143083468847B849BD4829
:10058000C1F83401B348B749D0F89420E431584653
:100590009047B349B3481C31E430032501618570AD
:1005A00041F64C51C1614FF47A610162C910816218
:1005B0004FF00708416280F8008000264670A54889
:1005C000AD49D0F8942058469047A549AA48203113
:1005D0000124016185703C21C16128218462C0E948
:1005E00008144FF00E0980F8009046709948A2490F
:1005F000D0F894202C31584690479F4898492C3089
:100600002431016185709849C161DFF878A29C4F5F
:10061000C0F80CA099498762C0E90817062101704B
:1006200044708C489449D0F89420583158469047EB
:1006300091488B4958302831016185707910C0E9A3
:10064000077142F210718162C0F80CA0416280F81B
:10065000009044707F488849D0F8942084315846EF
:10066000904785487E4984302C3101610521817095
:1006700084808549C1614FF07E5101624FF07C5109
:1006800081628249416280F800800224447071488E
:100690007949D0F89020B031584690477648704953
:1006A000B03030310161092181707149C670083163
:1006B0004161082101704470BDE8F09F2DE9F047C9
:1006C000644D65482830D5F89810824690358847A3
:1006D00063496F48C1F8480167496A68CC315046A0
:1006E00090475F4964484031CC30012401610421C6
:1006F000817042F21071C0E907146421C0E9094118
:100700004FF00F0880F800800021417000F12C01AB
:100710006A6850469047524957484431F83003269A
:10072000016186706321C16100F120020E210A2758
:1007300082E8920009210170447000F12C016A687E
:1007400050469047464953484831016186700C2114
:10075000C0E90714C0E909470170447000F12C0199
:100760006A68504690473E494A484C312C300161F6
:1007700086701F21C0E90714C0E9094780F800808E
:10078000447000F12C012A68504690473449414892
:100790005031583007240161847004704FF0020911
:1007A00080F801900827878000F11C012A685046D4
:1007B00090472B493748543174300161847080F878
:1007C000008080F80190878000F11C012A68504663
:1007D000904723492F48583190300161847004704C
:1007E00046708780BFE62DE9F05F1A4E1A483C300C
:1007F000D6F8981083469436884719492648C1F898
:100800005C0124493268AC3158469047144921486C
:100810003E31AC3002270161877040F63401C1617E
:100820004FF4FA6101620A210124C0E9094105215E
:100830000170477000F12C01326858469047084912
:1008400014483D31D8300025016185704FF00C0A05
:1008500024E000001400002004030020207400089D
:10086000E40100209403002020F40E00C0270900BA
:10087000F070000898730008A404002020A107006D
:10088000A08601006F12833A0000A040CDCCCC3D81
:1008900054730008C8050020A8740008C0E907A424
:1008A000C0E909474FF0090980F80090477000F14E
:1008B0005801326858469047FE48FD4901618570ED
:1008C00084621F214462C0E907150D210170477041
:1008D000A0F12C01326858469047F549F548491C6B
:1008E0002C38016180F80290C570F349416184623F
:1008F00006214462C0E907150421017003274770EF
:1009000000F15801326858469047E949E948491EC4
:100910002C304FF03B0801618570C0F81C80846268
:10092000C0E9085480F80090477000F12C0132684B
:1009300058469047DE49DF48891E5830016185706E
:10094000C0F81C808462C0E9085480F800A0477099
:1009500000F12C01326858469047D549D548C91E48
:10096000843001618570C0F81C808462C0E908543D
:100970000F21017047709FE62DE9F041CF4DD0481F
:10098000D5F89810804690358847C94ECD483B3EF3
:10099000C849C6F87001B0312A68404660369047B1
:1009A000C4493068B03100240861084602278470C9
:1009B000077044702A681C3140469047BD497068F2
:1009C000CC310861084684700320087008461C3149
:1009D00044702A6840469047B648B168E8300161E3
:1009E000847004210170447000F11C012A684046A3
:1009F0009047B548F1680161847005210170447029
:100A000000F11C016A6840469047AF4806F11001AA
:100A10001C30016184700A21017044700121C0E919
:100A200007148162416200F12C016A6840469047D8
:100A3000A54806F111014830016184700B21017055
:100A400044700121C0E907148162416200F12C0168
:100A50006A68404690479C4806F112017430016173
:100A600084700C21017044700121C0E90714816277
:100A7000416200F12C016A6840469047924806F1B5
:100A80001301A030016184700D21017044700121B7
:100A9000C0E907148162416200F12C016A68404696
:100AA0009047894806F11401CC30016184700E2111
:100AB000017044700121C0E907148162416200F1B4
:100AC0002C016A68404690477F4806F11501F830CE
:100AD000016184700F21017044700121C0E9071485
:100AE0008162416200F12C012A68404690477748B4
:100AF000B16B01618770062101700121417000F125
:100B00001C012A68404690477048F16B1C30016117
:100B100087700F2101700121417000F11C012A68CA
:100B2000404690476948316C383001618770062132
:100B30000170477000F11C012A68404690476348E5
:100B4000716C5430016187700F2101704770BDE8EE
:100B5000F0812DE9F84F594E59481430D6F89810C5
:100B6000903600908847DFF848915649A9F13B0933
:100B7000C9F884115549326870310098904753493B
:100B800009F1A8007031002408610846022784702A
:100B90000770447032681C31009890474B4909F146
:100BA000A9008C314FF0030808610846847081F871
:100BB0000080447032681C3100989047434909F125
:100BC000AA00A8310861084684700420087008460D
:100BD0001C3144703268009890473C4909F1AB00E1
:100BE000C43108610846052184700170447000F129
:100BF0001C01726800989047344809F1BC01E0304C
:100C000001610A218470017044700125C0E9075414
:100C10008562456200F12C017268009890472C496A
:100C200009F1BD000861084684700B200870084671
:100C30002C314470C5610462856245627268009817
:100C40009047234909F1BE002C31086108468470A1
:100C50000C20087008462C314470C561046285621E
:100C60004562726800989047194909F1BF005831F0
:100C70000861084684700D20087008462C314470C5
:100C8000C5610462856245627268009890471049A8
:100C900009F1C00084310861084684700E20087094
:100CA00008462C314470C56104628562456211E0DA
:100CB0001F020020F80600200C710008140000201C
:100CC00054030020DC730008FC07002020090020EA
:100CD0002C0A0020726800989047674809F1C1010A
:100CE0004FF00F0B0161847080F800B04470C0E9D0
:100CF00007548562456200F12C01326800989047E4
:100D00005D4809F1DC012C304FF0060A0161877063
:100D100080F800A0457000F11C01326800989047EF
:100D2000554809F1DE0148300161877080F800B054
:100D3000457000F11C013268009890474E4809F157
:100D4000E00164300161877080F800A0477000F115
:100D50001C01326800989047474809F1E201803051
:100D60000161877080F800B0477000F11C01726863
:100D700000989047404909F1F6009C31086181F8DC
:100D800002A081F8008081F801804FF6FF70C861F1
:100D90000846102104628162374945629C31042073
:100DA000888072682C3100989047334809F1F40725
:100DB000C8300721076180F802A0017080F8018027
:100DC0004FF6FF71C0E907141021C0E90951042151
:100DD000818000F12C0172680098904726482749CD
:100DE000F430076180F8028080F800B080F801805C
:100DF000C0E907140A21C0E90951BDE8F88F70B5B0
:100E00001F4D204855F8981F88471E4C1E48F83C37
:100E1000C4F8F800296804F5867088471B492A2021
:100E20000870002002460B18401C5A701028FADB8C
:100E3000C4F81011FFF710FBFFF797FBFFF73EFC1C
:100E4000FFF7D1FCFFF798FDBDE8704081E6FFF7A2
:100E5000D6FF0C4D0E4CF83D094E686B6430206097
:100E6000686B21688842FBD364302060D6F88C1010
:100E7000D5F898018847F3E7DC0A00203F420F00CD
:100E800014000020DC0200206474000880030020AD
:100E900004000020704708B50090411E009101D366
:100EA0000846FAE708BD00B5024602E00820FFF751
:100EB000F2FF521EFAD200BD10B502464FF4FA54AA
:100EC00002E02046FFF7E7FF521EFAD210BD10B530
:100ED000102804D311A005F077FC302010BD144970
:100EE000085C10BD41EA00601249D1F88010084743
:100EF00010B572B6104800F07F410E480838016006
:100F0000011D01F07F41416000F091FC00F0FDF80F
:100F100001F00EFBBDE8104000F0D5BC0A41535370
:100F20004552543A20686578203C2031360A00004A
:100F30002871000814000020F10E00084FF08072A4
:100F40000A600A1F1060A1F108006FF00102026040
:100F5000001F4FF012320260001F4FF00332026098
:100F6000001F4FF002320260001F52100260001F8B
:100F700000220260001F4FF011320260001F4FF08C
:100F800010320260001F4FF009320260001F4FF064
:100F900008320260001F4FF007320260001F4FF05E
:100FA00006320260001F4FF0053202604FF004303D
:100FB00041F83C0D0846704710B56A49FFF7BEFF7F
:100FC0000146BDE81040684800F0BDB8664910B55C
:100FD000091FFFF7B3FF01466348BDE810400C301E
:100FE00000F0B1B860498868002805D0401E8860CC
:100FF00002D1084600F0ACB870475C485C49026F0B
:10100000012090475B485849016041605A494FF0C0
:101010008050086062B6FEE710B572B65749554B6E
:10102000514C0A880C34521C92B20A801B68A342AD
:1010300002D14D4B5C684CB1514B1C8A282C15D306
:10104000521E1004000C08800DD00DE00024C3E9EE
:101050000104521E1004000C088000D162B6424800
:1010600000F076F812E062B6002010BD641C1C820D
:101070009C6801C49C605868844201D918689860D3
:10108000521E1004000C088000D162B6012010BD71
:1010900070B572B6394C344D2088401C82B2228023
:1010A0006868002610BB36490B8A83B1CD685B1E89
:1010B00001CDCD600B824B689D4201D90B68CB609E
:1010C000521E91B22180002900D162B670BD521E1D
:1010D0001004AE60000C208000D162B622480C30B3
:1010E00000F036F872B62088401C208068686E6078
:1010F0002188491E89B2E5E7002805DD1A49886084
:1011000001F10C0000F024B870471D491C4810B5CF
:10111000143100F1B002C0E900128160C160002109
:1011200001820846FFF708F81048164940F8741F76
:101130001549416015498160154901611549C16032
:101140001549416110BD0160002141608160704717
:1011500008490A68904204D0486007494FF080501F
:1011600008607047F4120020381900201400002095
:10117000E50F0008C800002004ED00E00800002092
:10118000000C0020B90F0008CD0F0008FB0F00086D
:101190009110000819100008F91000082DE9F04F0F
:1011A00005460478467880788FB0DFF8288402AF4F
:1011B0000A2822D2DFE800F00524425F8AB5E9FD63
:1011C000FCFB2869007805F0B9F8A96804F08FFEE7
:1011D000E96804F0E4FE05F0D4F80246FEA102A896
:1011E00005F002FBC0B208EB061103E03A5C0A55B9
:1011F000641EE4B2401EC0B2F8D20FB0BDE8F08F5A
:101200002869B0F9000005F090F8A96804F06FFEB5
:10121000E96804F0C4FE05F0B4F80246EEA102A8A5
:1012200005F0E2FAC0B208EB061103E03A5C0A5599
:10123000641EE4B2401EC0B2F8D2DEE7286900881E
:1012400005F07CF8A96804F052FEE96804F0A7FEF6
:1012500005F097F80246E0A102A805F0C5FAC0B271
:1012600008EB061103E03A5C0A55641EE4B2401E26
:10127000C0B2F8D2C1E7286900680190E86805F0BB
:10128000E5F882468B46A86805F0E0F805468946F1
:10129000019805F058F82A464B4604F0BEFE524627
:1012A0005B4604F061FF05F099F80246CAA102A866
:1012B00005F09AFAC0B208EB061103E03A5C0A5551
:1012C000641EE4B2401EC0B2F8D296E728690068F6
:1012D0000790E86805F0BAF882468B46A86805F0E2
:1012E000B5F805468946079805F03EF82A464B466C
:1012F00004F093FE52465B4604F036FF05F08DF88D
:101300000246B6A102A805F06FFAC0B208EB0611BA
:1013100003E03A5C0A55641EE4B2401EC0B2F8D243
:101320006BE72869A968006804F0E1FDE96804F04A
:1013300036FE8146287910F0FF0012D0A8A2D2E92B
:101340000012CDE90D12FFF7C2FD8DF836004846B8
:1013500005F07CF802460B460DA902A805F044FAF8
:1013600007E0484605F00DF802469BA102A805F0EB
:101370003BFAC0B208EB061103E03A5C0A55641E62
:10138000E4B2401EC0B2F8D237E72869008804F002
:10139000D5FFA96804F0ABFDE96804F000FE05F094
:1013A00009F887B2287910F0FF0513D002E07CE03D
:1013B00062E021E008EB06166D1EEDB285D307F062
:1013C0000F00FFF784FD3F093055002CF4D0641E58
:1013D000E4B2F1E708EB06153021295509F00F06B4
:1013E00007E03046FFF773FD28553F090CB1641E36
:1013F000E4B2002FF5D100E72869D0F800B0E86822
:1014000005F024F882460B91A86805F01FF80746FE
:101410008946584604F0A8FF3A464B4604F0FDFDC5
:1014200052460B9B04F0A0FE04F0F7FF0746287914
:1014300010F0FF050FD008EB06166D1EEDB2A3D31A
:1014400007F00F00FFF743FD3F093055002CF4D0A3
:10145000641EE4B2F1E708EB06153021295508E0D7
:1014600007F00F00FFF733FD28553F090CB1641E4C
:10147000E4B2002FF4D1C0E628690768384604F0CA
:101480002FFDE978C0B2012902D1211A491CCCB242
:1014900008EB0611401EC0B2ADD317F8012B0A5558
:1014A0000F2CF7D2641CE4B2F4E72869696900786C
:1014B00051F82070384604F013FDE978C0B20129D4
:1014C00002D1211A491CCCB208EB0611401EC0B251
:1014D00091D317F8012B0A550F2CF7D2641CE4B2F4
:1014E000F4E72DE9F05F404D044668600168E1B122
:1014F0004022384804F0D0FC676837B397F800B052
:1015000000254FF0200A33480024C5F1040900EB00
:10151000051838194678052E02D334A005F054F981
:10152000B14508DC08F804B007E020224021294832
:1015300004F0C4FCE0E708F804A0641CE4B2102C3A
:10154000E7D36D1CEDB2042DDDD3274C60688568B0
:1015500003E02846FFF722FEAD69002DF9D160684F
:101560000026C56811E060680069A84207D12078AC
:10157000401CC0B22070082805D0042804D3284697
:10158000FFF70CFE00E02670AD69002DEBD1114C89
:10159000104D40340026207840B1A178607805EBEA
:1015A00001110844E278211D04F076FC1434761C05
:1015B000082EF0DB074E0024403E0023184606EBC1
:1015C000041105EB041200BF11F800C0175CBC4504
:1015D0001AD017E09019002025640000257500003E
:1015E000252E6E6600000000D00000200A415353F3
:1015F0004552543A20636F6C756D6E203C20350A5D
:10160000000000000F540123401CC0B21028DBD39F
:101610001BB19648026B20469047641CE4B2042C30
:10162000CBD3BDE8F09F0021016041608160C160C3
:101630000161704700220A618A804FF07E53C1E940
:1016400002234A610122CA7082688A618160704700
:1016500000220A61CA610A624A628A628A804FF085
:101660007E53C1E9022301234A61CB708A61C268BB
:1016700012B9C1607047024690690028FBD19161A0
:1016800070470FB42DE9F0470546794E00EB85070A
:101690009146884606EB87040CAA201D0B9905F09D
:1016A000B7F8002809D0082D07DA84F8018084F8FB
:1016B0000290E070012006F82700BDE8F0075DF811
:1016C00014FB6B4A00EB8000002102F820107047E9
:1016D00068484068016911B1896901617047C16852
:1016E000FBE72DE9F04103466248406801690029A3
:1016F00033D08A780C690A2A2FD2DFE802F032054B
:101700003910437239432E328D8B8F8C2EB20D8C53
:10171000098DB4F900002DB23FB209B204E0D1E95D
:101720000765D1E90971206833B1042B08D0302B4B
:1017300004D0342B07D105E0384404E0084402E02B
:10174000C01B00E0401AB04201DD304602E0A84272
:1017500000DA2846032A02D12060BDE8F08120800B
:10176000FBE711F81C7F20780E790D7A097B0EE0DB
:101770008D8B2088AFB20D8CAEB28D8C098DADB241
:1017800089B204E0D1E90776D1E90951206833B183
:10179000042B08D0302B04D0342B0DD107E0284483
:1017A0000AE0084408E0A84203D3401B04E0884252
:1017B00001D2002000E0401AB84201D9384602E0C8
:1017C000B04200D230460A2AC7D2DFE802F008074A
:1017D0000607050706050708BEE7C0E7BDE7207056
:1017E000BBE7D1E907762568D1E9090133B1042BBC
:1017F00009D0302B03D0342B0AD105E0014628460E
:1018000004F075FB03E00146284604F0C2FB0546E0
:101810003946284604F054FE01D23D4605E03146E3
:10182000284604F043FE00D23546256095E7104B6C
:1018300000202021403BA3F1400219541154401CC8
:10184000C0B24028F9D309480B4940F88C1F0B4916
:1018500041600B4981600B49C1600B4901610B4933
:1018600041610B4981610B49C1617047140000203F
:10187000D0190020D0000020E3140008351600081D
:101880005116000827160008D1160008E3160008B4
:1018900083160008C316000878B50E4DFF221346C4
:1018A00005F5807606E000BF10F8014B54402A5D34
:1018B0005A40335D491EF7D28DF801208DF8003073
:1018C000BDF8000078BD10B500F090FDBDE81040F7
:1018D00000F0A2B838710008FE4910B54A8800230C
:1018E000FF2A00D94B80FC4C4A88A054521C4A80E5
:1018F0008B800120087010BD7FB5F74C207801283F
:1019000078D1F44D6988042974D92046891EFFF7DF
:10191000C3FF6988621812F8023D8DF801305278D1
:101920008DF80020BDF80020904263D1A0788DF89A
:101930000D00E0788DF80C006078E84AE84B052847
:1019400024D008DC01280DD0022810D0032818D09C
:1019500004284FD110E0062832D00F2841D010289B
:1019600048D143E0BDF80C0000F063F842E0BDF858
:101970000C0000F0A7F83DE0BDF80C0000F0E7F81F
:1019800038E0BDF80C0000F017F933E025798DF848
:10199000015064798DF80040CE4CBDF80050BDF880
:1019A0000C000834B5F57F4F08D0002554F820000E
:1019B000126815549A6CC84890471BE00125F5E75A
:1019C00025798DF80150C34DBDF80C0064798DF870
:1019D00000404035126855F82000BDF80040145210
:1019E000E8E7BDF80C0000F01BF903E0BDF80C00BF
:1019F00000F043F9BDE87F4000F07AB9B5480178BE
:101A0000012908D18188491C89B28180022902D923
:101A10000021017070E7704710B500F069F9B04C13
:101A2000B0490020226F9047616CBDE81040AE487D
:101A300008472DE9F8078146A7484FF00105A0F5B2
:101A40008074017821704178617001798DF80110FE
:101A500040798DF80000BDF80020500703D005EB59
:101A6000D200C3B201E0C2F3C703E01C0021A3709F
:101A70000E4601E04654491C9942FBDB954F00217C
:101A80000837DFF858C213E009EB0103DCF8006007
:101A900057F82330F35C012B09D100EBE10301F08F
:101AA00007081E7805FA08F846EA08061E70491C61
:101AB0009142E9DBA078BDE8F807C01CC1B28B48B1
:101AC00000F01CB92DE9F8078146834987484FF09B
:101AD00001050A7802704A7842700A798DF801206F
:101AE00049798DF80010BDF80030590702D005EB98
:101AF000D30100E0D908C41C00228170164601E021
:101B0000A654521C8A42FBDB724F00212037DFF8BB
:101B1000CCC113E009EB0102DCF8006057F8222089
:101B2000B25C012A09D104EBE10601F00708327822
:101B300005FA08F842EA08023270491C9942E9DBCA
:101B40008178BDE8F8076948C91C00F0D7B82DE9CD
:101B5000F801614A654C5F4D1378237053786370C8
:101B600013798DF8013052798DF80020BDF80030DE
:101B7000E11C5A00A27000223035584E13E000BF1D
:101B800055F82070D6F800C0401C80B23CF80770B1
:101B9000ADF800709DF8017001F8017B9DF80070B0
:101BA00001F8017B521C9A42EADBA178BDE8F801FA
:101BB0004E48C91C00F0A2B82DE9F801464A4B4C2A
:101BC000444D137823705378637013798DF8013086
:101BD00052798DF80020BDF80030E11C5A00A27047
:101BE000002240353D4E12E055F82070D6F800C076
:101BF000401C80B23CF80770ADF800709DF8017091
:101C000001F8017B9DF8007001F8017B521C9A429B
:101C1000EADBA178BDE8F8013448C91C00F06EB8D1
:101C20002DE9F8012C492D4B2A4D0A798DF8012018
:101C30004A798DF80020CC1D002208351B680CE085
:101C400004EBE20602F007073678FE40871806F03C
:101C5000010655F82770521CDE55BDF80060B242EF
:101C6000EEDB22480A6802608A8882808979817165
:101C7000BDE8F801062100F041B8FCB4164C174B42
:101C8000144D22798DF8012062798DF80020E11D34
:101C9000002240351B680FE011F8016B8DF80560DC
:101CA00011F8016B8DF8046055F82070401CBDF8E8
:101CB0000460DE5380B2521CBDF80060B242EBDB20
:101CC0000A4821680160A1888180FCBC062100F0DF
:101CD00015B80000D8000020701B0020C0000020B4
:101CE00014000020FD190008D9180008701A0020FF
:101CF0000D480021418081800170704738B50D4644
:101D00000446FFF7C9FDADF8000062199DF8010017
:101D100010709DF8000050700448A91C826C01B03E
:101D20002046BDE830401047D800002014000020B5
:101D3000F0B5FF48042506210580418085800224F6
:101D4000C4800838002202804280001DF9490280C8
:101D5000428001230B70F8484A804A70006800F105
:101D6000A8064E6001F10C068E600B73CB814A739E
:101D700000F1A9060E6101F118064E610B764C8345
:101D80004A7600F1AA06CE6101F124060E6281F8BE
:101D900024300326CE8481F8252000F1AB07C1E969
:101DA0000A72303111370B704A804A704F6001F16E
:101DB0000C078F600B73CB814B7300F1BD070F6174
:101DC00001F118074F610B764C834B7600F1BE078B
:101DD000CF6101F124070F6281F82430CE8481F8AD
:101DE000252000F1BF078F6201F13007CF6281F833
:101DF00030304D8681F8312000F1C0054D6301F18E
:101E00003C058D6381F83C300525CD8781F83D2068
:101E100000F1C105C1E9105248311B350B708A80B1
:101E20004A808D6001F11005CD600B748B824A826F
:101E300000F1DE058D6101F12005CD6181F82030D2
:101E40008C844A8400F1E0048C6201F13004CC629D
:101E500081F830308E864A8600F1E204C1E90E42F4
:101E6000403112340B708A804B808C6001F1100479
:101E7000CC600B748B824B82F630C1E90602F0BD58
:101E80007CB5AB4D0126083DADF800606888A949D6
:101E900000EB4000A74C01EB8000D83401782170A2
:101EA00002216170C178A1708178E17005E000BF06
:101EB000BDF80010491CADF8001080680028F7D16B
:101EC0009DF8010020719DF800006071994806217D
:101ED000D830FFF7E1FCADF804009DF80500A071D3
:101EE0009DF80400E07195480821026D9148D830B2
:101EF00090478F482988001F018069884180BDF87C
:101F0000000008448A4980B268800988884202D368
:101F10002E80002068807CBD2DE9F041DFF8108222
:101F200086B00020A8F10808ADF80400814AB8F88E
:101F30000210303201EB41017E4C02EB8101D834BA
:101F40000A782270CA78A2708A780546E2707B4EC1
:101F5000012330E04A684F781278974221D0012857
:101F600033D078B10F20BDF80470002A04EBD702FB
:101F700007F0070792F806C003FA07F70CD04CEAFF
:101F8000070C0BE005201AB1FF222271A37101E0BA
:101F90002571A571657108E02CEA070C82F806C06E
:101FA00003E008B1012808D10120BDF804208968A8
:101FB000521CADF804200029CCD16070012805D056
:101FC000052809D00F2817D03AE060709DF8050069
:101FD00020719DF80400607156480621D830FFF743
:101FE0005BFCADF800009DF80100A0719DF80000B9
:101FF000E0710821326D20E09DF8050020719DF808
:1020000004006071BDF80400410703D003EBD00069
:10201000C7B201E0C0F3C7074648B91DD830FFF783
:102020003BFCADF80000E0199DF8011081719DF8AE
:102030000010C171326D07F108013E48D830904759
:102040003B4AB8F80010121F394B1180B8F8021043
:102050005180BDF80420123B11449A80344A89B261
:10206000A8F8021052884046914203D30221018011
:10207000A8F8025006B0BDE8F081F8B52C4D2D4906
:10208000083D783168882B4C01EB0010D83401787A
:1020900000262170042161704179A1700179E170FD
:1020A00002E0C068761CF6B20028FAD10027214869
:1020B000277166710621D830FFF7EEFBADF80000FE
:1020C0009DF80100A0719DF80000E0711B480821F7
:1020D000026D1848D830904715482988001F0180A4
:1020E000698841808819124980B26880898888424D
:1020F00002D3032028806F80F8BD2DE9F843DFF874
:1021000030900C49A9F108090020B9F80220B83133
:10211000084C01EB0211D8340A7822704A79A27077
:102120000A7905460646E270044F80462EE000001C
:102130003A010020701C0020C00000201400002084
:102140008A681288ADF800204B88934215D0032886
:1021500026D040B11020A2199DF80130D3719DF80E
:10216000003013720DE09DF8013023719DF80020BE
:102170006271E3710620227203E008B1032807D1DF
:1021800003206D1CEDB2C9686A06160E0029D7D16E
:102190006070032805D0062806D0102813D028E048
:1021A000607084F8048065710621DB48FFF774FBDA
:1021B000ADF800009DF80100A0719DF80000E071ED
:1021C00008213A6D13E084F804806571A671D24845
:1021D000F11DFFF761FBADF80000A0199DF801109B
:1021E000C1719DF8001001723A6D06F10901CA48EB
:1021F0009047CA49B9F8002048460A80B9F8022039
:102200004A800E398D805119C44A89B2121DA9F82D
:102210000210D288914203D3A0F80080A9F802806E
:10222000BDE8F883BD4910B50E390023CA88FF2ADE
:1022300000D9CB80BA4CCA88A054521CCA800B81EA
:102240000120087010BD38B5B44D0E3DE988042951
:102250004CD9B148B24C027823789A4246D14078A2
:102260006278904242D12046891EFFF715FBE9882B
:10227000214411F8022D8DF8012049788DF80010C5
:10228000BDF80010884231D16378A4F5D471A34819
:1022900001F18802062B69D005DC27D2DFE803F0C4
:1022A0007F270A452A48162B79DA0F2B4CD0102BA2
:1022B00075D165E0038803220021002B6FD140888F
:1022C000954B00EB4000D83B03EB80000CE0A35C97
:1022D000CB40491C03F00103082901D10021521C05
:1022E000437045682B7080680028F0D157E000F0FB
:1022F000BEF854E002880321022A50D1864A408861
:10230000603A02EB00100DE0625C491C8DF8012080
:10231000625C8DF80020BDF8002042808368491C73
:102320001A80C0680028EFD139E000F0C8F836E024
:102330000288012A33D1408800EB400001EB800085
:102340004168097841702AE00288012A27D1408833
:1023500000EB400001EB800003E041680978417028
:102360008068A9884A1EAA80F7D218E0018803294C
:1023700015D1408802EB00108168098841800EE089
:10238000018803290BD1408802EB001003E081682B
:1023900009884180C068A9884A1EAA80F7D2BDE892
:1023A000384000F0B2B870B55C4C00250E3C608837
:1023B000401C80B26080642802D1658000F025F85E
:1023C0002078012811D12089401C80B22081022868
:1023D0000BD954482570E188026C51489047FFF7AB
:1023E00032FFBDE8704000F090B870BD10B500F04D
:1023F0008CF8FFF79DFC4B4C4B490020226F904717
:10240000E16CBDE81040494808470022434930B418
:10241000091D1446A1F10800038831F813502DB9A5
:102420005B1C9BB20380042B00D10480521C042A45
:10243000F2DB008850B101280DD0022810D003280B
:1024400013D1C888002810D030BC56E60888002870
:102450000BD030BC14E54888002806D030BC5BE5C2
:102460008888002801D030BC07E630BC7047F0B542
:102470002A48032200210388012B1FD14088264BC4
:1024800000EB4000A83B03EB8000244B244E0E3BA6
:1024900010E0456844782F78BC4205D1B45CCC404C
:1024A00004F0010444702C70491C082901D100215A
:1024B000521C80689C88651E9D80EAD2F0BD78B56C
:1024C000164803210288032A1ED1134A4088203A65
:1024D000124B02EB0010124D0E3B11E08268448853
:1024E0001678B4420AD16C5C8DF801406C1864789F
:1024F0008DF80040BDF8004044801480C068891CFD
:102500009A88541E9C80E9D278BD044800210E3878
:10251000C180018101707047481D002036010020F4
:10252000481E002014000020A723000825220008D0
:1025300010B501F0D2F901F06FFA01F048FB00F09C
:1025400081F800F061F900F0E0FA00F0BDFD00F064
:10255000E2FB00F082FC00F08AFE00F0F4FF01F0E4
:10256000E3FB01F0F9F84FF4A06001F04FFE0E21FB
:102570004FF0FF3000F007F8BDE810400F216FF07A
:102580000100AFF300800907090E002806DA00F009
:102590000F0000F1E02080F8141D704700F1E020EA
:1025A00080F8001470470000804A42F820107047FD
:1025B0002DE9F0417D4E00247D4D7C4F503E0021A1
:1025C0004FEA010000EB800206EB4202401C32F8A9
:1025D000142008281144F5DBC808042C02DA25F879
:1025E00014001CE003F0AAFE6FF00B0103F009FDDC
:1025F00003F02CFF4FF066326E4B03F0B5FD6E4AD0
:102600006E4B03F0AEFD6E4A6E4B03F01FFE0022D0
:102610006D4B03F002FD03F02CFF03F0CBFE57F8E7
:102620002410641C052C0880C9DB684829880068D0
:1026300020F8901F69884180A9888180E988C1803D
:10264000BDE8F08170B592B001214FF4017002F045
:1026500076F86020ADF8400000248DF8434010A9C2
:102660005B4801F082FE01214FF4047002F067F82C
:102670003020ADF840008DF8434010A9554801F0D6
:1026800074FE4FF4004001F0F0FF534D284602F075
:10269000E3FA01208DF830008DF831000B944FF4EF
:1026A0006020CDE90D0405208DF83C000BA92846DB
:1026B00002F0EEFA01231A460521284602F068FBD3
:1026C000012302220621284602F062FB0123032295
:1026D0000E21284602F05CFB012304220F2128462C
:1026E00002F056FB042305221021284602F050FB7D
:1026F000012002F015FC0121284602F0FBFA01211D
:10270000284602F0EDFA284602F007FB284602F0C0
:1027100009FB0028FAD1284602F00BFB284602F0FC
:102720000DFB0028FAD10121084601F0FFFF2B4ED6
:10273000304602F029FC284869464C3000901B487E
:102740005038CDE901042820CDE90304802005900C
:102750004000069080000790202008900002CDE9FC
:102760000904304602F07DFC0121284602F0EDFA12
:102770000121304602F09FFC0D4900200B4A891EC2
:1027800042F82010401C0528FADB10480849006870
:1027900040F8981F891C4160891C8160891CC160B8
:1027A00010490F48486012B070BD0000981F00200B
:1027B0004401002066660A40E17A14AE47E1F63F24
:1027C00022FDF675E09C713F00003940C0000020FA
:1027D00000080140001001400024014008000240B0
:1027E000A92500081400002016480068016E097829
:1027F00000F85C1F816809784170C16809788170B0
:1028000001690978C17070470E4808B500680E4923
:102810000166091D4166091D8166091DC166012108
:10282000102001F08CFF0F20ADF8000004208DF87F
:10283000030003208DF802006946044801F095FD6D
:1028400008BD0000C000002000012242001001402D
:102850002DE9F84307460121042001F070FF012112
:10286000082001F06CFF8024DFF8D882DFF8D892CE
:1028700003254EF20306DFB1012140F6010001F00D
:102880005EFF0121022001F063FFADF80040182037
:102890008DF803008DF802506946404601F065FD51
:1028A000ADF800606946484601F05FFDBDE8F88379
:1028B000ADF800401020EBE7A448016891F87020C3
:1028C000896F0A70016891F87120C96F0A700168F8
:1028D00091F87220D1F880100A70016891F8732085
:1028E000D1F884100A70016811F8742F49690A70D0
:1028F000006890F87510D0F88C00017070470146A0
:102900009348944B062919D2DFE801F00306090D1C
:1029100010130122042104E00122082101E0012218
:102920000C2103F0DDB80422002104E0042211464A
:1029300001E004220821184603F0DDB87047014683
:102940008348844B062919D2DFE801F00306090DFC
:1029500010130022042104E00022082101E00022DB
:102960000C2103F0BDB80022114604E0002204212E
:1029700001E000220821184603F0BDB87047024666
:1029800030B47348734B062A1BD2DFE802F003050C
:10299000070B101589B20CE089B20FE030BC89B288
:1029A00003F01FB930BC89B2184603F014B989B2DC
:1029B000184630BC03F011B989B2184630BC03F098
:1029C0000EB930BC7047F0B587B00024521E844663
:1029D000ADF81420491EADF816406020ADF8000097
:1029E000ADF810108DF81840042601275848594DAD
:1029F000ADF81240ADF80630BCF1060F3ED2DFE86C
:102A00000CF00314253F526504A9054602F038FC7A
:102A1000ADF80270ADF808406946284602F09EFC09
:102A20000821284602F0C4FF20E004A9054602F070
:102A300027FCADF80270ADF808406946284602F060
:102A4000C9FC0821284602F0BDFF0FE004A9054695
:102A500002F016FCADF80270ADF808406946284651
:102A600002F0F2FC0821284602F0B2FF01212846BC
:102A700002F065FF0121284602F0ABFE07B0F0BD71
:102A800004A9284602F0FCFBADF80240ADF8046052
:102A9000ADF80A406946284602F02BFC082128467A
:102AA00002F075FF24E004A9284602F0E9FBADF826
:102AB0000240ADF80460ADF80A406946284602F0CD
:102AC0004DFC0821284602F073FF11E004A92846B6
:102AD00002F0D6FBADF80240ADF80460ADF80A4054
:102AE0006946284602F076FC0821284602F06AFF73
:102AF0000121284602F023FF0121284602F069FE49
:102B00000121284602F06FFEB8E71048124900681C
:102B100040F8781F11494160091D81600F49343127
:102B2000C160091D0161091D41610E480C494161E7
:102B30000D4981610D49C1610D4941620D49016233
:102B4000002085E600080140000C0140C000002084
:102B500000040040002C01409C0121428081214260
:102B60005128000814000020FF2800083F29000811
:102B70007F290008C72900088A49487170472DE954
:102B8000F05F884D4FF0FF0B4FF00006A8794FF033
:102B90000107C04310F0FF00A87142D0DFF808A27F
:102BA000FF24DAF8080100B97F248048D0F83011FA
:102BB00009B904F0BF04D0F82C1109B904F0DF04FE
:102BC0008046D0F8280108B904F0EF04B146304639
:102BD000774EC6F89401C6F890710120FEF75BF9B4
:102BE000DAF8080108B904F0F704D8F830114046C3
:102BF00009B904F0FB04D0F82C1109B904F0FD0464
:102C0000D0F8280108B904F0FE04C6F89091C6F87F
:102C10009471687910B12C70BDE8F09F85F800B010
:102C2000FAE72879634C012811D008B1401E2871B9
:102C30005C4928784978FF280CD0E871491CC8B253
:102C4000AE7068701428E7D914206870E4E7C4F8FF
:102C50009061EBE7A878401CC0B2A8700228DBD3D3
:102C60000222AA70E87808B1401E51E00229D3D3AD
:102C70004C481429C0790BD0F72841D02BDC7F2891
:102C800036D0BF2832D0DF282ED0EF2841D129E01E
:102C9000F7281ED008DC7F2813D0BF280FD0DF28EC
:102CA0000BD0EF2835D106E0FB2810D0FD280CD042
:102CB000FE282ED107E0302123E0312121E032210E
:102CC0001FE033211DE034211BE0352119E03621BE
:102CD00017E0372115E0FB2810D0FD280CD0FE2886
:102CE00017D107E031460CE039460AE0114608E00A
:102CF000032106E0042104E0052102E0062100E0B2
:102D000007210120FEF7EEF8C4F890710A2028711F
:102D1000E8706E7080E7F8B50121274801F0B4FB38
:102D200001213C2001F00BFD21480026C0F89061F4
:102D30000121C0F894113020ADF8000010248DF866
:102D4000034003258DF8025069461C4801F00DFB35
:102D50001848C0F89061ADF800408DF8034002209B
:102D60008DF802006946164801F0FFFA4FF4E05072
:102D7000ADF8000048248DF803408DF802506946F4
:102D8000104801F0F2FA0420ADF800008DF803407D
:102D90008DF8025069460C4801F0E7FA0C490B48DF
:102DA0008862F8BD4C0100200080224200002242CF
:102DB000008021420000214200013000000C01404F
:102DC000000801400010014000140140792B000868
:102DD000140000202DE9F04100F0F0010902554CEB
:102DE00000F00F0041EA0010002640F47807C4F814
:102DF0009C610120C4F8A4011725804627FA05F03C
:102E0000C00702D0C4F8A08101E0C4F8A0610A2084
:102E1000FEF749F8C4F89C810A20FEF744F8C4F88C
:102E20009C610A20FEF73FF86D1E2DB2002DE5DAF9
:102E3000C4F8A461BDE8F08170B50D463E49085C58
:102E4000FFF7C8FF5FF0000415F8010B00F03FF832
:102E5000641CE4B2102CF7D370BD38B501211020EA
:102E600001F06DFC334C0020C4F89C01C4F8A401AF
:102E7000C4F8A001C4F898014FF47070ADF80000D8
:102E800010208DF8030002208DF8020069462B48BF
:102E900004F5CC7401F069FA6420FEF70DF8012006
:102EA00020603020FFF796FF0C20FFF793FF0120F2
:102EB000FFF790FF0220FFF78DFF8020FFF78AFFCA
:102EC0000120FFF787FF1F491D48086338BD2DE922
:102ED000F04100F0F0010902164C00F00F0041EA49
:102EE0000010002640F47A07C4F89C610120C4F861
:102EF000A40117254FEA000827FA05F0C00702D001
:102F0000C4F8A08101E0C4F8A0610A20FDF7CBFF5E
:102F1000C4F89C810A20FDF7C6FFC4F89C610A2012
:102F2000FDF7C1FF6D1E2DB2002DE5DAC4F8A461D6
:102F300080E70000000022423873000800100140C2
:102F4000392E0008140000202DE9F04140F2DD7513
:102F5000002402F0DAFE9D4E0722B0FBF6F3991C26
:102F6000B1FBF2F702FB171799490A6882F83C7027
:102F700040F2B557B3FBF7F107FB1131B3FBF7F3A1
:102F800092F83EC005EB83035FEA8C7E40F26D1C35
:102F90000AD0B1FBFCF52B44D387B1F5896F0ED372
:102FA0008C4BA1F2474106E04FF4B775B1FBF5F544
:102FB000F1E7491B641C1D5D8D42FAD90BE0B1FBA2
:102FC000FCF3844D0CFB13110C3D01E0C91A641C89
:102FD0002B5D8B42FAD9641C82F83D40491C82F873
:102FE0003B10B0FBF6F106FB11004FF46161B0FB42
:102FF000F1F382F83A30B0FBF1F301FB13043C2308
:10300000B4FBF3F482F83940B0FBF1F401FB140097
:10301000B0FBF3F103FB110082F83800BDE8F0814A
:1030200070B5002401214FF0C05001F091FB012048
:1030300002F0E8FE02F006FE012001F01DFB664DE5
:1030400002E0641CAC4204D0412001F09EFA00284A
:10305000F7D0AC4202DA4FF4807009E0012001F0B1
:1030600019FB612001F091FA0028FAD04FF40070AA
:1030700001F013FB012001F015FB02F087FE02F0C6
:103080007FFEAC4202DA47F6FF7001E049F63F40AE
:1030900002F051FE02F074FE0121084602F01EFE0D
:1030A000BDE8704002F06CBE4C4810B50178491C78
:1030B000C9B20170642906D10021017000F032F814
:1030C000BDE8104040E710BD10B5042002F0E3FD5C
:1030D00041F23424A04206D0FFF7A2FF214604208B
:1030E00002F0D2FD1BE001214FF0C05001F030FB97
:1030F000012002F087FE412001F047FA28B9612043
:1031000001F043FA08B9FFF78BFF02F03FFE02F02F
:1031100037FE0121084602F0E1FD02F031FEBDE874
:10312000104011E770B52A4840F2B5530168CA8FC4
:103130001446A2F2DD729008584302F003029B107D
:1031400002FB030091F83D305B1EA2074FF0000226
:1031500002D0204C0C3C0AE01E4C02E0A55C521C44
:1031600028449A42FAD304E0A55C521C28449A42AF
:10317000FAD391F83B20401E104411F8382F40F24A
:10318000A323584302EBC012887849784FF4616357
:103190005843C1EB011100EB8100141802F0B5FD9A
:1031A00000F10A018C4203D804F10A0181420BD2DA
:1031B000012002F027FE02F0E3FD204602F0AEFD02
:1031C000BDE8704002F0DCBD70BD00008051010020
:1031D000C00000204873000880841E0054010020B5
:1031E0002DE9F041254E00243568002D20D0244FD4
:1031F000E80719D057F83400401E47F8340013D1BF
:1032000001203168A040814331607068E040C00710
:1032100007EBC400406806D01A490968411A022029
:10322000FDF760FE00E080476D0804F10104DFD186
:10323000BDE8F08110B5124C44F8302004EBC00218
:1032400053600E4A01238340546819B143EA0400D5
:10325000506001E09C43546010680343136010BD4C
:1032600001218140054802688A430260704707488F
:1032700005494165064981657047000058010020F5
:10328000AC1F00200C000020353200081400002084
:10329000613200082DE9F043DFF8D892ADF5017DE9
:1032A0000020D9F800206D4652F830104B1C08D091
:1032B00045F8201002EBC003401C5B680B608028BF
:1032C000F2DBAC4C80B2241D80216080A1800228FA
:1032D0001FD300263146B046431E0FE04A1C0AE0C9
:1032E00055F8217055F822C0674503D145F8218073
:1032F000012602E0521C9042F2DC491C8B42EDDCBC
:103300003EB100F02FF99C4801F0BCFA0026374688
:1033100018E020801CE000BF55F827208AB1D9F8BA
:103320000000D2F8008000EBC600114601F049FB16
:10333000D9F80000414600EBC600001D01F041FB3A
:10334000761C7F1C6088B842E6DC01F06CFA2680AF
:103350002088E08089A003F037FAA18888A003F0D4
:1033600033FA61888CA003F02FFA218890A003F033
:103370002BFAE18893A003F027FA0DF5017DBDE853
:10338000F08370B5040006D07A4D2D1DE888A98819
:10339000884201D1002070BD00F0E4F8754EE88845
:1033A000316801EBC000214601F00BFBE888326870
:1033B000216802EBC000001D01F003FB01F033FAAD
:1033C000E888401CE880012070BD10B5824C4FF4A5
:1033D00040628249628121600020616020810B7817
:1033E000FF2B1BD0401C491C9042F8DB7CA003F053
:1033F000EBF961897BA003F0E7F921897FA003F055
:10340000E3F984A0216803F0DFF987A0616803F085
:10341000DBF9BDE8104072A003F0D6B961602081ED
:10342000E4E770B500F09EF86C4D002405EB8420B5
:1034300001F028FA641C032CF8DB01F0F4F966486B
:10344000002105604560018170BD30B563490A788F
:10345000FF2A2FD0604A28B1474C431C05D00028D2
:1034600021DC2BE00846116030BD13684FEA0300F1
:1034700010F8015B002DFBD1057805B9401C0578DB
:10348000FF2D01D0A04201D9116000E01060184664
:1034900030BD0A78FF2A0DD0002AFDD111F8012F86
:1034A000002AFDD0491C401EF3D20878FF2801D025
:1034B000A14201D961A030BD084630BD61A030BD38
:1034C0000FB400212DE9F0419AB068464FEA01029D
:1034D000491C20F8022B3229FADB21AA68462099E0
:1034E00003F096F900280CD0441CE00700D0641CBF
:1034F000DFF8E480B8F808002044B0F5406F05DB41
:1035000000201AB0BDE8F0015DF814FB67106E46AC
:1035100000F028F800250BE03188D8F8040001F00D
:1035200074FAD8F804006D1C801CB61CC8F804009E
:10353000BD42F1DB01F077F9B8F808100120214411
:10354000A8F80810DDE710B5FFF7A4FE424C41488B
:103550002066FFF73AFF414860664148A06641484F
:10356000E06610BD10B501F052F9BDE810403520FD
:1035700001F05BBB6001002000FC00080A0A0A00A1
:103580000AB2CECAFDD7DCB4E6B4A2BFD5BCE420F3
:103590003D202564000000000AB2CECAFDD2D1B49D
:1035A000E6B4A2BFD5BCE420203D20256400000085
:1035B0000AB2CECAFDB4E6B4A2B8F6CAFD203D20D8
:1035C000256400000AB2CECAFDD0B4C8EBB5E32032
:1035D0003D20256400000000EC1F002000F00008E2
:1035E0000A0A00000AC8D5D6BED7DCB4E6B4A2BF2A
:1035F000D5BCE4203D202564000000000AC8D5D6D3
:10360000BED2D1B4E6B4A2BFD5BCE420203D202573
:10361000640000000AC8D5D6BEB6C1C8A1B5E32073
:103620003D202578000000000AC8D5D6BED0B4C819
:10363000EBB5E3203D202578000000004E756C6C52
:103640000A000000417267756D656E744572726F95
:10365000720A00008333000814000020233400089D
:103660004B340008C1340008494AB8B101280BD0D6
:1036700002281ED110780A281BD002F11C0343F83F
:103680002010401C107012E05078042811D0404BDC
:103690000C3343F82010401C507008E0907802284A
:1036A00007D03B4B1B1D43F82010401C907001209D
:1036B00070470020704770B5354CE078401CC0B2B0
:1036C000E070642801D10020E070314D2D1D286884
:1036D000804768688047FEF76BFFFFF785F8FFF7C4
:1036E000EBF8E2780A20B2FBF0F1B2FBF0F300FB5A
:1036F000132205F108000A2A1AD2DFE802F00507B2
:10370000090B0D141A1E1922006809E0406807E031
:10371000806805E0C06803E01D481C3050F82100B7
:10372000BDE8704000471B480068416B491C41637D
:1037300070BDBDE8704000F079B8BDE87040FFF79B
:103740004FBD29B10129F3D1BDE87040FFF717BA89
:10375000BDE87040FFF7A8BC0F4842F21071006846
:10376000B0FBF1F0B0F1807F0DD220F07F414FF03F
:10377000E020491E4161094AF02182F8141D002110
:10378000816107210161074905480867704700000A
:103790006C010020C0000020B80100200FE000E014
:1037A00069360008140000207C490A8AB2F57A7F45
:1037B00001D3002070478B6803F8010B8B604868C9
:1037C000834201D90868886072B6754B521C18880C
:1037D0000A820004000C188000D162B601207047F4
:1037E00070B50D00044605D110E000BF14F8010BC0
:1037F000FFF7DAFF6D1EF9D270BD0A2802D10D2045
:10380000FFF7D2FF14F8010BFFF7CEFF2078002856
:10381000F3D170BD10B504460A2802D10D20FFF780
:10382000C3FFE0B2FFF7C0FF204610BD5B4810B5F4
:10383000028A002A19D05B490988490615D5C16852
:10384000584C241D11F8013B2380C1604368994204
:1038500001D90168C16072B6514B521E19880282AB
:103860000804000C188000D162B610BD10B54D4C94
:1038700040F22551204600F099FC30B1204600F07E
:103880002EFCC1B20120FDF72DFB0821204600F0DF
:1038900083FC012804D12046BDE8104000F01FBC85
:1038A00010BD10B53F4C012240F22551204600F0DA
:1038B000C6FB2046BDE81040012100F0B6BB10B5A4
:1038C000384C002240F22551204600F0B8FB20463B
:1038D000BDE81040002100F0A8BB30B587B0012141
:1038E00044F2050000F02BFF4FF40070ADF810001B
:1038F00003248DF8124018202B4D8DF8130004A9D5
:10390000284600F032FD2815ADF8100048208DF84B
:10391000130004A9284600F028FD25208DF8140086
:103920008DF8154002208DF8160001208DF8170043
:1039300005A800F070FC00244FF4E1300090ADF8D1
:1039400008400C20174DADF80440ADF80A00ADF862
:103950000640ADF80C406946284600F0F3FA012213
:1039600040F22551284600F06AFB0121284600F06C
:103970005CFB0A490948143100F2FB32C0E900122D
:103980008160C16004820A48084941630949816332
:103990000949C1630949016407B030BDF81F00201F
:1039A000080000200038014000080140A33800084A
:1039B00014000020BF380008A9370008E1370008CC
:1039C000704750490860704770B54F4D2C88A0066D
:1039D00006D5284600F083FB4A49C0B209688847EB
:1039E000200704D52846BDE8704000F078BB70BDC4
:1039F00070B5464E0C4605460021304601F05BFB93
:103A000042488038C0F88C50C0F884403046BDE849
:103A10007040012101F04FBB70B592B0012105202B
:103A200000F08DFE0121480400F092FE0420ADF864
:103A30003C0003248DF83E401820354E8DF83F00A1
:103A40000FA9304600F091FC0825ADF83C50482005
:103A50008DF83F000FA9304600F087FC26208DF836
:103A600040008DF841408DF8424001208DF8430020
:103A700010A800F0D0FB0121084600F057FE234EAD
:103A8000304601F081FA20480024001DCDE90004F1
:103A90001020CDE902058020CDE904408001CDE968
:103AA000084006940794694630460A9401F0D9FA12
:103AB0004FF4E130ADF830400B90ADF83240ADF846
:103AC0003440ADF838400C200F4CADF836000BA94F
:103AD000204600F037FA012240F22551204600F03E
:103AE000AEFA01228021204600F0C1FA01212046D1
:103AF00000F09BFA0848074941640849816412B004
:103B000070BD0000B0010020004400408000024071
:103B100000080140C339000814000020F1390008F2
:103B2000704777490860704770B5764D2C886006FD
:103B300009D575490020C1F8A001024640F226616E
:103B4000284600F07CFAA00606D5284600F0C7FA01
:103B50006B49C0B209688847200704D52846BDE8EC
:103B6000704000F0BCBA70BD70B50C4666490546A1
:103B70000120C1F8A001654E0021304601F09BFAFA
:103B800062481C3885620462002240F226615D486A
:103B900000F055FA3046BDE87040012101F08BBAC3
:103BA00010B5202001F0B7FA01280FD1202001F034
:103BB000C0FA544C4021204600F0F5FA2046BDE8FA
:103BC0001040012240F2266100F039BA10BD2DE903
:103BD000F04391B00121092000F0B1FD01218804DA
:103BE00000F0B6FD48480024C0F8A0414FF48070B2
:103BF000ADF82C000225464F8DF82E504FF01008DE
:103C00008DF82F800BA9384600F0AFFB6802ADF8A5
:103C10002C0003268DF82E6018208DF82F000BA99C
:103C2000384600F0A2FBA802ADF82C0048208DF821
:103C30002F000BA9384600F098FB27208DF83000A4
:103C40008DF831608DF8326001268DF833600CA854
:103C500000F0E1FA4FF4E130DFF8A8900D90ADF8F4
:103C60003840ADF83C400C27ADF83A40ADF8404044
:103C7000ADF83E700DA9484600F064F9012240F20B
:103C80002551484600F0DBF90121484600F0CDF906
:103C90008DF830708DF831508DF832508DF83360DA
:103CA0000CA800F0B8FA0121084600F03FFD174DBE
:103CB000284601F069F909F104008DE81101082096
:103CC000CDE903048020CDE905048001CDE9084059
:103CD0000794694628460A9401F0C3F9012202219B
:103CE000284601F0F3F901228021484600F0BFF98F
:103CF00009480849C1640949016511B0BDE8F0836C
:103D0000B401002000480040008021421C00024015
:103D1000000C0140233B000814000020693B000810
:103D20000E49C1F89001704708B50121042000F048
:103D300006FD0A490020C1F890011020ADF80000EE
:103D40008DF8030002208DF802006946044800F057
:103D50000CFB05490348C86208BD00000000214271
:103D600000080140213D0008140000200CB500218E
:103D70004B4801910091026842F4803202604FF496
:103D8000A063026802F400320092019A521C019270
:103D9000009A12B9019A9A42F3D10268920333D57C
:103DA000012100913F490A6842F010020A600A6846
:103DB00022F003020A600A6842F002020A604168C7
:103DC000416041684160416841F4806141604168FF
:103DD00021F47C114160416841F4E81141600168BF
:103DE00041F08071016001688901FCD5416821F0D2
:103DF00003014160416841F0020141604168C1F343
:103E000081010229FAD10CBD00910CBD244810B5E6
:103E1000016841F0010101604168234A114041609D
:103E20000168224A11400160016821F4802101608B
:103E3000416821F4FE0141604FF41F018160FFF7EA
:103E400095FF1B494FF00060086010BD144910B584
:103E50004868184A10F00C03174803D0042B01D00F
:103E6000082B0AD002604968134AC1F30311121DDE
:103E7000515C0268CA40026010BD4A684B6802F497
:103E800070124FF0020413F4803F04EB924202D010
:103E90004B689B0301D5094B00E0064B5A43E1E711
:103EA00000100240002002400000FFF8FFFFF6FE75
:103EB00008ED00E000127A00B801002000093D0082
:103EC0000648804706480047FEE7FEE7FEE7FEE7B4
:103ED000FEE7FEE7FEE7FEE7FEE7FEE70D3E000831
:103EE000ED000008C44910B588420AD101218C03B5
:103EF000204600F036FC2046BDE81040002100F0CE
:103F000030BCBE49884202D101214C0410E0BC49BA
:103F1000884202D101218C040AE0BA49884202D1C8
:103F20000121CC0404E0B84988420AD101210C05E2
:103F3000204600F01FFC2046BDE81040002100F0A4
:103F400019BC10BD30B50446008A85B00D464CF64C
:103F5000FF710840E98801432182A1894EF6F310E0
:103F60000140A8882A8910436A890A431043A08126
:103F7000A08A4FF6FF410840A9890143A182684603
:103F800000F094FB9C48844201D1039800E0029821
:103F9000A189090400EBC00101EB0010296801D5DB
:103FA000490000E08900B0FBF1F06422B0FBF2F1BF
:103FB00009010B096FF018056B4300EB8300A3891F
:103FC0001D044FF0320306D503EBC000B0FBF2F046
:103FD00000F0070005E003EB0010B0FBF2F000F08A
:103FE0000F000843208105B030BD4FF41651016029
:103FF00000218180C18001810C2242818181704732
:1040000010B5038A4FF2FF0213400A884C882243FE
:104010008C88C9880C4322431A43028210BD0021B8
:10402000018041808180C18070470029818902D050
:1040300041F4005101E021F400518181704710B535
:10404000C1F3421301F01F040121A140012B07D04D
:10405000022B07D01430002A026805D00A4304E07E
:104060000C30F8E71030F6E78A43026010BD002AF2
:10407000828A01D00A4300E08A4382827047028A22
:1040800022F00F020282028A0A430282704782896A
:1040900022F40062828182890A438281704700296A
:1040A000818902D041F0020101E021F00201818109
:1040B0007047028A22F020020282028A0A430282A8
:1040C00070470029018A02D041F4804101E021F4C7
:1040D000804101827047C1F3080181807047808868
:1040E000C0F308007047818941F001018181704768
:1040F000028BD2B20283028B42EA01210183704714
:10410000028B02F47F420283028B0A4302837047D0
:104110000029818A02D041F0200101E021F0200134
:10412000818270470029818A02D041F0100101E0AC
:1041300021F01001818270470029818A02D041F06C
:10414000080101E021F0080181827047002981897E
:1041500002D041F4004101E0C1F30E0181817047BA
:104160000029818A02D041F4006101E021F400615C
:1041700081827047828A22F004028282828A0A4304
:10418000828270470029818A02D041F0020101E059
:1041900021F00201818270470246002012880A4203
:1041A00000D001207047C9430180704730B501F04D
:1041B0001F0201240025C1F3421304FA02F2012B6D
:1041C0000FD0022B0FD0838A4FEA112100881342AF
:1041D00004FA01F400EA040001D000B101252846E8
:1041E00030BD8389F0E7038AEEE70A0A0121914096
:1041F000C94301807047000000380140004400407E
:1042000000480040004C004000500040284908434E
:1042100028490860704770B50F23C47801780122DF
:10422000F4B1244C2468457804F4E064C4F5E064F7
:10423000240AC4F10406E3408478B5401C402C43B2
:1042400001F1E021230181F80034007800F01F0122
:104250008A404009800000F1E020C0F8002170BDD4
:1042600001F01F0082404809800000F1E020C0F802
:10427000802170BD104A114001430E48001F0160AB
:1042800070470C4A121D0029116801D0014300E05B
:104290008143116070474FF0E0210428086903D082
:1042A00020F004000861704740F00400FAE70000C5
:1042B0000000FA050CED00E080FFFF1F914910B5EA
:1042C000884206D10121042000F04BFA002104208D
:1042D0003BE08D49884206D10121082000F041FAD7
:1042E0000021082031E08949884206D101211020AF
:1042F00000F037FA0021102027E08549884206D1D6
:104300000121202000F02DFA002120201DE081490C
:10431000884206D10121402000F023FA00214020EC
:1043200013E07D49884206D10121802000F019FA6E
:104330000021802009E0794988420AD184150121B1
:10434000204600F00EFA00212046BDE8104000F0A3
:1043500008BA10BD10B50121084600F002FA00218C
:10436000BDE81040012000F0FCB9F0B5CA78002586
:1043700002F00F03D20601D58A7813430A784FF072
:104380000F0E12F0FF0F4FF001021DD0D0F80040C9
:104390000F8802FA05F63740B74211D14FEA850C73
:1043A0000EFA0CF724EA070703FA0CF43C43CF7823
:1043B000282F02D0482F02D002E0466100E00661BB
:1043C0006D1C082DE4D304600C88FF2C1ED94468B2
:1043D0005FF0000606F1080702FA07F50F882F4084
:1043E000AF420FD14FEA860C0EFA0CF7BC4303FA2A
:1043F0000CF73C43CF78282F00D14561CF78482F68
:1044000000D10561761C082EE4D34460F0BD4FF660
:10441000FF710180022181700421C1707047024642
:10442000002092680A4200D001207047806880B264
:10443000704702460020D2680A4200D0012070472F
:10444000C06880B2704701617047416170470AB12E
:104450000161704741617047C160704741F480322B
:104460008261816182618169806970472C4B10B5DE
:104470001A684FF68074224042EA00100843186020
:1044800010BD2849C8617047F0B5254C002801DAF5
:10449000E36900E06368420D120185B2C0F3015781
:1044A0009540C0F30346032F05D0C2020AD503226C
:1044B000B240934307E023F07062636823F07063B7
:1044C000636002E0AB4343F0706201B12A4300280D
:1044D00001DAE261F0BD6260F0BD10B58A0721F03B
:1044E00003040F49130F21440F228C689A40944310
:1044F0008C608A68984002438A6010BD0949C1F8FF
:10450000DC00704700080140000C01400010014031
:104510000014014000180140001C0140002001402F
:104520000000014000002042A448016841F0010160
:1045300001604168A24A114041600168A14A1140EE
:104540000160016821F480210160416821F4FE01CD
:1045500041604FF41F018160704798490A6822F456
:1045600080320A600A6822F480220A60B0F5803F37
:1045700007D0B0F5802F03D1086840F4A020086070
:104580007047086840F48030F9E70246002053097C
:104590008A49012B0AD0022B0AD0496A02F01F0275
:1045A000012393400B4200D0012070470968F5E7D2
:1045B000096AF3E718B500204FF4A0640090312099
:1045C000FFF7E3FF0099491C0091A14201D00028A8
:1045D000F5D03120FFF7D9FF002800D0012018BD09
:1045E00076490A6822F0F80242EAC0000860704783
:1045F000754908607047714A5368084323F47C1377
:104600001843506070477049086670476B4A51689C
:1046100021F003010143516070476848406800F091
:104620000C007047654A516821F0F0010143516068
:104630007047624A516821F4E0610143516070475C
:104640005E494A6822F4605242EAC00048607047FE
:104650005A4A0029517A01D0014300E08143517246
:1046600070475949C1F8D8007047544A516821F43D
:1046700040410143516070475049002281F8202099
:1046800081F82020012802D0042802D1052081F8D9
:10469000200070474D490860704748490A6A024344
:1046A0000A627047494944390860704730B5434948
:1046B0004A6812F00C03464A03D0042B01D0082BA1
:1046C00021D002604A680F23424C03EA1212A35C15
:1046D0000268DA4042604B68072505EA1323E35C71
:1046E00022FA03F383604B6805EAD323E35CDA40E4
:1046F000C2604968032303EA9131231F595CB2FB6E
:10470000F1F1016130BD4A684B6802F470124FF05C
:10471000020413F4803F04EB924202D04B689B03E7
:1047200001D52D4B00E02A4B5A43CAE7234A002902
:10473000516901D0014300E08143516170471F4A34
:104740000029916901D0014300E0814391617047E4
:104750001A4A0029D16901D0014300E08143D161A7
:104760007047164A0029D16801D0014300E0814317
:10477000D1607047114A0029116901D0014300E05E
:1047800081431161704711494039086070470E49F3
:10479000C86470470949C87170470848416A41F0C8
:1047A000807141627047054A0146002092680A42C2
:1047B00000D0012070470149887270470010024004
:1047C0000000FFF8FFFFF6FE000042428004424274
:1047D00000127A00D001002000093D00FC4A116857
:1047E00001F03801014311607047F9490A6822F06D
:1047F00008020A600A6802430A607047F4490A68BE
:1048000022F010020A600A6802430A607047F0480A
:10481000F0494160F04941607047ED48ED49416021
:10482000ED4941607047EA48016941F0800101614A
:104830007047E748016941F0800101617047E44930
:104840000420CA68D20701D001207047CA68520705
:1048500001D502207047C968C906FBD503207047FF
:1048600000B50346FFF7EBFF03E000BFFFF7E7FFEC
:104870005B1E012803D0002B00D1052000BD002BBA
:10488000F4D1FAE770B505464FF430263046FFF70D
:10489000E7FF042811D1CE4C206940F002002061CE
:1048A0006561206940F0400020613046FFF7D8FF85
:1048B000216941F6FD721140216170BD30B54FF4A0
:1048C00030252846FFF7CCFF042810D1C04C2069C2
:1048D00040F004002061206940F04000206128463B
:1048E000FFF7BEFF216941F6FB721140216130BD27
:1048F00000B50346FFF7A3FF03E000BFFFF79FFFEC
:104900005B1E012803D0002B00D1052000BD002B29
:10491000F4D1FAE730B54FF430252846FFF7E8FF29
:10492000042810D1AA4C206940F0040020612069BD
:1049300040F0400020612846FFF7DAFF216941F688
:10494000FB721140216130BDA1490020C96989076E
:1049500000D50120704770B5A525FFF7F5FF00B120
:1049600000254FF430263046FFF77AFF042827D180
:10497000974C9848A0609848A060206940F02000BB
:104980002061206940F0400020613046FFF768FF59
:1049900041F6EF7604280ED1206941F6DF71084018
:1049A0002061206940F0100020618C4805804FF4A0
:1049B0000050FFF755FF052802D0216931402161E1
:1049C00070BDF8B5064600204FF4005C00900D461F
:1049D0006046FFF745FF042816D17D4C206940F062
:1049E0000100206135806046FFF73AFF41F6FE770F
:1049F000042806D1B61C280C009630806046FFF7CC
:104A00002FFF216939402161F8BDF0B506464FF40A
:104A100000570D463846FFF723FF04280CD16C4C95
:104A2000206940F00100206135803846FFF718FF0B
:104A30002169BA1E11402161F0BDF0B506464FF460
:104A400000570D463846FFF70BFF042813D1604C82
:104A50006048A0606048A060206940F010002061BC
:104A600035803846FFF7FCFE052804D0216941F661
:104A7000EF7211402161F0BD2DE9F041C04300F01B
:104A8000FF0CC0F30727C0F30746050E4FF400588C
:104A90004046FFF7E5FE042837D14D4C4D49A16053
:104AA0004D49A160216941F010012161BCF1FF0F66
:104AB00008D04A480830A0F800C04046FFF7D0FEB2
:104AC00004281BD1FF2F07D044480A3007804046F6
:104AD000FFF7C6FE042811D1FF2E07D03F480C3047
:104AE00006804046FFF7BCFE042807D1FF2D07D003
:104AF0003A480E3005804046FFF7B2FE052804D044
:104B0000216941F6EF7211402161BDE8F08170B575
:104B100005464FF430263046FFF7A2FE042818D190
:104B20002B4C2C48A0602C48A060206940F020004D
:104B30002061206940F0400020613046FFF790FE80
:104B400041F6DF71042805D0052802D022690A4009
:104B5000226170BD206908402061206940F010008A
:104B600020611E480DB1002100E0A52101803046E2
:104B7000FFF776FE0528ECD0216941F6EF7211406F
:104B8000216170BDF0B5124C0746124816460D461D
:104B9000A0601148A0604FF4005C6046FFF760FE23
:104BA000042814D1206940F01000206135430B49DE
:104BB0003D43891C45F0F80008806046FFF750FE31
:104BC000052804D0216941F6EF7211402161F0BD42
:104BD0000020024023016745AB89EFCD00F8FF1F9D
:104BE0001C48C069800870471A48006A7047194914
:104BF00000200968890600D501207047154A002960
:104C0000116901D0014300E0814311617047014601
:104C10000020104A012903D0D2680A4203D170470C
:104C2000D169C907FBD0012070470A49C8607047A5
:104C300008490420CA68D20701D001207047CA6819
:104C4000520701D502207047C968C906FBD5032069
:104C50007047000000200240C54910B5884202D1CB
:104C6000012144150AE0C349884202D101210415FB
:104C700004E0C14988420AD10121CC032046FFF754
:104C800070FD2046BDE810400021FFF76ABD10BD51
:104C900010B54268B94B0C791A400B6842EA0422FD
:104CA000134343608368B64A1340D1E9024222436A
:104CB0004C7943EA44031A438260C26A097C22F4B5
:104CC0007002491EC9B242EA0151C16210BD002101
:104CD0000160017141718160C160012101747047FF
:104CE0000029816802D041F0010101E021F00101B9
:104CF000816070470029816802D041F4807101E031
:104D000021F4807181607047002A4268C9B201D0E5
:104D10000A4300E08A4342607047816841F008011D
:104D200081607047014600208968090700D501208D
:104D30007047816841F0040181607047014600209E
:104D40008968490700D5012070470029816802D091
:104D500041F4A00101E021F4A00181607047014607
:104D600000208968490200D5012070474268491E29
:104D700022F4604242EA41314160704700294168B3
:104D800002D041F4006101E021F40061416070470C
:104D900070B5072409290AD9C568A1F10A0606EBEE
:104DA0004606B440A543B3401D43C56007E005690E
:104DB00001EB4106B440A543B3401D4305611F23E9
:104DC000072A09D2446B521E02EB820293409C4395
:104DD00091400C43446370BD0D2A09D2046BD21F6D
:104DE00002EB820293409C4391400C43046370BDEC
:104DF000C46A0D3A02EB820293409C4391400C43FB
:104E0000C46270BD0029816802D041F4801101E0C4
:104E100021F4801181607047C06C80B270475448A3
:104E20004C30006870470029416802D041F480612D
:104E300001E021F48061416070470029416802D09F
:104E400041F4805101E021F4805141607047826853
:104E500022F4E0420A43826070470029816802D050
:104E600041F4004101E021F40041816070470029D4
:104E7000816802D041F4021101E021F40211816045
:104E80007047014600208968890200D501207047DB
:104E900070B5072409290AD9C568A1F10A0606EBED
:104EA0004606B440A543B3401D43C56007E005690D
:104EB00001EB4106B440A543B3401D430561836B3C
:104EC000C3F30154121B921C02EB82041F22A24066
:104ED0009343A1400B43836370BD826B491E22F450
:104EE000401242EA01518163704708B508440090BE
:104EF000026008BD08B5084428300090006880B200
:104F000008BD42681F4B1A400A4342607047416225
:104F100082627047426822F01F020A434260704773
:104F2000134908310028086802D040F4000001E06D
:104F300020F40000086070470246002012680A4210
:104F400000D001207047C9430160704710B5024688
:104F5000002054680B0AC9B20C401168194202D0F3
:104F6000002C00D0012010BD6FEA112101607047B4
:104F70000024014000280140003C0140FFFEF0FFFA
:104F8000FDF7F1FFFFFD3FFF01684FF6FE72114094
:104F900001600021016041608160C1606A496A4A24
:104FA0000839904203D1486840F00F0006E0664A95
:104FB0001432904204D1486840F0F00048607047D5
:104FC000614A2832904203D1486840F47060F5E7A6
:104FD0005D4A3C32904203D1486840F47040EDE7AE
:104FE000594A5032904203D1486840F47020E5E7B6
:104FF000554A6432904203D1486840F47000DDE7BE
:10500000514A7832904203D1486840F07060D5E749
:105010004E4A111F904203D1086840F00F0006E08D
:105020004A4A1432904204D1086840F0F000086007
:105030007047464A2832904203D1086840F47060B5
:10504000F5E7424A3C32904203D1086840F4704090
:10505000EDE73E4A50329042EAD1086840F47020B1
:10506000E5E730B5036847F6F07293430C6A8A6847
:105070002243D1E904452C4322438C692243CC6965
:1050800022434C6A22438C6A22431A430260CA6854
:1050900042600A6882604968C16030BD00210160D9
:1050A00041608160C160016141618161C1610162F2
:1050B0004162816270470029016802D041F001011C
:1050C00002E04FF6FE72114001607047002A02684C
:1050D00001D00A4300E08A43026070474160704794
:1050E000406880B2704701460020CA0002D5174AC6
:1050F000083A01E0144A083A12680A4200D0012036
:105100007047C10003D51149091F086070470E4957
:1051100008394860704701460020CA0002D50B4A92
:10512000083A01E0084A083A12680A4200D0012011
:105130007047C10003D50549091F0860704702493F
:105140000839486070470000080002400804024027
:10515000F94910B5884202D10121C41486E0B0F1AA
:10516000804F09D0F54988420DD101210220FFF777
:1051700001FB0021022064E001210846FFF7FAFA52
:10518000002101205DE0EE49884206D10121042082
:10519000FFF7F0FA0021042053E0EA49884206D1E3
:1051A00001210820FFF7E6FA0021082049E0E6493E
:1051B000884206D101211020FFF7DCFA00211020DF
:1051C0003FE0E249884206D101212020FFF7D2FAD0
:1051D0000021202035E0DE49884202D1012144141B
:1051E00044E0DC49884202D10121CC043EE0DA49A6
:1051F000884202D101210C0538E0D849884202D109
:1052000001214C0532E0D649884206D101214020D7
:10521000FFF7B0FA0021402013E0D249884206D1BE
:1052200001218020FFF7A6FA0021802009E0CE4965
:1052300088420AD1841501212046FFF79BFA0021FC
:105240002046BDE81040FFF795BAC849884202D110
:1052500001210C040AE0C649884202D101214C0414
:1052600004E0C44988420AD101218C042046FFF79A
:1052700078FA2046BDE810400021FFF772BA10BD51
:1052800030B50288AC4BB24C98420DD0A0420BD046
:10529000B0F1804F08D0A94DA84205D0A84DA84232
:1052A00002D0A84DA84203D122F070054A882A43B3
:1052B000A54DA84206D0A54DA84203D022F44075C2
:1052C000CA882A4302808A8882850A880285984291
:1052D0000AD0A04208D0A54A904205D0A44A9042E4
:1052E00002D0A44A904201D1097A0186012181822B
:1052F00030BD30B5028C22F001020284028C83881A
:10530000048B22F0020224F073050C882C430D89D3
:1053100015434A882A43884DA8420BD08C4DA84299
:1053200008D0924DA84205D0914DA84202D0914D8F
:10533000A8420DD122F008054A8923F440732A437C
:1053400022F004058A882A438D891D43CB892B438B
:1053500083800483C9888186028430BD70B5028C45
:1053600022F010020284028C8488038B0D8823F4BF
:10537000E6464FF6FF7303EA052535430E8922F012
:10538000200203EA061616434A8803EA0212324351
:10539000694EB04202D06E4EB04215D122F0800666
:1053A0004A8924F4406403EA0212324322F04006A0
:1053B0008A8803EA021232438E8903EA860626436C
:1053C000CC8903EA8404344384800583C988018737
:1053D000028470BD70B5028C22F480720284028C4B
:1053E0008488838B0D8823F073031D4322F400739C
:1053F0000E894FF6FF7202EA06261E434B8802EA28
:10540000032333434C4EB04202D0514EB04215D12B
:1054100023F400664B8924F4405402EA0323334307
:1054200023F480668B8802EA032333438E8902EAE1
:1054300006162643CC8902EA04143443848085830B
:10544000C9888187038470BD70B5028C22F48052B4
:105450000284048C8288838B0D8823F4E6464FF601
:10546000FF7303EA0525354324F400560C8903EA4B
:10547000043434434E8803EA063626432E4CA042B9
:1054800002D0334CA04205D122F480448A8903EA39
:105490008212224382808583C988A0F84010068446
:1054A00070BD828B22F440628283828B4FF6FF7341
:1054B00003EA01210A4382837047828B22F00C02A7
:1054C0008283828B0A4382837047028B22F440627C
:1054D0000283028B4FF6FF7303EA01210A43028322
:1054E0007047F0B5048C24F010040484078B048CFE
:1054F0004FF6FF7527F4734705EA03333B4305EA8C
:1055000002221A430C4B05EA011698420ED0104BAA
:1055100098420BD0B0F1804F08D0084B984205D08C
:10552000074B984202D0074B984225D124F0200126
:10553000314341F0100124E0002C01400004004000
:1055400000080040000C0040001000400014004023
:1055500000340140004C0140005001400054014023
:1055600000180040001C00400020004000400140A6
:10557000004401400048014024F0A0030B4343F0E5
:10558000100102830184F0BD028B22F00C02028321
:10559000028B0A430283704770B5048C24F0010427
:1055A0000484058B048C4FF6FF7606EA031313433D
:1055B00025F0F305F94A2B4390420ED0F84A904269
:1055C0000BD0B0F1804F08D0F64A904205D0F64A91
:1055D000904202D0F54A904202D124F0020201E04A
:1055E00024F00A020A4342F001010383018470BDE2
:1055F0002DE9F05F0D4604460888E84FDFF8A0C3A8
:10560000DFF8A0834988AA882B894FF0804960B3CE
:10561000042832D04FF6FF7E082836D0208C9B46D7
:1056200020F480502084A38B268C704600EA02224E
:1056300023F473431A4300EA0B3010430EEA013E91
:10564000BC420BD0644509D04C4507D0444505D039
:10565000D54A944202D0D54B9C4245D126F4005104
:1056600041EA0E0141F4805143E02046FFF794FFE8
:10567000E9882046BDE8F05F86E72046FFF731FF66
:10568000E9882046BDE8F05F1FE7208C20F4807099
:105690002084B4F81CA0208C0EEA031313432AF0D4
:1056A000F30A0EEA012B43EA0A03BC420BD064451D
:1056B00009D04C4507D0444505D0BB4A944202D09E
:1056C000BA4A944204D120F4007040EA0B0002E090
:1056D00020F42060084340F48070A3832084E9888C
:1056E0002046BDE8F05FE8E626F402420A4342F4B1
:1056F0008051A08320462184E988BDE8F05FD0E690
:105700002DE9F0410C46002649880746012501B9DC
:105710000226A288012A00D1022520882389002898
:10572000384610D0FFF7DDFEE1883846FFF7CDFEA2
:1057300023892A4631463846FFF72EFFE18838464E
:10574000BDE8F04120E7FFF727FFE1883846FFF783
:105750001BFF23892A4631463846FFF7C2FEE188FF
:105760003846BDE8F041B0E610B50A884B88CC88D1
:105770001A438B8823431A430B891A434B8989891F
:105780001A430A43A0F8442010BD4FF6FF718180F0
:1057900000210180C1804180017270470021018099
:1057A00041808180C180018141818181C1817047B7
:1057B00000210180418001228280C18001817047E7
:1057C0000021018041808180C180018141818181EE
:1057D00070470029018802D041F0010101E021F069
:1057E000010101807047002930F8441F02D041F4C4
:1057F000004101E0C1F30E0101807047002A828957
:1058000001D00A4300E08A43828170478182704759
:105810001143A0F848107047002A828901D00A433A
:1058200000E08A4382817047018921F007010181EC
:105830007047028922F070020A430281704700B566
:105840000346FFF7F6FF188940F00700188100BDF6
:1058500070B516460D46602904464FF001023146E8
:105860000AD0FFF799FE29462046FFF7E2FF20897C
:1058700040F00700208170BDFFF733FEF3E730B53D
:1058800004894FF6FF7505EA03231343E4B20B4383
:105890002343038130BD10B50446FFF7F0FF208994
:1058A00040F07700208110BD10B50446FFF7E7FFF8
:1058B000208940F48040208110BD0185828270479C
:1058C000028822F070020A430280704770B5058991
:1058D000048B068C25F007050D434FF6FC410C4068
:1058E00040F201110C434FF6FF7101EA031126F05B
:1058F00022061143314305810483018470BD028B6C
:1059000022F070020A4302837047028B4FF6FF7346
:1059100022F4E04203EA0121114301837047828BA4
:1059200022F070020A4382837047828B4FF6FF7326
:1059300022F4E04203EA01211143818370470029E8
:10594000018802D041F0800101E021F08001018056
:1059500070470029818802D041F0040101E021F064
:105960000401818070470029818802D041F008013C
:1059700001E021F00801818070470029818802D070
:1059800041F0010101E021F0010181807047028BAB
:1059900022F008020A43028370470000002C0140F5
:1059A000003401400004004000080040000C0040AA
:1059B000028B4FF6FF7322F4006203EA01211143C8
:1059C0000183E9E7828B22F008020A438283E3E73E
:1059D000828B4FF6FF7322F4006203EA0121114328
:1059E0008183D9E7028B22F004020A430283D3E7C2
:1059F000028B4FF6FF7322F4806203EA0121114308
:105A00000183C9E7828B22F004020A438283C3E741
:105A1000828B4FF6FF7322F4806203EA0121114367
:105A20008183B9E7028B22F080020A430283B3E745
:105A3000028B4FF6FF73C2F30E0203EA01211143FA
:105A40000183A9E7828B22F080020A438283A3E7C5
:105A5000828B4FF6FF73C2F30E0203EA012111435A
:105A6000818399E7028C22F002020A43028493E7C1
:105A7000028C22F008020A4302848DE7028C4FF662
:105A8000FF7322F0200203EA01111143018483E72E
:105A9000028C4FF6FF7322F0800203EA01111143DA
:105AA000018479E7028C4FF6FF7322F4007203EA57
:105AB0000121114301846FE7028C4FF6FF7322F43A
:105AC000006203EA01211143018465E7028C4FF66D
:105AD000FF7322F4005203EA0131114301845BE7B2
