:020000040800F2
:1000000078200020213E0008293E00082B3E0008F1
:100010002D3E00082F3E0008313E00080000000081
:10002000000000000000000000000000333E000857
:10003000353E00080000000001010008613400089E
:100040003B3E00083B3E00083B3E00083B3E0008AC
:100050003B3E00083B3E00083B3E00083B3E00089C
:100060003B3E00083B3E00083B3E00083B3E00088C
:10007000D73A00083B3E00083B3E00083B3E0008E4
:100080003B3E00083B3E00083B3E00083B3E00086C
:100090003B3E00083B3E00083B3E00083B3E00085C
:1000A0003B3E00083B3E00083B3E00083B3E00084C
:1000B0003B3E00083B3E00083B3E00083B3E00083C
:1000C0003B3E00083B3E00083B3E00083B3E00082C
:1000D0003B3E0008E536000861380008693A000830
:1000E0003B3E00083B3E00083B3E0008DFF80CD0DA
:1000F00006F086FF00480047D9010008782000205C
:1001000072B6EFF309800A4A0A4B20B1203880E822
:10011000F00F1168086018681060006890E8F00F30
:10012000203080F309884EF0040E62B6704700BF9D
:10013000BC000020C000002080F309887047000048
:100140002F483049086030482D4908601420486025
:1001500041F2707088606320C860652008611920D2
:1001600048610120886141F27070C86132200862E4
:1001700026484862264888624006C8620120086313
:1001800040F2DD711E48C187042180F83D101A211C
:1001900080F83B10112180F83A102E2180F8391098
:1001A0002820174981F83800002008640E20486490
:1001B000092088640B20C864164800680865154843
:1001C000001D0068486513480830006888650021F4
:1001D0000B48C0F83411704710B5FFF7B1FF0E4956
:1001E000086880470C48016F0C4888470A48416FEF
:1001F0000B4888470849886F804762B6002010BDC9
:10020000B8010020B8000020A0BB0D0020F40E00B3
:10021000A0860100E8F7FF1F0C0000203D04000845
:100220001D0C0008AA48D0F8341100F590708142E6
:1002300004D15038A649C1F8340106E0A448D0F8EA
:1002400034011430A249C1F83401704710B5A048F8
:10025000D0F83401006900B910BD9D4AD2F83421AC
:10026000126910699B4AD16D884700BFF4E710B549
:100270009748D0F83401C46804E0964A2069D16DEB
:100280008847A469002CF8D110BD00219048D0F80F
:10029000340101618E48D0308D49C1F83401704776
:1002A00070B50446302C13D007DC082C17D2DFE8D9
:1002B00004F00E174F5D104155A2A4F1310007283C
:1002C000F4D2DFE800F01848570740509C0000BF08
:1002D00000BF00BF7F48D0F89C102046884791E0BF
:1002E0007D4801780078401C7B4D28707948826EEB
:1002F0007AA0904786E000217548D0F89000016010
:1003000001217348D0F89400016000217048D0F8B2
:100310009800016001216E48D0F89C000160002126
:100320006B48D0F8A000016001216948D0F8A40012
:10033000016067E06748416E4FF0FF30884705462F
:1003400006F09EFE5EE06348C1690320884759E0DD
:10035000FFF77CFF56E0FFF78AFF53E05D49D1F8D5
:10036000980080474EE0FFF75DFF4BE001205849C1
:10037000886147E057485D4B4FF47A720121056D63
:100380000020A8475348594B4FF4FA620121056DEC
:100390000846A8474F48554B40F6B8320121056D35
:1003A0000220A8474B48514B4FF47A620121056D5A
:1003B0000320A84747484D4B41F288320121056D83
:1003C0000420A8474348494B41F270720121056D52
:1003D0000520A8473F48454B41F658320121056D9D
:1003E0000620A8473B48414B41F658320121056D94
:1003F0000720A84706E000203549886100BFFFF7C5
:1004000044FF00BF00BF70BD704710B53148304990
:100410000C314268002090472E482D491031426827
:10042000012090472B482A49143142680420904704
:1004300028482F49C26E0220904710BD08B5FFF72B
:10044000E4FF2348A8302249C1F834012148D0F8FC
:1004500084104FF4FA6088471D48BC301C49C1F82D
:100460003401002410E01B48D0F884106420884731
:10047000052094FBF0F100FB1140C1B21448D0F804
:10048000C000401C0155641C102CECDB1048D0301F
:100490000F49C1F8340119E00E49D1F880008047B6
:1004A0000090009820F07F459DF80300012802D0BD
:1004B000022809D103E0E8B2FFF7F2FE05E00D499A
:1004C00009686818804700E000BF00BFE4E700004B
:1004D000B80100200C000020000000204C6F6720B5
:1004E00054657374203D2025640A0000250200082D
:1004F00009040008B000002010B5FE48D0F89410A0
:10050000FD488847FD48FC49A839C1F8A800F948CA
:10051000D0F89410F848143088472A20F849087019
:10052000002405E00021F648401C0155601CC4B2BF
:10053000102CF7DBF249F048A838C0F8C010ED489D
:10054000D0F89410EC4828308847EC494431EA4808
:10055000A838C0F8D010E748EA49D0F89020E6481B
:1005600028309047E448A838E6490861032088709D
:10057000E548C861E54808624FF47A70486242F283
:10058000107088620D20087000204870D948E0493A
:10059000D0F89020D84828309047D748A438DC4974
:1005A0000861032088706420C8610020086201206F
:1005B00048620A2088620620087001204870CD48F1
:1005C000D449D0F88C20CC4828309047CA48A0386D
:1005D000D0490861032088700E20087001204870FF
:1005E000C448CD49D0F88C20C34828309047C24831
:1005F0009C38C949086103208870072008700220D0
:100600004870BC48C549D0F88C20BB48283090477A
:10061000B9489838C1490861032088700F200870D4
:1006200002204870B348BE49D0F88C20B248283028
:100630009047B1489438BA49086103208870062071
:10064000087003204870AB48B649D0F88C20AA48FF
:1006500028309047A8489038B2490861082088702F
:100660000120C870B04848610F200870032048700E
:10067000A048D0F89410A0483C3088479F49883162
:100680009D48A838C0F8E4109A48A849D0F89020AE
:1006900099483C30904798488C38A4490861032019
:1006A000887041F64C50C8614FF47A600862C010FF
:1006B0004862886207200870002048708D489C4975
:1006C000D0F890208C483C3090478B488838984927
:1006D0000861032088703C20C8612820086201203E
:1006E000486288620E200870002048708148914955
:1006F000D0F8902080483C3090477F4884388D491E
:100700000861032088708048C8618B4808628B4864
:10071000486288628A48C8600620087001204870D4
:1007200074488849D0F8902073483C30904772480C
:10073000803884490861032088708048C86140106F
:10074000086242F21070486288627D48C8600E20DC
:1007500008700120487067487B49D0F890206648AF
:100760003C30904764487C387749086105208870A0
:10077000012088807548C8614FF07E500862744837
:1007800048624FF07C508862072008700220487051
:1007900058487049D0F88C2057483C30904756480C
:1007A00078386C490861082088700020C8706A4851
:1007B000486108200870022048704E48D0F8941014
:1007C0004D48503088474D49CC314B48A838C0F887
:1007D000F81048486149D0F8902047485030904779
:1007E000454868385D4908610420887042F21070FD
:1007F000C861012008624862642088620F20087086
:10080000002048703B485649D0F890203A48503074
:100810009047394864385249086103208870632042
:10082000C8610E200862012048620A2088620920FF
:100830000870012048702F484A49D0F890202E486F
:10084000503090472C486038464908610320887032
:100850000C20C8610120086248620A2088620C20CE
:1008600008700120487023483F49D0F89020224862
:100870005030904720485C383B490861032088701D
:100880001F20C8610120086248620A2088620F2088
:1008900008700120487017483449D0F88C20164859
:1008A0005030904714485838304908610620887005
:1008B0000720087002204870082088800D482C49C5
:1008C000D0F88C200C48503090470B4854382849B9
:1008D0000861062088700F200870022048700820E8
:1008E000888004482349D0F88C2003485030904732
:1008F000014841E00C00002060020020FC79000863
:10090000F00200200403002020F40E00C02709009C
:10091000300300205C0300207803002094030020B3
:10092000B0030020CC030020C4790008E8030020B5
:10093000140400204004002020A10700A08601002C
:100940006F12833A6C040020980400200000A0403D
:10095000CDCCCC3DC4040020CC790008E0040020BC
:100960000C050020380500206405002090050020BB
:10097000AC050020C80500205038B64908610620A3
:100980008870072008700320487008208880B248CB
:10099000D0F89410B1488847B149B248C0F80C115A
:1009A000AD48B149D0F89020AC489047AD483E30B2
:1009B000AD4908610220887040F63400C8614FF4E8
:1009C000FA600862012048620A20886205200870E7
:1009D00002204870A048A549D0F890209F48904731
:1009E000A0483D30A1490861002088700C20C861F2
:1009F00001200862486202208862092008700220F3
:100A0000487095489A49D0F8902094489047954866
:100A10003B3097490861002088701F20C861002082
:100A200008620120486288620D2008700220487028
:100A300089489049D0F890208848904789483C30B0
:100A40008C490861082088700020C8708A48486175
:100A50000620C861002008620120486288620420E4
:100A60000870032048707C488449D0F890207B4867
:100A700090477C483A3081490861002088703B20CB
:100A8000C86100200862012048628862092008705D
:100A90000320487070487A49D0F890206F489047FA
:100AA0007048393076490861002088703B20C86161
:100AB000002008620120486288620C200870032030
:100AC000487065486F49D0F8902064489047654861
:100AD00038306C490861002088703B20C8610020D4
:100AE00008620120486288620F2008700320487065
:100AF0005948D0F89410594814308847584944311F
:100B00005848C0F8201154485F49D0F88C20534809
:100B1000143090475348806F5B4908610320887008
:100B200005200870002048704B485849D0F88C20A8
:100B30004A48143090474B48C06F5449086103201D
:100B40008870052008700120487043485049D0F84B
:100B50008C204248143090474248D0F880004C49DD
:100B600008610320887005200870022048703A4808
:100B70004849D0F88C203948143090473948D0F88B
:100B80008400444908610320887005200870032010
:100B9000487031484049D0F88C2030481430904794
:100BA0003048406E3C490861022088700F20087070
:100BB0000020487028483949D0F88C202748143044
:100BC00090472848806E35490861022088700F20C0
:100BD00008700120487020483149D0F88C201F4807
:100BE000143090471F48C06E2D490861022088705C
:100BF0000F2008700220487017482A49D0F88C202E
:100C00001648143090471748006F264908610220A3
:100C100088700F2008700320487010BDFFF76CFC2F
:100C20001048406B64302049086011E00D48406B6B
:100C30001D49096888420BD30A48406B64301A4941
:100C40000860084AD2F83401034AD2F8881088476D
:100C5000ECE70000C80500200C000020C4020020C2
:100C60000C7B0008B8010020E405002010060020DD
:100C7000680600203C060020E07900089406002069
:100C8000C0060020EC0600201807002034070020D2
:100C9000500700206C07002088070020A4070020D0
:100CA000C0070020DC07002004000020704700BFC0
:100CB0000100A0F10100FBD1704700B5034602E03E
:100CC0000820FFF7F4FF1800A3F10103F8D100BDDD
:100CD00000B5034603E04FF4FA50FFF7E8FF1800B1
:100CE000A3F10103F7D100BD10B50446102C02DBBF
:100CF00013A006F0C5F9102C02DA1648005D10BDED
:100D00003020FCE713B504468DF807401248C16F48
:100D1000019888471CBD10B572B6104800F07F409E
:100D20000F4908600F4800F07F400E49086000F04E
:100D300071FD00F062F901F081F800F0BCFD10BD1A
:100D40000A4153534552543A20686578203C20317B
:100D5000360A0000917B00080C000020170D0008E7
:100D6000B0000020B400002002464FF08070086000
:100D7000081F014602606FF00103081F014603606F
:100D80004FF01233081F014603604FF00333081F72
:100D9000014603604FF00233081F014603605B10F9
:100DA000081F014603600023081F014603604FF03F
:100DB0001133081F014603604FF01033081F01462E
:100DC00003604FF00933081F014603604FF00833FA
:100DD000081F014603604FF00733081F01460360F8
:100DE0004FF00633081F014603604FF00533081F1C
:100DF000014603604FF00433081F014603600846B4
:100E000070470160002242608260704770B50446FE
:100E10008A492046FFF7A8FF054629468848FFF77C
:100E2000F0FF70BD70B5044686492046FFF79CFF71
:100E3000054629468448FFF7E4FF70BD83490968E9
:100E4000884205D0824908604FF08051814A116084
:100E5000704710B57A48806850B179488068401E64
:100E6000774988600846806810B90846FFF7E6FFB2
:100E700010BD79487949C26E012090477048734986
:100E8000086008460068724908604FF08050714958
:100E9000086062B600BFFEE710B5044672B670483F
:100EA0000088401C6E49088068480068664988428E
:100EB00015D16348406890B90020614988600846B0
:100EC000446067480088401E0004000C64490880A4
:100ED00000D162B65A48FFF7B1FF012010BD61484A
:100EE000008A28280ADB5E480088401E0004000CA7
:100EF0005B49088000D162B60020EFE75948008ABC
:100F0000401C58490882084680680460084680688A
:100F1000001D8860084680684968884203D95148A6
:100F20000068504988604E480088401E0004000C4C
:100F30004B49088000D162B60120CFE710B572B6E8
:100F400047480088401C464908803D48406800B139
:100F500039E04448008A00281FDD4248C068046820
:100F60004048C068001D3F49C8600846008A401ECE
:100F700008820846C0684968884203D93948006831
:100F80003849C86036480088401E0004000C3449C7
:100F9000088000D162B6204610BD00202849886034
:100FA0002F480088401E0004000C2D49088000D105
:100FB00062B62548FFF742FF72B629480088401CF8
:100FC0002749088000BF1E48446800201C4948602B
:100FD00023480088401E0004000C2149088000D1ED
:100FE00062B62046D8E710B50446002C04DD14484C
:100FF00084601548FFF722FF10BD10B51A48194943
:1010000008609C30486008460068886008460068B0
:10101000C86000200882FFF78FF814480E4908675F
:1010200013490D484167134981671349C0F880107F
:101030001249C1671249C0F8841010BDEC0E00209F
:10104000301500202C1500203C150020BC0000208D
:10105000C000002004ED00E00C000020530E00084A
:1010600008000020F80700200C0800200D0E0008E2
:10107000250E0008730E00083D0F0008990E0008A9
:10108000E70F00082DE9F04F95B004462678677801
:10109000A07809282CD2DFE800F0052C547BB1E7BA
:1010A000FDFCFB00206990F800B0584605F0A1FD5A
:1010B0000790A16805F041FB0890E16805F095FBF9
:1010C000099005F0B9FD82465246F7A10AA805F03D
:1010D000E7FFC5B207E00AA8405DF44901EB07113C
:1010E0008855701EC6B22800A5F10101CDB2F2D11B
:1010F0008AE12069B0F900001390139805F070FDA3
:101100000790A16805F019FB0890E16805F06DFBF8
:10111000099005F091FD82465246E3A10AA805F028
:10112000BFFFC5B207E00AA8405DE04901EB071127
:101130008855701EC6B22800A5F10101CDB2F2D1CA
:1011400062E1206900881290129805F052FD079024
:10115000A16805F0F2FA0890E16805F046FB0990F5
:1011600005F06AFD82465246CFA10AA805F098FF15
:10117000C5B207E00AA8405DCC4901EB07118855CC
:10118000701EC6B22800A5F10101CDB2F2D13BE13B
:101190002069D0F800A0E06805F0B1FDCDE90601B6
:1011A000A06805F0ACFDCDE90201504605F026FD32
:1011B000CDE90001DDE9022305F08DFBCDE9040155
:1011C000DDE9062305F02DFCCDE9080105F061FD00
:1011D00082465246B4A10AA805F062FFC5B207E0F4
:1011E0000AA8405DB14901EB07118855701EC6B2CF
:1011F0002800A5F10101CDB2F2D105E12069D0F8B6
:101200000080E06805F07BFDCDE90601A06805F0EF
:1012100076FDCDE90201404605F001FDCDE9000172
:10122000DDE9022305F057FBCDE90401DDE90623E2
:1012300005F0F7FBCDE9080105F04AFD804642467E
:101240009BA10AA805F02CFFC5B207E00AA8405DE3
:10125000964901EB07118855701EC6B22800A5F10A
:101260000101CDB2F2D1CFE0206900681190A168F0
:10127000119805F062FA0990E16805F0B6FA11904C
:10128000A088C5B2CDB18BA103C9CDE90F0102E0A1
:1012900099E07AE02AE02846FFF726FD8DF83E0027
:1012A000119805F02CFD02460B46CDE908010FA967
:1012B0000AA805F0F5FEC5B209E0119805F0BCFCDE
:1012C000024679A109900AA805F0EAFEC5B207E036
:1012D0000AA8405D754901EB07118855701EC6B21A
:1012E0002800A5F10101CDB2F2D18DE02069D0F83E
:1012F0000080E06805F003FDCDE90601A06805F077
:10130000FEFCCDE90201404605F089FCCDE9000173
:10131000DDE9022305F0DFFACDE90401DDE906236A
:1013200005F07FFBCDE9080105F0D2FC8046A088DE
:10133000C5B29DB10CE008F00F00FFF7D5FC5B498A
:1013400001EB071188554FEA18180EB1701EC6B28E
:101350002800A5F10101CDB2EDD115E030205349AF
:1013600001EB071188550CE008F00F00FFF7BCFCFB
:101370004E4901EB071188554FEA18180EB1701E3F
:10138000C6B2B8F1000FEFD13EE02069D0F800906E
:10139000484605F0CAF9C5B2E078012802D1701CB0
:1013A000401BC6B209E019F8010B404901EB0711D7
:1013B00088550F2E01DA701CC6B22800A5F1010174
:1013C000CDB2F0D120E0206990F80080606950F83B
:1013D0002890484605F0A9F9C5B2E078012802D165
:1013E000701C401BC6B209E019F8010B2F4901EB34
:1013F000071188550F2E01DA701CC6B22800A5F11E
:101400000101CDB2F0D100BF00BF15B0BDE8F08F33
:1014100010B52A48006804682CB9202240212348CE
:1014200005F070F904E040222146204805F058F903
:1014300010BD2DE9F0412148006847680FB9BDE8AB
:10144000F08197F8008000241DE0002517E0781C4B
:10145000465D052E02DB1AA005F012FEC4F1040061
:10146000B04205DC114800EB041000F8058004E0F0
:1014700020200E4901EB04114855681CC5B2102DFF
:10148000E5DB601CC4B2042CDFDB00BFD7E710B57E
:101490000A480068846803E02046FFF7F3FDA4696A
:1014A000002CF9D110BD0000256400008815002033
:1014B00025750000252E6E6600000000C800002083
:1014C0000A4153534552543A20636F6C756D6E2038
:1014D0003C20350A0000000010B5DE480068C468F2
:1014E00019E0DC4800680069A0420FD1DA480078B2
:1014F000401CC0B2D8490870082801D100200870EB
:10150000D5480078042801DAA46904E02046FFF7F2
:10151000B9FDA46900BF002CE3D110BD70B5002453
:1015200023E00026002514E0CC4800EB0410405DC9
:10153000CB4901EB0411495D884208D0C84800EB53
:101540000410405DC54901EB041148550126681C93
:10155000C5B2102DE8DB36B1C04800EB0411C1481C
:10156000C26A20469047601CC4B2042CD9DB70BD0F
:1015700010B50446B7480460FFF74AFFFFF759FF6C
:10158000FFF785FFFFF7A8FFFFF7C8FF10BD002199
:10159000016041608160C1600161704700220A61A1
:1015A0008A808A604FF07E52CA6000224A61826857
:1015B0008A618160704700230B61CB610B624B62D3
:1015C0008B628B808B604FF07E53CB6000234B612E
:1015D0008B61C3680BB9C1607047C26800E0926953
:1015E0009369002BFBD1916100BFF5E79948006832
:1015F000006930B997480068C06896490968086171
:1016000070479448006800698069924909680861D8
:1016100000BFF5E72DE9F14F8AB08E4800680469F4
:1016200014B90BB0BDE8F08F276994F80280B8F1C7
:10163000090F7CD2DFE808F04805571566AB67EA6A
:1016400047002069B0F90060E06900B20990206AA3
:1016500000B20890606A00B20790A06A00B20690DB
:101660000AE020690668E0690990206A0890606ACB
:101670000790A06A069000BF0A9830B104280AD0EB
:10168000302805D034280CD108E00798064408E03B
:101690000698064405E00798361A02E00698361ABE
:1016A00000BF00BF0998864201DD099E03E008984B
:1016B000864200DA089EB8F1030F01D13E6001E0D6
:1016C00030B23880A3E000BF20690578E06900F0FF
:1016D000FF0B206AC0B20590606A00F0FF09A06AA3
:1016E00000F0FF0A1AE020690588E0691FFA80FB14
:1016F000206A80B20590606A1FFA80F9A06A1FFA1A
:1017000080FA0BE000BF20690568D4F81CB0206A9D
:101710000590D4F82490D4F828A000BF0A9838B1D6
:10172000042809D0302805D0342813D10BE06DE00F
:101730004D440FE055440DE04D4501D2002501E038
:10174000A5EB090506E0554501D2002501E0A5EB12
:101750000A0500BF00BF5D4501D95D4603E005985D
:10176000854200D2059DB8F1090F0ED2DFE808F0DE
:10177000060D080D0A0D0B0D050000BF3D7004E0BD
:101780003D8002E000BF3D6000BF00BF3FE0206938
:1017900000680490E0690390206A0290606A0190FA
:1017A000A06A00900A9830B1042810D0302808D0E0
:1017B000342818D111E00199049804F0BEFF049078
:1017C00011E00099049804F0B8FF04900BE001992F
:1017D000049805F004F8049005E00099049804F0DA
:1017E000FEFF049000BF00BFDDE9031005F0C4FA5E
:1017F00002D20398049006E00299049805F0B2FA28
:1018000001D2029804900498386000E000BF00BF45
:1018100000BF06E7002006E02021114A11540F4ABC
:101820001154411CC8B24028F6DB0F490D4AC2F8DA
:1018300088100E4A0B49C1F88C200D4AC1F890203F
:101840000C4AC1F894200C4AC1F898200B4AC1F800
:101850009C207047C8000020C400002048150020CC
:10186000881500200C000020711500089D15000847
:10187000B71500088F150008ED15000815160008AB
:1018800078B502460B46FF24FF2509E012F8010B4C
:1018900080EA04010A48405C80EA05040948455C86
:1018A0001800A3F10103F1D18DF801408DF800502B
:1018B000BDF8000078BD10B500F091FA10BD000031
:1018C000A17B0008A17C0008F8B506460C4621461D
:1018D0003046FFF7D5FF009035199DF8010005F857
:1018E000010B9DF800002870A41CFB482146426CA7
:1018F00030469047F8BD2DE9F8430746F748007891
:10190000F7490870F54840784870F44800798DF838
:101910000100F24840798DF80000BDF8000010F099
:10192000070F06D0BDF80000012101EBE000C5B2B1
:1019300003E0BDF80000C0F3C705E9488570C61C88
:10194000002402E000203070641CAC42FADB00246A
:1019500014E03819E34951F82000E3490968085CAC
:1019600001280AD106EBE400007804F00702012107
:101970009140084306EBE4010870641CBDF80000C8
:101980008442E6DBD6488078C01C00F0FF08414660
:10199000D348FFF799FFBDE8F8832DE9F8430746E0
:1019A000CE480078CE490870CC4840784870CB4883
:1019B00000798DF80100C94840798DF80000BDF824
:1019C000000010F0070F05D0BDF80000012101EB69
:1019D000E00502E0BDF80000C510C1498D70CE1CC5
:1019E000002402E000203070641CAC42FADB0024CA
:1019F00014E03819BD4951F82000BB490968085C5A
:101A000001280AD106EBE400007804F00702012166
:101A10009140084306EBE4010870641CBDF8000027
:101A20008442E6DBAE48807800F103084146AC48CA
:101A3000FFF74AFFBDE8F88338B50446A7480079A8
:101A40008DF80100A54840798DF80000BDF8000030
:101A5000B0F57F4F07D10120A24951F82410A24AC6
:101A60001268505406E000209E4951F824109E4A06
:101A7000126850549848426C9D4801889748904796
:101A800038BDF8B50546954800798DF801009348B2
:101A900040798DF80000914EB61D00240FE006EB52
:101AA000E400007804F00701084100F00100291962
:101AB0008C4A52F821108C4A12685054641CBDF8AC
:101AC00000008442EBDB864884490A68026089880A
:101AD00081800621FFF7F8FEF8BD2DE9FC4105469F
:101AE0007E4800787E4908707C48407848707B4882
:101AF00000798DF80500794840798DF80400BDF82B
:101B000004004006000E8870CC1C002612E0284617
:101B1000691C8DB2774951F8200073490968085A49
:101B200000909DF8010004F8010B9DF8000004F8F6
:101B3000010B761CBDF804008642E8DB684880781B
:101B4000C71C39466648FFF7BFFEBDE8FC812DE99A
:101B5000FC41054661480078614908705F4840785B
:101B600048705E4800798DF805005C4840798DF832
:101B70000400BDF804004006000E8870CC1C00264E
:101B800012E02846691C8DB25B4951F82000564985
:101B90000968085A00909DF8010004F8010B9DF8AF
:101BA000000004F8010B761CBDF804008642E8DB57
:101BB0004B488078C71C39464948FFF785FEBDE889
:101BC000FC8138B50446454800798DF8010043484A
:101BD00040798DF80000BDF80000474951F8241005
:101BE000414A126850523C48426C414801883B4887
:101BF000904738BD7CB50646384800798DF8050019
:101C0000364840798DF80400344CE41D002513E07B
:101C100014F8010B8DF8010014F8010B8DF8000089
:101C2000BDF800203046711C8EB2334951F82000B7
:101C30002D4909680A526D1CBDF804008542E7DB96
:101C4000274826490A680260898881800621FFF7B3
:101C50003BFE7CBD00202649088028490880284991
:101C6000087070471CB51D480078012802D0FFF7A6
:101C7000F1FF1CBD1E480088042802DAFFF7EAFFC6
:101C8000F7E71B480088811E1448FFF7F9FD04465A
:101C900017480088801E1149085C8DF8010014481F
:101CA0000088401E085C8DF80000BDF800008442EA
:101CB00002D0FFF7CFFFDCE7084880788DF80500F9
:101CC0000648C0788DF8040004484078062844D0BF
:101CD0001DDC062853D215E00C000020C816002099
:101CE000C8150020CC000020B8000020E40000202F
:101CF00016010020F400002004010020180100203B
:101D000014010020DFE800F03B10151F1A241628EC
:101D100033D004DC0F2825D0102830D127E0172835
:101D20002AD02B282BD129E0BDF80400FFF7E3FDD2
:101D300026E0BDF80400FFF730FE21E0BDF8040006
:101D4000FFF7CBFE1CE0BDF80400FFF700FF17E033
:101D5000BDF80400FFF770FE12E0BDF80400FFF7C5
:101D600030FF0DE0BDF80400FFF78BFE08E0BDF882
:101D70000400FFF73FFF03E002E001E000E000BFE6
:101D800000BFFFF767FF00BF73E71C490988FF2901
:101D900002DD0021194A118018490A880988491C66
:101DA000164B1980164988540021164A11800121CA
:101DB000154A1170704710B51348007801280DD1ED
:101DC00010480088401C0F490880084600880228F7
:101DD00004DD00200C490870FFF744FF10BD10B56A
:101DE000FFF738FF09480A49C26E002090470748AC
:101DF0000849026C0848904710BD000016010020F9
:101E0000C816002018010020140100200C0000203A
:101E1000B71D00088B1D0008C815002010B500284C
:101E200007DA0A07140E1A4A00F00F031B1FD454D6
:101E300003E00A07130E174A135410BD10B501F042
:101E400082FC01F03FFD01F053FE00F0B8F800F015
:101E5000B3F900F0CAFB00F0E0FF00F01DFD00F058
:101E600019FE01F074F801F033FA01F0BAFD01F047
:101E700056FB4FF4A06002F0EBF90E214FF0FF305B
:101E8000FFF7CCFF0F216FF00100FFF7C7FF10BD78
:101E900018ED00E000E400E0002004E09C499D4AC9
:101EA00042F82010401C0528F8DB7047994A42F898
:101EB000201070479849994800684166881C9749E6
:101EC00009688866801C95490968C866801C934922
:101ED0000968086770472DE9F04F89B04FF0000896
:101EE0004FE04FF00009CA4609E00AEB8A008C492E
:101EF00001EB400030F8180081440AF1010ABAF100
:101F0000080FF2DB4FEAD909B8F1040F08DA824969
:101F100021F818907F4951F82810A1F800902EE080
:101F2000484604F066FE83464FF08B41584604F065
:101F300092FC019004F0E3FE4FF06632794BCDE95C
:101F4000020104F06EFD0446774A784B04F066FD0A
:101F5000774A784BCDE9040104F0D3FD0022764B9B
:101F6000CDE9060104F0B7FC064604F0DEFE834628
:101F7000584604F07AFE674951F82810088008F1A5
:101F80000108B8F1050FACDB6348008863490968B4
:101F9000A1F85C006048418860480068A0F85E10C5
:101FA0005D4881885D480068A0F860105A48C18883
:101FB0005A480068A0F8621009B0BDE8F08F00B57B
:101FC00091B001214FF4017002F0C4FC6020ADF823
:101FD000400000208DF8430010A9584802F006FA8E
:101FE00001214FF4047002F0B5FC3020ADF8400040
:101FF00000208DF8430010A9514802F0F7F94FF482
:10200000004002F00EFC4F4802F0E8FF00200B9069
:1020100001208DF830008DF831004FF460200D90D4
:1020200000200E9005208DF83C000BA9454802F0D9
:10203000FCFF01231A460521424803F08EF80123D4
:10204000022206213F4803F088F8012303220E21D3
:102050003C4803F082F8012304220F21394803F0A1
:102060007CF8032305221021364803F076F801207E
:1020700003F08FF90121334803F00EF801213148B4
:1020800002F0FFFF2F4803F01EF800BF2D4803F0B9
:102090001FF80028FAD12B4803F024F800BF294884
:1020A00003F025F80028FAD10121084602F045FC8A
:1020B000254803F0B1F923484C30009018480190AE
:1020C000002002902820039000200490802005909A
:1020D00040000690800007902020089000020990A0
:1020E00000200A906946184803F038FA0121154883
:1020F00003F007F80121144803F05BFAFFF7CCFE68
:10210000FFF7D8FE11481249486011B000BD000029
:1021100022010020181800201A010020B800002019
:10212000C817002066660A40E17A14AE47E1F63F20
:1021300022FDF675E09C713F000039400008014027
:10214000001001400024014008000240AD1E0008BC
:102150000C0000202349244800688167091D22489B
:102160000068C167091D20480068C0F88010091D7B
:102170001D480068C0F8841070471A4800681A4962
:10218000096881F874001948D0F80401C1B21648F2
:10219000006880F875101548D0F80801C1B21248DF
:1021A000006880F876101148D0F80C01C1B20E48D2
:1021B000006880F87710704708B50121102002F000
:1021C000C9FB0F20ADF8000004208DF803000320A8
:1021D0008DF802006946064802F008F9FFF7BAFFD9
:1021E00008BD000000012242B80000200000224289
:1021F0000010014038B504460121042002F0AAFB7A
:102200000121082002F0A6FBDCB98020ADF8000017
:1022100010208DF8030003208DF802006946FC4869
:1022200002F0E4F84EF20300ADF8000010208DF843
:10223000030003208DF802006946F64802F0D6F844
:1022400023E0012140F6010002F084FB012102207D
:1022500002F08DFB8020ADF8000018208DF80300FF
:1022600003208DF802006946E94802F0BFF84EF2FB
:102270000300ADF8000018208DF8030003208DF84E
:1022800002006946E34802F0B1F838BDE249E3488C
:102290000068C0F89010E249E0480068C0F8941067
:1022A000091DDE480068C0F89810DD493431DB486C
:1022B0000068C0F89C10091DD8480068C0F8A0103C
:1022C000091DD6480068C0F8A4107047D3480068BC
:1022D00090F88800D0490860D048006890F88900DC
:1022E000D049C1F88001CD48006890F88A00C1F853
:1022F0008401CA48006890F88B00C1F8B401C7484F
:10230000006890F88C00C1F8B801C448006890F8E3
:102310008D00C1F8BC01704710B50446062C28D2C8
:10232000DFE804F003090F151B2101220421BE4838
:1023300003F095FF1EE001220821BB4803F08FFF48
:1023400018E001220C21B84803F089FF12E00422B2
:102350000021B64803F094FF0CE004221146B34874
:1023600003F08EFF06E004220821B04803F088FF46
:1023700000E000BF00BF10BD10B50446062C28D2F7
:10238000DFE804F003090F151B2100220421A648F1
:1023900003F065FF1EE000220821A34803F05FFF61
:1023A00018E000220C21A04803F059FF12E000229F
:1023B00011469E4803F064FF0CE0002204219B4874
:1023C00003F05EFF06E000220821984803F058FF62
:1023D00000E000BF00BF10BD70B505460C46062DDD
:1023E00022D2DFE805F003080D12171CA1B28E48B7
:1023F00003F0CEFF19E0A1B28B4803F0CBFF14E04D
:10240000A1B2894803F0C8FF0FE0A1B2874803F0EA
:10241000BDFF0AE0A1B2854803F0BAFF05E0A1B212
:10242000824803F0B7FF00E000BF00BF70BDF0B509
:1024300087B004460F4615461E46781E80B2ADF89A
:102440001000681E80B2ADF814000020ADF8160030
:10245000ADF812008DF818006020ADF80000B0B2A1
:10246000ADF80600062C77D2DFE804F0031E3954DD
:10247000779904A96C4803F0CBF90120ADF802006C
:102480000020ADF808006946674803F040FA0821CB
:10249000654803F02EFE0121634803F0F1FD0121A0
:1024A000614803F0E5FC9DE004A95F4803F0B0F942
:1024B0000120ADF802000020ADF8080069465A4836
:1024C00003F06EFA0821584803F01EFE0121564819
:1024D00003F0D6FD0121544803F0CAFC82E004A9B0
:1024E000514803F095F90120ADF802000020ADF845
:1024F000080069464C4803F09AFA08214A4803F05C
:102500000CFE0121484803F0BBFD0121464803F0C1
:10251000AFFC67E004A9454803F07AF90020ADF864
:1025200002000420ADF804000020ADF80A0069465E
:102530003E4803F0AAF908213C4803F0D1FD0121EF
:102540003A4803F09DFD0121384803F091FC012138
:10255000364803F099FC45E043E004A9334803F012
:1025600057F90020ADF802000420ADF80400002067
:10257000ADF80A0069462D4803F0C9F908212B4837
:1025800003F0B7FD0121294803F07AFD0121274816
:1025900003F06EFC0121254803F076FC22E004A93B
:1025A000224803F035F90020ADF802000420ADF810
:1025B00004000020ADF80A0069461C4803F0F0F959
:1025C00008211A4803F0A0FD0121184803F058FD26
:1025D0000121164803F04CFC0121144803F054FC7F
:1025E00000E000BF00BF07B0F0BD10B5FFF74EFE22
:1025F0000F4910484161104981611049C16110497A
:102600004162104901620020FFF7F4FD10BD000097
:1026100000080140000C01409C012142B80000204C
:10262000808121420080214200040040002C0140B2
:10263000F52100080C000020192300087923000868
:10264000D92300082F2400080146F7291ED008DCF2
:102650007F2913D0BF290FD0DF290BD0EF2917D145
:1026600006E0FB2910D0FD290CD0FE2910D107E08F
:10267000002070470120FCE70220FAE70320F8E77A
:102680000420F6E70520F4E70620F2E70720F0E74C
:10269000FF20EEE70146F7291ED008DC7F2913D082
:1026A000BF290FD0DF290BD0EF2917D106E0FB2976
:1026B00010D0FD290CD0FE2910D107E03020704742
:1026C0003120FCE73220FAE73320F8E73420F6E740
:1026D0003520F4E73620F2E73720F0E7FF20EEE779
:1026E00010B5FF249348006808B904F07F049248AD
:1026F000006808B904F0BF049048006808B904F005
:10270000DF048F48006808B904F0EF0400208D4909
:1027100008604FF001008C49C1F89001FEF7CDFA36
:102720008448006808B904F0F7048348006808B9D1
:1027300004F0FB048148006808B904F0FD048048F7
:10274000006808B904F0FE040020804908604FF0DA
:1027500001007D49C1F89401204610BD70B57C4848
:102760000078012802D100207A4908607848007872
:10277000002804DD76480078401E75490870FFF790
:10278000AFFF0546FF2D24D073480078401C7249E6
:1027900008700020714908706F480078012802D144
:1027A0006F48057076E06C480078022802D16C48CA
:1027B00045706FE068480078032802D1684885704A
:1027C00068E065480078282864DD282062490870A0
:1027D00060E062480078401C604908700846007854
:1027E000042857DB042008705E48007840B15D483B
:1027F0000078401E5B49087000205749087070BD82
:1028000055480078042800DAF9E75548007854491B
:102810004978884202D15248047815E0504800783F
:102820004F498978884202D14D4804780CE04C48E1
:1028300040784B498978884202D14948447803E07E
:10284000002045490870DAE743480078282804D179
:102850002046FFF71FFF044609E03F4800780428A0
:1028600004DB2046FFF7F0FE044600E0FF24FF2CC7
:102870000CD021460120FEF745FA012035490860B9
:102880004FF0140032490870364908704FF00000CC
:102890003149087000BFB2E708B501213D2002F0C0
:1028A00059F80121304801F070FE002027490860E6
:1028B0004FF001002449C1F894014FF03000ADF809
:1028C00000004FF014008DF803004FF002008DF867
:1028D00002006946254801F089FD4FF4E050ADF84B
:1028E000000002208DF8020048208DF803006946A0
:1028F0001F4801F07BFD0420ADF8000048208DF852
:10290000030002208DF8020069461A4801F06EFDAE
:102910000020104908604FF01000ADF800008DF85D
:1029200003004FF002008DF802006946124801F0E2
:102930005DFD08BD08812242300122422C01224265
:10294000280122429481214200802142908121422B
:1029500027010020900121422401002025010020B0
:10296000280100202601002000043000000C014056
:1029700000100140001401400008014070B50446F9
:1029800004F0F0004FF4780141EA002004F00F0158
:1029900040EA01160020754908604FF001007449B3
:1029A000C1F8A4014FF017051FE026FA05F010F05A
:1029B000010F03D001206F49086002E000206D493B
:1029C00008604FF00A00FEF778F9012067490860B7
:1029D0004FF00A00FEF771F900206549C1F89C012B
:1029E0000A20FEF76AF9681E05B2002DDDDA002024
:1029F0006149086070BD70B5044604F0F0004FF402
:102A00007A0141EA002004F00F0140EA011600209B
:102A1000564908604FF001005549C1F8A4014FF034
:102A200017051FE026FA05F010F0010F03D0012072
:102A30005049086002E000204E4908604FF00A004B
:102A4000FEF73BF90120494908604FF00A00FEF704
:102A500034F900204649C1F89C010A20FEF72DF9FF
:102A6000681E05B2002DDDDA00204349086070BD04
:102A700070B505460C464149485DFFF77FFF0026CB
:102A800005E014F8010BFFF7B6FF701CC6B2102E5C
:102A9000F7DB70BD08B50121102001F05BFF0020BD
:102AA000324908604FF40070ADF800004FF010009C
:102AB0008DF803004FF002008DF80200694630489F
:102AC00001F094FC00202A49C1F8A4014FF4807061
:102AD000ADF8000010208DF8030002208DF80200F0
:102AE0006946274801F082FC0020224908604FF027
:102AF0008000ADF800004FF010008DF803004FF09B
:102B000002008DF8020069461D4801F06FFC0020AC
:102B10001749C1F898014020ADF8000010208DF849
:102B2000030002208DF802006946154801F05EFCA2
:102B30006420FEF7CDF80120124908604FF0300004
:102B4000FFF71CFF0C20FFF719FF0120FFF716FF0E
:102B50000220FFF713FF8020FFF710FF0120FFF78F
:102B60000DFF09490948C16208BD00009C012242CD
:102B700000002242A0012242A4012242A17D0008BD
:102B80000010014098012242712A00080C00002028
:102B90002DE9F047B8480068C08FA0F2DD784FEA11
:102BA000980040F2B551484308F0030140F26D121D
:102BB00001FB0207B048006890F83D00A0F1010950
:102BC000AD490968C88FC11700EB91718910B0EB4E
:102BD000810108D1002403E0A848005D0744641C7B
:102BE0004C45F9D307E0002403E0A548005D074405
:102BF000641C4C45F9D3A048006890F83B00384469
:102C0000471EA04878439C49096891F83A10C1EBE7
:102C10004112C2EB012100EB01119748006890F8C6
:102C20003900C0EB001001EB80009349096891F86E
:102C30003810451803F068FC064606F10A00854284
:102C400003D805F10A00B04209D2012003F0EDFCDF
:102C500003F096FC284603F060FC03F091FCBDE80D
:102C6000F0872DE9F04140F2DD78002503F04CFCBF
:102C700006468448B6FBF0F4A01C0721B0FBF1F235
:102C800001FB12017C48006880F83C1040F2B5500E
:102C9000B4FBF0F100FB1147B4FBF0F008EB80004F
:102CA00040F26D11B7FBF1F1084481B2724800683F
:102CB000C187B7F5896F0BD3A7F2474403E06F488C
:102CC000405D241A6D1C6D48405DA042F7D30EE0B4
:102CD00040F26D10B7FBF0F100FB117403E068489F
:102CE000405D241A6D1C6648405DA042F7D3681C05
:102CF000C1B26148006880F83D10601CC1B25E48F6
:102D0000006880F83B105F48B6FBF0F100FB1166ED
:102D10004FF46160B6FBF0F0C1B25748006880F82C
:102D20003A104FF46160B6FBF0F100FB11603C21FA
:102D3000B0FBF1F0C1B25048006880F839104FF490
:102D40006160B6FBF0F100FB11603C21B0FBF1F2D9
:102D500001FB12004849096881F83800BDE8F0819C
:102D600010B5002401214FF0C05001F000FE0120F9
:102D700003F05BFC03F050FB012001F05BFD05E07C
:102D8000601C04464049884200D104E0412001F023
:102D9000BCFC0028F4D000BF3B48844204DA4FF466
:102DA000807001F060FD0CE0012001F059FD00BFD2
:102DB000612001F0AAFC0028FAD04FF4007001F065
:102DC00052FD012001F055FD03F0E2FB03F0D8FBBA
:102DD0002D48844204DA47F6FF7003F0ABFB03E0B2
:102DE00049F63F4003F0A6FB03F0CAFB0121084669
:102DF00003F068FB03F0C4FB10BD10B52348007856
:102E0000401CC0B221490870642805D10020087018
:102E1000FFF7BEFEFFF725FF10BD10B5042003F03D
:102E20002AFBA0F59051343907D0FFF799FF41F202
:102E30003421042003F019FB1BE001214FF0C050A6
:102E400001F095FD012003F0F0FB412001F05DFC55
:102E500028B9612001F059FC08B9FFF781FF03F0A0
:102E600097FB03F08DFB0121084603F02BFB03F0D9
:102E700087FBFFF7F6FE10BDB8000020B17D00080B
:102E8000A57D00088051010080841E002B010020D8
:102E900070B500243148006800B970BD2F4805683E
:102EA0002AE005F00100012824D12D4850F8340013
:102EB000401E2B4941F834001CD10120A040274975
:102EC000096881432548016026480068E04010F009
:102ED000010F0AD0224800EBC4004068224A126861
:102EE000811A0220FDF70EFF04E01D4901EBC40129
:102EF000486880476D08641C002DD2D100BFCCE724
:102F000030B5174C44F8302004EBC004636039B18D
:102F100001248440134D2D682C43124D2C6006E093
:102F2000012484400F4D2D68A5430E4C25600124DB
:102F300084400A4D2D682C43084D2C6030BD012182
:102F40008140064A12688A4304490A60704707496B
:102F50000748016507494165704700002C010020C2
:102F60002C18002030010020B0000020012F0008A4
:102F70000C0000203F2F000810B501F072FD352035
:102F800002F008F810BD10B501F077FD10BD70B566
:102F9000ADF5027D002416E0D548006850F83400F5
:102FA000401C0ED0D248006850F834004DF8240080
:102FB000CF48006800EBC40040685DF8241008604A
:102FC00000E002E0641C802CE6DB00BFC9494C80B5
:102FD0008020888008464088022803DA0846408816
:102FE00008804EE00026002413E0651C0BE05DF82D
:102FF00024005DF82510884204D100204DF82400FB
:10300000012604E06D1CBB484088A842EFDC00BFED
:10301000641CB8484088401EA042E6DC26B9B5488A
:103020004088B44908802CE0FFF7A6FFB24801F0C1
:103030005EFD002500241CE05DF8240000B917E0C7
:103040005DF8240080905DF8240000688190A84A13
:103050008099126802EBC50001F019FEA44A81991B
:10306000126802EBC502101D01F011FE6D1C00BFBD
:10307000641CA0484088A042DEDCFFF784FF9D4925
:103080000D809C4800889B49C8809CA003F0F8FFF5
:10309000984881889AA003F0F3FF964841889EA043
:1030A00003F0EEFF93480188A1A003F0E9FF9148E7
:1030B000C188A4A003F0E4FF0DF5027D70BD70B5DA
:1030C000044625460CB9002070BD8A48C08889494D
:1030D0008988884201D10020F6E7FFF74DFF854936
:1030E000C988834A126802EBC100294601F0CFFD6E
:1030F000804AD2887E4B29681B6803EBC202101DF0
:1031000001F0C5FDFFF73FFF7A48C088401C7949B0
:10311000C8800120D8E770B54FF440608E494881DF
:103120008E480860084600684860002008818B4D82
:10313000002409E02878FF2804D18748456001462B
:103140000C8104E06D1C641CB4F5406FF2DB00BF21
:1031500083A003F095FF8048418982A003F090FF8F
:103160007D48018985A003F08BFF7B48016889A019
:1031700003F086FF784841688BA003F081FF78A0B8
:1031800003F07EFF70BD10B5FFF7F6FE002405E0EA
:10319000724901EB842001F0AAFC641C032CF7DBCC
:1031A000FFF7F1FE6D486C49086048600020088117
:1031B00010BD10B5024669490878FF2801D17FA0EB
:1031C00010BD1AB96548644C2060F9E7501C18D14D
:1031D00061480368016800BF11F8014B002CFBDC5B
:1031E000087800B9491C0878FF2802D0424881427B
:1031F00003D95A48584C206001E0574801601846EE
:10320000DEE7002A1DDD0EE00878FF2801D16BA063
:10321000D6E700BF08780028FCDC491C00BF08780E
:103220000028FCD0491C1000A2F10102ECD1087862
:10323000FF2802D03048814201D960A0C0E708468B
:10324000BEE760A0BCE70FB4F0B59BB001AE0025AF
:1032500003E0002026F8020B6D1C322DF9DB21A8BB
:103260001A9001A81A9A209903F02EFF0446002014
:103270001A901CB91BB0F0BC5DF814FB641C14F070
:10328000010F00D0641C344800892044B0F5406F21
:1032900001DB0020EEE7671001AEFFF76DFE0025B1
:1032A0000BE031882C4A506801F021FD2A48406823
:1032B000801C29494860B61C6D1CBD42F1DBFFF73C
:1032C00062FE254800892044234908810120D1E776
:1032D00010B5FFF75CFE3F493F48C165FFF71BFF94
:1032E0003E493D4801663E4941663E49816610BD02
:1032F000340100203801002000FC00080A0A0A00FE
:103300000AB2CECAFDD7DCB4E6B4A2BFD5BCE42075
:103310003D202564000000000AB2CECAFDD2D1B41F
:10332000E6B4A2BFD5BCE420203D20256400000007
:103330000AB2CECAFDB4E6B4A2B8F6CAFD203D205A
:10334000256400000AB2CECAFDD0B4C8EBB5E320B4
:103350003D202564000000006C18002000F00008EB
:103360000A0A00000AC8D5D6BED7DCB4E6B4A2BFAC
:10337000D5BCE4203D202564000000000AC8D5D655
:10338000BED2D1B4E6B4A2BFD5BCE420203D2025F6
:10339000640000000AC8D5D6BEB6C1C8A1B5E320F6
:1033A0003D202578000000000AC8D5D6BED0B4C89C
:1033B000EBB5E3203D202578000000004E756C6CD5
:1033C0000A000000417267756D656E744572726F18
:1033D000720A0000BF3000080C000020873100088E
:1033E000B33100084732000810B502462AB3012A5B
:1033F00012D0022A32D1604800780A2801D1002078
:1034000010BD5D4803780078401C5B4C20705B4821
:1034100040F823100120F3E759480078042801D12F
:103420000020EDE7564803780078401C544C20708B
:10343000544840F823100120E2E75348007802285E
:1034400001D10020DCE7504803780078401C4E4C46
:1034500020704E4840F823100120D1E70020CFE72C
:1034600010B54B480078401CC0B249490870642828
:1034700001D10020087045490868804743494868E1
:103480008047FEF728FDFEF778FEFEF71FFF404855
:1034900000780A2190FBF1F0C4B23D48007890FB1F
:1034A000F1F201FB12000A2837D2DFE800F005092B
:1034B0000D11151A222528293249086880472CE069
:1034C00030494868804728E02E498868804724E0D2
:1034D0002C49C868804720E0284951F824008047DB
:1034E0001BE02C480068406B401C2A49096848636F
:1034F00013E000F0C3F810E0FFF7CAFC0DE00CE0A9
:1035000014B1012C06D102E0FFF777FC03E0FFF7CE
:1035100025F900E000BF00BF00BF00BF10BD30B5FF
:103520001D48006842F21072B0FBF2F1B1F1807FE9
:1035300000D31DE021F07F40401E4FF0E02250619B
:1035400050170F22002807DA13071D0E134B00F047
:103550000F04241F1D5503E013071C0E104B1C54B1
:1035600000BF00204FF0E02290610720106100BFF3
:103570000C490D48C16630BD800100205801002073
:10358000810100204801002082010020400100202C
:1035900083010020B80000208C01002018ED00E01D
:1035A00000E400E0E93300080C0000209248934951
:1035B000086000F2E7304860084600688860084606
:1035C0000068C86000200882704701468B48008A66
:1035D000B0F57A7F01DB0020704788488068017071
:1035E00086488068401C854A906010468068526812
:1035F000904203D981480068804A906072B6804842
:103600000088401C7E4A10807C48008A401C7B4A0F
:1036100010827B480088401E0004000C784A10800D
:1036200000D162B60120D7E770B504460D464DB112
:1036300003E014F8010BFFF7C8FF2800A5F101050E
:10364000F7D10DE009E020780A2802D10D20FFF71C
:10365000BCFF14F8010BFFF7B8FF20780028F2D167
:1036600070BD70B504460D460A2C02D10D20FFF73F
:10367000ACFFE0B2FFF7A9FF204670BD5F48008AAB
:1036800000B970475F48008810F0400F00D1F8E79C
:103690005A48C06800785B49091D08805748C068CF
:1036A000401C5649C8600846C0684968884203D92A
:1036B000524800685149C86072B651480088401CA1
:1036C0004F4908804D48008A401E4C4908824C48AA
:1036D0000088401E0004000C4949088000D162B6F1
:1036E00000BFCEE710B540F22551464800F06DFD11
:1036F00038B1444800F0E9FCC4B221460120FDF78E
:1037000001FB08213F4800F04AFD012802D13D4855
:1037100000F0DBFC10BD10B5012240F22551394804
:1037200000F06BFC0121374800F05BFC10BD10B5C8
:10373000002240F22551334800F05FFC002131485F
:1037400000F04FFC10BD00B587B0012144F2050028
:1037500001F000F94FF40070ADF8180003208DF867
:103760001A0018208DF81B0006A9274800F03EFE1D
:103770004FF48060ADF8180048208DF81B0006A9B2
:10378000214800F033FE25208DF8040003208DF839
:10379000050002208DF8060001208DF8070001A821
:1037A00000F05BFD4FF4E13002900020ADF80C001A
:1037B000ADF80E00ADF81000ADF814000C20ADF817
:1037C000120002A90F4800F080FB012240F22551AF
:1037D0000C4800F012FC01210A4800F002FCFFF73F
:1037E000E5FE0A490A4801630A4941630A498163BF
:1037F0000A49C16307B000BD8C180020781800206A
:103800000800002000380140000801401737000878
:103810000C0000202F370008CB350008293600089F
:1038200030B58BB004460D460194002003906348E8
:10383000009010200290002004908020059000202D
:103840000690079008904FF40050099000200A90CD
:1038500069465B4801F082FE5A4805600BB030BDF6
:1038600010B540F225515548001F00F0AEFC70B174
:103870005248001F00F029FCC4B201214F48001F2C
:1038800000F0A3FC18B920464E4909688847082172
:103890004A48001F00F083FC012803D14748001F5D
:1038A00000F013FC10BD70B505460C4600214448DD
:1038B00001F07FFE444804604FF00101404801F0F0
:1038C00078FE70BD00B591B00121052001F042F8ED
:1038D0000121480401F04BF80420ADF8400003201A
:1038E0008DF8420018208DF8430010A9374800F0E9
:1038F0007DFD0820ADF8400048208DF8430010A958
:10390000324800F073FD26208DF82C0003208DF83E
:103910002D008DF82E0001208DF82F000BA800F04F
:103920009CFC0121084601F008F8254801F074FDCF
:10393000224800900020019010200290082003905F
:1039400000200490802005900020069007900890A9
:103950004FF40050099000200A906946184801F081
:10396000FDFD4FF4E1300C900020ADF83400ADF8CF
:103970003600ADF83800ADF83C000C20ADF83A0048
:103980000CA90E48001F00F0A0FA012240F22551B8
:103990000A48001F00F031FB012280210748001F68
:1039A00000F050FB01210548001F00F01AFB0849F8
:1039B000084801640849416411B000BD0444004056
:1039C0008000024084010020840002400008014081
:1039D000213800080C000020A73800080E490860B4
:1039E000704708B50121042000F0B4FF00200A4907
:1039F00008604FF01000ADF800008DF803004FF0A4
:103A000002008DF802006946044800F0EFFC04490A
:103A10000448816208BD0000900121420008014075
:103A2000DD3900080C00002030B58BB004460D468F
:103A30000194002003908048009010200290002004
:103A400004908020059000200690079008904FF485
:103A50000050099000200A906946784801F07EFDE8
:103A6000774805600BB030BD10B540F22551724863
:103A7000001F00F0AAFB70B16F48001F00F025FB8B
:103A8000C4B201216C48001F00F09FFB18B920460A
:103A90006B490968884708216748001F00F07FFBD1
:103AA000012803D16448001F00F00FFB10BD70B562
:103AB00005460C460120634908604FF000015F484D
:103AC00001F077FDA01C5D491C39086201215B48AB
:103AD00001F06FFD70BD10B5202001F0A3FD01289D
:103AE00005D1202001F0B1FD00205649086010BD2D
:103AF00000B591B00121092000F02CFF01218804BC
:103B000000F035FF00204F4908604FF48070ADF899
:103B100040004FF002008DF842004FF010008DF889
:103B2000430010A9484800F061FC4FF48060ADF8F4
:103B3000400003208DF8420018208DF8430010A9A2
:103B4000414800F053FC4FF40060ADF840004820BD
:103B50008DF8430010A93C4800F048FC27208DF860
:103B60002C0003208DF82D008DF82E0001208DF8FB
:103B70002F000BA800F071FB4FF4E1300C900020F7
:103B8000ADF83400ADF83600ADF83800ADF83C00C3
:103B90000C20ADF83A000CA92748001F00F095F959
:103BA000012240F225512448001F00F026FA01218D
:103BB0002148001F00F015FA0C208DF82C0002207F
:103BC0008DF82D008DF82E0001208DF82F000BA808
:103BD00000F043FB0121084600F0AFFE174801F05A
:103BE0001BFC154800900020019010200290082036
:103BF00003900020049080200590002006900790FC
:103C000008904FF40050099000200A9069460B4834
:103C100001F0A4FC01220221084801F0D6FC012297
:103C200080210548001F00F00DFA0849084881640A
:103C30000849C16411B000BD044800401C000240A6
:103C400088010020A0812142000C0140293A00088F
:103C50000C000020AF3A000800210020674A1268DB
:103C600042F48032654B1A6000BF644A126802F465
:103C70000030491C10B9B1F5A06FF6D15F4A126847
:103C800012F4003F01D0012000E00020012842D1C1
:103C90005B4A126842F01002594B1A601A461268C9
:103CA00022F003021A601A46126842F002021A60F9
:103CB000524A5268514B5A601A4652685A601A4624
:103CC000526842F480625A601A46526822F47C12AA
:103CD0005A601A46526842F4E8125A601A4612684C
:103CE00042F080721A6000BF444A126812F0007FEE
:103CF000FAD0424A526822F00302404B5A601A46F8
:103D0000526842F002025A6000BF3C4A526802F018
:103D10000C02082AF9D1704710B5FFF79DFF10BDBE
:103D200010B53648006840F0010034490860084684
:103D300040683449084031494860084600683249C3
:103D400008402E4908600846006820F4802008607A
:103D50000846406820F4FE0048604FF41F00886069
:103D6000FFF7DAFF4FF000602849086010BD10B57A
:103D7000002100200022214B5B6803F00C0121B1DF
:103D8000042906D0082928D107E0214B214C2360C3
:103D900027E01F4B1F4C236023E0184B5B6803F4A4
:103DA0007010164B5B6803F48032022303EB9040E3
:103DB00022B9194B4343174C23600DE00F4B5B684E
:103DC00013F4003F04D0144B4343124C236003E030
:103DD0000F4B43430F4C236003E00D4B0D4C23600E
:103DE00000BF00BF054B5B68C3F303130B4CE15CE2
:103DF000084B1B68CB40074C236010BD00100240ED
:103E0000002002400000FFF8FFFFF6FE08ED00E092
:103E100000127A008C01002000093D009001002072
:103E20000648804706480047FEE7FEE7FEE7FEE754
:103E3000FEE7FEE7FEE7FEE7FEE7FEE7213D0008BE
:103E4000ED00000810B50446FC48844209D1012168
:103E5000880300F099FD00214FF4804000F094FDAC
:103E600032E0F748844209D10121480400F099FD6D
:103E700000214FF4003000F094FD25E0F148844229
:103E800009D10121880400F08CFD00214FF480202D
:103E900000F087FD18E0EC48844209D10121C804F4
:103EA00000F07FFD00214FF4002000F07AFD0BE0D0
:103EB000E648844208D10121080500F072FD002186
:103EC0004FF4801000F06DFD10BD2DE9F04786B075
:103ED00005460E460024A24600BFA1460027B08931
:103EE00000B100BF2F462C8A4CF6FF700440F088CA
:103EF00004432C82AC894EF6F3100440B08831891B
:103F00000843718908430443AC81AC8A4FF6FF40F3
:103F10000440B0890443AC8201A800F0AEFCC7485D
:103F2000874202D1DDF810A001E0DDF80CA0A889DD
:103F300010F4004F08D00AEBCA0000EB0A103168F9
:103F40004900B0FBF1F807E00AEBCA0000EB0A10E9
:103F500031688900B0FBF1F86420B8FBF0F004018F
:103F60002009642101FB1089A88910F4004F08D0B2
:103F7000322000EBC900B0FBF1F000F00700044371
:103F800008E0322000EB09106421B0FBF1F000F0F2
:103F90000F0004432C8106B0BDE8F0874FF41651A2
:103FA000016000218180C18001810C2141810021BB
:103FB0008181704710B502460020108A4FF2FF033E
:103FC00018400B884C8823438C882343CC88234398
:103FD0001843108210BD0021018041808180C18082
:103FE000704721B1828942F40052828104E08289C3
:103FF0004DF6FF731A4082817047F0B503460024E6
:10400000002600250020A1F510676A3F00D100BFFF
:104010001846C1F3421401F01F06012707FA06F5FE
:10402000012C01D10C3004E0022C01D1103000E051
:1040300014301AB107682F43076002E00768AF43E6
:104040000760F0BD10B51AB1838A0B43838204E088
:10405000838ACC43A4B22340838210BD028A4FF6E8
:10406000F0731A400282028A0A43028270478289F0
:104070004FF2FF731A40828182890A43828170471E
:1040800021B1828942F00202828104E082894FF6E6
:10409000FD731A4082817047028A4FF6DF731A401F
:1040A0000282028A0A430282704721B1028A42F4E4
:1040B0008042028204E0028A4BF6FF731A400282B9
:1040C0007047C1F308028280704701468888C0F3B8
:1040D00008007047818941F0010181817047028B9E
:1040E000D2B20283028B42EA012202837047028B22
:1040F00002F47F420283028B0A430283704721B19C
:10410000828A42F02002828204E0828A4FF6DF73C4
:104110001A408282704721B1828A42F01002828264
:1041200004E0828A4FF6EF731A408282704721B111
:10413000828A42F00802828204E0828A4FF6F77394
:104140001A408282704721B1828942F40042828102
:1041500003E08289C2F30E028281704721B1828A14
:1041600042F40062828204E0828A4FF2FF731A40B6
:1041700082827047828A4FF6FB731A408282828A5B
:104180000A438282704721B1828A42F0020282820F
:1041900004E0828A4FF6FD731A408282704702461D
:1041A0000020B1F5007F00D100BF13880B4201D081
:1041B000012000E00020704701F40072B2F5007F9A
:1041C00000D100BFCA430280704770B50246002488
:1041D000002300250020A1F510666A3E00D100BF33
:1041E000C1F3421501F01F03012606FA03F3012D66
:1041F00002D19689334006E0022D02D1168A33405F
:1042000001E0968A33400C12012606FA04F416885F
:10421000344013B10CB1012000E0002070BD10B596
:1042200000220023A1F510646A3C00D100BF0A12ED
:1042300001249440A3B2DC43048010BD0038014047
:104240000044004000480040004C00400050004046
:1042500031490143314A1160704770B50021002394
:104260000F22C4780CB32D4C246804F4E064C4F528
:10427000E064210AC1F10403CA40447804FA03F15E
:104280008478144021430901254C0678A15504780F
:1042900004F01F050124AC4005786D114FF0E026B5
:1042A00006EB8505C5F8004109E0047804F01F0518
:1042B0000124AC401B4D0678761145F8264070BDB0
:1042C000194A0A400243154B1B1F1A60704739B147
:1042D000124A121D12680243104B1B1D1A6006E0A1
:1042E0000E4A121D126882430C4B1B1D1A60704748
:1042F000042808D14FF0E021096941F004014FF092
:10430000E022116107E04FF0E021096921F004018A
:104310004FF0E022116170470000FA050CED00E05B
:1043200000E400E080E100E080FFFF1F10B50446DC
:10433000CA48844208D10121042000F025FB002155
:10434000042000F021FB46E0C548844208D1012149
:10435000082000F019FB0021082000F015FB3AE0CE
:10436000C048844208D10121102000F00DFB00213B
:10437000102000F009FB2EE0BB48844208D1012147
:10438000202000F001FB0021202000F0FDFA22E0B7
:10439000B648844208D10121402000F0F5FA0021FE
:1043A000402000F0F1FA16E0B148844208D1012122
:1043B000802000F0E9FA0021802000F0E5FA0AE010
:1043C000AC48844207D10121801500F0DDFA0021BC
:1043D000A01500F0D9FA10BD10B50121084600F073
:1043E000D3FA0021012000F0CFFA10BD2DE9F041F1
:1043F000024600250026002000230024002791F813
:1044000003C00CF00F0591F803C01CF0100F03D08F
:1044100091F802C04CEA0505B1F800C01CF0FF0F8E
:1044200031D0146800202BE04FF0010C0CFA00F39F
:10443000B1F800C00CEA03069E4220D183004FF081
:104440000F0C0CFA03F7BC4305FA03FC4CEA040416
:1044500091F803C0BCF1280F06D14FF0010C0CFA03
:1044600000FCC2F814C00AE091F803C0BCF1480F88
:1044700005D14FF0010C0CFA00FCC2F810C0401C32
:104480000828D1D31460B1F800C0BCF1FF0F34DDAF
:10449000546800202EE000F1080C4FF0010808FAE3
:1044A0000CF3B1F800C00CEA03069E4221D1830050
:1044B0004FF00F0C0CFA03F7BC4305FA03FC4CEA6F
:1044C000040491F803C0BCF1280F05D100F1080CD9
:1044D00008FA0CF8C2F8148091F803C0BCF1480F38
:1044E00007D100F1080C4FF0010808FA0CF8C2F8E7
:1044F0001080401C0828CED35460BDE8F0814FF6F0
:10450000FF710180022181700421C1707047024651
:10451000002093680B4201D0012000E0002070478A
:104520000146886880B2704702460020D3680B427B
:1045300001D0012000E0002070470146C86880B229
:10454000704701617047416170470AB1016100E045
:1045500041617047C16070474FF480320A43826105
:104560008161826182698269704702460020424B04
:1045700018684FF68073184040EA021008433E4B1B
:10458000186070473D49C8617047F0B50A4600237E
:1045900000240021002500F00046B6F1004F02D1B2
:1045A000354EF16901E0344E7168C0F3034583B2C2
:1045B00000F44016B6F5401F08D121F070612E4E70
:1045C000766826F070662C4F7E6012E000F480164C
:1045D000B6F5801F06D1032606FA05F4A14341F083
:1045E000706106E0460D360103FA06F6B14341F06C
:1045F000706122B1460D360103FA06F6314300F030
:104600000046B6F1004F02D11B4EF16101E01A4E97
:104610007160F0BD30B500228B071C0F0F2303FA29
:1046200004F2154B08338C1053F824309343124C8A
:1046300008348D1044F8253023468C1053F824306C
:104640008C07240F00FA04F423430B4C08348D101C
:1046500044F8253030BD0A49086070470008014021
:10466000000C0140001001400014014000180140FE
:10467000001C0140002001400000014000002042D9
:10468000DC002042DC48006840F00100DA490860A4
:1046900008464068D9490840D7494860084600683C
:1046A000D7490840D44908600846006820F48020B3
:1046B00008600846406820F4FE0048604FF41F0080
:1046C00088607047CC49096821F48031CA4A11607A
:1046D0001146096821F480211160B0F5803F03D0B4
:1046E000B0F5802F0ED106E0C349096841F480314E
:1046F000C14A116007E0C049096841F4A021BE4ADF
:10470000116000E000BF00BF704710B501460022F5
:10471000002300204A11012A02D1B74C236806E089
:10472000022A02D1B44C236A01E0B34C636A01F05F
:104730001F02012494401C4201D0012000E000200F
:1047400010BD70B500240025002600BF3120FFF702
:10475000DCFF0646641CB4F5A06F01D0002EF5D036
:104760003120FFF7D2FF08B1012500E000252846DF
:1047700070BD01460020A04A106820F0F80040EA11
:10478000C100106070479F490860704702460020D2
:10479000994B586820F47C1042EA01031843964B69
:1047A0005860704797490866704701460020924A52
:1047B000506820F003000843506070478E484068FE
:1047C00000F00C007047014600208B4A506820F032
:1047D000F00008435060704701460020864A506848
:1047E00020F4E06008435060704701460020824A90
:1047F000506820F4605040EAC1005060704729B111
:104800007D4A527A02437C4B5A7206E07A4A527AC7
:10481000C343DBB21A40784B5A7270477A4908603A
:10482000704701460020744A506820F44040084315
:10483000506070470021754A11706F4A82F820104D
:10484000012802D0042808D103E001216F4A117029
:1048500004E005216D4A117000E000BF00BF704701
:104860006B49086070476449096A0143624A1162F2
:104870007047674944390860704730B5002100220D
:10488000002400235C4D6D6805F00C0121B1042962
:1048900005D0082923D105E05E4D056022E05D4D7D
:1048A00005601FE0544D6D6805F47012524D6D683F
:1048B00005F48034022505EB92421CB9564D554350
:1048C00005600BE04C4D6D6815F4003F03D0524D70
:1048D0005543056002E04F4D5543056002E04D4DE4
:1048E000056000BF00BF444D6D6805F0F001090987
:1048F0004A4D6B5C0568DD4045603F4D6D6805F4D1
:10490000E061090A454D6B5C4568DD4085603A4DC4
:104910006D6805F46051C90A404D6B5C4568DD4027
:10492000C560354D6D6805F44041890B3C4D6B5CAD
:10493000C568B5FBF3F5056130BD29B12E4A526952
:1049400002432D4B5A6104E02B4A526982432A4BA1
:104950005A61704729B1284A92690243264B9A61ED
:1049600004E0254A92698243234B9A61704729B13A
:10497000214AD2690243204BDA6104E01E4AD2691F
:1049800082431D4BDA61704729B11B4AD26802434A
:10499000194BDA6004E0184AD2688243164BDA6099
:1049A000704729B1144A12690243134B1A6104E09B
:1049B000114A12698243104B1A61704714494039F9
:1049C000086070470F49C86470470B49C871704749
:1049D0000948406A40F080700749486270470146C4
:1049E0000020054A92680A4201D0012000E0002020
:1049F0007047014988727047001002400000FFF8BC
:104A0000FFFFF6FE00004242D80042422010024062
:104A10008004424200127A0000093D00A0010020FB
:104A2000B001002001460020FE4A106800F0380066
:104A3000084310607047FB49096821F00801F94AF2
:104A4000116011460968014311607047F549096812
:104A500021F01001F34A1160114609680143116009
:104A60007047F148EF494860F04848607047EE48A9
:104A7000EC494860ED4848607047EA48006940F0FA
:104A80008000E84908617047E648006940F080000E
:104A9000E449086170470420E249C96801F0010156
:104AA000012901D101200EE0DE49C96811F0040F8F
:104AB00001D0022007E0DB49C96811F0100F01D0D6
:104AC000032000E00420704700B502460423FFF7EE
:104AD000E2FF034603E0FFF7DEFF0346521E012B11
:104AE00001D1002AF7D102B90523184600BD30B51F
:104AF000044604254FF43020FFF7E6FF0546042D59
:104B000017D1C848006940F00200C649086108464C
:104B10004461006940F0400008614FF43020FFF725
:104B2000D3FF0546BF48006941F6FD710840BD4905
:104B30000861284630BD10B504244FF43020FFF73B
:104B4000C3FF0446042C16D1B648006940F00400A7
:104B5000B44908610846006940F0400008614FF41C
:104B60003020FFF7B1FF0446AE48006941F6FB7103
:104B70000840AC490861204610BD00B50246042338
:104B8000FFF789FF034603E0FFF785FF0346521E48
:104B9000012B01D1002AF7D102B90523184600BD27
:104BA00010B504244FF43020FFF7E7FF0446042C2F
:104BB00016D19C48006940F004009A4908610846F3
:104BC000006940F0400008614FF43020FFF7D5FF46
:104BD00004469448006941F6FB7108409149086118
:104BE000204610BD00208F49C96911F0020F01D085
:104BF000012000E00020704730B5A5250424FFF710
:104C0000F1FF00B100254FF43020FFF75DFF0446AF
:104C1000042C3AD1844883498860844888600846D7
:104C2000006940F0200008610846006940F040003B
:104C300008614FF43020FFF747FF0446042C1BD1D6
:104C40007848006941F6DF710840764908610846F6
:104C5000006940F01000086175480580E002FFF728
:104C600033FF0446052C10D06E48006941F6EF7101
:104C700008406C49086108E0052C06D069480069C5
:104C800041F6EF71084067490861204630BDF0B534
:104C900004460D4604260027F002FFF715FF0646DE
:104CA000042E22D15F48006940F001005D4908618F
:104CB0002580F002FFF708FF0646042E0ED1A71C40
:104CC000280C3880F002FFF7FFFE064655480069C1
:104CD00041F6FE7108405349086106E051480069F9
:104CE00041F6FE7108404F4908613046F0BD70B58D
:104CF00004460D460426F002FFF7E6FE0646042EA3
:104D000011D14848006940F00100464908612580FA
:104D1000F002FFF7D9FE06464248006941F6FE71EF
:104D2000084040490861304670BD70B505460E46E2
:104D30000424E002FFF7C8FE0446042C17D13A48C9
:104D400038498860394888600846006940F010009A
:104D500008612E80E002FFF7B7FE0446052C06D05E
:104D60003048006941F6EF7108402E49086120463D
:104D700070BD2DE9F04304464FF6FF763746B04646
:104D8000B1460425E443E6B2C4F30727C4F3074859
:104D90004FEA1469E802FFF797FE0546042D40D15B
:104DA000214820498860214888600846006940F011
:104DB00010000861FF2E06D01D4808300680E8026A
:104DC000FFF782FE0546042D08D1FF2F06D01848B4
:104DD0000A300780E802FFF777FE0546042D0AD166
:104DE000B8F1FF0F07D012480C30A0F80080E8029D
:104DF000FFF76AFE0546042D0AD1B9F1FF0F07D06F
:104E00000B480E30A0F80090E802FFF75DFE054663
:104E1000052D06D00348006941F6EF7108400149AD
:104E2000086107E00020024023016745AB89EFCD10
:104E300000F8FF1F2846BDE8F08330B5054604247E
:104E40004FF43020FFF740FE0446042C41D15F4868
:104E50005F4988605F4888600846006940F020002C
:104E600008610846006940F0400008614FF43020B6
:104E7000FFF72AFE0446042C22D15548006941F66A
:104E8000DF710840524908610846006940F010008F
:104E900008611DB100205049088002E0A5204E495C
:104EA00008804FF43020FFF70FFE0446052C10D089
:104EB0004748006941F6EF7108404549086108E03C
:104EC000052C06D04248006941F6DF710840404990
:104ED0000861204630BDF0B505460E46174604244D
:104EE0003A483B4988603B488860E002FFF7ECFDA8
:104EF0000446042C19D13648006940F010003449AA
:104F0000086147F0F800304328433349891C088082
:104F1000E002FFF7D9FD0446052C06D02C480069B5
:104F200041F6EF7108402A4908612046F0BD284843
:104F3000C069800870472648006A704700202449ED
:104F4000096811F0200F01D0012000E00020704717
:104F500029B11F4A126902431D4B1A6104E01C4A21
:104F6000126982431A4B1A617047014600200129D9
:104F700008D1174AD26912F0010F01D0012008E0D0
:104F8000002006E0124AD2680A4201D0012000E067
:104F9000002070470E49C860704704200C49C9685A
:104FA00001F00101012901D101200EE00849C96881
:104FB00011F0040F01D0022007E00549C96811F083
:104FC000100F01D0032000E0042070472301674543
:104FD00000200240AB89EFCD00F8FF1F10B504465A
:104FE000F948844208D101214015FFF7CDFC00218A
:104FF0006015FFF7C9FC17E0F448844208D101218D
:105000000015FFF7C1FC00212015FFF7BDFC0BE0E8
:10501000EF48844208D10121C803FFF7B5FC002105
:105020004FF40040FFF7B0FC10BD30B50246002041
:1050300000235068E74C20400D790C6844EA0524B1
:10504000204350609068E44C2040D1E902542C4346
:105050004D7944EA450420439060D06A20F4700002
:105060000C7C641EE4B2234340EA0350D06230BD9E
:1050700000210160017141718160C16001210174F1
:10508000704721B1826842F00102826003E08268C9
:1050900022F001028260704721B1826842F480727E
:1050A000826003E0826822F480728260704710B5EB
:1050B0000023CBB21AB144681C43446002E0446848
:1050C0009C43446010BD816841F0080181607047D5
:1050D000014600208A6812F0080F01D0012000E08C
:1050E00000207047816841F00401816070470146EB
:1050F00000208A6812F0040F01D0012000E0002097
:10510000704721B1826842F4A002826003E08268A5
:1051100022F4A00282607047014600208A6812F4DF
:10512000800F01D0012000E00020704710B50A4632
:1051300000210023416821F46041531E41EA4331BC
:10514000416010BD21B1426842F40062426003E058
:10515000426822F4006242607047F0B504460D4692
:1051600000200021092D11DDE068A5F10A0606EBFB
:105170004607072606FA07F18843A5F10A0606EB5B
:10518000460603FA06F10843E0600CE0206905EBEF
:105190004507072606FA07F1884305EB450603FA9B
:1051A00006F108432061072A0FDA606B561E06EBF2
:1051B00086071F2606FA07F18843561E06EB860669
:1051C00005FA06F10843606322E00D2A0FDA206B2E
:1051D000D61F06EB86071F2606FA07F18843D61F5F
:1051E00006EB860605FA06F10843206310E0E06A44
:1051F000A2F10D0606EB86071F2606FA07F1884383
:10520000A2F10D0606EB860605FA06F10843E062F8
:10521000F0BD21B1826842F48012826003E08268AE
:1052200022F48012826070470146C86C80B27047D9
:1052300065484C300068704721B1426842F4806292
:10524000426003E0426822F480624260704721B10C
:10525000426842F48052426003E0426822F4805285
:10526000426070470A460021816821F4E041114301
:105270008160704721B1826842F40042826003E09D
:10528000826822F400428260704721B1826842F451
:105290000212826003E0826822F402128260704788
:1052A000014600208A6812F4001F01D0012000E0AE
:1052B00000207047F0B50446154600200022002665
:1052C000092911DDE068A1F10A0707EB470C072760
:1052D00007FA0CF29043A1F10A0707EB470703FA1C
:1052E00007F21043E0600CE0206901EB410C072756
:1052F00007FA0CF2904301EB410703FA07F210435F
:105300002061A06BC0F30156EF1C06F1010CA7EB66
:105310000C0707EB870C1F2707FA0CF29043EF1CD2
:1053200006F1010CA7EB0C0707EB870701FA07F260
:105330001043A063F0BD10B50A4600210023816B25
:1053400021F44011531E41EA0351816310BD10B591
:10535000002303460B441A6010BD02460023134687
:1053600001F128000344186880B270470A46002102
:1053700041681A4B19401143416070474162826293
:1053800070470A460021416821F01F011143416026
:10539000704740B10C490831096841F400010A4ADC
:1053A0000832116007E008490831096821F400015A
:1053B000054A0832116070470246002013680B420C
:1053C0000ED001200DE00000002401400028014023
:1053D000003C0140FFFEF0FFFDF7F1FFFFFD3FFF46
:1053E00000207047CA430260704770B50246002033
:1053F000002300240B125568CEB205EA0604156896
:105400001D4202D00CB1012000E0002070BD00223E
:105410000A12D3430360704701684FF6FE721140D1
:1054200001600021016041608160C1608C49884257
:1054300008D18B490839496841F00F01884A083A78
:1054400051608AE086491431884208D1844908397C
:10545000496841F0F001824A083A51607DE0804994
:105460002831884208D17E490839496841F4706181
:105470007B4A083A516070E079493C31884208D152
:1054800077490839496841F47041754A083A5160D2
:1054900063E073495031884208D17149083949683D
:1054A00041F470216E4A083A516056E06C4964310B
:1054B000884208D16A490839496841F47001684A4C
:1054C000083A516049E066497831884208D1644918
:1054D0000839496841F07061614A083A51603CE01E
:1054E0006049884206D1011F096841F00F01021F7F
:1054F000116032E05B491431884208D15949091FD3
:10550000096841F0F001574A121F116025E0554922
:105510002831884208D15349091F096841F4706154
:10552000504A121F116018E04E493C31884208D1A0
:105530004C49091F096841F470414A4A121F116021
:105540000BE048495031884207D14649091F096894
:1055500041F47021434A121F1160704710B50022B8
:10556000026847F6F0739A430C6A8B6823430C6910
:1055700023434C6923438C692343CC6923434C6AFE
:1055800023438C6A23431A430260CB6843600B6851
:1055900083604B68C36010BD002101604160816081
:1055A000C160016141618161C161016241628162E9
:1055B000704721B1026842F00102026004E0026813
:1055C0004FF6FE731A40026070471AB103680B432E
:1055D000036002E003688B430360704741607047DB
:1055E0000146486880B2704701460020002211F051
:1055F000805F03D01B4B083B1A6802E0184B083B46
:105600001A680A4201D0012000E00020704710F023
:10561000805F03D01349091F086002E01049083970
:105620004860704701460020002211F0805F03D0DF
:105630000C4B083B1A6802E0094B083B1A680A4207
:1056400001D0012000E00020704710F0805F03D0FF
:105650000449091F086002E00149083948607047A1
:10566000080002400804024010B50446FE48844287
:1056700008D10121C014FFF787F90021E014FFF7DA
:1056800083F9C4E0B4F1804F08D101210846FFF747
:1056900088F900210120FFF784F9B8E0F34884423B
:1056A00008D101210220FFF77CF900210220FFF739
:1056B00078F9ACE0EE48844208D101210420FFF7DC
:1056C00070F900210420FFF76CF9A0E0E94884425A
:1056D00008D101210820FFF764F900210820FFF715
:1056E00060F994E0E448844208D101211020FFF7DA
:1056F00058F900211020FFF754F988E0DF48844270
:1057000008D101212020FFF74CF900212020FFF7CC
:1057100048F97CE0DA48844208D101214014FFF7BF
:1057200033F900216014FFF72FF970E0D548844267
:1057300009D10121C804FFF727F900214FF4002007
:10574000FFF722F963E0D048844209D1012108051E
:10575000FFF71AF900214FF48010FFF715F956E012
:10576000CA48844209D101214805FFF70DF90021FB
:105770004FF40010FFF708F949E0C548844208D10A
:1057800001214020FFF70DF900214020FFF709F922
:105790003DE0C048844208D101218020FFF701F993
:1057A00000218020FFF7FDF831E0BB48844208D19A
:1057B00001218015FFF7F5F80021A015FFF7F1F89A
:1057C00025E0B648844209D101210804FFF7DCF83E
:1057D00000214FF48030FFF7D7F818E0B04884423A
:1057E00009D101214804FFF7CFF800214FF4003020
:1057F000FFF7CAF80BE0AB48844208D101218804C6
:10580000FFF7C2F800214FF48020FFF7BDF810BD6C
:1058100000220288944B98420ED0994B98420BD0AC
:10582000B0F1804F08D0914B984205D0904B9842F0
:1058300002D0904B984204D14FF68F731A404B8898
:105840001A438D4B984207D08C4B984204D04FF6A8
:10585000FF431A40CB881A4302808B8883850B88CC
:105860000385814B98420BD0854B984208D08B4BD7
:10587000984205D08A4B984202D08A4B984201D177
:105880000B7A038601238382704770B500240022BF
:105890000023058C4FF6FE7635400584028C838804
:1058A000048B4FF68F752C40B51E2C400D882C4371
:1058B000751E2A400D892A434D882A436A4DA84205
:1058C0000BD06F4DA84208D0744DA84205D0744D3E
:1058D000A84202D0734DA84213D14FF6F7752A4063
:1058E0004D892A434FF6FB752A408D882A434FF68F
:1058F000FF652B404FF6FF552B408D892B43CD89FB
:105900002B4383800483CD888586028470BD70B567
:10591000002400220023058C4FF6EF7635400584E5
:10592000028C8388048B48F6FF752C404FF6FF45A8
:105930002C400D882D0644EA15444FF6DF752A40A9
:105940000D892D0542EA15424D882D0542EA154282
:10595000454DA84202D04A4DA8421BD14FF67F7553
:105960002A404D892D0542EA15424FF6BF752A405F
:105970008D882D0542EA15424FF6FF352B404FF238
:10598000FF752B408D89AD0443EA1543CD89AD04E5
:1059900043EA154383800483CD880587028470BD64
:1059A00070B5002400220023058C4FF6FF663540B9
:1059B0000584028C8388848B4FF68F752C404FF6BC
:1059C000FC752C400D882C434FF6FF552A400D895D
:1059D0002D0642EA15424D882D0642EA1542224D17
:1059E000A84202D0264DA8421BD14FF2FF752A4093
:1059F0004D892D0642EA15424FF6FF352A408D8823
:105A00002D0642EA15424EF6FF752B404DF6FF7506
:105A10002B408D892D0543EA1543CD892D0543EA99
:105A2000154383808483CD888587028470BD70B5DB
:105A3000002200230024058C4EF6FF7635400584B5
:105A4000038C8488828B48F6FF752A404FF6FF4509
:105A50002A400D882D0642EA15424DF6FF752B406F
:105A60000D892D0720E00000002C014000040040BB
:105A700000080040000C00400010004000140040EE
:105A800000340140004C01400050014000540140EE
:105A900000180040001C0040002000400040014071
:105AA000004401400048014043EA15434D882D075A
:105AB00043EA1543F84DA84202D0F84DA84206D15A
:105AC0004BF6FF752C408D89AD0544EA1544848062
:105AD0008283CD88A0F84050038470BD828B4FF242
