:020000040800F2
:1000000048270020394D0008414D0008434D0008A5
:10001000454D0008474D0008494D0008000000000C
:100020000000000000000000000000004B4D000830
:100030004D4D00080000000001010008F5430008D4
:10004000534D0008534D0008534D0008534D000810
:10005000534D0008534D0008534D0008534D000800
:10006000534D0008534D0008534D0008534D0008F0
:1000700099490008534D0008534D0008534D00089E
:10008000534D0008534D0008534D0008534D0008D0
:10009000534D0008534D0008534D0008534D0008C0
:1000A000534D0008534D0008534D0008534D0008B0
:1000B000534D0008534D0008534D0008534D0008A0
:1000C000534D0008534D0008534D0008534D000890
:1000D000534D000879460008BB4700082349000833
:1000E000534D0008534D0008534D0008DFF80CD065
:1000F00007F012FF00480047D901000848270020F8
:1001000072B6EFF309800A4A0A4B20B1203880E822
:10011000F00F1168086018681060006890E8F00F30
:10012000203080F309884EF0040E62B6704700BF9D
:10013000BC000020C000002080F309887047000048
:100140002F483049086030482D4908601420486025
:1001500041F2707088606320C860652008611920D2
:1001600048610120886141F27070C86132200862E4
:1001700026484862264888624006C8620120086313
:1001800040F2DD711E48C187042180F83D101A211C
:1001900080F83B10112180F83A102E2180F8391098
:1001A0002820174981F83800002008640E20486490
:1001B000092088640B20C864164800680865154843
:1001C000001D0068486513480830006888650021F4
:1001D0000B48C0F89811704710B5FFF7B1FF0E49F2
:1001E000086880470C48016F0C4888470A48416FEF
:1001F0000B4888470849886F804762B6002010BDC9
:10020000D4010020B800002000350C0020F40E00BE
:10021000A0860100E8F7FF1F0C000020370400084B
:1002200075100008A848D0F8981100F5C2708142F6
:1002300004D16438A449C1F8980106E0A248D0F876
:1002400098011430A049C1F89801704710B59E4834
:10025000D0F89801006900B910BD9B4AD2F89821E6
:1002600012691069994AD16D884700BFF4E710B54B
:100270009548D0F89801C46804E0944A2069D16D8B
:100280008847A469002CF8D110BD00218E48D0F811
:10029000980101618E488C49C1F89801704770B58A
:1002A0000446302C13D007DC082C17D2DFE804F00A
:1002B0000E174D5B103F53A0A4F131000728F4D274
:1002C000DFE800F0184655073E4E9A0000BF00BF19
:1002D00000BF7E48D0F89C10204688478FE07D48BC
:1002E00001780078401C7B4D28707848826E7AA097
:1002F000904784E000217448806F016001217248BA
:10030000C06F016000217048D0F8800001600121B9
:100310006D48D0F88400016000216B48D0F8880057
:10032000016001216848D0F88C00016067E06748EF
:10033000416E4FF0FF308847054607F02DFE5EE026
:100340006248C1690320884759E0FFF77FFF56E004
:10035000FFF78DFF53E05D49D1F8980080474EE0EC
:10036000FFF760FF4BE001205749886147E057489D
:100370005D4B4FF47A720121056D0020A847534868
:10038000594B4FF4FA620121056D0846A8474F48C2
:10039000554B40F6B8320121056D0220A8474B4865
:1003A000514B4FF47A620121056D0320A84747485D
:1003B0004D4B41F288320121056D0420A847434886
:1003C000494B41F270720121056D0520A8473F4855
:1003D000454B41F658320121056D0620A8473B48A0
:1003E000414B41F658320121056D0720A84706E030
:1003F00000203549886100BFFFF747FF00BF00BFFD
:1004000070BD704710B531482F490C31426800204B
:1004100090472E482C4910314268012090472B48C4
:100420002949143142680420904728482F49C26E58
:100430000220904710BD08B5FFF7E4FF2448283894
:100440002149C1F898012148D0F884104FF4FA608E
:1004500088471F4814381C49C1F89801002410E04F
:100460001A48D0F8841064208847052094FBF0F1E6
:1004700000FB1140C1B21448D0F81001401C0155D6
:10048000641C102CECDB12480F49C1F8980119E0EC
:100490000E49D1F8800080470090009820F07F45F9
:1004A0009DF80300012802D0022809D103E0E8B238
:1004B000FFF7F5FE05E00E4909686818804700E07F
:1004C00000BF00BFE4E70000D40100200C000020C2
:1004D000F4020020000000204C6F67205465737404
:1004E000203D2025640A00002502000803040008BE
:1004F000B000002010B5FE48D0F89410FD488847A1
:10050000FD48FC49F839C1F8F800F948D0F89410D2
:10051000F848143088472A20F8490870002405E07C
:100520000021F648401C0155601CC4B2102CF7DBBA
:10053000F249F048F838C0F81011ED48D0F894109E
:10054000EC4828308847EC494431EA48F838C0F88C
:100550002011E748EA49D0F89020E6482830904733
:10056000E448F838E649086103208870E548C86126
:10057000E54808624FF47A70486242F2107088626F
:100580000D20087000204870D948E049D0F890202C
:10059000D84828309047D748F438DC490861032010
:1005A00088706420C86100200862012048620A2027
:1005B00088620620087001204870CD48D449D0F8E0
:1005C0008C20CC4828309047CA48F038D049086180
:1005D000032088700E20087001204870C448CD495F
:1005E000D0F88C20C34828309047C248EC38C9491D
:1005F0000861032088700720087002204870BC48FA
:10060000C549D0F88C20BB4828309047B948E83815
:10061000C1490861032088700F20087002204870CB
:10062000B348BE49D0F88C20B24828309047B14832
:10063000E438BA4908610320887006200870032056
:100640004870AB48B649D0F88C20AA48283090476B
:10065000A848E038B2490861092088700120C870B4
:10066000B04848610F20087003204870A048D0F8B7
:100670009410A0483C3088479F4988319D48F838FD
:10068000C0F834119A48A849D0F8902099483C30D5
:1006900090479848DC38A44908610320887041F6E7
:1006A0004C50C8614FF47A600862C010486288629A
:1006B00007200870002048708D489C49D0F8902091
:1006C0008C483C3090478B48D838984908610320C3
:1006D00088703C20C8612820086201204862886236
:1006E0000E2008700020487081489149D0F8902071
:1006F00080483C3090477F48D4388D4908610320BA
:1007000088708048C8618B4808628B48486288625C
:100710008A48C860062008700120487074488849DB
:10072000D0F8902073483C3090477248D0388449C4
:100730000861032088708048C8614010086242F256
:100740001070486288627D48C8600E2008700120E1
:10075000487067487B49D0F8902066483C30904705
:100760006448CC387749086105208870012088806A
:100770007548C8614FF07E500862744848624FF077
:100780007C508862072008700220487058487049E1
:10079000D0F88C2057483C3090475648C8386C49B0
:1007A0000861092088700020C8706A4848610820E4
:1007B0000870022048704E48D0F894104D485030D0
:1007C00088474D49CC314B48F838C0F84811484863
:1007D0006149D0F890204748503090474548B83894
:1007E0005D4908610420887042F21070C8610120E0
:1007F00008624862642088620F20087000204870F8
:100800003B485649D0F890203A48503090473948F4
:10081000B43852490861032088706320C8610E20F3
:100820000862012048620A208862092008700120BD
:1008300048702F484A49D0F890202E4850309047B1
:100840002C48B03846490861032088700C20C861E4
:100850000120086248620A2088620C20087001208A
:10086000487023483F49D0F89020224850309047A4
:100870002048AC383B490861032088701F20C861BC
:100880000120086248620A2088620F200870012057
:10089000487017483449D0F88C201648503090479B
:1008A0001448A83830490861072088700870022071
:1008B0004870082088800E482C49D0F88C200D48BC
:1008C000503090470B48A4382849086107208870A9
:1008D0000F200870022048700820888004482449AE
:1008E000D0F88C200348503090470248A03841E0AF
:1008F0000C000020CC0200201489000870030020A6
:100900008403002020F40E00C0270900B00300205B
:10091000DC030020F8030020140400203004002031
:100920004C040020DC8800086804002094040020A7
:10093000C004002020A10700A08601006F12833AA6
:10094000EC040020180500200000A040CDCCCC3DD8
:1009500044050020E4880008600500208C05002084
:10096000B8050020E4050020100600202C06002019
:1009700048060020FE49086107208870087003209F
:10098000487008208880FB48D0F89410FA488847BF
:10099000FA49FB48C0F85C11F648FA49D0F89020B3
:1009A000F5489047F6483E30F649086102208870C5
:1009B00040F63400C8614FF4FA60086201204862D2
:1009C0000A2088620520087002204870E948EE4934
:1009D000D0F89020E8489047E9483D30EA4908615E
:1009E000002088700C20C861012008624862022043
:1009F00088620920087002204870DE48E349D0F878
:100A00009020DD489047DE483B30E04908610020F7
:100A100088701F20C8610020086201204862886237
:100A20000D20087002204870D248D949D0F8902093
:100A3000D1489047D2483C30D54908610920887098
:100A40000020C870D34848610620C86100200862B1
:100A50000120486288620420087003204870C5485D
:100A6000CD49D0F89020C4489047C5483A30CA498B
:100A70000861002088703B20C861002008620120C6
:100A8000486288620920087003204870B948C34949
:100A9000D0F89020B8489047B9483930BF4908612C
:100AA000002088703B20C861002008620120486255
:100AB00088620C20087003204870AE48B849D0F80E
:100AC0009020AD489047AE483830B54908610020C5
:100AD00088703B20C861002008620120486288625B
:100AE0000F20087003204870A248D0F89410A24844
:100AF00014308847A1494431A148C0F870119D487D
:100B0000A849D0F88C209C48143090479C48006E2F
:100B1000A4490861002088700220087000204870F5
:100B20009448A149D0F88C209348143090479448B9
:100B3000406E9D49086100208870032008700020E5
:100B400048708C489949D0F88C208B4814309047D5
:100B50008B48806E954908610020887004200870D9
:100B60000020487083489249D0F88C208248143085
:100B700090478348C06E8E49086100208870052028
:100B80000870002048707B488A49D0F890207A4845
:100B9000143090477A487030864908610020887088
:100BA0000A200870002048700120C86100200862F7
:100BB0000120486288626F487F49D0F890206E48D3
:100BC000143090476E4871307B490861002088706E
:100BD0000B200870002048700120C86100200862C6
:100BE00001204862886263487449D0F890206248C6
:100BF0001430904762487230704908610020887054
:100C00000C200870002048700120C8610020086294
:100C100001204862886257486949D0F890205648B8
:100C20001430904756487330654908610020887039
:100C30000D200870002048700120C8610020086263
:100C4000012048625B4988624A485E49D0F890209A
:100C50004948143090474A4874305A490861002086
:100C600088700E200870002048700120C8610020A4
:100C700008620120486288623E485349D0F89020BB
:100C80003D48143090473E4875304F490861002078
:100C900088700F200870002048700120C861002073
:100CA000086201204862886232484849D0F88C20A6
:100CB0003148143090473248D0F8980043490861D1
:100CC0000220887006200870012048702948404999
:100CD000D0F88C202848143090472948D0F89C0040
:100CE0003B490861022088700F200870012048707D
:100CF00020483849D0F88C201F48143090472048AD
:100D0000D0F8A000334908610220887006200870DE
:100D10000220487017483049D0F88C20164814300B
:100D200090471748D0F8A4002B490861022088702A
:100D30000F200870022048700E48D0F894100E481A
:100D4000283088470D4944310D48C0F884110948BE
:100D50002249D0F88C200848283090470848A8300D
:100D60001E4908610020887002200870002037E0CA
:100D7000480600200C00002030030020248A0008D0
:100D8000D40100206406002090060020E806002020
:100D9000BC060020F8880008140700204007002047
:100DA0006C07002098070020B4070020D00700201F
:100DB000EC0700200808002034080020600800200C
:100DC0008C080020B8080020E4080020100900204A
:100DD0002C09002048090020640900208009002017
:100DE0004870B248B249D0F88C20B2489047B14818
:100DF000DB38AF49086100208870032008700020AC
:100E00004870AA48AC49D0F88C20AA489047A94815
:100E1000DA38A94908610020887004200870002091
:100E20004870A248A549D0F88C20A2489047A14814
:100E3000D938A24908610020887005200870002078
:100E400048709A489E49D0F890209A48904799480F
:100E5000C8389B490861002088700A20087000206B
:100E600048700120C8610020086201204862886241
:100E70008E489449D0F890208E4890478D48C738C6
:100E800090490861002088700B200870002048708D
:100E90000120C861002008620120486288628348FE
:100EA0008949D0F89020834890478248C6388649BF
:100EB0000861002088700C20087000204870012014
:100EC000C8610020086201204862886277487F4933
:100ED000D0F89020774890477648C5387B4908611C
:100EE000002088700D200870002048700120C86123
:100EF0000020086201204862714988626B48744989
:100F0000D0F890206B4890476A48C438704908610F
:100F1000002088700E200870002048700120C861F1
:100F20000020086201204862886260486949D0F860
:100F30009020604890475F48C338664908610020A8
:100F400088700F200870002048700120C8610020C0
:100F5000086201204862886254485F49D0F88C20BA
:100F6000544890475348A8385B490861022088706C
:100F700006200870012048704C485849D0F88C2051
:100F80004C4890474B48A638544908610220887065
:100F90000F2008700120487044485149D0F88C2037
:100FA000444890474348A4384D490861022088705E
:100FB00006200870022048703C484A49D0F88C202E
:100FC0003C4890473B48A238464908610220887057
:100FD0000F2008700220487034484349D0F8902010
:100FE0003448904733488E383F490861062088705E
:100FF0000320087048704FF6FF70C8610020086237
:1010000001204862102088620420888027483749E0
:10101000D0F89020274890472648903833490861F7
:101020000620887007200870032048704FF6FF7074
:10103000C8610020086201204862102088620420F4
:1010400088801A482A49D0F890201A4890471948B1
:10105000903827490861032088700F20087003200A
:1010600048702448C86100200862012048620A20B4
:10107000886210BDFFF73EFA1F48406B64301F497D
:10108000086011E01C48406B1C49096888420BD37A
:101090001948406B643019490860174AD2F8980122
:1010A000024AD2F888108847ECE700000C000020C4
:1010B0009C09002058030020B8090020D409002012
:1010C000F00900201C0A0020480A0020740A0020B1
:1010D000A00A0020CC0A0020F80A0020140B0020EF
:1010E000300B00204C0B0020680B0020940B0020DC
:1010F000C00B00203F420F00D4010020040000205C
:10110000704700BF0100A0F10100FBD1704700B59E
:10111000034602E00820FFF7F4FF1800A3F10103E3
:10112000F8D100BD00B5034603E04FF4FA50FFF7D5
:10113000E8FF1800A3F10103F7D100BD10B5044684
:10114000102C02DB13A006F027FF102C02DA164841
:10115000005D10BD3020FCE713B504468DF8074054
:101160001248C16F019888471CBD10B572B610486F
:1011700000F07F400F4908600F4800F07F400E49A3
:10118000086000F0A9FD00F062F901F021FE00F016
:1011900000FE10BD0A4153534552543A2068657809
:1011A000203C2031360A0000AC8A00080C000020E8
:1011B0006B110008B0000020B400002002464FF080
:1011C00080700860081F014602606FF00103081F6D
:1011D000014603604FF01233081F014603604FF0D1
:1011E0000333081F014603604FF00233081F014616
:1011F00003605B10081F014603600023081F0146BF
:1012000003604FF01133081F014603604FF01033A5
:10121000081F014603604FF00933081F01460360B1
:101220004FF00833081F014603604FF00733081FD3
:10123000014603604FF00633081F014603604FF07C
:101240000533081F014603604FF00433081F0146B1
:101250000360084670470160002242608260704768
:1012600070B504468A492046FFF7A8FF054629467F
:101270008848FFF7F0FF70BD70B5044686492046E8
:10128000FFF79CFF054629468448FFF7E4FF70BD41
:1012900083490968884205D0824908604FF080512F
:1012A000814A1160704710B57A48806850B179481A
:1012B0008068401E774988600846806810B90846F3
:1012C000FFF7E6FF10BD79487949C26E01209047CB
:1012D00070487349086008460068724908604FF01A
:1012E00080507149086062B600BFFEE710B5044641
:1012F00072B670480088401C6E49088068480068D3
:101300006649884215D16348406890B90020614918
:1013100088600846446067480088401E0004000C4E
:101320006449088000D162B65A48FFF7B1FF012036
:1013300010BD6148008A28280ADB5E480088401EEC
:101340000004000C5B49088000D162B60020EFE782
:101350005948008A401C5849088208468068046041
:1013600008468068001D8860084680684968884291
:1013700003D951480068504988604E480088401E93
:101380000004000C4B49088000D162B60120CFE771
:1013900010B572B647480088401C464908803D4851
:1013A000406800B139E04448008A00281FDD424807
:1013B000C06804684048C068001D3F49C8600846CE
:1013C000008A401E08820846C0684968884203D9DE
:1013D000394800683849C86036480088401E000413
:1013E000000C3449088000D162B6204610BD0020B0
:1013F000284988602F480088401E0004000C2D49B1
:10140000088000D162B62548FFF742FF72B629482E
:101410000088401C2749088000BF1E4844680020FF
:101420001C49486023480088401E0004000C2149E4
:10143000088000D162B62046D8E710B50446002CDB
:1014400004DD144884601548FFF722FF10BD10B575
:101450001A48194908609C3048600846006888604E
:1014600008460068C86000200882FEF765FE144840
:101470000E49086713490D484167134981671349AD
:10148000C0F880101249C1671249C0F8841010BD1D
:10149000E41200202819002024190020341900200B
:1014A000BC000020C000002004ED00E00C00002083
:1014B000A712000808000020F00B0020040C0020F8
:1014C0006112000879120008C71200089113000881
:1014D000ED1200083B1400082DE9F04F95B00446CA
:1014E00025786778A0780A282CD2DFE800F0052C50
:1014F000547BB1E7FEFDFCFB206900781390139844
:1015000006F003FB0790A16806F0A3F80890E168D5
:1015100006F0F7F8099006F01BFB83465A46F8A13F
:101520000AA806F049FDC6B207E00AA8805DF549A1
:1015300001EB07114855681EC5B23000A6F1010144
:10154000CEB2F2D1CCE12069B0F90000129012982D
:1015500006F0D2FA0790A16806F07BF80890E168DF
:1015600006F0CFF8099006F0F3FA83465A46E4A154
:101570000AA806F021FDC6B207E00AA8805DE1498D
:1015800001EB07114855681EC5B23000A6F10101F4
:10159000CEB2F2D1A4E12069B0F800A0504606F026
:1015A000B4FA0790A16806F054F80890E16806F0D4
:1015B000A8F8099006F0CCFA83465A46D0A10AA8AA
:1015C00006F0FAFCC6B207E00AA8805DCD4901EB3F
:1015D00007114855681EC5B23000A6F10101CEB210
:1015E000F2D17DE12069D0F800B0E06806F013FB8D
:1015F000CDE90601A06806F00EFBCDE902015846D0
:1016000006F088FACDE90001DDE9022306F0EFF8E3
:10161000CDE90401DDE9062306F08FF9CDE90801E3
:1016200006F0C3FA83465A46B5A10AA806F0C4FCE0
:10163000C6B207E00AA8805DB24901EB0711485520
:10164000681EC5B23000A6F10101CEB2F2D147E169
:101650002069D0F80080E06806F0DDFACDE90601E7
:10166000A06806F0D8FACDE90201404606F063FA18
:10167000CDE90001DDE9022306F0B9F8CDE9040166
:10168000DDE9062306F059F9CDE9080106F0ACFAC8
:10169000804642469CA10AA806F08EFCC6B207E02E
:1016A0000AA8805D974901EB07114855681EC5B22D
:1016B0003000A6F10101CEB2F2D111E1206900683B
:1016C0001190A168119805F0C4FF0990E16806F037
:1016D00018F81190A088C6B2D6B18CA103C9CDE983
:1016E0000F0103E0DBE0BCE06CE02AE03046FFF7EE
:1016F00025FD8DF83E00119806F08DFA02460B4646
:10170000CDE908010FA90AA806F056FCC6B209E007
:10171000119806F01DFA024679A109900AA806F070
:101720004BFCC6B207E00AA8805D764901EB0711C1
:101730004855681EC5B23000A6F10101CEB2F2D103
:10174000CEE02069B0F800A0504606F0DEF9079020
:10175000A16805F07EFF0890E16805F0D2FF0990CE
:1017600006F00FFA1FFA80FAA088C6B29EB10CE00C
:101770000AF00F00FFF7E2FC624901EB0711485540
:101780004FEA2A1A0DB1681EC5B23000A6F1010158
:10179000CEB2EDD115E030205A4901EB0711485582
:1017A0000CE008F00F00FFF7C9FC564901EB0711E8
:1017B00048554FEA2A1A0DB1681EC5B2BAF1000F9A
:1017C000EFD18DE02069D0F80080E06806F023FAC0
:1017D000CDE90601A06806F01EFACDE902014046F7
:1017E00006F0A9F9CDE90001DDE9022305F0FFFFCC
:1017F000CDE90401DDE9062306F09FF8CDE90801F3
:1018000006F0F2F98046A088C6B29EB10CE008F05E
:101810000F00FFF793FC3B4901EB071148554FEAD6
:1018200018180DB1681EC5B23000A6F10101CEB284
:10183000EDD115E03020334901EB071148550CE09C
:1018400008F00F00FFF77AFC2E4901EB071148550D
:101850004FEA18180DB1681EC5B2B8F1000FEFD1EC
:101860003EE02069D0F80090484605F0EAFEC6B296
:10187000E078012802D1681C801BC5B209E019F884
:10188000010B204901EB071148550F2D01DA681CA7
:10189000C5B23000A6F10101CEB2F0D120E020693E
:1018A00090F80080606950F82890484605F0C9FE1D
:1018B000C6B2E078012802D1681C801BC5B209E0DD
:1018C00019F8010B0F4901EB071148550F2D01DAEB
:1018D000681CC5B23000A6F10101CEB2F0D100BF44
:1018E00000BF15B0BDE8F08F10B50A480068046865
:1018F00094B920224021034805F090FE11E0000039
:10190000256400008019002025750000252E6E66D4
:1019100000000000C800002040222146FE4805F0DB
:101920006BFE10BD2DE9F041FC48006847680FB917
:10193000BDE8F08197F8008000241DE0002517E045
:10194000781C465D052E02DBF5A006F025FBC4F1F0
:101950000400B04205DCF04800EB041000F80580FC
:1019600004E02020EC4901EB04114855681CC5B285
:10197000102DE5DB601CC4B2042CDFDB00BFD7E711
:1019800010B5E6480068846803E02046FFF7A4FD30
:10199000A469002CF9D110BD10B5E0480068C468F6
:1019A00019E0DE4800680069A0420FD1E2480078E3
:1019B000401CC0B2E0490870082801D1002008701E
:1019C000DD480078042801DAA46904E02046FFF726
:1019D00083FDA46900BF002CE3D110BD70B50024C5
:1019E00023E00026002514E0D44800EB0410405DFD
:1019F000C94901EB0411495D884208D0C64800EB93
:101A00000410405DCD4901EB041148550126681CC6
:101A1000C5B2102DE8DB36B1C84800EB0411C84848
:101A2000C26A20469047601CC4B2042CD9DB70BD4A
:101A300010B50446B9480460FFF756FFFFF772FF80
:101A4000FFF79EFFFFF7A8FFFFF7C8FF10BD0021BB
:101A5000016041608160C1600161704700220A61DC
:101A60008A808A604FF07E52CA6000224A61826892
:101A70008A618160704700230B61CB610B624B620E
:101A80008B628B808B604FF07E53CB6000234B6169
:101A90008B61C3680BB9C1607047C26800E092698E
:101AA0009369002BFBD1916100BFF5E79B4800686B
:101AB000006930B999480068C068984909680861A8
:101AC0007047964800680069806994490968086110
:101AD00000BFF5E72DE9F14F8AB09048006804692E
:101AE00014B90BB0BDE8F08F276994F80280B8F103
:101AF0000A0F7DD2DFE808F04805571567AD586832
:101B0000EC472069B0F90060E06900B20990206AF2
:101B100000B20890606A00B20790A06A00B2069016
:101B20000AE020690668E0690990206A0890606A06
:101B30000790A06A069000BF0A9830B104280AD026
:101B4000302805D034280CD108E00798064408E076
:101B50000698064405E00798361A02E00698361AF9
:101B600000BF00BF0998864201DD099E03E0089886
:101B7000864200DA089EB8F1030F01D13E6001E011
:101B800030B23880A5E000BF20690578E06900F038
:101B9000FF0B206AC0B20590606A00F0FF09A06ADE
:101BA00000F0FF0A1BE000BF20690588E0691FFA0A
:101BB00080FB206A80B20590606A1FFA80F9A06AF3
:101BC0001FFA80FA0BE000BF20690568D4F81CB04A
:101BD000206A0590D4F82490D4F828A000BF0A9871
:101BE00038B1042809D0302805D0342813D10BE0AF
:101BF0006EE04D440FE055440DE04D4501D2002507
:101C000001E0A5EB090506E0554501D2002501E0FC
:101C1000A5EB0A0500BF00BF5D4501D95D4603E0A5
:101C20000598854200D2059DB8F10A0F0FD2DFE872
:101C300008F0060E080E0B0E090C0E0500BF3D70D5
:101C400005E000BF3D8002E000BF3D6000BF00BF77
:101C50003FE0206900680490E0690390206A0290E8
:101C6000606A0190A06A00900A9830B1042810D0F0
:101C7000302808D0342818D111E00199049805F0D3
:101C8000E8FC049011E00099049805F0E2FC04904F
:101C90000BE00199049805F02EFD049005E00099F1
:101CA000049805F028FD049000BF00BFDDE9031093
:101CB00005F0EEFF02D20398049006E00299049822
:101CC00005F0DCFF01D2029804900498386000E02F
:101CD00000BF00BF00BF04E7002006E020210E4A3D
:101CE0001154164A1154411CC8B24028F6DB15495C
:101CF000134AC2F88810144A1149C1F88C20134ABB
:101D0000C1F89020124AC1F89420124AC1F89820D4
:101D1000114AC1F89C20704780190020C80000209B
:101D20000A4153534552543A20636F6C756D6E20CF
:101D30003C20350A00000000C400002040190020AB
:101D40000C000020311A00085D1A0008771A0008FC
:101D50004F1A0008AD1A0008D51A000878B50246D7
:101D60000B46FF24FF2509E012F8010B80EA04016D
:101D70000B48405C80EA05040A48455C1800A3F162
:101D80000103F1D18DF801408DF80050BDF800003D
:101D900078BD10B500F0E3FF00F090FA10BD000030
:101DA000BC8A0008BC8B0008F8B506460C462146E4
:101DB0003046FFF7D3FF009035199DF8010005F874
:101DC000010B9DF800002870A41CFE482146426CBF
:101DD00030469047F8BD2DE9F8430746FA480078A9
:101DE000FA490870F84840784870F74800798DF84B
:101DF0000100F54840798DF80000BDF8000010F0B2
:101E0000070F06D0BDF80000012101EBE000C5B2CC
:101E100003E0BDF80000C0F3C705EC488570C61CA0
:101E2000002402E000203055641CAC42FADB0024A0
:101E300014E03819E64951F82000E6490968085CC1
:101E400001280AD106EBE400007804F00702012122
:101E50009140084306EBE4010870641CBDF80000E3
:101E60008442E6DBD9488078C01C00F0FF08414678
:101E7000D648FFF799FFBDE8F8832DE9F8430746F8
:101E8000D1480078D1490870CF4840784870CE4892
:101E900000798DF80100CC4840798DF80000BDF83C
:101EA000000010F0070F05D0BDF80000012101EB84
:101EB000E00502E0BDF80000C510C4498D70CE1CDD
:101EC000002402E000203055641CAC42FADB002400
:101ED00014E03819C04951F82000BE490968085C6F
:101EE00001280AD106EBE400007804F00702012182
:101EF0009140084306EBE4010870641CBDF8000043
:101F00008442E6DBB148807800F103084146AF48DF
:101F1000FFF74AFFBDE8F8832DE9FC410546AA48D2
:101F20000078AA490870A84840784870A648007907
:101F30008DF80500A44840798DF80400BDF8040030
:101F40004006000E8870CC1C002612E02846691C52
:101F50008DB2A24951F820009E490968085A0090A4
:101F60009DF8010004F8010B9DF8000004F8010B36
:101F7000761CBDF804008642E8DB94488078C71CD4
:101F800039469248FFF710FFBDE8FC812DE9FC417E
:101F900005468D4800788D4908708B484078487018
:101FA000894800798DF80500874840798DF804004C
:101FB000BDF804004006000E8870CC1C002612E01C
:101FC0002846691C8DB2864951F82000814909686C
:101FD000085A00909DF8010004F8010B9DF80000DC
:101FE00004F8010B761CBDF804008642E8DB774854
:101FF0008078C71C39467548FFF7D6FEBDE8FC81DE
:1020000038B50446704800798DF801006E48407973
:102010008DF80000BDF80000B0F57F4F07D101201A
:102020006B4951F824106B4A1268505406E00020A6
:10203000674951F82410674A126850546148426C4D
:10204000684801886048904738BDF8B505465E4845
:1020500000798DF801005C4840798DF800005A4EF7
:10206000B61D00240FE006EBE400007804F0070141
:10207000084100F001002919554A52F82110554A2B
:1020800012685054641CBDF800008442EBDB4F48DA
:102090004D490A680260898881800621FFF784FE25
:1020A000F8BD38B50446484800798DF80100464827
:1020B00040798DF80000BDF80000494951F824101E
:1020C000444A126850523F48426C464801883E4894
:1020D000904738BD7CB506463B4800798DF8050031
:1020E000394840798DF80400374CE41D002513E091
:1020F00014F8010B8DF8010014F8010B8DF80000A5
:10210000BDF800203046711C8EB2354951F82000D0
:10211000304909680A526D1CBDF804008542E7DBAE
:102120002A4829490A680260898881800621FFF7C8
:102130003BFE7CBD00202B4908802B4908802B49A1
:102140000870704727490988FF2902DD0021254AC8
:10215000118024490A880988491C224B19801A4990
:1021600088540021204A11800121204A11707047B3
:102170001CB515480078012802D0FFF7DBFF1CBD15
:1021800018480088042802DCFFF7D4FFF7E7154859
:102190000088811E0C48FFF7E1FD044611480088C5
:1021A000801E0949085C8DF801000E480088401E19
:1021B000085C8DF80000BDF80000844218D0FFF7DD
:1021C000B9FFDCE70C000020C01A0020C019002075
:1021D000CC000020B8000020E4000020F400002023
:1021E0000401002016010020180100201401002025
:1021F000394880788DF805003748C0788DF804009C
:102200003548407806282DD006DC06283CD2DFE889
:1022100000F03B10151F1A24162833D004DC0F28B9
:1022200025D0102830D127E017282AD02B282BD1F1
:1022300029E0BDF80400FFF7CEFD26E0BDF804005C
:10224000FFF71BFE21E0BDF80400FFF765FE1CE070
:10225000BDF80400FFF79AFE17E0BDF80400FFF791
:10226000CFFE12E0BDF80400FFF71BFF0DE0BDF844
:102270000400FFF7EAFE08E0BDF80400FFF72AFFBC
:1022800003E002E001E000E000BF00BFFFF752FF03
:1022900000BF74E710B51148007801280DD110482F
:1022A0000088401C0E49088008460088022804DD8A
:1022B00000200A490870FFF75BFF10BD10B5FFF75B
:1022C00039FF08480849C26E002090470548016C54
:1022D0000648884710BD0000C01A002014010020E5
:1022E000180100200C00002095220008452100085C
:1022F0000420F849088006204880042088800220B5
:10230000C8800020F4490880488008460088F349C6
:102310000880F148408848800120F1490870002079
:1023200048804870EF480068A830486001F10C0010
:102330008860012008730121E948C18100214173AF
:10234000E8480068A930E649086101F118004861D1
:10235000012008760221E248418300214176E148CC
:102360000068AA30DE49C86101F12400086201203A
:1023700081F824000321DA48C184002180F8251067
:10238000D8480068AB30D64988620021D448C16281
:102390000120D5490870002048804870D148006865
:1023A000BC30486001F10C008860012008730121F5
:1023B000CD48C1814173CB480068BD30CA4908612E
:1023C00001F118004861012008760221C6484183C6
:1023D00001214176C3480068BE30C349C86101F19C
:1023E00024000862012081F824000321BE48C18432
:1023F000002180F82510BB480068BF30BA498862C8
:1024000001F13000C862012081F830000421B64893
:102410004186002180F83110B2480068C030B249CE
:10242000486301F13C008863012081F83C000521EC
:10243000AD48C187002180F83D10AA480068C1302E
:10244000A94908640021A84841640120A7490870EF
:10245000002088804880A3480068DC30886001F153
:102460001000C860012008740121A0488182002169
:1024700041829C480068DE309C49886101F120005F
:10248000C861012081F82000022198488184002140
:10249000418494480068E0309449886201F130003A
:1024A000C862012081F83000032190488186002114
:1024B00041868C480068E2308C49886300218B4853
:1024C000C16301208A49087000208880012048806B
:1024D00084480068F430886001F11000C860012071
:1024E000087401218248818241827E480068F6306A
:1024F0007F49886100217E48C16170471CB5012079
:1025000001907548408800EB4000754901EB80045C
:1025100020787849087002204870E0788870A078A8
:10252000C87005E0A468BDF80400401C80B20190AA
:10253000A0680028F6D19DF805006E4908719DF845
:102540000400487106216B48FFF708FC00909DF8D5
:102550000100684988719DF80000C871664808212B
:10256000C26C644890475C4800885C4908805A48BF
:102570004088488058484088BDF8041008445649AF
:1025800048800846408853490988884204DB012076
:1025900051490880002048801CBD2DE9FC410024E1
:1025A0000026002001904C48408800EB40004E4936
:1025B00001EB800528784F490870E8788870A87882
:1025C000C87052E0686807786878B84241D0012C3A
:1025D00000D14CE07CB905242FB1FF20454908719A
:1025E0000120887103E000204249087188710020B1
:1025F0004049487133E00F24AFB1BDF80400062113
:1026000001EBE0003B49085CBDF8041001F0070253
:10261000012191400843BDF80410062202EBE101BC
:10262000344A50541BE0BDF80400062101EBE000E1
:102630003049085CBDF8041001F007020121914007
:102640008843BDF80410062202EBE101294A5054E8
:1026500005E00CB1012C01D1012400E007E0AD68D8
:10266000BDF80400401C80B20190002DAAD100BF2B
:1026700020484470012C18D19DF805001D490871AF
:102680009DF80400487106211A48FFF767FB009087
:102690009DF80100174988719DF80000C87116481F
:1026A0000821C26C1348904754E0052C26D106211E
:1026B0001048FFF753FB00909DF801000D49887109
:1026C0009DF80000C8710C480821C26C0948904769
:1026D00040E000001C01002024010020280100200F
:1026E000C01B0020B8000020F01B0020381C002078
:1026F000781C0020981C00200C0000200F2C29D1F1
:102700009DF80500FE4908719DF804004871BDF868
:10271000040010F0070F06D0BDF80400012101EB02
:10272000E000C6B203E0BDF80400C0F3C706B11D67
:10273000F348FFF713FB00909DF80110B01DF04A1D
:1027400011549DF80010F01D1154411CED48C26C4D
:10275000EB489047EC480088EC490880EA484088FC
:102760004880BDF80400EA490880E7484088BDF881
:1027700004100844E449488008464088E5494988EF
:10278000884204DB0220E049088000204880BDE840
:10279000FC8138B50025DC484088DF4901EB001496
:1027A0002078D749087004204870607988702079B3
:1027B000C87002E0E468681CC5B2002CFAD10020A1
:1027C000CF490871084645710621FFF7C7FA009006
:1027D0009DF80100CA4988719DF80000C871C94878
:1027E0000821C26CC6489047C7480088C74908807E
:1027F000C54840884880C44840882844C249488029
:1028000008464088C3498988884204DB0320BE49C2
:1028100008800020488038BD2DE9FC4100240027B5
:102820000025B9484088BD4901EB00163078B4490D
:102830000870707988703079C87030E0B0680088AE
:1028400000907088BDF8001088421DD0032C00D184
:1028500027E074B906249DF80100A94908719DF884
:10286000000048719DF80100C8719DF800000872D1
:1028700010E010249DF80110E81DA14A11549DF8A4
:102880000010401C115405E00CB1032C01D10324AD
:1028900000E006E0F668781CC7B27806050E002E48
:1028A000CCD100BF96484470032C15D10020944928
:1028B0000871084647710621FFF750FA01909DF80C
:1028C00005008F4988719DF80400C8718D48082162
:1028D000C26C8B4890472DE0062C11D10621884808
:1028E000FFF73CFA01909DF80500854988719DF835
:1028F0000400C87183480821C26C8148904719E0E0
:10290000102C17D100207E49087108464771857147
:10291000E91DFFF723FA01909DF80510E81D784A9C
:1029200011549DF80410401C1154411C7548C26C90
:1029300073489047744800887449088072484088FA
:102940004880734807807048408838446E49488002
:10295000084640886F49C988884203DB00206A49DD
:1029600008804880BDE8FC8110B5002411E066486D
:102970000088684931F8100050B963480088401C4D
:102980006149088008460088042801D10020088099
:10299000641C042CEBDB5C48008830B101280AD0B1
:1029A00002280ED0032818D111E05A48008808B137
:1029B000FFF7A4FD11E05748408808B1FFF7EDFD8F
:1029C0000BE05448808808B1FFF7E3FE05E051486A
:1029D000C08808B1FFF720FF00BF00BF10BD30B5B1
:1029E00003220023494C248804B130BD474C64883D
:1029F00004EB44044A4D05EB84000EE0494CA45C12
:102A00001C4104F001015C1C2346082C01D1002369
:102A1000521C41704468217080680028EED100BFCC
:102A2000E3E770B503220023384C2488012C00D042
:102A300070BD364C648804EB44043B4D05EB8400C8
:102A400013E0447845682D78AC4207D1354CA45C3E
:102A50001C4104F001014170446821705C1C234654
:102A6000082C01D10023521C8068294C2588248819
:102A7000641E274E3480002DE3D100BFD8E708B58F
:102A80000321224A1288022A00D008BD1F4A528818
:102A9000214B03EB021012E00A46491C214B9A5CC1
:102AA0008DF801200A46491C9A5C8DF80020BDF87B
:102AB00000204280BDF8002083681A80C06800288A
:102AC000EAD100BFE1E718B50321104A1288032AB2
:102AD00000D018BD0D4A5288104B03EB02102EE0B7
:102AE000428883681B789A4227D10E4A525C8DF83F
:102AF00001200C4B4A1C9A5C8DF8002016E0000067
:102B0000981C00200C000020240100202801002037
:102B10002C0100201C010020381C0020781C002003
:102B2000C01B0020981D0020F01B0020BDF80020D5
:102B30004280BDF8002083681A80891CC0688F4AD3
:102B400013881288521E8D4C2280002BC8D100BFE2
:102B5000BFE78B490988012900D070478849498817
:102B600001EB4101874A02EB81004168097841701D
:102B700000BFF2E782490988012900D070478049E7
:102B8000498801EB41017F4A02EB810003E0416883
:102B900009784170806879490A880988491E774B0D
:102BA0001980002AF3D100BFE8E775490988032995
:102BB00000D0704772494988734A02EB011081685E
:102BC0000988418000BFF4E76D490988032900D0D6
:102BD00070476B4949886C4A02EB011003E0816839
:102BE00009884180C06865490A880988491E634B85
:102BF0001980002AF3D100BFEAE70020634908806A
:102C00006349088063490870704760490988FF2953
:102C100002DD00215D4A11805C490A880988491C4F
:102C20005A4B19805C4988540021594A118001216E
:102C3000584A1170704738B554480088042802DC9F
:102C4000FFF7DBFF38BD55480078534909788842C3
:102C500005D15248407850494978884202D0FFF760
:102C6000CCFFEFE749480088811E4B48FFF776F814
:102C7000044646480088801E4749085C8DF80100DC
:102C800042480088401E085C8DF80000BDF8000036
:102C9000844202D0FFF7B1FFD4E73F4840780628CE
:102CA00026D006DC06282CD2DFE800F02B13101902
:102CB000161C162823D004DC0F2816D0102820D18B
:102CC00019E017281AD02B281BD119E0FFF787FE2F
:102CD00018E0FFF7A6FE15E0FFF7D1FE12E0FFF7C0
:102CE000F2FE0FE0FFF735FF0CE0FFF743FF09E0CE
:102CF000FFF75BFF06E0FFF767FF03E002E001E09C
:102D000000E000BF00BFFFF778FF00BF9AE710B5F3
:102D100023480088401C80B221490880642803D1E0
:102D200000200880FFF720FE1A480078012815D1FE
:102D300017480088401C1649088008460088022869
:102D40000CDD0020134908701648C26B0F4801883B
:102D500011489047FFF76FFFFFF74FFF10BD10B509
:102D6000FFF74BFFFFF7C4FA0E480F49C26E002071
:102D700090470C48816C0D48884710BD2C010020FD
:102D800028010020F01B0020781C002030010020CA
:102D9000320100202E010020981D0020981C0020E8
:102DA0001A0100200C0000200F2D00080B2C000839
:102DB00010B5002807DA0A07140E1A4A00F00F03AC
:102DC0001B1FD45403E00A07130E174A135410BDF7
:102DD00010B501F082FC01F016FD01F0F1FD00F0EC
:102DE000BCF800F0B5F900F0CAFB00F0E0FF00F01D
:102DF0001DFD00F019FE01F074F801F033FA01F046
:102E000094FE01F056FB4FF4A06002F0ADF90E21E4
:102E10004FF0FF30FFF7CCFF0F216FF00100FFF7FD
:102E2000C7FF10BD18ED00E000E400E0002004E062
:102E30009E499F4A42F82010401C0528F8DB704745
:102E40009B4A42F8201070479A499B480068C0F896
:102E50009810881C98490968C1F89C00801C964904
:102E60000968C1F8A000801C93490968C1F8A40052
:102E700070472DE9F04F89B04FF000084FE04FF058
:102E80000009CA4609E00AEB8A008C4901EB4000C0
:102E900030F8180081440AF1010ABAF1080FF2DB98
:102EA0004FEAD909B8F1040F08DA824921F81890DD
:102EB0007F4951F82810A1F800902EE0484604F010
:102EC00024FE83464FF08B41584604F050FC01909D
:102ED00004F0A1FE4FF06632794BCDE9020104F017
:102EE0002CFD0446774A784B04F024FD774A784B52
:102EF000CDE9040104F091FD0022764BCDE90601F5
:102F000004F075FC064604F09CFE8346584604F027
:102F100038FE674951F82810088008F10108B8F117
:102F2000050FACDB6348008863490968A1F890008D
:102F30006048418860480068A0F892105D48818828
:102F40005D480068A0F894105A48C1885A48006843
:102F5000A0F8961009B0BDE8F08F00B591B001213E
:102F60004FF4017002F082FC6020ADF840000020B8
:102F70008DF8430010A9584802F0C4F901214FF41C
:102F8000047002F073FC3020ADF8400000208DF892
:102F9000430010A9514802F0B5F94FF4004002F087
:102FA000CCFB4F4802F0A6FF00200B9001208DF8CB
:102FB00030008DF831004FF460200D9000200E900D
:102FC00005208DF83C000BA9454802F0BAFF01230B
:102FD0001A460521424803F04CF80123022206213B
:102FE0003F4803F046F8012303220E213C4803F03A
:102FF00040F8012304220F21394803F03AF8042352
:1030000005221021364803F034F8012003F04DF971
:103010000121334802F0CCFF0121314802F0BDFF0D
:103020002F4802F0DCFF00BF2D4802F0DDFF002832
:10303000FAD12B4802F0E2FF00BF294802F0E3FF7B
:103040000028FAD10121084602F003FC254803F0CC
:103050006FF923484C3000901848019000200290EE
:1030600028200390002004908020059040000690C6
:1030700080000790202008900002099000200A900C
:103080006946184803F0F6F90121154802F0C5FF1A
:103090000121144803F019FAFFF7C8FEFFF7D4FE28
:1030A00011481249486011B000BD00003C010020E9
:1030B000E81E002034010020B8000020981E0020E7
:1030C00066660A40E17A14AE47E1F63F22FDF675E6
:1030D000E09C713F000039400008014000100140B1
:1030E0000024014008000240412E00080C0000208E
:1030F0002249234800680166091D2148006841668D
:10310000091D1F4800688166091D1D480068C166C9
:1031100070471A4800681A49096881F85C00194824
:10312000D0F80401C1B21648006880F85D10154857
:10313000D0F80801C1B21248006880F85E1011484A
:10314000D0F80C01C1B20E48006880F85F107047DB
:1031500008B50121102002F089FB0F20ADF8000016
:1031600004208DF8030003208DF80200694606480C
:1031700002F0C8F8FFF7BCFF08BD000000012242C2
:10318000B8000020000022420010014038B504467B
:103190000121042002F06AFB0121082002F066FBF5
:1031A000DCB98020ADF8000010208DF8030003206A
:1031B0008DF802006946FB4802F0A4F84EF20300C5
:1031C000ADF8000010208DF8030003208DF80200F8
:1031D0006946F54802F096F823E0012140F6010027
:1031E00002F044FB0121022002F04DFB8020ADF8EB
:1031F000000018208DF8030003208DF802006946B6
:10320000E84802F07FF84EF20300ADF80000182005
:103210008DF8030003208DF802006946E24802F0B1
:1032200071F838BDE149E24800688167E149E0484A
:103230000068C167091DDE480068C0F88010DD49DC
:103240003431DB480068C0F88410091DD848006894
:10325000C0F88810091DD6480068C0F88C10704767
:10326000D348006890F87000D0490860D0480068E2
:1032700090F87100D049C1F88001CD48006890F8FD
:103280007200C1F88401CA48006890F87300C1F860
:10329000B401C748006890F87400C1F8B801C44888
:1032A000006890F87500C1F8BC01704710B504467D
:1032B000062C28D2DFE804F003090F151B21012298
:1032C0000421BE4803F057FF1EE001220821BB483D
:1032D00003F051FF18E001220C21B84803F04BFF26
:1032E00012E004220021B64803F056FF0CE004224D
:1032F0001146B34803F050FF06E004220821B0480D
:1033000003F04AFF00E000BF00BF10BD10B5044647
:10331000062C28D2DFE804F003090F151B21002238
:103320000421A64803F027FF1EE000220821A3483D
:1033300003F021FF18E000220C21A04803F01BFF3E
:1033400012E0002211469E4803F026FF0CE0002206
:1033500004219B4803F020FF06E000220821984842
:1033600003F01AFF00E000BF00BF10BD70B50546B6
:103370000C46062D22D2DFE805F003080D12171CBB
:10338000A1B28E4803F090FF19E0A1B28B4803F080
:103390008DFF14E0A1B2894803F08AFF0FE0A1B2CB
:1033A000874803F07FFF0AE0A1B2854803F07CFF65
:1033B00005E0A1B2824803F079FF00E000BF00BF42
:1033C00070BDF0B587B004460F4615461E46781E00
:1033D00080B2ADF81000681E80B2ADF81400002075
:1033E000ADF81600ADF812008DF818006020ADF8A9
:1033F0000000B0B2ADF80600062C77D2DFE804F08A
:10340000031E3954779904A96C4803F08DF9012003
:10341000ADF802000020ADF808006946674803F0E7
:1034200002FA0821654803F0F0FD0121634803F02A
:10343000B3FD0121614803F0A7FC9DE004A95F48AA
:1034400003F072F90120ADF802000020ADF8080089
:1034500069465A4803F030FA0821584803F0E0FD65
:103460000121564803F098FD0121544803F08CFCDB
:1034700082E004A9514803F057F90120ADF8020099
:103480000020ADF8080069464C4803F05CFA0821BA
:103490004A4803F0CEFD0121484803F07DFD01219B
:1034A000464803F071FC67E004A9454803F03CF985
:1034B0000020ADF802000420ADF804000020ADF8B3
:1034C0000A0069463E4803F06CF908213C4803F0C5
:1034D00093FD01213A4803F05FFD0121384803F0D4
:1034E00053FC0121364803F05BFC45E043E004A9AE
:1034F000334803F019F90020ADF802000420ADF8BC
:1035000004000020ADF80A0069462D4803F08BF94D
:1035100008212B4803F079FD0121294803F03CFDE7
:103520000121274803F030FC0121254803F038FC35
:1035300022E004A9224803F0F7F80020ADF80200C9
:103540000420ADF804000020ADF80A0069461C48CC
:1035500003F0B2F908211A4803F062FD012118486E
:1035600003F01AFD0121164803F00EFC0121144856
:1035700003F016FC00E000BF00BF07B0F0BD10B5BF
:10358000FFF750FE0F491048416110498161104911
:10359000C16110494162104901620020FFF7F6FD48
:1035A00010BD000000080140000C01409C012142B8
:1035B000B8000020808121420080214200040040A8
:1035C000002C01408D3100080C000020AD320008B5
:1035D0000D3300086D330008C33300080146F72996
:1035E0001ED008DC7F2913D0BF290FD0DF290BD0D4
:1035F000EF2917D106E0FB2910D0FD290CD0FE29B8
:1036000010D107E0002070470120FCE70220FAE714
:103610000320F8E70420F6E70520F4E70620F2E7A8
:103620000720F0E7FF20EEE70146F7291ED008DC6F
:103630007F2913D0BF290FD0DF290BD0EF2917D155
:1036400006E0FB2910D0FD290CD0FE2910D107E09F
:10365000302070473120FCE73220FAE73320F8E7CA
:103660003420F6E73520F4E73620F2E73720F0E79C
:10367000FF20EEE710B5FF249348006808B904F076
:103680007F049248006808B904F0BF0490480068BD
:1036900008B904F0DF048F48006808B904F0EF04AB
:1036A00000208D4908604FF001008C49C1F890015D
:1036B000FDF72DFD8448006808B904F0F70483483D
:1036C000006808B904F0FB048148006808B904F0F8
:1036D000FD048048006808B904F0FE040020804919
:1036E00008604FF001007D49C1F89401204610BDEB
:1036F00070B57C480078012802D100207A49086022
:1037000078480078002804DD76480078401E754926
:103710000870FFF7AFFF0546FF2D24D073480078EF
:10372000401C724908700020714908706F48007889
:10373000012802D16F48057076E06C4800780228B5
:1037400002D16C4845706FE068480078032802D1C8
:103750006848857068E065480078282864DD28207E
:103760006249087060E062480078401C6049087057
:1037700008460078042857DB042008705E4800786B
:1037800040B15D480078401E5B49087000205749F1
:10379000087070BD55480078042800DAF9E75548EC
:1037A000007854494978884202D15248047815E09B
:1037B000504800784F498978884202D14D480478B2
:1037C0000CE04C4840784B498978884202D14948FE
:1037D000447803E0002045490870DAE74348007860
:1037E000282804D12046FFF71FFF044609E03F4880
:1037F0000078042804DB2046FFF7F0FE044600E0D2
:10380000FF24FF2C0CD021460120FDF7A5FC012050
:10381000354908604FF01400324908703649087085
:103820004FF000003149087000BFB2E708B5012130
:103830003D2002F01BF80121304801F032FE00204B
:10384000274908604FF001002449C1F894014FF066
:103850003000ADF800004FF014008DF803004FF079
:1038600002008DF802006946254801F04BFD4FF437
:10387000E050ADF8000002208DF8020048208DF8DD
:10388000030069461F4801F03DFD0420ADF800002B
:1038900048208DF8030002208DF8020069461A487E
:1038A00001F030FD0020104908604FF01000ADF825
:1038B00000008DF803004FF002008DF80200694609
:1038C000124801F01FFD08BD08812242300122424A
:1038D0002C0122422801224294812142008021426F
:1038E0009081214241010020900121423E010020AF
:1038F0003F01002042010020400100200004300070
:10390000000C01400010014000140140000801407B
:1039100070B5044604F0F0004FF4780141EA00204D
:1039200004F00F0140EA01160020754908604FF0CD
:1039300001007449C1F8A4014FF017051FE026FAF1
:1039400005F010F0010F03D001206F49086002E07C
:1039500000206D4908604FF00A00FDF7D8FB0120F8
:10396000674908604FF00A00FDF7D1FB0020654968
:10397000C1F89C010A20FDF7CAFB681E05B2002DA4
:10398000DDDA00206149086070BD70B5044604F0BE
:10399000F0004FF47A0141EA002004F00F0140EA00
:1039A00001160020564908604FF001005549C1F842
:1039B000A4014FF017051FE026FA05F010F0010FE3
:1039C00003D001205049086002E000204E49086001
:1039D0004FF00A00FDF79BFB0120494908604FF0BA
:1039E0000A00FDF794FB00204649C1F89C010A201B
:1039F000FDF78DFB681E05B2002DDDDA002043497E
:103A0000086070BD70B505460C464149485DFFF73A
:103A10007FFF002605E014F8010BFFF7B6FF701CCE
:103A2000C6B2102EF7DB70BD08B50121102001F0E1
:103A30001DFF0020324908604FF40070ADF800000F
:103A40004FF010008DF803004FF002008DF80200D7
:103A50006946304801F056FC00202A49C1F8A4010B
:103A60004FF48070ADF8000010208DF803000220A4
:103A70008DF802006946274801F044FC00202249E5
:103A800008604FF08000ADF800004FF010008DF896
:103A900003004FF002008DF8020069461D4801F056
:103AA00031FC00201749C1F898014020ADF8000012
:103AB00010208DF8030002208DF802006946154899
:103AC00001F020FC6420FDF72DFB01201249086065
:103AD0004FF03000FFF71CFF0C20FFF719FF01200B
:103AE000FFF716FF0220FFF713FF8020FFF710FFFC
:103AF0000120FFF70DFF09490948C16208BD000018
:103B00009C01224200002242A0012242A401224242
:103B1000BC8C00080010014098012242053A0008C0
:103B20000C0000202DE9F047B8480068C08FA0F2D3
:103B3000DD784FEA980040F2B551484308F00301A0
:103B400040F26D1201FB0207B048006890F83D009A
:103B5000A0F10109AD490968C88FC11700EB917147
:103B60008910B0EB810108D1002403E0A848005D72
:103B70000744641C4C45F9D307E0002403E0A54842
:103B8000005D0744641C4C45F9D3A048006890F8D8
:103B90003B003844471EA04878439C49096891F887
:103BA0003A10C1EB4112C2EB012100EB0111974821
:103BB000006890F83900C0EB001001EB80009349D9
:103BC000096891F83810451803F02AFC064606F1FA
:103BD0000A00854203D805F10A00B04209D201204B
:103BE00003F0AFFC03F058FC284603F022FC03F07E
:103BF00053FCBDE8F0872DE9F04140F2DD78002567
:103C000003F00EFC06468448B6FBF0F4A01C072126
:103C1000B0FBF1F201FB12017C48006880F83C1017
:103C200040F2B550B4FBF0F100FB1147B4FBF0F0EB
:103C300008EB800040F26D11B7FBF1F1084481B24E
:103C400072480068C187B7F5896F0BD3A7F2474464
:103C500003E06F48405D241A6D1C6D48405DA04232
:103C6000F7D30EE040F26D10B7FBF0F100FB1174DA
:103C700003E06848405D241A6D1C6648405DA04220
:103C8000F7D3681CC1B26148006880F83D10601C21
:103C9000C1B25E48006880F83B105F48B6FBF0F1A7
:103CA00000FB11664FF46160B6FBF0F0C1B25748FB
:103CB000006880F83A104FF46160B6FBF0F100FB49
:103CC00011603C21B0FBF1F0C1B25048006880F8AF
:103CD00039104FF46160B6FBF0F100FB11603C213C
:103CE000B0FBF1F201FB12004849096881F8380085
:103CF000BDE8F08110B5002401214FF0C05001F063
:103D0000C2FD012003F01DFC03F012FB012001F0B5
:103D10001DFD05E0601C04464049884200D104E0D6
:103D2000412001F07EFC0028F4D000BF3B488442D3
:103D300004DA4FF4807001F022FD0CE0012001F064
:103D40001BFD00BF612001F06CFC0028FAD04FF48D
:103D5000007001F014FD012001F017FD03F0A4FB39
:103D600003F09AFB2D48844204DA47F6FF7003F013
:103D70006DFB03E049F63F4003F068FB03F08CFB6A
:103D80000121084603F02AFB03F086FB10BD10B5A5
:103D900023480078401CC0B221490870642805D12E
:103DA00000200870FFF7BEFEFFF725FF10BD10B51D
:103DB000042003F0ECFAA0F59051343907D0FFF756
:103DC00099FF41F23421042003F0DBFA1BE00121CA
:103DD0004FF0C05001F057FD012003F0B2FB41202D
:103DE00001F01FFC28B9612001F01BFC08B9FFF7A6
:103DF00081FF03F059FB03F04FFB0121084603F05C
:103E0000EDFA03F049FBFFF7F6FE10BDB800002005
:103E1000CC8C0008C08C00088051010080841E00FA
:103E20004501002070B500243148006800B970BD1C
:103E30002F4805682AE005F00100012824D12D480B
:103E400050F83400401E2B4941F834001CD10120A9
:103E5000A040274909688143254801602648006839
:103E6000E04010F0010F0AD0224800EBC400406887
:103E7000224A1268811A0220FDF76EF904E01D49FA
:103E800001EBC401486880476D08641C002DD2D145
:103E900000BFCCE730B5174C44F8302004EBC00429
:103EA000636039B101248440134D2D682C43124DB9
:103EB0002C6006E0012484400F4D2D68A5430E4C74
:103EC0002560012484400A4D2D682C43084D2C6048
:103ED00030BD01218140064A12688A4304490A60C4
:103EE0007047074907480165074941657047000069
:103EF00048010020FC1E00204C010020B0000020E2
:103F0000953E00080C000020D33E000810B501F0DB
:103F100034FD352001F0CAFF10BD10B501F039FDA8
:103F200010BD70B5ADF5027D002416E0D5480068DF
:103F300050F83400401C0ED0D248006850F83400CD
:103F40004DF82400CF48006800EBC40040685DF8DD
:103F50002410086000E002E0641C802CE6DB00BF57
:103F6000C9494C808020888008464088022803DAAE
:103F70000846408808804EE00026002413E0651CB7
:103F80000BE05DF824005DF82510884204D1002084
:103F90004DF82400012604E06D1CBB484088A8426F
:103FA000EFDC00BF641CB8484088401EA042E6DC3D
:103FB00026B9B5484088B44908802CE0FFF7A6FF31
:103FC000B24801F020FD002500241CE05DF824002B
:103FD00000B917E05DF8240080905DF824000068C7
:103FE0008190A84A8099126802EBC50001F0DBFDC0
:103FF000A44A8199126802EBC502101D01F0D3FD9D
:104000006D1C00BF641CA0484088A042DEDCFFF7A6
:1040100084FF9D490D809C4800889B49C8809CA0D6
:1040200003F0BAFF984881889AA003F0B5FF96483C
:1040300041889EA003F0B0FF93480188A1A003F03F
:10404000ABFF9148C188A4A003F0A6FF0DF5027D47
:1040500070BD70B5044625460CB9002070BD8A4875
:10406000C08889498988884201D10020F6E7FFF796
:104070004DFF8549C988834A126802EBC100294671
:1040800001F091FD804AD2887E4B29681B6803EBC2
:10409000C202101D01F087FDFFF73FFF7A48C0887C
:1040A000401C7949C8800120D8E770B54FF44060C2
:1040B0008E4948818E4808600846006848600020A4
:1040C00008818B4D002409E02878FF2804D1874817
:1040D000456001460C8104E06D1C641CB4F5406F22
:1040E000F2DB00BF83A003F057FF8048418982A024
:1040F00003F052FF7D48018985A003F04DFF7B4806
:10410000016889A003F048FF784841688BA003F05C
:1041100043FF78A003F040FF70BD10B5FFF7F6FE37
:10412000002405E0724901EB842001F06CFC641C62
:10413000032CF7DBFFF7F1FE6D486C49086048601F
:104140000020088110BD10B5024669490878FF2893
:1041500001D17FA010BD1AB96548644C2060F9E711
:10416000501C18D161480368016800BF11F8014B69
:10417000002CFBDC087800B9491C0878FF2802D025
:104180004248814203D95A48584C206001E05748C0
:1041900001601846DEE7002A1DDD0EE00878FF28E2
:1041A00001D16BA0D6E700BF08780028FCDC491CD1
:1041B00000BF08780028FCD0491C1000A2F10102C1
:1041C000ECD10878FF2802D03048814201D960A0A4
:1041D000C0E70846BEE760A0BCE70FB4F0B59BB0EF
:1041E00001AE002503E0002026F8020B6D1C322DE5
:1041F000F9DB21A81A9001A81A9A209903F0F0FE81
:10420000044600201A901CB91BB0F0BC5DF814FBEA
:10421000641C14F0010F00D0641C34480089204451
:10422000B0F5406F01DB0020EEE7671001AEFFF74D
:104230006DFE00250BE031882C4A506801F0E3FC4C
:104240002A484068801C29494860B61C6D1CBD4244
:10425000F1DBFFF762FE25480089204423490881ED
:104260000120D1E710B5FFF75CFE3F493F48C1652B
:10427000FFF71BFF3E493D4801663E4941663E4906
:10428000816610BD500100205401002000FC000890
:104290000A0A0A000AB2CECAFDD7DCB4E6B4A2BF4D
:1042A000D5BCE4203D202564000000000AB2CECA3F
:1042B000FDD2D1B4E6B4A2BFD5BCE420203D202578
:1042C000640000000AB2CECAFDB4E6B4A2B8F6CAD1
:1042D000FD203D20256400000AB2CECAFDD0B4C83E
:1042E000EBB5E3203D202564000000003C1F0020CA
:1042F00000F000080A0A00000AC8D5D6BED7DCB410
:10430000E6B4A2BFD5BCE4203D2025640000000037
:104310000AC8D5D6BED2D1B4E6B4A2BFD5BCE4207B
:10432000203D2025640000000AC8D5D6BEB6C1C80D
:10433000A1B5E3203D202578000000000AC8D5D6AD
:10434000BED0B4C8EBB5E3203D20257800000000C6
:104350004E756C6C0A000000417267756D656E7475
:104360004572726F720A0000534000080C00002072
:104370001B41000847410008DB41000810B5024618
:104380002AB3012A12D0022A32D1604800780A28C2
:1043900001D1002010BD5D4803780078401C5B4CC3
:1043A00020705B4840F823100120F3E7594800785B
:1043B000042801D10020EDE7564803780078401C1E
:1043C000544C2070544840F823100120E2E7534831
:1043D0000078022801D10020DCE7504803780078FB
:1043E000401C4E4C20704E4840F823100120D1E76D
:1043F0000020CFE710B54B480078401CC0B24949B7
:104400000870642801D10020087045490868804779
:10441000434948688047FEF72CFDFEF77AFEFEF719
:104420001FFF404800780A2190FBF1F0C4B23D48DC
:10443000007890FBF1F201FB12000A2837D2DFE886
:1044400000F005090D11151A22252829324908689E
:1044500080472CE030494868804728E02E4988682A
:10446000804724E02C49C868804720E0284951F85B
:10447000240080471BE02C480068406B401C2A4900
:104480000968486313E000F0C3F810E0FFF7CAFCC6
:104490000DE00CE014B1012C06D102E0FFF777FC2F
:1044A00003E0FFF725F900E000BF00BF00BF00BF39
:1044B00010BD30B51D48006842F21072B0FBF2F139
:1044C000B1F1807F00D31DE021F07F40401E4FF00E
:1044D000E022506150170F22002807DA13071D0E43
:1044E000134B00F00F04241F1D5503E013071C0E8F
:1044F000104B1C5400BF00204FF0E02290610720B9
:10450000106100BF0C490D48C16630BD9C01002000
:10451000740100209D010020640100209E01002004
:104520005C0100209F010020B8000020A8010020AD
:1045300018ED00E000E400E07D4300080C000020DE
:1045400092489349086000F2E730486008460068E6
:10455000886008460068C8600020088270470146ED
:104560008B48008AB0F57A7F01DB002070478848CD
:104570008068017086488068401C854A90601046BB
:1045800080685268904203D981480068804A9060F0
:1045900072B680480088401C7E4A10807C48008AA1
:1045A000401C7B4A10827B480088401E0004000C9F
:1045B000784A108000D162B60120D7E770B5044672
:1045C0000D464DB103E014F8010BFFF7C8FF2800BA
:1045D000A5F10105F7D10DE009E020780A2802D104
:1045E0000D20FFF7BCFF14F8010BFFF7B8FF207890
:1045F0000028F2D170BD70B504460D460A2C02D1D8
:104600000D20FFF7ACFFE0B2FFF7A9FF204670BD19
:104610005F48008A00B970475F48008810F0400F7B
:1046200000D1F8E75A48C06800785B49091D088046
:104630005748C068401C5649C8600846C068496869
:10464000884203D9524800685149C86072B651483F
:104650000088401C4F4908804D48008A401E4C4944
:1046600008824C480088401E0004000C494908801C
:1046700000D162B600BFCEE710B540F225514648E2
:1046800000F02FFD38B1444800F0ABFCC4B2214625
:104690000120FCF761FD08213F4800F00CFD0128D6
:1046A00002D13D4800F09DFC10BD10B5012240F242
:1046B0002551394800F02DFC0121374800F01DFC40
:1046C00010BD10B5002240F22551334800F021FC06
:1046D0000021314800F011FC10BD00B587B0012168
:1046E00044F2050001F0C2F84FF40070ADF8180074
:1046F00003208DF81A0018208DF81B0006A9274802
:1047000000F000FE4FF48060ADF8180048208DF8EE
:104710001B0006A9214800F0F5FD25208DF80400B6
:1047200003208DF8050002208DF8060001208DF889
:10473000070001A800F01DFD4FF4E13002900020B9
:10474000ADF80C00ADF80E00ADF81000ADF8140097
:104750000C20ADF8120002A90F4800F042FB012224
:1047600040F225510C4800F0D4FB01210A4800F02A
:10477000C4FBFFF7E5FE0A490A4801630A494163A1
:104780000A4981630A49C16307B000BD5C1F00206C
:10479000481F0020080000200038014000080140A8
:1047A000AB4600080C000020C34600085F45000827
:1047B000BD45000850490860704770B54F480588EE
:1047C00015F0200F06D000F00CFCC4B220464A4978
:1047D0000968884715F0080F02D0484800F001FC2E
:1047E00070BD70B505460C460021454801F06DFED0
:1047F000444805604448C0F884404FF001014048F7
:1048000001F063FE70BD00B591B00121052001F0FB
:104810002DF80121480401F036F80420ADF84000DD
:1048200003208DF8420018208DF8430010A9374866
:1048300000F068FD0820ADF8400048208DF84300E6
:1048400010A9324800F05EFD26208DF82C000320D0
:104850008DF82D008DF82E0001208DF82F000BA86B
:1048600000F087FC0121084600F0F3FF244801F026
:104870005FFD2248001D0090002001901020029052
:1048800008200390002004908020059000200690CE
:10489000079008904FF40050099000200A90694654
:1048A000174801F0E7FD4FF4E1300C900020ADF81F
:1048B0003400ADF83600ADF83800ADF83C000C20FF
:1048C000ADF83A000CA90D4800F08BFA012240F235
:1048D00025510A4800F01DFB01228021074800F005
:1048E0003DFB0121054800F008FB09490948016426
:1048F0000949416411B000BDA001002000440040FE
:10490000800002408C00024000000240000801408C
:10491000B54700080C000020E3470008794908600B
:10492000704770B57848048814F0400F08D0002014
:1049300076490860024640F22661734800F0E9FAC1
:1049400014F0200F07D0704800F04BFBC5B228468A
:104950006C490968884714F0080F02D06A4800F0D3
:1049600040FB70BD70B505460C46012067490860E4
:104970004FF00001664801F0A8FD65481C388562CB
:104980000462002240F226615F4800F0C2FA012171
:104990005F4801F09AFD70BD10B5202001F0CEFDFA
:1049A00001280CD1202001F0DCFD4021564800F008
:1049B0008FFB012240F22661534800F0AAFA10BD95
:1049C00000B591B00121092000F050FF01218804B9
:1049D00000F059FF00204D4908604FF48070ADF899
:1049E00040004FF002008DF842004FF010008DF8AB
:1049F000430010A9474800F085FC4FF48060ADF8F3
:104A0000400003208DF8420018208DF8430010A9C3
:104A1000404800F077FC4FF40060ADF840004820BB
:104A20008DF8430010A93B4800F06CFC27208DF85E
:104A30002C0003208DF82D008DF82E0001208DF81C
:104A40002F000BA800F095FB4FF4E1300C900020F4
:104A5000ADF83400ADF83600ADF83800ADF83C00E4
:104A60000C20ADF83A000CA9274800F0BAF9012251
:104A700040F22551244800F04CFA0121224800F070
:104A80003CFA0C208DF82C0002208DF82D008DF8BA
:104A90002E0001208DF82F000BA800F06AFB0121E9
:104AA000084600F0D6FE1A4801F042FC1648001DE8
:104AB0000090002001901020029008200390002018
:104AC00004908020059000200690079008904FF4F5
:104AD0000050099000200A9069460D4801F0CAFC78
:104AE000012202210A4801F0FCFC01228021064833
:104AF00000F034FA0849094881640949C16411B0D9
:104B000000BD0000A401002000480040A081214217
:104B10001C000240000C01401D4900080C00002050
:104B2000654900080E490860704708B50121042056
:104B300000F09CFE00200A4908604FF01000ADF81C
:104B400000008DF803004FF002008DF80200694666
:104B5000044800F0D7FB04490448816208BD000006
:104B60009001214200080140254B00080C00002064
:104B700000210020674A126842F48032654B1A60B7
:104B800000BF644A126802F40030491C10B9B1F544
:104B9000A06FF6D15F4A126812F4003F01D00120E5
:104BA00000E00020012842D15B4A126842F0100266
:104BB000594B1A601A46126822F003021A601A460C
:104BC000126842F002021A60524A5268514B5A600F
:104BD0001A4652685A601A46526842F480625A6015
:104BE0001A46526822F47C125A601A46526842F4FD
:104BF000E8125A601A46126842F080721A6000BFCA
:104C0000444A126812F0007FFAD0424A526822F0F9
:104C10000302404B5A601A46526842F002025A6040
:104C200000BF3C4A526802F00C02082AF9D17047D2
:104C300010B5FFF79DFF10BD10B53648006840F075
:104C40000100344908600846406834490840314949
:104C5000486008460068324908402E490860084606
:104C6000006820F4802008600846406820F4FE00B8
:104C700048604FF41F008860FFF7DAFF4FF00060D4
:104C80002849086010BD10B5002100200022214BEA
:104C90005B6803F00C0121B1042906D0082928D152
:104CA00007E0214B214C236027E01F4B1F4C236062
:104CB00023E0184B5B6803F47010164B5B6803F439
:104CC0008032022303EB904022B9194B4343174C27
:104CD00023600DE00F4B5B6813F4003F04D0144BCE
:104CE0004343124C236003E00F4B43430F4C2360BC
:104CF00003E00D4B0D4C236000BF00BF054B5B680C
:104D0000C3F303130B4CE15C084B1B68CB40074C0F
:104D1000236010BD00100240002002400000FFF898
:104D2000FFFFF6FE08ED00E000127A00A801002067
:104D300000093D00AC0100200648804706480047B6
:104D4000FEE7FEE7FEE7FEE7FEE7FEE7FEE7FEE73B
:104D5000FEE7FEE7394C0008ED00000810B50446F8
:104D6000FC48844209D10121880300F099FD00210B
:104D70004FF4804000F094FD32E0F748844209D1BE
:104D80000121480400F099FD00214FF4003000F0AB
:104D900094FD25E0F148844209D10121880400F006
:104DA0008CFD00214FF4802000F087FD18E0EC48D6
:104DB000844209D10121C80400F07FFD00214FF495
:104DC000002000F07AFD0BE0E648844208D1012182
:104DD000080500F072FD00214FF4801000F06DFD19
:104DE00010BD2DE9F04786B005460E460024A246C8
:104DF00000BFA1460027B08900B100BF2F462C8A12
:104E00004CF6FF700440F08804432C82AC894EF6C7
:104E1000F3100440B0883189084371890843044382
:104E2000AC81AC8A4FF6FF400440B0890443AC82A9
:104E300001A800F0AEFCC748874202D1DDF810A0FF
:104E400001E0DDF80CA0A88910F4004F08D00AEBAF
:104E5000CA0000EB0A1031684900B0FBF1F807E026
:104E60000AEBCA0000EB0A1031688900B0FBF1F8C8
:104E70006420B8FBF0F004012009642101FB1089D3
:104E8000A88910F4004F08D0322000EBC900B0FB15
:104E9000F1F000F00700044308E0322000EB0910B5
:104EA0006421B0FBF1F000F00F0004432C8106B048
:104EB000BDE8F0874FF41651016000218180C18068
:104EC00001810C21418100218181704710B502468A
:104ED0000020108A4FF2FF0318400B884C882343B0
:104EE0008C882343CC8823431843108210BD0021B3
:104EF000018041808180C180704721B1828942F464
:104F00000052828104E082894DF6FF731A4082814B
:104F10007047F0B503460024002600250020A1F5C7
:104F200010676A3F00D100BF1846C1F3421401F078
:104F30001F06012707FA06F5012C01D10C3004E009
:104F4000022C01D1103000E014301AB107682F4351
:104F5000076002E00768AF430760F0BD10B51AB103
:104F6000838A0B43838204E0838ACC43A4B2234028
:104F7000838210BD028A4FF6F0731A400282028AC1
:104F80000A430282704782894FF2FF731A4082817E
:104F900082890A438281704721B1828942F00202EC
:104FA000828104E082894FF6FD731A408281704746
:104FB000028A4FF6DF731A400282028A0A43028293
:104FC000704721B1028A42F48042028204E0028AE0
:104FD0004BF6FF731A4002827047C1F308028280C9
:104FE000704701468888C0F308007047818941F006
:104FF000010181817047028BD2B20283028B42EAA7
:10500000012202837047028B02F47F420283028BEB
:105010000A430283704721B1828A42F020028282D1
:1050200004E0828A4FF6DF731A408282704721B112
:10503000828A42F01002828204E0828A4FF6EF7385
:105040001A408282704721B1828A42F0080282822D
:1050500004E0828A4FF6F7731A408282704721B1CA
:10506000828942F40042828103E08289C2F30E0207
:105070008281704721B1828A42F40062828204E018
:10508000828A4FF2FF731A4082827047828A4FF6FB
:10509000FB731A408282828A0A438282704721B15E
:1050A000828A42F00202828204E0828A4FF6FD7315
:1050B0001A408282704702460020B1F5007F00D17D
:1050C00000BF13880B4201D0012000E00020704790
:1050D00001F40072B2F5007F00D100BFCA43028024
:1050E000704770B502460024002300250020A1F57A
:1050F00010666A3E00D100BFC1F3421501F01F03E4
:10510000012606FA03F3012D02D19689334006E009
:10511000022D02D1168A334001E0968A33400C12E8
:10512000012606FA04F41688344013B10CB10120AC
:1051300000E0002070BD10B500220023A1F510642E
:105140006A3C00D100BF0A1201249440A3B2DC43A0
:10515000048010BD00380140004400400048004079
:10516000004C00400050004031490143314A116079
:10517000704770B5002100230F22C4780CB32D4C6A
:10518000246804F4E064C4F5E064210AC1F1040376
:10519000CA40447804FA03F1847814402143090199
:1051A000254C0678A155047804F01F050124AC4075
:1051B00005786D114FF0E02606EB8505C5F8004136
:1051C00009E0047804F01F050124AC401B4D06786B
:1051D000761145F8264070BD194A0A400243154B26
:1051E0001B1F1A60704739B1124A121D1268024320
:1051F000104B1B1D1A6006E00E4A121D12688243F6
:105200000C4B1B1D1A607047042808D14FF0E02199
:10521000096941F004014FF0E022116107E04FF00D
:10522000E021096921F004014FF0E022116170478B
:105230000000FA050CED00E000E400E080E100E091
:1052400080FFFF1F10B50446CA48844208D10121DF
:10525000042000F025FB0021042000F021FB46E0A3
:10526000C548844208D10121082000F019FB002123
:10527000082000F015FB3AE0C048844208D1012123
:10528000102000F00DFB0021102000F009FB2EE0A3
:10529000BB48844208D10121202000F001FB0021FD
:1052A000202000F0FDFA22E0B648844208D1012116
:1052B000402000F0F5FA0021402000F0F1FA16E05D
:1052C000B148844208D10121802000F0E9FA002190
:1052D000802000F0E5FA0AE0AC48844207D10121C1
:1052E000801500F0DDFA0021A01500F0D9FA10BDFC
:1052F00010B50121084600F0D3FA0021012000F08A
:10530000CFFA10BD2DE9F04102460025002600200D
:1053100000230024002791F803C00CF00F0591F83A
:1053200003C01CF0100F03D091F802C04CEA050531
:10533000B1F800C01CF0FF0F31D0146800202BE042
:105340004FF0010C0CFA00F3B1F800C00CEA0306B0
:105350009E4220D183004FF00F0C0CFA03F7BC43A0
:1053600005FA03FC4CEA040491F803C0BCF1280FD1
:1053700006D14FF0010C0CFA00FCC2F814C00AE090
:1053800091F803C0BCF1480F05D14FF0010C0CFAA5
:1053900000FCC2F810C0401C0828D1D31460B1F83A
:1053A00000C0BCF1FF0F34DD546800202EE000F196
:1053B000080C4FF0010808FA0CF3B1F800C00CEA31
:1053C00003069E4221D183004FF00F0C0CFA03F725
:1053D000BC4305FA03FC4CEA040491F803C0BCF199
:1053E000280F05D100F1080C08FA0CF8C2F8148057
:1053F00091F803C0BCF1480F07D100F1080C4FF041
:10540000010808FA0CF8C2F81080401C0828CED316
:105410005460BDE8F0814FF6FF7101800221817078
:105420000421C17070470246002093680B4201D0EE
:10543000012000E0002070470146886880B2704774
:1054400002460020D3680B4201D0012000E000207A
:1054500070470146C86880B270470161704741617A
:1054600070470AB1016100E041617047C160704757
:105470004FF480320A43826181618261826982696C
:10548000704702460020424B18684FF68073184060
:1054900040EA021008433E4B186070473D49C8611E
:1054A0007047F0B50A46002300240021002500F0D3
:1054B0000046B6F1004F02D1354EF16901E0344E9D
:1054C0007168C0F3034583B200F44016B6F5401F7F
:1054D00008D121F070612E4E766826F070662C4F50
:1054E0007E6012E000F48016B6F5801F06D1032618
:1054F00006FA05F4A14341F0706106E0460D36015D
:1055000003FA06F6B14341F0706122B1460D36014F
:1055100003FA06F6314300F00046B6F1004F02D11F
:105520001B4EF16101E01A4E7160F0BD30B50022F2
:105530008B071C0F0F2303FA04F2154B08338C1052
:1055400053F824309343124C08348D1044F825301E
:1055500023468C1053F824308C07240F00FA04F4EF
:1055600023430B4C08348D1044F8253030BD0A49D4
:105570000860704700080140000C01400010014025
:105580000014014000180140001C014000200140AF
:105590000000014000002042DC002042DC4800689E
:1055A00040F00100DA49086008464068D9490840DF
:1055B000D749486008460068D7490840D449086080
:1055C0000846006820F4802008600846406820F4FF
:1055D000FE0048604FF41F0088607047CC4909689E
:1055E00021F48031CA4A11601146096821F48021F2
:1055F0001160B0F5803F03D0B0F5802F0ED106E0EA
:10560000C349096841F48031C14A116007E0C049CB
:10561000096841F4A021BE4A116000E000BF00BF4C
:10562000704710B501460022002300204A11012ACC
:1056300002D1B74C236806E0022A02D1B44C236A97
:1056400001E0B34C636A01F01F02012494401C4244
:1056500001D0012000E0002010BD70B5002400251D
:10566000002600BF3120FFF7DCFF0646641CB4F5BE
:10567000A06F01D0002EF5D03120FFF7D2FF08B186
:10568000012500E00025284670BD01460020A04A03
:10569000106820F0F80040EAC100106070479F4990
:1056A0000860704702460020994B586820F47C102F
:1056B00042EA01031843964B5860704797490866C1
:1056C000704701460020924A506820F003000843CA
:1056D000506070478E48406800F00C0070470146EB
:1056E00000208B4A506820F0F0000843506070475B
:1056F00001460020864A506820F4E060084350606C
:10570000704701460020824A506820F4605040EA09
:10571000C1005060704729B17D4A527A02437C4BE8
:105720005A7206E07A4A527AC343DBB21A40784B87
:105730005A7270477A490860704701460020744ADF
:10574000506820F440400843506070470021754A7B
:1057500011706F4A82F82010012802D0042808D165
:1057600003E001216F4A117004E005216D4A1170B8
:1057700000E000BF00BF70476B4908607047644994
:10578000096A0143624A11627047674944390860F7
:10579000704730B500210022002400235C4D6D6865
:1057A00005F00C0121B1042905D0082923D105E019
:1057B0005E4D056022E05D4D05601FE0544D6D6853
:1057C00005F47012524D6D6805F48034022505EB26
:1057D00092421CB9564D554305600BE04C4D6D6827
:1057E00015F4003F03D0524D5543056002E04F4D84
:1057F0005543056002E04D4D056000BF00BF444DBC
:105800006D6805F0F00109094A4D6B5C0568DD40E3
:1058100045603F4D6D6805F4E061090A454D6B5CDC
:105820004568DD4085603A4D6D6805F46051C90AF0
:10583000404D6B5C4568DD40C560354D6D6805F4D5
:105840004041890B3C4D6B5CC568B5FBF3F50561C8
:1058500030BD29B12E4A526902432D4B5A6104E0F2
:105860002B4A526982432A4B5A61704729B1284A10
:1058700092690243264B9A6104E0254A9269824369
:10588000234B9A61704729B1214AD2690243204BC8
:10589000DA6104E01E4AD26982431D4BDA61704727
:1058A00029B11B4AD2680243194BDA6004E0184A56
:1058B000D2688243164BDA60704729B1144A1269E4
:1058C0000243134B1A6104E0114A12698243104BE0
:1058D0001A61704714494039086070470F49C8641D
:1058E00070470B49C87170470948406A40F08070A2
:1058F00007494862704701460020054A92680A42FB
:1059000001D0012000E000207047014988727047F3
:10591000001002400000FFF8FFFFF6FE00004242C8
:10592000D8004242201002408004424200127A0015
:1059300000093D00BC010020CC01002001460020F0
:10594000FE4A106800F03800084310607047FB49B9
:10595000096821F00801F94A1160114609680143FC
:1059600011607047F549096821F01001F34A116090
:1059700011460968014311607047F148EF494860DA
:10598000F04848607047EE48EC494860ED48486090
:105990007047EA48006940F08000E84908617047B4
:1059A000E648006940F08000E4490861704704203F
:1059B000E249C96801F00101012901D101200EE08D
:1059C000DE49C96811F0040F01D0022007E0DB496D
:1059D000C96811F0100F01D0032000E004207047C7
:1059E00000B502460423FFF7E2FF034603E0FFF79A
:1059F000DEFF0346521E012B01D1002AF7D102B966
:105A00000523184600BD30B5044604254FF4302068
:105A1000FFF7E6FF0546042D17D1C848006940F09E
:105A20000200C649086108464461006940F0400030
:105A300008614FF43020FFF7D3FF0546BF480069E7
:105A400041F6FD710840BD490861284630BD10B5DA
:105A500004244FF43020FFF7C3FF0446042C16D172
:105A6000B648006940F00400B4490861084600697E
:105A700040F0400008614FF43020FFF7B1FF0446CA
:105A8000AE48006941F6FB710840AC490861204608
:105A900010BD00B502460423FFF789FF034603E06B
:105AA000FFF785FF0346521E012B01D1002AF7D1D3
:105AB00002B90523184600BD10B504244FF4302068
:105AC000FFF7E7FF0446042C16D19C48006940F01C
:105AD00004009A4908610846006940F040000861E6
