:020000040800F2
:1000000030200020193B0008213B0008233B00085A
:10001000253B0008273B0008293B000800000000A2
:100020000000000000000000000000002B3B000862
:100030002D3B00080000000001010008913300087A
:10004000333B0008333B0008333B0008333B0008D8
:10005000333B0008333B0008333B0008333B0008C8
:10006000333B0008333B0008333B0008333B0008B8
:10007000333B0008333B0008333B0008333B0008A8
:10008000333B0008333B0008333B0008333B000898
:10009000333B0008333B0008333B0008333B000888
:1000A000333B0008333B0008333B0008333B000878
:1000B000333B0008333B0008333B0008333B000868
:1000C000333B0008333B0008333B0008333B000858
:1000D000333B00080D36000889370008333B000821
:1000E000333B0008333B0008333B0008DFF80CD0FB
:1000F00006F002FE00480047D90100083020002029
:1001000072B6EFF309800A4A0A4B20B1203880E822
:10011000F00F1168086018681060006890E8F00F30
:10012000203080F309884EF0040E62B6704700BF9D
:10013000B4000020B800002080F309887047000058
:100140002F483049086030482D4908601420486025
:1001500041F2707088606320C860652008611920D2
:1001600048610120886141F27070C86132200862E4
:1001700026484862264888624006C8620120086313
:1001800040F2DD711E48C187042180F83D101A211C
:1001900080F83B10112180F83A102E2180F8391098
:1001A0002820174981F83800002008640E20486490
:1001B000092088640B20C864164800680865154843
:1001C000001D0068486513480830006888650021F4
:1001D0000B48C0F82011704710B5FFF7B1FF0E496A
:1001E000086880470C48816E0C4888470A48C16EF1
:1001F0000B4888470849086F804762B6002010BD49
:1002000080010020B0000020A0BB0D0020F40E00F3
:10021000A0860100E8F7FF1F0C0000203B04000847
:10022000250C0008A848D0F8201100F586708142FE
:1002300004D15038A449C1F8200106E0A248D0F802
:1002400020011430A049C1F82001704710B59E4824
:10025000D0F82001006900B910BD9B4AD2F82021D6
:1002600012691069994A516D884700BFF4E710B5CB
:100270009548D0F82001C46804E0944A2069516D83
:100280008847A469002CF8D110BD00218E48D0F811
:10029000200101618C48BC308B49C1F820017047B6
:1002A00070B50446302C13D007DC082C17D2DFE8D9
:1002B00004F00E174E5C104054A1A4F13100072841
:1002C000F4D2DFE800F0184756073F4F9B0000BF0D
:1002D00000BF00BF7D48D0F894102046884790E0CA
:1002E0007B4801780078401C794D28707748026E71
:1002F00078A0904785E000207349C96F086001210C
:100300007148D0F88000016000216F48D0F8840067
:10031000016001216C48D0F88800016000216A4822
:10032000D0F88C00016001216748D0F8900001608E
:1003300067E06648C16D4FF0FF308847054606F01C
:100340001BFD5EE06148C1690320884759E0FFF763
:100350007DFF56E0FFF78BFF53E05C49D1F890003A
:1003600080474EE0FFF75EFF4BE001205649886171
:1003700047E056485B4B4FF47A720121856C0020B0
:10038000A8475248574B4FF4FA620121856C084642
:10039000A8474E48534B40F6B8320121856C0220E5
:1003A000A8474A484F4B4FF47A620121856C0320DD
:1003B000A84746484B4B41F288320121856C042006
:1003C000A8474248474B41F270720121856C0520D5
:1003D000A8473E48434B41F658320121856C062020
:1003E000A8473A483F4B41F658320121856C072017
:1003F000A84706E000203449886100BFFFF745FFA9
:1004000000BF00BF70BD704710B530482E490C3199
:100410004268002090472D482B4910314268012046
:1004200090472A48284914314268042090472748B9
:100430002D49426E0220904710BD08B5FFF7E4FF3A
:10044000214894302049C1F820012048C16F4FF461
:10045000FA6088471C48A8301B49C1F820010024D5
:100460000FE01A48C16F64208847052094FBF0F123
:1004700000FB1140C1B21448D0F8AC00401C01553B
:10048000641C102CEDDB1048BC300F49C1F8200172
:1004900018E00E49886F80470090009820F07F4553
:1004A0009DF80300012802D0022809D103E0E8B238
:1004B000FFF7F6FE05E00D4909686818804700E07F
:1004C00000BF00BFE5E70000800100200C00002015
:1004D000000000204C6F672054657374203D202578
:1004E000640A00002502000807040008A800002094
:1004F00010B5FE48D0F88C10FD488847FD48FC49EF
:100500009439C1F89400F948D0F88C10F8481430A8
:1005100088472A20F8490870002405E00021F648A1
:10052000401C0155601CC4B2102CF7DBF249F048A6
:100530009438C0F8AC10ED48D0F88C10EC48283056
:100540008847EC494431EA489438C0F8BC10E74881
:10055000EA49D0F88820E64828309047E4489438A3
:10056000E649086103208870E548C861E5480862EB
:100570004FF47A70486242F2107088620D20087061
:1005800000204870D948E049D0F88820D848283061
:100590009047D7489038DC49086103208870642070
:1005A000C86100200862012048620A208862062093
:1005B000087001204870CD48D449D0F88420CC4838
:1005C00028309047CA488C38D04908610320887089
:1005D0000E20087001204870C448CD49D0F884200E
:1005E000C34828309047C2488838C9490861032069
:1005F00088700720087002204870BC48C549D0F8B0
:100600008420BB4828309047B9488438C1490861E4
:10061000032088700F20087002204870B348BE493C
:10062000D0F88420B24828309047B1488038BA4981
:100630000861032088700620087003204870AB48CA
:10064000B649D0F88420AA4828309047A8487C387A
:10065000B2490861082088700120C870B04848611C
:100660000F20087003204870A048D0F88C10A048D4
:100670003C3088479F4988319D489438C0F8D01055
:100680009A48A849D0F8882099483C309047984823
:100690007838A44908610320887041F64C50C8613D
:1006A0004FF47A600862C0104862886207200870C0
:1006B000002048708D489C49D0F888208C483C30F8
:1006C00090478B48743898490861032088703C2013
:1006D000C861282008620120486288620E200870E4
:1006E0000020487081489149D0F8882080483C30EB
:1006F00090477F4870388D49086103208870804892
:10070000C8618B4808628B48486288628A48C86022
:10071000062008700120487074488849D0F8882065
:1007200073483C30904772486C3884490861032014
:1007300088708048C8614010086242F210704862B8
:1007400088627D48C8600E200870012048706748A4
:100750007B49D0F8882066483C3090476448683828
:100760007749086105208870012088807548C86134
:100770004FF07E500862744848624FF07C508862A7
:10078000072008700220487058487049D0F884202B
:1007900057483C309047564864386C4908610820F7
:1007A00088700020C8706A484861082008700220DC
:1007B00048704E48D0F88C104D48503088474D490D
:1007C000CC314B489438C0F8E41048486149D0F81F
:1007D0008820474850309047454854385D49086163
:1007E0000420887042F21070C861012008624862DB
:1007F000642088620F200870002048703B485649EA
:10080000D0F888203A4850309047394850385249FB
:100810000861032088706320C8610E2008620120EF
:1008200048620A20886209200870012048702F4819
:100830004A49D0F888202E48503090472C484C38F0
:1008400046490861032088700C20C86101200862B5
:1008500048620A2088620C200870012048702348F2
:100860003F49D0F8882022485030904720484838E7
:100870003B490861032088701F20C861012008627D
:1008800048620A2088620F200870012048701748CB
:100890003449D0F8842016485030904714484438E2
:1008A00030490861062088700720087002204870CF
:1008B000082088800D482C49D0F884200C485030FE
:1008C00090470B48403828490861062088700F205F
:1008D0000870022048700820888004482349D0F816
:1008E0008420034850309047014841E00C0000202C
:1008F00014020020F4760008A4020020B8020020B0
:1009000020F40E00C0270900E4020020100300209C
:100910002C030020480300206403002080030020F3
:10092000BC7600089C030020C8030020F4030020CC
:1009300020A10700A08601006F12833A2004002046
:100940004C0400200000A040CDCCCC3D7804002019
:10095000C476000894040020C0040020EC040020A9
:100960001805002044050020600500207C050020BB
:100970003C38BC49086106208870072008700320B5
:10098000487008208880B848D0F88C10B74888474D
:10099000B749B648F838C0F8F810B348B549D0F8A8
:1009A0008820B2489047B148BA38B249086102205D
:1009B000887040F63400C8614FF4FA600862012084
:1009C00048620A2088620520087002204870A64804
:1009D000A949D0F88820A5489047A448BB38A64923
:1009E0000861002088700C20C861012008624862FC
:1009F0000220886209200870022048709A489F49A6
:100A0000D0F88820994890479848BD389B4908619C
:100A1000002088701F20C861002008620120486201
:100A200088620D200870022048708F489449D0F8E1
:100A300088208E4890478D48BC389149086108202D
:100A400088700020C8708F4848610620C861002067
:100A50000862012048628862042008700320487000
:100A600081488949D0F88820804890477F48BE381F
:100A700085490861002088703B20C8610020086219
:100A80000120486288620920087003204870764877
:100A90007E49D0F88820754890477448BF387B4914
:100AA0000861002088703B20C86100200862012096
:100AB000486288620C200870032048706A487449B4
:100AC000D0F88820694890476848C0387049086164
:100AD000002088703B20C861002008620120486225
:100AE00088620F200870032048705F48D0F88C108F
:100AF0005E48143088475E4944315C48F838C0F895
:100B00000C1159486349D0F8842058481430904754
:100B10005648F838C06E5F49086103208870052088
:100B200008700020487050485B49D0F884204F4836
:100B3000143090474D48F838006F5749086103203A
:100B40008870052008700120487047485349D0F844
:100B500084204648143090474448F838406F4F4945
:100B600008610320887005200870022048703E4804
:100B70004B49D0F884203D48143090473B48F83822
:100B8000806F4749086103208870052008700320A2
:100B9000487035484349D0F8842034481430904791
:100BA0003248F838C06D3F490861022088700F2034
:100BB0000870002048702C483B49D0F884202B480E
:100BC000143090472948F838006E374908610220F0
:100BD00088700F2008700120487023483349D0F8EE
:100BE00084202248143090472048F838406E2F491E
:100BF0000861022088700F200870022048701A488F
:100C00002B49D0F884201948143090471748F838F9
:100C1000806E27490861022088700F200870032029
:100C2000487010BDFFF764FC1048F838406B643022
:100C30002049086014E00D48F838406B1D490968E8
:100C400088420DD30948F838406B64301949086070
:100C5000064AF83AD2F82001034AD2F880108847B1
:100C6000E9E700007C0500200C000020780200204D
:100C70000478000898050020C40500201C06002008
:100C8000F0050020D87600084806002074060020F1
:100C9000A0060020CC060020E80600200407002063
:100CA000200700203C070020580700207407002080
:100CB0009007002004000020704700BF0100A0F151
:100CC0000100FBD1704700B5034602E00820FFF7A2
:100CD000F4FF1800A3F10103F8D100BD00B50346ED
:100CE00003E04FF4FA50FFF7E8FF1800A3F1010307
:100CF000F7D100BD10B50446102C02DB13A006F09E
:100D00003BF8102C02DA1648005D10BD3020FCE7DD
:100D100013B504468DF807401248416F0198884783
:100D20001CBD10B572B6104800F07F400F49086036
:100D30000F4800F07F400E49086000F06FFD00F0A2
:100D400062F901F07BF800F09FFD10BD0A4153539A
:100D50004552543A20686578203C2031360A00001C
:100D6000897800080C000020230D0008A80000204E
:100D7000AC00002002464FF080700860081F01465A
:100D800002606FF00103081F014603604FF0123349
:100D9000081F014603604FF00333081F014603603C
:100DA0004FF00233081F014603605B10081F014625
:100DB00003600023081F014603604FF01133081F32
:100DC000014603604FF01033081F014603604FF0E7
:100DD0000933081F014603604FF00833081F01461E
:100DE00003604FF00733081F014603604FF00633DE
:100DF000081F014603604FF00533081F01460360DA
:100E00004FF00433081F0146036008467047016035
:100E1000002242608260704770B5044689492046CE
:100E2000FFF7A8FF054629468748FFF7F0FF70BD8A
:100E300070B5044685492046FFF79CFF05462946C4
:100E40008348FFF7E4FF70BD82490968884205D0F6
:100E5000814908604FF08051804A1160704710B599
:100E60007948806850B178488068401E764988602B
:100E70000846806810B90846FFF7E6FF10BD7848BD
:100E80007849426E012090476F48724908600846D1
:100E90000068714908604FF080507049086062B680
:100EA00000BFFEE710B5044672B66F480088401CCC
:100EB0006D490880674800686549884215D16248D5
:100EC000406890B9002060498860084644606648E0
:100ED0000088401E0004000C6349088000D162B6FF
:100EE0005948FFF7B1FF012010BD6048008A28284B
:100EF0000ADB5D480088401E0004000C5A49088047
:100F000000D162B60020EFE75848008A401C5749DC
:100F1000088208468068046008468068001D886072
:100F2000084680684968884203D9504800684F499C
:100F300088604D480088401E0004000C4A49088023
:100F400000D162B60120CFE710B572B646480088DE
:100F5000401C454908803C48406800B139E043489E
:100F6000008A00281FDD4148C06804683F48C06807
:100F7000001D3E49C8600846008A401E0882084697
:100F8000C0684968884203D9384800683749C86052
:100F900035480088401E0004000C3349088000D109
:100FA00062B6204610BD0020274988602E48008880
:100FB000401E0004000C2C49088000D162B6244871
:100FC000FFF742FF72B628480088401C2649088077
:100FD00000BF1D48446800201B4948602248008823
:100FE000401E0004000C2049088000D162B6204653
:100FF000D8E710B50446002C04DD1348846014487B
:10100000FFF722FF10BD10B51948184908609C3041
:10101000486008460068886008460068C86000208C
:101020000882FFF789F813480D49886612490C4871
:10103000C166124901671249816712494167124925
:10104000C16710BDA40E0020E8140020E4140020A5
:10105000F4140020B4000020B800002004ED00E0EB
:101060000C0000205F0E000808000020B0070020E0
:10107000C4070020190E0008310E00087F0E00087A
:10108000490F0008A50E0008F30F00082DE9F04FE6
:1010900095B0044626786778A07809282CD2DFE836
:1010A00000F0052C547BB1E7FDFCFB00206990F8B3
:1010B00000B0584605F019FC0790A16805F0B9F991
:1010C0000890E16805F00DFA099005F031FC8246C0
:1010D0005246F7A10AA805F05FFEC5B207E00AA8CC
:1010E000405DF44901EB07118855701EC6B2280017
:1010F000A5F10101CDB2F2D18AE12069B0F9000079
:101100001390139805F0E8FB0790A16805F091F99A
:101110000890E16805F0E5F9099005F009FC8246C0
:101120005246E3A10AA805F037FEC5B207E00AA8B7
:10113000405DE04901EB07118855701EC6B22800DA
:10114000A5F10101CDB2F2D162E1206900881290CF
:10115000129805F0CAFB0790A16805F06AF908909B
:10116000E16805F0BEF9099005F0E2FB82465246BF
:10117000CFA10AA805F010FEC5B207E00AA8405D9D
:10118000CC4901EB07118855701EC6B22800A5F1A5
:101190000101CDB2F2D13BE12069D0F800A0E068B6
:1011A00005F029FCCDE90601A06805F024FCCDE995
:1011B0000201504605F09EFBCDE90001DDE9022366
:1011C00005F005FACDE90401DDE9062305F0A5FAED
:1011D000CDE9080105F0D9FB82465246B4A10AA820
:1011E00005F0DAFDC5B207E00AA8405DB14901EBA0
:1011F00007118855701EC6B22800A5F10101CDB2B5
:10120000F2D105E12069D0F80080E06805F0F3FB39
:10121000CDE90601A06805F0EEFBCDE902014046EC
:1012200005F079FBCDE90001DDE9022305F0CFF9F6
:10123000CDE90401DDE9062305F06FFACDE90801E7
:1012400005F0C2FB804642469BA10AA805F0A4FD1A
:10125000C5B207E00AA8405D964901EB0711885521
:10126000701EC6B22800A5F10101CDB2F2D1CFE0C7
:10127000206900681190A168119805F0DAF80990CA
:10128000E16805F02EF91190A088C5B2CDB18BA10F
:1012900003C9CDE90F0102E099E07AE02AE028468F
:1012A000FFF728FD8DF83E00119805F0A4FB0246DB
:1012B0000B46CDE908010FA90AA805F06DFDC5B2DE
:1012C00009E0119805F034FB024679A109900AA8BB
:1012D00005F062FDC5B207E00AA8405D754901EB63
:1012E00007118855701EC6B22800A5F10101CDB2C4
:1012F000F2D18DE02069D0F80080E06805F07BFB3A
:10130000CDE90601A06805F076FBCDE90201404673
:1013100005F001FBCDE90001DDE9022305F057F9F5
:10132000CDE90401DDE9062305F0F7F9CDE908016F
:1013300005F04AFB8046A088C5B29DB10CE008F0DC
:101340000F00FFF7D7FC5B4901EB071188554FEA07
:1013500018180EB1701EC6B22800A5F10101CDB259
:10136000EDD115E03020534901EB071188550CE011
:1013700008F00F00FFF7BEFC4E4901EB071188553E
:101380004FEA18180EB1701EC6B2B8F1000FEFD1B7
:101390003EE02069D0F80090484605F042F8C5B21A
:1013A000E078012802D1701C401BC6B209E019F890
:1013B000010B404901EB071188550F2E01DA701C13
:1013C000C6B22800A5F10101CDB2F0D120E020691C
:1013D00090F80080606950F82890484605F021F8A0
:1013E000C5B2E078012802D1701C401BC6B209E0EA
:1013F00019F8010B2F4901EB071188550F2E01DA5F
:10140000701CC6B22800A5F10101CDB2F0D100BF19
:1014100000BF15B0BDE8F08F10B52A480068046819
:101420002CB920224021234804F0E8FF04E04022A8
:101430002146204804F0D0FF10BD2DE9F04121489D
:10144000006847680FB9BDE8F08197F80080002474
:101450001DE0002517E0781C465D052E02DB1AA072
:1014600005F08AFCC4F10400B04205DC114800EB31
:10147000041000F8058004E020200E4901EB04115F
:101480004855681CC5B2102DE5DB601CC4B2042CA5
:10149000DFDB00BFD7E710B50A480068846803E0C7
:1014A0002046FFF7F3FDA469002CF9D110BD000020
:1014B000256400004015002025750000252E6E666D
:1014C00000000000C00000200A4153534552543A26
:1014D00020636F6C756D6E203C20350A00000000A3
:1014E00010B5DE480068C46819E0DC48006800698F
:1014F000A0420FD1DA480078401CC0B2D849087029
:10150000082801D100200870D5480078042801DAA5
:10151000A46904E02046FFF7B9FDA46900BF002CD0
:10152000E3D110BD70B5002423E00026002514E0AF
:10153000CC4800EB0410405DCB4901EB0411495D40
:10154000884208D0C84800EB0410405DC54901EB53
:10155000041148550126681CC5B2102DE8DB36B1D0
:10156000C04800EB0411C148C26A20469047601C85
:10157000C4B2042CD9DB70BD10B50446B748046072
:10158000FFF74AFFFFF759FFFFF785FFFFF7A8FFB7
:10159000FFF7C8FF10BD0021016041608160C1609C
:1015A0000161704700220A618A808A604FF07E5292
:1015B000CA6000224A6182688A61816070470023A4
:1015C0000B61CB610B624B628B628B808B604FF047
:1015D0007E53CB6000234B618B61C3680BB9C16044
:1015E0007047C26800E092699369002BFBD191615A
:1015F00000BFF5E799480068006930B9974800686E
:10160000C068964909680861704794480068006995
:10161000806992490968086100BFF5E72DE9F14F3B
:101620008AB08E480068046914B90BB0BDE8F08F29
:10163000276994F80280B8F1090F7CD2DFE808F03E
:101640004805571566AB67EA47002069B0F90060A6
:10165000E06900B20990206A00B20890606A00B2A6
:101660000790A06A00B206900AE020690668E06967
:101670000990206A0890606A0790A06A069000BFEF
:101680000A9830B104280AD0302805D034280CD16B
:1016900008E00798064408E00698064405E0079825
:1016A000361A02E00698361A00BF00BF0998864233
:1016B00001DD099E03E00898864200DA089EB8F131
:1016C000030F01D13E6001E030B23880A3E000BFDB
:1016D00020690578E06900F0FF0B206AC0B2059030
:1016E000606A00F0FF09A06A00F0FF0A1AE02069B2
:1016F0000588E0691FFA80FB206A80B20590606A65
:101700001FFA80F9A06A1FFA80FA0BE000BF206977
:101710000568D4F81CB0206A0590D4F82490D4F859
:1017200028A000BF0A9838B1042809D0302805D075
:10173000342813D10BE06DE04D440FE055440DE02B
:101740004D4501D2002501E0A5EB090506E0554510
:1017500001D2002501E0A5EB0A0500BF00BF5D45F1
:1017600001D95D4603E00598854200D2059DB8F198
:10177000090F0ED2DFE808F0060D080D0A0D0B0D5B
:10178000050000BF3D7004E03D8002E000BF3D6009
:1017900000BF00BF3FE0206900680490E06903904B
:1017A000206A0290606A0190A06A00900A9830B1A5
:1017B000042810D0302808D0342818D111E001991D
:1017C000049804F036FE049011E00099049804F0A7
:1017D00030FE04900BE00199049804F07CFE049024
:1017E00005E00099049804F076FE049000BF00BF65
:1017F000DDE9031005F03CF902D20398049006E0FD
:101800000299049805F02AF901D2029804900498EC
:10181000386000E000BF00BF00BF06E7002006E020
:101820002021114A11540F4A1154411CC8B24028BA
:10183000F6DB0F490D4AC2F880100E4A0B49C1F879
:1018400084200D4AC1F888200C4AC1F88C200C4A2B
:10185000C1F890200B4AC1F894207047C0000020C6
:10186000BC00002000150020401500200C000020C6
:1018700079150008A5150008BF1500089715000880
:10188000F51500081D16000810B500F0A9FA10BDE6
:1018900078B502460B46FF24FF2509E012F8010B3C
:1018A00080EA0401FE48405C80EA0504FD48455C8E
:1018B0001800A3F10103F1D18DF801408DF800501B
:1018C000BDF8000078BDF8B506460C462146304606
:1018D000FFF7DEFF009035199DF8010005F8010BB8
:1018E0009DF800002870A41CEF482146426C304649
:1018F0009047F8BD2DE9F8430746EC480078EC49DD
:101900000870EA4840784870E84800798DF801008E
:10191000E64840798DF80000BDF8000010F0070F90
:1019200006D0BDF80000012101EBE000C5B203E0E4
:10193000BDF80000C0F3C705DD488570C61C002453
:1019400002E000203070641CAC42FADB002414E09A
:101950003819D84951F82000D7490968085C01288E
:101960000AD106EBE400007804F00702012191405F
:10197000084306EBE4010870641CBDF800008442D3
:10198000E6DBCB488078C01C00F0FF084146C84821
:10199000FFF799FFBDE8F8832DE9F8430746C348F0
:1019A0000078C3490870C14840784870BF48007942
:1019B0008DF80100BD4840798DF80000BDF80000A9
:1019C00010F0070F05D0BDF80000012101EBE00584
:1019D00002E0BDF80000C510B5498D70CE1C002492
:1019E00002E000203070641CAC42FADB002414E0FA
:1019F0003819B24951F82000AF490968085C01283C
:101A00000AD106EBE400007804F0070201219140BE
:101A1000084306EBE4010870641CBDF80000844232
:101A2000E6DBA348807800F103084146A048FFF7B1
:101A30004AFFBDE8F88338B504469C4800798DF824
:101A400001009A4840798DF80000BDF80000B0F51B
:101A50007F4F07D10120974951F82410964A126808
:101A6000505406E00020934951F82410924A12681D
:101A700050548D48426C924801888C48904738BD3C
:101A8000F8B50546894800798DF801008748407906
:101A90008DF80000854EB61D00240FE006EBE40033
:101AA000007804F00701084100F001002919814A7B
:101AB00052F82110804A12685054641CBDF800008E
:101AC0008442EBDB7A4879490A6802608988818020
:101AD0000621FFF7F8FEF8BD2DE9FC4106467348E4
:101AE0000078734908707148407848706F480079F1
:101AF0008DF805006D4840798DF80400BDF80400AC
:101B00004006000E8870CC1C002510E070196D494D
:101B100051F8200068490968085A00909DF80100B2
:101B200004F8010B9DF8000004F8010B6D1CBDF8D2
:101B300004008542EADB5E488078C71C39465C4871
:101B4000FFF7C1FEBDE8FC812DE9FC410546574881
:101B500000785749087055484078487053480079D4
:101B60008DF80500514840798DF80400BDF8040057
:101B70004006000E8870CC1C002612E02846691C26
:101B80008DB2514951F820004B490968085A00901C
:101B90009DF8010004F8010B9DF8000004F8010B0A
:101BA000761CBDF804008642E8DB41488078C71CFB
:101BB00039463F48FFF787FEBDE8FC8138B504464B
:101BC0003A4800798DF80100384840798DF80000D6
:101BD000BDF800003C4951F82410374A12685052B1
:101BE0003148426C364801883048904738BD7CB552
:101BF00006462E4800798DF805002C4840798DF86E
:101C000004002A4CE41D002513E014F8010B8DF8A4
:101C1000010014F8010B8DF80000BDF800203046DB
:101C2000711C8EB2284951F82000234909680A52D4
:101C30006D1CBDF804008542E7DB1D481B490A689E
:101C40000260898881800621FFF73DFE7CBD00206F
:101C50001B4908801D4908801D49087070471CB544
:101C600012480078012802D0FFF7F1FF1CBD14488C
:101C70000088042802DAFFF7EAFFF7E71048008837
:101C8000811E0A48FFF704FE04460D480088801EA6
:101C90000649085C8DF8010009480088401E19E0DB
:101CA00099780008997900080C000020801600201F
:101CB00080150020C4000020B0000020C8000020D3
:101CC000E2000020CC000020D0000020E400002032
:101CD000E0000020085C8DF80000BDF800008442A0
:101CE00002D0FFF7B4FFC1E7444880788DF80500C3
:101CF0004248C0788DF804004048407806282DD02E
:101D000006DC06283CD2DFE800F03B10151F1A2441
:101D1000162833D004DC0F2825D0102830D127E036
:101D200017282AD02B282BD129E0BDF80400FFF773
:101D3000E1FD26E0BDF80400FFF72EFE21E0BDF82E
:101D40000400FFF7C9FE1CE0BDF80400FFF7FCFE2D
:101D500017E0BDF80400FFF76EFE12E0BDF80400C6
:101D6000FFF72CFF0DE0BDF80400FFF789FE08E047
:101D7000BDF80400FFF73BFF03E002E001E000E0F4
:101D800000BF00BFFFF763FF00BF6FE71C49098872
:101D9000FF2902DD00211A4A118019490A880988A1
:101DA000491C174B1980154988540021154A118088
:101DB0000121154A1170704710B5134800780128A9
:101DC0000DD110480088401C0E4908800846008844
:101DD000022804DD00200C490870FFF740FF10BD09
:101DE00010B5FFF734FF09480949426E00209047BB
:101DF00006480849026C0848904710BD801600202C
:101E0000E2000020E4000020E00000200C000020A0
:101E1000B91D00088D1D00088015002010B5002890
:101E200007DA0A07140E194A00F00F031B1FD454D7
:101E300003E00A07130E164A135410BD10B501F043
:101E400016FC01F0D3FC00F0A0F800F07AF900F0E5
:101E500067FB00F07AFF00F0B7FC00F0B3FD01F083
:101E60000EF801F0CDF901F050FD01F0ECFA4FF45D
:101E7000A06002F069F80E214FF0FF30FFF7CEFFAF
:101E80000F216FF00100FFF7C9FF10BD18ED00E052
:101E900000E400E0002004E09049914A42F820105C
:101EA000401C0528F8DB70478D4A42F82010704727
:101EB0008C488D490968C865801C8B49096808668B
:101EC000801C894909684866801C874909688866BA
:101ED00070472DE9F04F89B04FF000084FE04FF008
:101EE0000009CA4609E00AEB8A00804901EB40007C
:101EF00030F8180081440AF1010ABAF1080FF2DB48
:101F00004FEAD909B8F1040F08DA764921F8189098
:101F1000734951F82810A1F800902EE0484604F0CB
:101F2000E4FC83464FF08B41584604F010FB0190CF
:101F300004F061FD4FF066326D4BCDE9020104F013
:101F4000ECFB04466B4A6C4B04F0E4FB6B4A6C4BB5
:101F5000CDE9040104F051FC00226A4BCDE90601F1
:101F600004F035FB064604F05CFD8346584604F059
:101F7000F8FC5B4951F82810088008F10108B8F115
:101F8000050FACDB09B0BDE8F08F00B591B00121C1
:101F90004FF4017002F05AFB6020ADF840000020C1
:101FA0008DF8430010A9584802F09CF801214FF425
:101FB000047002F04BFB3020ADF8400000208DF89B
:101FC000430010A9514802F08DF84FF4004002F090
:101FD000A4FA4F4802F07EFE00200B9001208DF8FD
:101FE00030008DF831004FF460200D9000200E90ED
:101FF00005208DF83C000BA9454802F092FE012314
:102000001A460521424802F024FF0123022206213C
:102010003F4802F01EFF012303220E213C4802F03C
:1020200018FF012304220F21394802F012FF032375
:1020300005221021364802F00CFF012003F025F89C
:102040000121334802F0A4FE0121314802F095FE3F
:102050002F4802F0B4FE00BF2D4802F0B5FE002864
:10206000FAD12B4802F0BAFE00BF294802F0BBFEAD
:102070000028FAD10121084602F0DBFA254803F0D6
:1020800047F823484C3000901848019000200290F7
:1020900028200390002004908020059040000690A6
:1020A00080000790202008900002099000200A90EC
:1020B0006946184803F0CEF80121154802F09DFE4C
:1020C0000121144803F0F1F8FFF7E4FEFFF7F0FEFA
:1020D00011481249486011B000BD0000EE00002018
:1020E000D0170020E6000020B0000020801700205C
:1020F00066660A40E17A14AE47E1F63F22FDF675C6
:10210000E09C713F00003940000801400010014090
:102110000024014008000240A91E00080C00002015
:10212000124813490968C866011D11480068016713
:10213000091D0F4800684167091D0D480068816747
:10214000704708B50121102002F080FA0F20ADF889
:10215000000004208DF8030003208DF8020069467A
:10216000044801F0BFFFFFF7DBFF08BD100121426B
:10217000B00000200010014038B5044601210420C1
:1021800002F064FA0121082002F060FADCB9802034
:10219000ADF8000010208DF8030003208DF8020038
:1021A0006946E84801F09EFF4EF20300ADF80000DA
:1021B00010208DF8030003208DF802006946E248E4
:1021C00001F090FF23E0012140F6010002F03EFA09
:1021D0000121022002F047FA8020ADF8000018200B
:1021E0008DF8030003208DF802006946D54801F000
:1021F00079FF4EF20300ADF8000018208DF80300BF
:1022000003208DF802006946CF4801F06BFF38BD0E
:10221000CE48CF490968C867CE49CD480068C0F8A4
:102220008010091DCA480068C0F88410C9493431BB
:10223000C7480068C0F88810091DC5480068C0F884
:102240008C10091DC2480068C0F89010704710B586
:102250000446062C28D2DFE804F003090F151B21E1
:1022600001220421BC4803F076FE1EE00122082171
:10227000B94803F070FE18E001220C21B64803F0C3
:102280006AFE12E004220021B44803F075FE0CE05F
:1022900004221146B14803F06FFE06E00422082133
:1022A000AE4803F069FE00E000BF00BF10BD10B5EE
:1022B0000446062C28D2DFE804F003090F151B2181
:1022C00000220421A44803F046FE1EE0002208215B
:1022D000A14803F040FE18E000220C219E4803F0C4
:1022E0003AFE12E0002211469C4803F045FE0CE045
:1022F00000220421994803F03FFE06E00022082155
:10230000964803F039FE00E000BF00BF10BD70B575
:1023100005460C46062D22D2DFE805F003080D1213
:10232000171CA1B28C4803F0AFFE19E0A1B28A4895
:1023300003F0ACFE14E0A1B2874803F0A9FE0FE061
:10234000A1B2864803F09EFE0AE0A1B2834803F0E2
:102350009BFE05E0A1B2814803F098FE00E000BFBB
:1023600000BF70BDF0B587B004460F4615461E4647
:10237000781E80B2ADF81000681E80B2ADF814006F
:102380000020ADF81600ADF812008DF8180060209E
:10239000ADF80000B0B2ADF80600062C77D2DFE849
:1023A00004F0031E3954779904A96B4803F0ACF884
:1023B0000120ADF802000020ADF80800694666482B
:1023C00003F021F90821644803F00FFD0121624860
:1023D00003F0D2FC0121604803F0C6FB9DE004A994
:1023E0005D4803F091F80120ADF802000020ADF83F
:1023F00008006946584803F04FF90821564803F091
:10240000FFFC0121544803F0B7FC0121524803F0BE
:10241000ABFB82E004A9504803F076F80120ADF848
:1024200002000020ADF8080069464B4803F07BF934
:102430000821494803F0EDFC0121474803F09CFCCA
:102440000121454803F090FB67E004A9434803F0ED
:102450005BF80020ADF802000420ADF80400002075
:10246000ADF80A0069463D4803F08BF808213B4867
:1024700003F0B2FC0121394803F07EFC012137480A
:1024800003F072FB0121354803F07AFB45E043E09D
:1024900004A9324803F038F80020ADF80200042007
:1024A000ADF804000020ADF80A0069462B4803F09F
:1024B000AAF80821294803F098FC0121274803F0D5
:1024C0005BFC0121254803F04FFB0121234803F069
:1024D00057FB22E004A9214803F016F80020ADF8CC
:1024E00002000420ADF804000020ADF80A0069469F
:1024F0001A4803F0D1F80821184803F081FC0121A3
:10250000164803F039FC0121144803F02DFB01218A
:10251000124803F035FB00E000BF00BF07B0F0BD7C
:1025200010B5FFF775FE0E490E4841610E498161F5
:102530000E49C1610E4941620E4901620020FFF758
:102540001BFE10BD00080140000C01409C0121420F
:10255000B00000208081214200040040002C014096
:10256000792100080C0000204F220008AF2200084B
:102570000F230008652300080146F7291ED008DC58
:102580007F2913D0BF290FD0DF290BD0EF2917D116
:1025900006E0FB2910D0FD290CD0FE2910D107E060
:1025A000002070470120FCE70220FAE70320F8E74B
:1025B0000420F6E70520F4E70620F2E70720F0E71D
:1025C000FF20EEE70146F7291ED008DC7F2913D053
:1025D000BF290FD0DF290BD0EF2917D106E0FB2947
:1025E00010D0FD290CD0FE2910D107E03020704713
:1025F0003120FCE73220FAE73320F8E73420F6E711
:102600003520F4E73620F2E73720F0E7FF20EEE749
:1026100010B5FF249348006808B904F07F0492487D
:10262000006808B904F0BF049048006808B904F0D5
:10263000DF048F48006808B904F0EF0400208D49DA
:1026400008604FF001008C49C1F89001FEF73BFB98
:102650008448006808B904F0F7048348006808B9A2
:1026600004F0FB048148006808B904F0FD048048C8
:10267000006808B904F0FE040020804908604FF0AB
:1026800001007D49C1F89401204610BD70B57C4819
:102690000078012802D100207A4908607848007843
:1026A000002804DD76480078401E75490870FFF761
:1026B000AFFF0546FF2D24D073480078401C7249B7
:1026C00008700020714908706F480078012802D115
:1026D0006F48057076E06C480078022802D16C489B
:1026E00045706FE068480078032802D1684885701B
:1026F00068E065480078282864DD28206249087071
:1027000060E062480078401C604908700846007824
:10271000042857DB042008705E48007840B15D480B
:102720000078401E5B49087000205749087070BD52
:1027300055480078042800DAF9E7554800785449EC
:102740004978884202D15248047815E05048007810
:102750004F498978884202D14D4804780CE04C48B2
:1027600040784B498978884202D14948447803E04F
:10277000002045490870DAE743480078282804D14A
:102780002046FFF71FFF044609E03F480078042871
:1027900004DB2046FFF7F0FE044600E0FF24FF2C98
:1027A0000CD021460120FEF7B3FA0120354908601C
:1027B0004FF0140032490870364908704FF000009D
:1027C0003149087000BFB2E708B501213D2001F092
:1027D0003DFF0121304801F054FD002027490860E9
:1027E0004FF001002449C1F894014FF03000ADF8DA
:1027F00000004FF014008DF803004FF002008DF838
:1028000002006946254801F06DFC4FF4E050ADF838
:10281000000002208DF8020048208DF80300694670
:102820001F4801F05FFC0420ADF8000048208DF83F
:10283000030002208DF8020069461A4801F052FC9C
:102840000020104908604FF01000ADF800008DF82E
:1028500003004FF002008DF802006946124801F0B3
:1028600041FC08BD08812242300122422C01224253
:1028700028012242948121420080214290812142FC
:10288000F300002090012142F0000020F100002020
:10289000F4000020F200002000043000000C014091
:1028A00000100140001401400008014070B50446CA
:1028B00004F0F0004FF4780141EA002004F00F0129
:1028C00040EA01160020754908604FF00100744984
:1028D000C1F8A4014FF017051FE026FA05F010F02B
:1028E000010F03D001206F49086002E000206D490C
:1028F00008604FF00A00FEF7E6F90120674908601A
:102900004FF00A00FEF7DFF900206549C1F89C018D
:102910000A20FEF7D8F9681E05B2002DDDDA002086
:102920006149086070BD70B5044604F0F0004FF4D2
:102930007A0141EA002004F00F0140EA011600206C
:10294000564908604FF001005549C1F8A4014FF005
:1029500017051FE026FA05F010F0010F03D0012043
:102960005049086002E000204E4908604FF00A001C
:10297000FEF7A9F90120494908604FF00A00FEF767
:10298000A2F900204649C1F89C010A20FEF79BF9F4
:10299000681E05B2002DDDDA00204349086070BDD5
:1029A00070B505460C464149485DFFF77FFF00269C
:1029B00005E014F8010BFFF7B6FF701CC6B2102E2D
:1029C000F7DB70BD08B50121102001F03FFE0020AB
:1029D000324908604FF40070ADF800004FF010006D
:1029E0008DF803004FF002008DF802006946304870
:1029F00001F078FB00202A49C1F8A4014FF480704F
:102A0000ADF8000010208DF8030002208DF80200C0
:102A10006946274801F066FB0020224908604FF014
:102A20008000ADF800004FF010008DF803004FF06B
:102A300002008DF8020069461D4801F053FB00209A
:102A40001749C1F898014020ADF8000010208DF81A
:102A5000030002208DF802006946154801F042FB90
:102A60006420FEF73BF90120124908604FF0300066
:102A7000FFF71CFF0C20FFF719FF0120FFF716FFDF
:102A80000220FFF713FF8020FFF710FF0120FFF760
:102A90000DFF09490948C16208BD00009C0122429E
:102AA00000002242A0012242A4012242997A000899
:102AB0000010014098012242A12900080C000020CA
:102AC0002DE9F047B8480068C08FA0F2DD784FEAE2
:102AD000980040F2B551484308F0030140F26D12EE
:102AE00001FB0207B048006890F83D00A0F1010921
:102AF000AD490968C88FC11700EB91718910B0EB1F
:102B0000810108D1002403E0A848005D0744641C4B
:102B10004C45F9D307E0002403E0A548005D0744D5
:102B2000641C4C45F9D3A048006890F83B00384439
:102B3000471EA04878439C49096891F83A10C1EBB8
:102B40004112C2EB012100EB01119748006890F897
:102B50003900C0EB001001EB80009349096891F83F
:102B60003810451803F04CFB064606F10A00854272
:102B700003D805F10A00B04209D2012003F0D1FBCD
:102B800003F07AFB284603F044FB03F075FBBDE835
:102B9000F0872DE9F04140F2DD78002503F030FBAD
:102BA00006468448B6FBF0F4A01C0721B0FBF1F206
:102BB00001FB12017C48006880F83C1040F2B550DF
:102BC000B4FBF0F100FB1147B4FBF0F008EB800020
:102BD00040F26D11B7FBF1F1084481B27248006810
:102BE000C187B7F5896F0BD3A7F2474403E06F485D
:102BF000405D241A6D1C6D48405DA042F7D30EE085
:102C000040F26D10B7FBF0F100FB117403E068486F
:102C1000405D241A6D1C6648405DA042F7D3681CD5
:102C2000C1B26148006880F83D10601CC1B25E48C6
:102C3000006880F83B105F48B6FBF0F100FB1166BE
:102C40004FF46160B6FBF0F0C1B25748006880F8FD
:102C50003A104FF46160B6FBF0F100FB11603C21CB
:102C6000B0FBF1F0C1B25048006880F839104FF461
:102C70006160B6FBF0F100FB11603C21B0FBF1F2AA
:102C800001FB12004849096881F83800BDE8F0816D
:102C900010B5002401214FF0C05001F0E4FC0120E8
:102CA00003F03FFB03F034FA012001F03FFC05E0A4
:102CB000601C04464049884200D104E0412001F0F4
:102CC000A0FB0028F4D000BF3B48844204DA4FF454
:102CD000807001F044FC0CE0012001F03DFC00BFDD
:102CE000612001F08EFB0028FAD04FF4007001F053
:102CF00036FC012001F039FC03F0C6FA03F0BCFAFF
:102D00002D48844204DA47F6FF7003F08FFA03E09F
:102D100049F63F4003F08AFA03F0AEFA0121084673
:102D200003F04CFA03F0A8FA10BD10B52348007860
:102D3000401CC0B221490870642805D100200870E9
:102D4000FFF7BEFEFFF725FF10BD10B5042003F00E
:102D50000EFAA0F59051343907D0FFF799FF41F2F0
:102D60003421042003F0FDF91BE001214FF0C05095
:102D700001F079FC012003F0D4FA412001F041FB7D
:102D800028B9612001F03DFB08B9FFF781FF03F08E
:102D90007BFA03F071FA0121084603F00FFA03F001
:102DA0006BFAFFF7F6FE10BDB0000020A97A00080C
:102DB0009D7A00088051010080841E00F7000020E9
:102DC00070B500243148006800B970BD2F4805680F
:102DD0002AE005F00100012824D12D4850F83400E4
:102DE000401E2B4941F834001CD10120A040274946
:102DF000096881432548016026480068E04010F0DA
:102E0000010F0AD0224800EBC4004068224A126831
:102E1000811A0220FDF77CFF04E01D4901EBC4018B
:102E2000486880476D08641C002DD2D100BFCCE7F4
:102E300030B5174C44F8302004EBC004636039B15E
:102E400001248440134D2D682C43124D2C6006E064
:102E5000012484400F4D2D68A5430E4C25600124AC
:102E600084400A4D2D682C43084D2C6030BD012153
:102E70008140064A12688A4304490A60704707493C
:102E8000074881640749C16470470000F8000020CA
:102E9000E4170020FC000020A8000020312E0008CC
:102EA0000C0000206F2E000810B501F056FC3520F4
:102EB00001F0ECFE10BD10B501F05BFC10BD70B56B
:102EC000ADF5027D002416E0D548006850F83400C6
:102ED000401C0ED0D248006850F834004DF8240051
:102EE000CF48006800EBC40040685DF8241008601B
:102EF00000E002E0641C802CE6DB00BFC9494C8086
:102F00008020888008464088022803DA08464088E6
:102F100008804EE00026002413E0651C0BE05DF8FD
:102F200024005DF82510884204D100204DF82400CB
:102F3000012604E06D1CBB484088A842EFDC00BFBE
:102F4000641CB8484088401EA042E6DC26B9B5485B
:102F50004088B44908802CE0FFF7A6FFB24801F092
:102F600042FC002500241CE05DF8240000B917E0B5
:102F70005DF8240080905DF8240000688190A84AE4
:102F80008099126802EBC50001F0FDFCA44A81990A
:102F9000126802EBC502101D01F0F5FC6D1C00BFAC
:102FA000641CA0484088A042DEDCFFF784FF9D49F6
:102FB0000D809C4800889B49C8809CA003F0DCFEE3
:102FC000984881889AA003F0D7FE964841889EA031
:102FD00003F0D2FE93480188A1A003F0CDFE9148F2
:102FE000C188A4A003F0C8FE0DF5027D70BD70B5C8
:102FF000044625460CB9002070BD8A48C08889491E
:103000008988884201D10020F6E7FFF74DFF854906
:10301000C988834A126802EBC100294601F0B3FC5B
:10302000804AD2887E4B29681B6803EBC202101DC0
:1030300001F0A9FCFFF73FFF7A48C088401C79499E
:10304000C8800120D8E770B54FF440608E494881B0
:103050008E480860084600684860002008818B4D53
:10306000002409E02878FF2804D1874845600146FC
:103070000C8104E06D1C641CB4F5406FF2DB00BFF2
:1030800083A003F079FE8048418982A003F074FE9A
:103090007D48018985A003F06FFE7B48016889A007
:1030A00003F06AFE784841688BA003F065FE78A0C3
:1030B00003F062FE70BD10B5FFF7F6FE002405E0D8
:1030C000724901EB842001F08EFB641C032CF7DBBA
:1030D000FFF7F1FE6D486C490860486000200881E8
:1030E00010BD10B5024669490878FF2801D17FA0BC
:1030F00010BD1AB96548644C2060F9E7501C18D11E
:1031000061480368016800BF11F8014B002CFBDC2B
:10311000087800B9491C0878FF2802D0424881424B
:1031200003D95A48584C206001E0574801601846BE
:10313000DEE7002A1DDD0EE00878FF2801D16BA034
:10314000D6E700BF08780028FCDC491C00BF0878DF
:103150000028FCD0491C1000A2F10102ECD1087833
:10316000FF2802D03048814201D960A0C0E708465C
:10317000BEE760A0BCE70FB4F0B59BB001AE002580
:1031800003E0002026F8020B6D1C322DF9DB21A88C
:103190001A9001A81A9A209903F012FE0446002002
:1031A0001A901CB91BB0F0BC5DF814FB641C14F041
:1031B000010F00D0641C344800892044B0F5406FF2
:1031C00001DB0020EEE7671001AEFFF76DFE002582
:1031D0000BE031882C4A506801F005FC2A48406811
:1031E000801C29494860B61C6D1CBD42F1DBFFF70D
:1031F00062FE254800892044234908810120D1E747
:1032000010B5FFF75CFE3F493F484165FFF71BFFE4
:103210003E493D4881653E49C1653E49016610BD54
:10322000000100200401002000FC00080A0A0A0036
:103230000AB2CECAFDD7DCB4E6B4A2BFD5BCE42046
:103240003D202564000000000AB2CECAFDD2D1B4F0
:10325000E6B4A2BFD5BCE420203D202564000000D8
:103260000AB2CECAFDB4E6B4A2B8F6CAFD203D202B
:10327000256400000AB2CECAFDD0B4C8EBB5E32085
:103280003D202564000000002418002000F0000804
:103290000A0A00000AC8D5D6BED7DCB4E6B4A2BF7D
:1032A000D5BCE4203D202564000000000AC8D5D626
:1032B000BED2D1B4E6B4A2BFD5BCE420203D2025C7
:1032C000640000000AC8D5D6BEB6C1C8A1B5E320C7
:1032D0003D202578000000000AC8D5D6BED0B4C86D
:1032E000EBB5E3203D202578000000004E756C6CA6
:1032F0000A000000417267756D656E744572726FE9
:10330000720A0000EF2F00080C000020B730000800
:10331000E33000087731000810B502462AB3012ACD
:1033200012D0022A32D15E4800780A2801D100204A
:1033300010BD5B4803780078401C594C20705948F8
:1033400040F823100120F3E757480078042801D102
:103350000020EDE7544803780078401C524C207060
:10336000524840F823100120E2E751480078022833
:1033700001D10020DCE74E4803780078401C4C4C1B
:1033800020704C4840F823100120D1E70020CFE7FF
:1033900010B549480078401CC0B2474908706428FD
:1033A00001D10020087043490868804741494868B6
:1033B0008047FEF78EFD404800780A2190FBF1F02F
:1033C000C4B23D48007890FBF1F201FB12000A28DC
:1033D00037D2DFE800F005090D11151A222528293A
:1033E0003249086880472CE030494868804728E027
:1033F0002E498868804724E02C49C868804720E02F
:10340000284951F8240080471BE02C480068406B95
:10341000401C2A490968486313E000F0C3F810E033
:10342000FFF7CEFC0DE00CE014B1012C06D102E058
:10343000FFF77BFC03E0FFF729F900E000BF00BFC6
:1034400000BF00BF10BD30B51D48006842F21072C9
:10345000B0FBF2F1B1F1807F00D31DE021F07F409D
:10346000401E4FF0E022506150170F22002807DA6B
:1034700013071D0E134B00F00F04241F1D5503E00E
:1034800013071C0E104B1C5400BF00204FF0E0220D
:1034900090610720106100BF0C490D48416630BDA6
:1034A0004C010020240100204D01002014010020C7
:1034B0004E0100200C0100204F010020B000002030
:1034C0005401002018ED00E000E400E0193300088A
:1034D0000C00002092489349086000F2E7304860F1
:1034E00008460068886008460068C86000200882B6
:1034F000704701468B48008AB0F57A7F01DB0020D7
:10350000704788488068017086488068401C854AFA
:103510009060104680685268904203D981480068E4
:10352000804A906072B680480088401C7E4A1080B5
:103530007C48008A401C7B4A10827B480088401EE1
:103540000004000C784A108000D162B60120D7E751
:1035500070B504460D464DB103E014F8010BFFF7BA
:10356000C8FF2800A5F10105F7D10DE009E020789A
:103570000A2802D10D20FFF7BCFF14F8010BFFF75A
:10358000B8FF20780028F2D170BD70B504460D4612
:103590000A2C02D10D20FFF7ACFFE0B2FFF7A9FF24
:1035A000204670BD5F48008A00B970475F480088B8
:1035B00010F0400F00D1F8E75A48C06800785B4926
:1035C000091D08805748C068401C5649C860084615
:1035D000C0684968884203D9524800685149C860A8
:1035E00072B651480088401C4F4908804D48008AF7
:1035F000401E4C4908824C480088401E0004000CC4
:103600004949088000D162B600BFCEE710B540F24C
:103610002551464800F055FC38B1444800F0D1FB34
:10362000C4B221460120FDF773FB08213F4800F09A
:1036300032FC012802D13D4800F0C3FB10BD10B59B
:10364000012240F22551394800F053FB012137484F
:1036500000F043FB10BD10B5002240F22551334865
:1036600000F047FB0021314800F037FB10BD00B5EA
:1036700087B0012144F2050000F0E8FF4FF400702C
:10368000ADF8180003208DF81A0018208DF81B00E3
:1036900006A9274800F026FD4FF48060ADF8180019
:1036A00048208DF81B0006A9214800F01BFD2520AD
:1036B0008DF8040003208DF8050002208DF8060027
:1036C00001208DF8070001A800F043FC4FF4E13021
:1036D00002900020ADF80C00ADF80E00ADF810001F
:1036E000ADF814000C20ADF8120002A90F4800F04C
:1036F00068FA012240F225510C4800F0FAFA012143
:103700000A4800F0EAFAFFF7E5FE0A490A480163B1
:103710000A4941630A4981630A49C16307B000BD90
:103720004418002030180020080000200038014014
:10373000000801403F3600080C0000205736000802
:10374000F33400085135000830B58BB004460D46FF
:103750000194002003906348009010200290002004
:1037600004908020059000200690079008904FF468
:103770000050099000200A9069465B4801F06AFDFC
:103780005A4805600BB030BD10B540F22551554880
:10379000001F00F096FB70B15248001F00F011FBB3
:1037A000C4B201214F48001F00F08BFB18B920461E
:1037B0004E490968884708214A48001F00F06BFB02
:1037C000012803D14748001F00F0FBFA10BD70B577
:1037D00005460C460021444801F067FD444804605A
:1037E0004FF00101404801F060FD70BD00B591B09F
:1037F0000121052000F02AFF0121480400F033FFD9
:103800000420ADF8400003208DF8420018208DF808
:10381000430010A9374800F065FC0820ADF84000CF
:1038200048208DF8430010A9324800F05BFC2620A8
:103830008DF82C0003208DF82D008DF82E0001202E
:103840008DF82F000BA800F084FB0121084600F042
:10385000F0FE254801F05CFC224800900020019019
:1038600010200290082003900020049080200590F2
:1038700000200690079008904FF400500990002017
:103880000A906946184801F0E5FC4FF4E1300C90CD
:103890000020ADF83400ADF83600ADF83800ADF8D2
:1038A0003C000C20ADF83A000CA90E48001F00F0B7
:1038B00088F9012240F225510A48001F00F019FA48
:1038C000012280210748001F00F038FA0121054835
:1038D000001F00F002FA08490848016408494164E1
:1038E00011B000BD0444004080000240500100209F
:1038F0008400024000080140493700080C00002005
:10390000CF3700080E490860704708B50121042030
:1039100000F09CFE00200A4908604FF01000ADF84E
:1039200000008DF803004FF002008DF80200694698
:10393000044800F0D7FB04490448816208BD000038
:103940009001214200080140053900080C000020C8
:1039500000210020674A126842F48032654B1A60E9
:1039600000BF644A126802F40030491C10B9B1F576
:10397000A06FF6D15F4A126812F4003F01D0012017
:1039800000E00020012842D15B4A126842F0100298
:10399000594B1A601A46126822F003021A601A463E
:1039A000126842F002021A60524A5268514B5A6041
:1039B0001A4652685A601A46526842F480625A6047
:1039C0001A46526822F47C125A601A46526842F42F
:1039D000E8125A601A46126842F080721A6000BFFC
:1039E000444A126812F0007FFAD0424A526822F02C
:1039F0000302404B5A601A46526842F002025A6073
:103A000000BF3C4A526802F00C02082AF9D1704704
:103A100010B5FFF79DFF10BD10B53648006840F0A7
:103A2000010034490860084640683449084031497B
:103A3000486008460068324908402E490860084638
:103A4000006820F4802008600846406820F4FE00EA
:103A500048604FF41F008860FFF7DAFF4FF0006006
:103A60002849086010BD10B5002100200022214B1C
:103A70005B6803F00C0121B1042906D0082928D184
:103A800007E0214B214C236027E01F4B1F4C236094
:103A900023E0184B5B6803F47010164B5B6803F46B
:103AA0008032022303EB904022B9194B4343174C59
:103AB00023600DE00F4B5B6813F4003F04D0144B00
:103AC0004343124C236003E00F4B43430F4C2360EE
:103AD00003E00D4B0D4C236000BF00BF054B5B683E
:103AE000C3F303130B4CE15C084B1B68CB40074C42
:103AF000236010BD00100240002002400000FFF8CB
:103B0000FFFFF6FE08ED00E000127A0054010020ED
:103B100000093D005801002006488047064800473C
:103B2000FEE7FEE7FEE7FEE7FEE7FEE7FEE7FEE76D
:103B3000FEE7FEE7193A0008ED00000810B504465C
:103B4000FC48844209D10121880300F099FD00213D
:103B50004FF4804000F094FD32E0F748844209D1F0
:103B60000121480400F099FD00214FF4003000F0DD
:103B700094FD25E0F148844209D10121880400F038
:103B80008CFD00214FF4802000F087FD18E0EC4808
:103B9000844209D10121C80400F07FFD00214FF4C7
:103BA000002000F07AFD0BE0E648844208D10121B4
:103BB000080500F072FD00214FF4801000F06DFD4B
:103BC00010BD2DE9F04786B005460E460024A246FA
:103BD00000BFA1460027B08900B100BF2F462C8A44
:103BE0004CF6FF700440F08804432C82AC894EF6FA
:103BF000F3100440B08831890843718908430443B5
:103C0000AC81AC8A4FF6FF400440B0890443AC82DB
:103C100001A800F0AEFCC748874202D1DDF810A031
:103C200001E0DDF80CA0A88910F4004F08D00AEBE1
:103C3000CA0000EB0A1031684900B0FBF1F807E058
:103C40000AEBCA0000EB0A1031688900B0FBF1F8FA
:103C50006420B8FBF0F004012009642101FB108905
:103C6000A88910F4004F08D0322000EBC900B0FB47
:103C7000F1F000F00700044308E0322000EB0910E7
:103C80006421B0FBF1F000F00F0004432C8106B07A
:103C9000BDE8F0874FF41651016000218180C1809A
:103CA00001810C21418100218181704710B50246BC
:103CB0000020108A4FF2FF0318400B884C882343E2
:103CC0008C882343CC8823431843108210BD0021E5
:103CD000018041808180C180704721B1828942F496
:103CE0000052828104E082894DF6FF731A4082817E
:103CF0007047F0B503460024002600250020A1F5FA
:103D000010676A3F00D100BF1846C1F3421401F0AA
:103D10001F06012707FA06F5012C01D10C3004E03B
:103D2000022C01D1103000E014301AB107682F4383
:103D3000076002E00768AF430760F0BD10B51AB135
:103D4000838A0B43838204E0838ACC43A4B223405A
:103D5000838210BD028A4FF6F0731A400282028AF3
:103D60000A430282704782894FF2FF731A408281B0
:103D700082890A438281704721B1828942F002021E
:103D8000828104E082894FF6FD731A408281704778
:103D9000028A4FF6DF731A400282028A0A430282C5
:103DA000704721B1028A42F48042028204E0028A12
:103DB0004BF6FF731A4002827047C1F308028280FB
:103DC000704701468888C0F308007047818941F038
:103DD000010181817047028BD2B20283028B42EAD9
:103DE000012202837047028B02F47F420283028B1E
:103DF0000A430283704721B1828A42F02002828204
:103E000004E0828A4FF6DF731A408282704721B144
:103E1000828A42F01002828204E0828A4FF6EF73B7
:103E20001A408282704721B1828A42F0080282825F
:103E300004E0828A4FF6F7731A408282704721B1FC
:103E4000828942F40042828103E08289C2F30E0239
:103E50008281704721B1828A42F40062828204E04A
:103E6000828A4FF2FF731A4082827047828A4FF62D
:103E7000FB731A408282828A0A438282704721B190
:103E8000828A42F00202828204E0828A4FF6FD7347
:103E90001A408282704702460020B1F5007F00D1AF
:103EA00000BF13880B4201D0012000E000207047C2
:103EB00001F40072B2F5007F00D100BFCA43028056
:103EC000704770B502460024002300250020A1F5AC
:103ED00010666A3E00D100BFC1F3421501F01F0316
:103EE000012606FA03F3012D02D19689334006E03C
:103EF000022D02D1168A334001E0968A33400C121B
:103F0000012606FA04F41688344013B10CB10120DE
:103F100000E0002070BD10B500220023A1F5106460
:103F20006A3C00D100BF0A1201249440A3B2DC43D2
:103F3000048010BD003801400044004000480040AB
:103F4000004C00400050004031490143314A1160AB
:103F5000704770B5002100230F22C4780CB32D4C9C
:103F6000246804F4E064C4F5E064210AC1F10403A8
:103F7000CA40447804FA03F18478144021430901CB
:103F8000254C0678A155047804F01F050124AC40A7
:103F900005786D114FF0E02606EB8505C5F8004168
:103FA00009E0047804F01F050124AC401B4D06789D
:103FB000761145F8264070BD194A0A400243154B58
:103FC0001B1F1A60704739B1124A121D1268024352
:103FD000104B1B1D1A6006E00E4A121D1268824328
:103FE0000C4B1B1D1A607047042808D14FF0E021CC
:103FF000096941F004014FF0E022116107E04FF040
:10400000E021096921F004014FF0E02211617047BD
:104010000000FA050CED00E000E400E080E100E0C3
:1040200080FFFF1F10B50446CA48844208D1012111
:10403000042000F025FB0021042000F021FB46E0D5
:10404000C548844208D10121082000F019FB002155
:10405000082000F015FB3AE0C048844208D1012155
:10406000102000F00DFB0021102000F009FB2EE0D5
:10407000BB48844208D10121202000F001FB00212F
:10408000202000F0FDFA22E0B648844208D1012148
:10409000402000F0F5FA0021402000F0F1FA16E08F
:1040A000B148844208D10121802000F0E9FA0021C2
:1040B000802000F0E5FA0AE0AC48844207D10121F3
:1040C000801500F0DDFA0021A01500F0D9FA10BD2E
:1040D00010B50121084600F0D3FA0021012000F0BC
:1040E000CFFA10BD2DE9F041024600250026002040
:1040F00000230024002791F803C00CF00F0591F86D
:1041000003C01CF0100F03D091F802C04CEA050563
:10411000B1F800C01CF0FF0F31D0146800202BE074
:104120004FF0010C0CFA00F3B1F800C00CEA0306E2
:104130009E4220D183004FF00F0C0CFA03F7BC43D2
:1041400005FA03FC4CEA040491F803C0BCF1280F03
:1041500006D14FF0010C0CFA00FCC2F814C00AE0C2
:1041600091F803C0BCF1480F05D14FF0010C0CFAD7
:1041700000FCC2F810C0401C0828D1D31460B1F86C
:1041800000C0BCF1FF0F34DD546800202EE000F1C8
:10419000080C4FF0010808FA0CF3B1F800C00CEA63
:1041A00003069E4221D183004FF00F0C0CFA03F757
:1041B000BC4305FA03FC4CEA040491F803C0BCF1CB
:1041C000280F05D100F1080C08FA0CF8C2F8148089
:1041D00091F803C0BCF1480F07D100F1080C4FF073
:1041E000010808FA0CF8C2F81080401C0828CED349
:1041F0005460BDE8F0814FF6FF71018002218170AB
:104200000421C17070470246002093680B4201D020
:10421000012000E0002070470146886880B27047A6
:1042200002460020D3680B4201D0012000E00020AC
:1042300070470146C86880B27047016170474161AC
:1042400070470AB1016100E041617047C160704789
:104250004FF480320A43826181618261826982699E
:10426000704702460020424B18684FF68073184092
:1042700040EA021008433E4B186070473D49C86150
:104280007047F0B50A46002300240021002500F005
:104290000046B6F1004F02D1354EF16901E0344ECF
:1042A0007168C0F3034583B200F44016B6F5401FB1
:1042B00008D121F070612E4E766826F070662C4F82
:1042C0007E6012E000F48016B6F5801F06D103264A
:1042D00006FA05F4A14341F0706106E0460D36018F
:1042E00003FA06F6B14341F0706122B1460D360182
:1042F00003FA06F6314300F00046B6F1004F02D152
:104300001B4EF16101E01A4E7160F0BD30B5002224
:104310008B071C0F0F2303FA04F2154B08338C1084
:1043200053F824309343124C08348D1044F8253050
:1043300023468C1053F824308C07240F00FA04F421
:1043400023430B4C08348D1044F8253030BD0A4906
:104350000860704700080140000C01400010014057
:104360000014014000180140001C014000200140E1
:104370000000014000002042DC002042DC480068D0
:1043800040F00100DA49086008464068D949084011
:10439000D749486008460068D7490840D4490860B2
:1043A0000846006820F4802008600846406820F431
:1043B000FE0048604FF41F0088607047CC490968D0
:1043C00021F48031CA4A11601146096821F4802124
:1043D0001160B0F5803F03D0B0F5802F0ED106E01C
:1043E000C349096841F48031C14A116007E0C049FE
:1043F000096841F4A021BE4A116000E000BF00BF7F
:10440000704710B501460022002300204A11012AFE
:1044100002D1B74C236806E0022A02D1B44C236AC9
:1044200001E0B34C636A01F01F02012494401C4276
:1044300001D0012000E0002010BD70B5002400254F
:10444000002600BF3120FFF7DCFF0646641CB4F5F0
:10445000A06F01D0002EF5D03120FFF7D2FF08B1B8
:10446000012500E00025284670BD01460020A04A35
:10447000106820F0F80040EAC100106070479F49C2
:104480000860704702460020994B586820F47C1061
:1044900042EA01031843964B5860704797490866F3
:1044A000704701460020924A506820F003000843FC
:1044B000506070478E48406800F00C00704701461D
:1044C00000208B4A506820F0F0000843506070478D
:1044D00001460020864A506820F4E060084350609E
:1044E000704701460020824A506820F4605040EA3C
:1044F000C1005060704729B17D4A527A02437C4B1B
:104500005A7206E07A4A527AC343DBB21A40784BB9
:104510005A7270477A490860704701460020744A11
:10452000506820F440400843506070470021754AAD
:1045300011706F4A82F82010012802D0042808D197
:1045400003E001216F4A117004E005216D4A1170EA
:1045500000E000BF00BF70476B49086070476449C6
:10456000096A0143624A1162704767494439086029
:10457000704730B500210022002400235C4D6D6897
:1045800005F00C0121B1042905D0082923D105E04B
:104590005E4D056022E05D4D05601FE0544D6D6885
:1045A00005F47012524D6D6805F48034022505EB58
:1045B00092421CB9564D554305600BE04C4D6D6859
:1045C00015F4003F03D0524D5543056002E04F4DB6
:1045D0005543056002E04D4D056000BF00BF444DEE
:1045E0006D6805F0F00109094A4D6B5C0568DD4016
:1045F00045603F4D6D6805F4E061090A454D6B5C0F
:104600004568DD4085603A4D6D6805F46051C90A22
:10461000404D6B5C4568DD40C560354D6D6805F407
:104620004041890B3C4D6B5CC568B5FBF3F50561FA
:1046300030BD29B12E4A526902432D4B5A6104E024
:104640002B4A526982432A4B5A61704729B1284A42
:1046500092690243264B9A6104E0254A926982439B
:10466000234B9A61704729B1214AD2690243204BFA
:10467000DA6104E01E4AD26982431D4BDA61704759
:1046800029B11B4AD2680243194BDA6004E0184A88
:10469000D2688243164BDA60704729B1144A126916
:1046A0000243134B1A6104E0114A12698243104B12
:1046B0001A61704714494039086070470F49C8644F
:1046C00070470B49C87170470948406A40F08070D4
:1046D00007494862704701460020054A92680A422D
:1046E00001D0012000E00020704701498872704726
:1046F000001002400000FFF8FFFFF6FE00004242FB
:10470000D8004242201002408004424200127A0047
:1047100000093D00680100207801002001460020CA
:10472000FE4A106800F03800084310607047FB49EB
:10473000096821F00801F94A11601146096801432E
:1047400011607047F549096821F01001F34A1160C2
:1047500011460968014311607047F148EF4948600C
:10476000F04848607047EE48EC494860ED484860C2
:104770007047EA48006940F08000E84908617047E6
:10478000E648006940F08000E44908617047042071
:10479000E249C96801F00101012901D101200EE0BF
:1047A000DE49C96811F0040F01D0022007E0DB499F
:1047B000C96811F0100F01D0032000E004207047F9
:1047C00000B502460423FFF7E2FF034603E0FFF7CC
:1047D000DEFF0346521E012B01D1002AF7D102B998
:1047E0000523184600BD30B5044604254FF430209B
:1047F000FFF7E6FF0546042D17D1C848006940F0D1
:104800000200C649086108464461006940F0400062
:1048100008614FF43020FFF7D3FF0546BF48006919
:1048200041F6FD710840BD490861284630BD10B50C
:1048300004244FF43020FFF7C3FF0446042C16D1A4
:10484000B648006940F00400B449086108460069B0
:1048500040F0400008614FF43020FFF7B1FF0446FC
:10486000AE48006941F6FB710840AC49086120463A
:1048700010BD00B502460423FFF789FF034603E09D
:10488000FFF785FF0346521E012B01D1002AF7D105
:1048900002B90523184600BD10B504244FF430209A
:1048A000FFF7E7FF0446042C16D19C48006940F04E
:1048B00004009A4908610846006940F04000086118
:1048C0004FF43020FFF7D5FF04469448006941F6C5
:1048D000FB71084091490861204610BD00208F49B6
:1048E000C96911F0020F01D0012000E000207047DB
:1048F00030B5A5250424FFF7F1FF00B100254FF4E2
:104900003020FFF75DFF0446042C3AD184488349E8
:104910008860844888600846006940F0200008618B
:104920000846006940F0400008614FF43020FFF76E
:1049300047FF0446042C1BD17848006941F6DF711B
:104940000840764908610846006940F01000086197
:1049500075480580E002FFF733FF0446052C10D0B0
:104960006E48006941F6EF7108406C49086108E043
:10497000052C06D06948006941F6EF710840674987
:104980000861204630BDF0B504460D4604260027D8
:10499000F002FFF715FF0646042E22D15F4800699A
:1049A00040F001005D4908612580F002FFF708FF33
:1049B0000646042E0ED1A71C280C3880F002FFF703
:1049C000FFFE06465548006941F6FE71084053490E
:1049D000086106E05148006941F6FE7108404F4900
:1049E00008613046F0BD70B504460D460426F0025D
:1049F000FFF7E6FE0646042E11D14848006940F054
:104A00000100464908612580F002FFF7D9FE0646FD
:104A10004248006941F6FE7108404049086130464D
:104A200070BD70B505460E460424E002FFF7C8FECF
:104A30000446042C17D13A483849886039488860C0
:104A40000846006940F0100008612E80E002FFF780
:104A5000B7FE0446052C06D03048006941F6EF71D8
:104A600008402E490861204670BD2DE9F0430446F8
:104A70004FF6FF763746B046B1460425E443E6B22A
:104A8000C4F30727C4F307484FEA1469E802FFF7A5
:104A900097FE0546042D40D12148204988602148D1
:104AA00088600846006940F010000861FF2E06D0BB
:104AB0001D4808300680E802FFF782FE0546042DF7
:104AC00008D1FF2F06D018480A300780E802FFF708
:104AD00077FE0546042D0AD1B8F1FF0F07D0124822
:104AE0000C30A0F80080E802FFF76AFE0546042DAE
:104AF0000AD1B9F1FF0F07D00B480E30A0F8009093
:104B0000E802FFF75DFE0546052D06D00348006963
:104B100041F6EF7108400149086107E000200240BA
:104B200023016745AB89EFCD00F8FF1F2846BDE89C
:104B3000F08330B5054604244FF43020FFF740FEE3
:104B40000446042C41D15F485F4988605F48886013
:104B50000846006940F0200008610846006940F0FE
:104B6000400008614FF43020FFF72AFE0446042C71
:104B700022D15548006941F6DF7108405249086169
:104B80000846006940F0100008611DB1002050493E
:104B9000088002E0A5204E4908804FF43020FFF73E
:104BA0000FFE0446052C10D04748006941F6EF710E
:104BB00008404549086108E0052C06D042480069D4
:104BC00041F6DF71084040490861204630BDF0B52C
:104BD00005460E46174604243A483B4988603B4840
:104BE0008860E002FFF7ECFD0446042C19D136483A
:104BF000006940F010003449086147F0F800304384
:104C000028433349891C0880E002FFF7D9FD044698
:104C1000052C06D02C48006941F6EF7108402A495E
:104C200008612046F0BD2848C069800870472648C2
:104C3000006A704700202449096811F0200F01D054
:104C4000012000E00020704729B11F4A1269024389
:104C50001D4B1A6104E01C4A126982431A4B1A6107
:104C6000704701460020012908D1174AD26912F085
:104C7000010F01D0012008E0002006E0124AD268AE
:104C80000A4201D0012000E0002070470E49C860B0
:104C9000704704200C49C96801F00101012901D1C4
:104CA00001200EE00849C96811F0040F01D002206C
:104CB00007E00549C96811F0100F01D0032000E09A
:104CC000042070472301674500200240AB89EFCDE7
:104CD00000F8FF1F10B50446F948844208D10121AD
:104CE0004015FFF7CDFC00216015FFF7C9FC17E068
:104CF000F448844208D101210015FFF7C1FC0021CE
:104D00002015FFF7BDFC0BE0EF48844208D10121DC
:104D1000C803FFF7B5FC00214FF40040FFF7B0FCDB
:104D200010BD30B50246002000235068E74C2040FB
:104D30000D790C6844EA0524204350609068E44CE7
:104D40002040D1E902542C434D7944EA45042043E4
:104D50009060D06A20F470000C7C641EE4B223439F
:104D600040EA0350D06230BD002101600171417101
:104D70008160C16001210174704721B1826842F0F5
:104D80000102826003E0826822F0010282607047C3
:104D900021B1826842F48072826003E0826822F46A
:104DA00080728260704710B50023CBB21AB144689C
:104DB0001C43446002E044689C43446010BD816829
:104DC00041F0080181607047014600208A6812F0B6
:104DD000080F01D0012000E000207047816841F0F9
:104DE000040181607047014600208A6812F0040FB8
:104DF00001D0012000E00020704721B1826842F418
:104E0000A002826003E0826822F4A0028260704700
:104E1000014600208A6812F4800F01D0012000E0D2
:104E20000020704710B50A4600210023416821F494
:104E30006041531E41EA4331416010BD21B14268D7
:104E400042F40062426003E0426822F40062426081
:104E50007047F0B504460D4600200021092D11DDF4
:104E6000E068A5F10A0606EB4607072606FA07F1F1
:104E70008843A5F10A0606EB460603FA06F1084345
:104E8000E0600CE0206905EB4507072606FA07F10C
:104E9000884305EB450603FA06F108432061072A1B
:104EA0000FDA606B561E06EB86071F2606FA07F11F
:104EB0008843561E06EB860605FA06F10843606332
:104EC00022E00D2A0FDA206BD61F06EB86071F267D
:104ED00006FA07F18843D61F06EB860605FA06F1A7
:104EE0000843206310E0E06AA2F10D0606EB860796
:104EF0001F2606FA07F18843A2F10D0606EB860687
:104F000005FA06F10843E062F0BD21B1826842F47F
:104F10008012826003E0826822F48012826070470F
:104F20000146C86C80B2704765484C3000687047D5
:104F300021B1426842F48062426003E0426822F498
:104F400080624260704721B1426842F48052426000
:104F500003E0426822F48052426070470A46002112
:104F6000816821F4E04111438160704721B182687A
:104F700042F40042826003E0826822F400428260D0
:104F8000704721B1826842F40212826003E08268B5
:104F900022F4021282607047014600208A6812F4EF
:104FA000001F01D0012000E000207047F0B504464A
:104FB0001546002000220026092911DDE068A1F134
:104FC0000A0707EB470C072707FA0CF29043A1F1F9
:104FD0000A0707EB470703FA07F21043E0600CE00B
:104FE000206901EB410C072707FA0CF2904301EB13
:104FF000410703FA07F210432061A06BC0F301568A
:10500000EF1C06F1010CA7EB0C0707EB870C1F2721
:1050100007FA0CF29043EF1C06F1010CA7EB0C070A
:1050200007EB870701FA07F21043A063F0BD10B544
:105030000A4600210023816B21F44011531E41EAEE
:105040000351816310BD10B5002303460B441A6061
:1050500010BD02460023134601F1280003441868DE
:1050600080B270470A46002141681A4B194011432B
:10507000416070474162826270470A460021416880
:1050800021F01F0111434160704740B10C490831C4
:10509000096841F400010A4A0832116007E0084932
:1050A0000831096821F40001054A0832116070478F
:1050B0000246002013680B420ED001200DE00000D4
:1050C0000024014000280140003C0140FFFEF0FFA9
:1050D000FDF7F1FFFFFD3FFF00207047CA4302606C
:1050E000704770B502460020002300240B1255685B
:1050F000CEB205EA060415681D4202D00CB10120AB
:1051000000E0002070BD00220A12D3430360704704
:1051100001684FF6FE72114001600021016041609C
:105120008160C1608C49884208D18B49083949683F
:1051300041F00F01884A083A51608AE086491431EB
:10514000884208D184490839496841F0F001824A0F
:10515000083A51607DE080492831884208D17E4973
:105160000839496841F470617B4A083A516070E03F
:1051700079493C31884208D177490839496841F476
:105180007041754A083A516063E073495031884272
:1051900008D171490839496841F470216E4A083ACA
:1051A000516056E06C496431884208D16A49083937
:1051B000496841F47001684A083A516049E066491B
:1051C0007831884208D164490839496841F07061F2
:1051D000614A083A51603CE06049884206D1011FAB
:1051E000096841F00F01021F116032E05B49143180
:1051F000884208D15949091F096841F0F001574A0E
:10520000121F116025E055492831884208D15349C1
:10521000091F096841F47061504A121F116018E0BB
:105220004E493C31884208D14C49091F096841F474
:1052300070414A4A121F11600BE0484950318842C0
:1052400007D14649091F096841F47021434A121FDA
:105250001160704710B50022026847F6F0739A4358
:105260000C6A8B6823430C6923434C6923438C6984
:105270002343CC6923434C6A23438C6A23431A4358
:105280000260CB6843600B6883604B68C36010BDED
:105290000021016041608160C16001614161816103
:1052A000C161016241628162704721B1026842F0CE
:1052B0000102026004E002684FF6FE731A400260C9
:1052C00070471AB103680B43036002E003688B4325
:1052D00003607047416070470146486880B270477C
:1052E00001460020002211F0805F03D01B4B083BD9
:1052F0001A6802E0184B083B1A680A4201D00120E4
:1053000000E00020704710F0805F03D01349091FB0
:10531000086002E0104908394860704701460020E3
:10532000002211F0805F03D00C4B083B1A6802E0AA
:10533000094B083B1A680A4201D0012000E0002016
:10534000704710F0805F03D00449091F086002E035
:1053500001490839486070470800024008040240CB
:1053600010B50446FE48844208D10121C014FFF75D
:1053700087F90021E014FFF783F9C4E0B4F1804F0E
:1053800008D101210846FFF788F900210120FFF725
:1053900084F9B8E0F348844208D101210220FFF7E4
:1053A0007CF900210220FFF778F9ACE0EE48844256
:1053B00008D101210420FFF770F900210420FFF734
:1053C0006CF9A0E0E948844208D101210820FFF7E8
:1053D00064F900210820FFF760F994E0E448844272
:1053E00008D101211020FFF758F900211020FFF704
:1053F00054F988E0DF48844208D101212020FFF7DA
:105400004CF900212020FFF748F97CE0DA4884427B
:1054100008D101214014FFF733F900216014FFF790
:105420002FF970E0D548844209D10121C804FFF763
:1054300027F900214FF40020FFF722F963E0D0485C
:10544000844209D101210805FFF71AF900214FF420
:105450008010FFF715F956E0CA48844209D10121AE
:105460004805FFF70DF900214FF40010FFF708F988
:1054700049E0C548844208D101214020FFF70DF9D9
:1054800000214020FFF709F93DE0C048844208D1DF
:1054900001218020FFF701F900218020FFF7FDF8AE
:1054A00031E0BB48844208D101218015FFF7F5F8AF
:1054B0000021A015FFF7F1F825E0B648844209D194
:1054C00001210804FFF7DCF800214FF48030FFF7DA
:1054D000D7F818E0B048844209D101214804FFF709
:1054E000CFF800214FF40030FFF7CAF80BE0AB48CB
:1054F000844208D101218804FFF7C2F800214FF44B
:105500008020FFF7BDF810BD00220288944B98421E
:105510000ED0994B98420BD0B0F1804F08D0914BF0
:10552000984205D0904B984202D0904B984204D1BB
:105530004FF68F731A404B881A438D4B984207D011
:105540008C4B984204D04FF6FF431A40CB881A4345
:1055500002808B8883850B880385814B98420BD012
:10556000854B984208D08B4B984205D08A4B984285
:1055700002D08A4B984201D10B7A038601238382A1
:10558000704770B5002400220023058C4FF6FE768C
:1055900035400584028C8388048B4FF68F752C4030
:1055A000B51E2C400D882C43751E2A400D892A43B8
:1055B0004D882A436A4DA8420BD06F4DA84208D0AF
:1055C000744DA84205D0744DA84202D0734DA84234
:1055D00013D14FF6F7752A404D892A434FF6FB75D4
:1055E0002A408D882A434FF6FF652B404FF6FF5522
:1055F0002B408D892B43CD892B4383800483CD8819
:105600008586028470BD70B5002400220023058CBD
:105610004FF6EF7635400584028C8388048B48F67C
:10562000FF752C404FF6FF452C400D882D0644EAAF
:1056300015444FF6DF752A400D892D0542EA1542C3
:105640004D882D0542EA1542454DA84202D04A4DEB
:10565000A8421BD14FF67F752A404D892D0542EA9D
:1056600015424FF6BF752A408D882D0542EA154236
:105670004FF6FF352B404FF2FF752B408D89AD045F
:1056800043EA1543CD89AD0443EA1543838004837F
:10569000CD880587028470BD70B5002400220023E8
:1056A000058C4FF6FF6635400584028C8388848B19
:1056B0004FF68F752C404FF6FC752C400D882C430F
:1056C0004FF6FF552A400D892D0642EA15424D88B6
:1056D0002D0642EA1542224DA84202D0264DA8428C
:1056E0001BD14FF2FF752A404D892D0642EA154223
:1056F0004FF6FF352A408D882D0642EA15424EF6B8
:10570000FF752B404DF6FF752B408D892D0543EA23
:105710001543CD892D0543EA154383808483CD88C5
:105720008587028470BD70B5002200230024058C9B
:105730004EF6FF7635400584038C8488828B48F6CC
:10574000FF752A404FF6FF452A400D882D0642EA94
:1057500015424DF6FF752B400D892D0720E0000006
:10576000002C01400004004000080040000C0040F4
:10577000001000400014004000340140004C014083
:10578000005001400054014000180040001C00403F
:10579000002000400040014000440140004801401A
:1057A00043EA15434D882D0743EA1543F84DA842B7
:1057B00002D0F84DA84206D14BF6FF752C408D89DA
:1057C000AD0544EA154484808283CD88A0F840501A
:1057D000038470BD828B4FF2FF331A408283828B29
:1057E0000B0642EA134282837047F0B50C46154619
:1057F000002200210026078C4EF6FF7C07EA0C07EA
:105800000784828B018C27073E0C40F6FF473A4005
:105810002F0642EA17421F0742EA1742DC4FB842FE
:105820000ED0DC4FB8420BD0B0F1804F08D0DA4F29
:10583000B84205D0D94FB84202D0D94FB84206D1AC
:105840004DF6FF77394046F48057394305E047F677
:10585000FF57394044F48057394382830184F0BDB7
:10586000828B4FF6F3731A408283828B0A438283C2
:105870007047F0B50C461546002200210026078C23
:105880004FF6FF6C07EA0C070784828B018C270612
:105890003E0C4FF60C773A401F0545EA17473A434E
:1058A000BB4FB8420ED0BB4FB8420BD0B0F1804FC7
:1058B00008D0B94FB84205D0B84FB84202D0B84F5F
:1058C000B84206D14FF6FF57394046F48077394346
:1058D00005E04FF2FF57394044F480773943828323
:1058E0000184F0BD028B4FF2FF331A400283028B1A
:1058F0000B0642EA134202837047F0B50C46154688
:10590000002200210026078C4FF6EF7C07EA0C07E7
:105910000784028B018C27053E0C40F6FF473A4076
:105920001F0742EA17422F0642EA1742984FB84231
:105930000ED0984FB8420BD0B0F1804F08D0964FA0
:10594000B84205D0954FB84202D0954FB84206D123
:105950004FF6DF77394046F01007394305E04FF640
:105960005F77394044F01007394302830184F0BD6A
:10597000028B4FF6F3731A400283028B0A430283B1
:105980007047F0B50C46154600220021068C4FF6F4
:10599000FE773E400684028B018C4FF60C76324037
:1059A0001E0545EA16463243794EB0420ED0794E76
:1059B000B0420BD0B0F1804F08D0774EB04205D046
:1059C000764EB04202D0764EB04206D14FF6FD760A
:1059D000314044F00106314305E04FF6F5763140A1
:1059E00044F00106314302830184F0BD70B50546E1
:1059F0000C46674885420ED0664885420BD0B5F10B
:105A0000804F08D06448854205D06448854202D062
:105A10006348854200D100E000BF208850B9238947
:105A2000A28861882846FFF7ACFFE1882846FFF787
:105A30009FFF25E0208804280AD12389A288618855
:105A40002846FFF75AFFE1882846FFF74BFF17E08B
:105A5000208808280AD12389A28861882846FFF770
:105A600008FFE1882846FFF7FBFE09E02389A288AA
:105A700061882846FFF7B9FEE1882846FFF7AAFEAD
:105A800070BD2DE9F04105460C46002601276088CF
:105A900008B9022600E00026A088012801D10227CB
:105AA00000E001272088A0B92389A28861882846C0
:105AB000FFF767FFE1882846FFF75AFF23893A4638
:105AC00031462846FFF719FFE1882846FFF70AFF0D
:105AD00013E02389A28861882846FFF70EFFE1883A
